{"abi":[{"inputs":[{"internalType":"uint256","name":"min_val","type":"uint256"},{"internalType":"uint256","name":"threshold","type":"uint256"},{"internalType":"address","name":"creator","type":"address"}],"stateMutability":"nonpayable","type":"constructor"},{"inputs":[{"internalType":"uint256","name":"req_number","type":"uint256"},{"internalType":"bool","name":"isApproved","type":"bool"}],"name":"approveRequest","outputs":[],"stateMutability":"nonpayable","type":"function"},{"inputs":[{"internalType":"uint256","name":"req_number","type":"uint256"}],"name":"checkApproval","outputs":[],"stateMutability":"nonpayable","type":"function"},{"inputs":[],"name":"contribute","outputs":[],"stateMutability":"payable","type":"function"},{"inputs":[{"internalType":"string","name":"description","type":"string"},{"internalType":"uint256","name":"value","type":"uint256"},{"internalType":"address","name":"recipient","type":"address"}],"name":"createRequest","outputs":[],"stateMutability":"nonpayable","type":"function"},{"inputs":[],"name":"manager","outputs":[{"internalType":"address","name":"","type":"address"}],"stateMutability":"view","type":"function"},{"inputs":[],"name":"minContribution","outputs":[{"internalType":"uint256","name":"","type":"uint256"}],"stateMutability":"view","type":"function"}],"devdoc":{"kind":"dev","methods":{},"version":1},"evm":{"assembly":"    /* \"campaign.sol\":634:3744  contract campaign{\r... */\n  mstore(0x40, 0x80)\n    /* \"campaign.sol\":1464:1689  constructor(uint min_val,uint threshold, address creator) {\r... */\n  callvalue\n  dup1\n  iszero\n  tag_1\n  jumpi\n  0x00\n  dup1\n  revert\ntag_1:\n  pop\n  mload(0x40)\n  sub(codesize, bytecodeSize)\n  dup1\n  bytecodeSize\n  dup4\n  codecopy\n  dup2\n  dup2\n  add\n  0x40\n  mstore\n  dup2\n  add\n  swap1\n  tag_2\n  swap2\n  swap1\n  tag_3\n  jump\t// in\ntag_2:\n    /* \"campaign.sol\":1543:1550  creator */\n  dup1\n    /* \"campaign.sol\":1533:1540  manager */\n  0x00\n  dup1\n    /* \"campaign.sol\":1533:1550  manager = creator */\n  0x0100\n  exp\n  dup2\n  sload\n  dup2\n  0xffffffffffffffffffffffffffffffffffffffff\n  mul\n  not\n  and\n  swap1\n  dup4\n  0xffffffffffffffffffffffffffffffffffffffff\n  and\n  mul\n  or\n  swap1\n  sstore\n  pop\n    /* \"campaign.sol\":1579:1586  min_val */\n  dup3\n    /* \"campaign.sol\":1561:1576  minContribution */\n  0x01\n    /* \"campaign.sol\":1561:1586  minContribution = min_val */\n  dup2\n  swap1\n  sstore\n  pop\n    /* \"campaign.sol\":1616:1625  threshold */\n  dup2\n    /* \"campaign.sol\":1597:1613  approveThreshlod */\n  0x04\n    /* \"campaign.sol\":1597:1625  approveThreshlod = threshold */\n  dup2\n  swap1\n  sstore\n  pop\n    /* \"campaign.sol\":1648:1649  0 */\n  0x00\n    /* \"campaign.sol\":1636:1645  reqNumber */\n  0x03\n    /* \"campaign.sol\":1636:1649  reqNumber = 0 */\n  dup2\n  swap1\n  sstore\n  pop\n    /* \"campaign.sol\":1680:1681  0 */\n  0x00\n    /* \"campaign.sol\":1660:1677  numberOfApprovers */\n  0x05\n    /* \"campaign.sol\":1660:1681  numberOfApprovers = 0 */\n  dup2\n  swap1\n  sstore\n  pop\n    /* \"campaign.sol\":1464:1689  constructor(uint min_val,uint threshold, address creator) {\r... */\n  pop\n  pop\n  pop\n    /* \"campaign.sol\":634:3744  contract campaign{\r... */\n  jump(tag_6)\n    /* \"#utility.yul\":7:150   */\ntag_8:\n  0x00\n    /* \"#utility.yul\":95:101   */\n  dup2\n    /* \"#utility.yul\":89:102   */\n  mload\n    /* \"#utility.yul\":80:102   */\n  swap1\n  pop\n    /* \"#utility.yul\":111:144   */\n  tag_10\n    /* \"#utility.yul\":138:143   */\n  dup2\n    /* \"#utility.yul\":111:144   */\n  tag_11\n  jump\t// in\ntag_10:\n    /* \"#utility.yul\":70:150   */\n  swap3\n  swap2\n  pop\n  pop\n  jump\t// out\n    /* \"#utility.yul\":156:299   */\ntag_12:\n  0x00\n    /* \"#utility.yul\":244:250   */\n  dup2\n    /* \"#utility.yul\":238:251   */\n  mload\n    /* \"#utility.yul\":229:251   */\n  swap1\n  pop\n    /* \"#utility.yul\":260:293   */\n  tag_14\n    /* \"#utility.yul\":287:292   */\n  dup2\n    /* \"#utility.yul\":260:293   */\n  tag_15\n  jump\t// in\ntag_14:\n    /* \"#utility.yul\":219:299   */\n  swap3\n  swap2\n  pop\n  pop\n  jump\t// out\n    /* \"#utility.yul\":305:901   */\ntag_3:\n  0x00\n  dup1\n  0x00\n    /* \"#utility.yul\":458:460   */\n  0x60\n    /* \"#utility.yul\":446:455   */\n  dup5\n    /* \"#utility.yul\":437:444   */\n  dup7\n    /* \"#utility.yul\":433:456   */\n  sub\n    /* \"#utility.yul\":429:461   */\n  slt\n    /* \"#utility.yul\":426:428   */\n  iszero\n  tag_17\n  jumpi\n    /* \"#utility.yul\":474:475   */\n  0x00\n    /* \"#utility.yul\":471:472   */\n  dup1\n    /* \"#utility.yul\":464:476   */\n  revert\n    /* \"#utility.yul\":426:428   */\ntag_17:\n    /* \"#utility.yul\":517:518   */\n  0x00\n    /* \"#utility.yul\":542:606   */\n  tag_18\n    /* \"#utility.yul\":598:605   */\n  dup7\n    /* \"#utility.yul\":589:595   */\n  dup3\n    /* \"#utility.yul\":578:587   */\n  dup8\n    /* \"#utility.yul\":574:596   */\n  add\n    /* \"#utility.yul\":542:606   */\n  tag_12\n  jump\t// in\ntag_18:\n    /* \"#utility.yul\":532:606   */\n  swap4\n  pop\n    /* \"#utility.yul\":488:616   */\n  pop\n    /* \"#utility.yul\":655:657   */\n  0x20\n    /* \"#utility.yul\":681:745   */\n  tag_19\n    /* \"#utility.yul\":737:744   */\n  dup7\n    /* \"#utility.yul\":728:734   */\n  dup3\n    /* \"#utility.yul\":717:726   */\n  dup8\n    /* \"#utility.yul\":713:735   */\n  add\n    /* \"#utility.yul\":681:745   */\n  tag_12\n  jump\t// in\ntag_19:\n    /* \"#utility.yul\":671:745   */\n  swap3\n  pop\n    /* \"#utility.yul\":626:755   */\n  pop\n    /* \"#utility.yul\":794:796   */\n  0x40\n    /* \"#utility.yul\":820:884   */\n  tag_20\n    /* \"#utility.yul\":876:883   */\n  dup7\n    /* \"#utility.yul\":867:873   */\n  dup3\n    /* \"#utility.yul\":856:865   */\n  dup8\n    /* \"#utility.yul\":852:874   */\n  add\n    /* \"#utility.yul\":820:884   */\n  tag_8\n  jump\t// in\ntag_20:\n    /* \"#utility.yul\":810:884   */\n  swap2\n  pop\n    /* \"#utility.yul\":765:894   */\n  pop\n    /* \"#utility.yul\":416:901   */\n  swap3\n  pop\n  swap3\n  pop\n  swap3\n  jump\t// out\n    /* \"#utility.yul\":907:1003   */\ntag_21:\n  0x00\n    /* \"#utility.yul\":973:997   */\n  tag_23\n    /* \"#utility.yul\":991:996   */\n  dup3\n    /* \"#utility.yul\":973:997   */\n  tag_24\n  jump\t// in\ntag_23:\n    /* \"#utility.yul\":962:997   */\n  swap1\n  pop\n    /* \"#utility.yul\":952:1003   */\n  swap2\n  swap1\n  pop\n  jump\t// out\n    /* \"#utility.yul\":1009:1135   */\ntag_24:\n  0x00\n    /* \"#utility.yul\":1086:1128   */\n  0xffffffffffffffffffffffffffffffffffffffff\n    /* \"#utility.yul\":1079:1084   */\n  dup3\n    /* \"#utility.yul\":1075:1129   */\n  and\n    /* \"#utility.yul\":1064:1129   */\n  swap1\n  pop\n    /* \"#utility.yul\":1054:1135   */\n  swap2\n  swap1\n  pop\n  jump\t// out\n    /* \"#utility.yul\":1141:1218   */\ntag_26:\n  0x00\n    /* \"#utility.yul\":1207:1212   */\n  dup2\n    /* \"#utility.yul\":1196:1212   */\n  swap1\n  pop\n    /* \"#utility.yul\":1186:1218   */\n  swap2\n  swap1\n  pop\n  jump\t// out\n    /* \"#utility.yul\":1224:1346   */\ntag_11:\n    /* \"#utility.yul\":1297:1321   */\n  tag_29\n    /* \"#utility.yul\":1315:1320   */\n  dup2\n    /* \"#utility.yul\":1297:1321   */\n  tag_21\n  jump\t// in\ntag_29:\n    /* \"#utility.yul\":1290:1295   */\n  dup2\n    /* \"#utility.yul\":1287:1322   */\n  eq\n    /* \"#utility.yul\":1277:1279   */\n  tag_30\n  jumpi\n    /* \"#utility.yul\":1336:1337   */\n  0x00\n    /* \"#utility.yul\":1333:1334   */\n  dup1\n    /* \"#utility.yul\":1326:1338   */\n  revert\n    /* \"#utility.yul\":1277:1279   */\ntag_30:\n    /* \"#utility.yul\":1267:1346   */\n  pop\n  jump\t// out\n    /* \"#utility.yul\":1352:1474   */\ntag_15:\n    /* \"#utility.yul\":1425:1449   */\n  tag_32\n    /* \"#utility.yul\":1443:1448   */\n  dup2\n    /* \"#utility.yul\":1425:1449   */\n  tag_26\n  jump\t// in\ntag_32:\n    /* \"#utility.yul\":1418:1423   */\n  dup2\n    /* \"#utility.yul\":1415:1450   */\n  eq\n    /* \"#utility.yul\":1405:1407   */\n  tag_33\n  jumpi\n    /* \"#utility.yul\":1464:1465   */\n  0x00\n    /* \"#utility.yul\":1461:1462   */\n  dup1\n    /* \"#utility.yul\":1454:1466   */\n  revert\n    /* \"#utility.yul\":1405:1407   */\ntag_33:\n    /* \"#utility.yul\":1395:1474   */\n  pop\n  jump\t// out\n    /* \"campaign.sol\":634:3744  contract campaign{\r... */\ntag_6:\n  dataSize(sub_0)\n  dup1\n  dataOffset(sub_0)\n  0x00\n  codecopy\n  0x00\n  return\nstop\n\nsub_0: assembly {\n        /* \"campaign.sol\":634:3744  contract campaign{\r... */\n      mstore(0x40, 0x80)\n      jumpi(tag_1, lt(calldatasize, 0x04))\n      shr(0xe0, calldataload(0x00))\n      dup1\n      0x481c6a75\n      eq\n      tag_2\n      jumpi\n      dup1\n      0x767e0b9c\n      eq\n      tag_3\n      jumpi\n      dup1\n      0x8a9cfd55\n      eq\n      tag_4\n      jumpi\n      dup1\n      0xaaffadf3\n      eq\n      tag_5\n      jumpi\n      dup1\n      0xd7bb99ba\n      eq\n      tag_6\n      jumpi\n      dup1\n      0xfea21ce5\n      eq\n      tag_7\n      jumpi\n    tag_1:\n      0x00\n      dup1\n      revert\n        /* \"campaign.sol\":658:680  address public manager */\n    tag_2:\n      callvalue\n      dup1\n      iszero\n      tag_8\n      jumpi\n      0x00\n      dup1\n      revert\n    tag_8:\n      pop\n      tag_9\n      tag_10\n      jump\t// in\n    tag_9:\n      mload(0x40)\n      tag_11\n      swap2\n      swap1\n      tag_12\n      jump\t// in\n    tag_11:\n      mload(0x40)\n      dup1\n      swap2\n      sub\n      swap1\n      return\n        /* \"campaign.sol\":2376:3022  function approveRequest(uint req_number, bool isApproved) public{\r... */\n    tag_3:\n      callvalue\n      dup1\n      iszero\n      tag_13\n      jumpi\n      0x00\n      dup1\n      revert\n    tag_13:\n      pop\n      tag_14\n      0x04\n      dup1\n      calldatasize\n      sub\n      dup2\n      add\n      swap1\n      tag_15\n      swap2\n      swap1\n      tag_16\n      jump\t// in\n    tag_15:\n      tag_17\n      jump\t// in\n    tag_14:\n      stop\n        /* \"campaign.sol\":1892:2370  function createRequest(string memory description , uint value, address recipient) public restricted{\r... */\n    tag_4:\n      callvalue\n      dup1\n      iszero\n      tag_18\n      jumpi\n      0x00\n      dup1\n      revert\n    tag_18:\n      pop\n      tag_19\n      0x04\n      dup1\n      calldatasize\n      sub\n      dup2\n      add\n      swap1\n      tag_20\n      swap2\n      swap1\n      tag_21\n      jump\t// in\n    tag_20:\n      tag_22\n      jump\t// in\n    tag_19:\n      stop\n        /* \"campaign.sol\":687:714  uint public minContribution */\n    tag_5:\n      callvalue\n      dup1\n      iszero\n      tag_23\n      jumpi\n      0x00\n      dup1\n      revert\n    tag_23:\n      pop\n      tag_24\n      tag_25\n      jump\t// in\n    tag_24:\n      mload(0x40)\n      tag_26\n      swap2\n      swap1\n      tag_27\n      jump\t// in\n    tag_26:\n      mload(0x40)\n      dup1\n      swap2\n      sub\n      swap1\n      return\n        /* \"campaign.sol\":1701:1879  function contribute() public payable{\r... */\n    tag_6:\n      tag_28\n      tag_29\n      jump\t// in\n    tag_28:\n      stop\n        /* \"campaign.sol\":3028:3735  function checkApproval(uint req_number) public restricted{\r... */\n    tag_7:\n      callvalue\n      dup1\n      iszero\n      tag_30\n      jumpi\n      0x00\n      dup1\n      revert\n    tag_30:\n      pop\n      tag_31\n      0x04\n      dup1\n      calldatasize\n      sub\n      dup2\n      add\n      swap1\n      tag_32\n      swap2\n      swap1\n      tag_33\n      jump\t// in\n    tag_32:\n      tag_34\n      jump\t// in\n    tag_31:\n      stop\n        /* \"campaign.sol\":658:680  address public manager */\n    tag_10:\n      0x00\n      dup1\n      sload\n      swap1\n      0x0100\n      exp\n      swap1\n      div\n      0xffffffffffffffffffffffffffffffffffffffff\n      and\n      dup2\n      jump\t// out\n        /* \"campaign.sol\":2376:3022  function approveRequest(uint req_number, bool isApproved) public{\r... */\n    tag_17:\n        /* \"campaign.sol\":2636:2655  request storage req */\n      0x00\n        /* \"campaign.sol\":2658:2666  requests */\n      0x06\n        /* \"campaign.sol\":2658:2680  requests[req_number-1] */\n      0x00\n        /* \"campaign.sol\":2678:2679  1 */\n      0x01\n        /* \"campaign.sol\":2667:2677  req_number */\n      dup6\n        /* \"campaign.sol\":2667:2679  req_number-1 */\n      tag_36\n      swap2\n      swap1\n      tag_37\n      jump\t// in\n    tag_36:\n        /* \"campaign.sol\":2658:2680  requests[req_number-1] */\n      dup2\n      mstore\n      0x20\n      add\n      swap1\n      dup2\n      mstore\n      0x20\n      add\n      0x00\n      keccak256\n        /* \"campaign.sol\":2636:2680  request storage req = requests[req_number-1] */\n      swap1\n      pop\n        /* \"campaign.sol\":2700:2703  req */\n      dup1\n        /* \"campaign.sol\":2700:2715  req.isProcessed */\n      0x05\n      add\n      0x00\n      swap1\n      sload\n      swap1\n      0x0100\n      exp\n      swap1\n      div\n      0xff\n      and\n        /* \"campaign.sol\":2699:2715  !req.isProcessed */\n      iszero\n        /* \"campaign.sol\":2691:2716  require(!req.isProcessed) */\n      tag_38\n      jumpi\n      0x00\n      dup1\n      revert\n    tag_38:\n        /* \"campaign.sol\":2761:2762  0 */\n      0x00\n        /* \"campaign.sol\":2736:2739  req */\n      dup2\n        /* \"campaign.sol\":2736:2745  req.state */\n      0x06\n      add\n        /* \"campaign.sol\":2736:2757  req.state[msg.sender] */\n      0x00\n        /* \"campaign.sol\":2746:2756  msg.sender */\n      caller\n        /* \"campaign.sol\":2736:2757  req.state[msg.sender] */\n      0xffffffffffffffffffffffffffffffffffffffff\n      and\n      0xffffffffffffffffffffffffffffffffffffffff\n      and\n      dup2\n      mstore\n      0x20\n      add\n      swap1\n      dup2\n      mstore\n      0x20\n      add\n      0x00\n      keccak256\n      sload\n        /* \"campaign.sol\":2736:2762  req.state[msg.sender] == 0 */\n      eq\n        /* \"campaign.sol\":2727:2764  require((req.state[msg.sender] == 0)) */\n      tag_39\n      jumpi\n      0x00\n      dup1\n      revert\n    tag_39:\n        /* \"campaign.sol\":2887:2897  isApproved */\n      dup2\n        /* \"campaign.sol\":2883:2979  if(!isApproved){\r... */\n      tag_40\n      jumpi\n        /* \"campaign.sol\":2926:2927  1 */\n      0x01\n        /* \"campaign.sol\":2913:2916  req */\n      dup2\n        /* \"campaign.sol\":2913:2924  req.denials */\n      0x04\n      add\n      0x00\n        /* \"campaign.sol\":2913:2927  req.denials+=1 */\n      dup3\n      dup3\n      sload\n      tag_41\n      swap2\n      swap1\n      tag_42\n      jump\t// in\n    tag_41:\n      swap3\n      pop\n      pop\n      dup2\n      swap1\n      sstore\n      pop\n        /* \"campaign.sol\":2966:2967  2 */\n      0x02\n        /* \"campaign.sol\":2942:2945  req */\n      dup2\n        /* \"campaign.sol\":2942:2951  req.state */\n      0x06\n      add\n        /* \"campaign.sol\":2942:2963  req.state[msg.sender] */\n      0x00\n        /* \"campaign.sol\":2952:2962  msg.sender */\n      caller\n        /* \"campaign.sol\":2942:2963  req.state[msg.sender] */\n      0xffffffffffffffffffffffffffffffffffffffff\n      and\n      0xffffffffffffffffffffffffffffffffffffffff\n      and\n      dup2\n      mstore\n      0x20\n      add\n      swap1\n      dup2\n      mstore\n      0x20\n      add\n      0x00\n      keccak256\n        /* \"campaign.sol\":2942:2967  req.state[msg.sender] = 2 */\n      dup2\n      swap1\n      sstore\n      pop\n        /* \"campaign.sol\":2883:2979  if(!isApproved){\r... */\n    tag_40:\n        /* \"campaign.sol\":3013:3014  1 */\n      0x01\n        /* \"campaign.sol\":2989:2992  req */\n      dup2\n        /* \"campaign.sol\":2989:2998  req.state */\n      0x06\n      add\n        /* \"campaign.sol\":2989:3010  req.state[msg.sender] */\n      0x00\n        /* \"campaign.sol\":2999:3009  msg.sender */\n      caller\n        /* \"campaign.sol\":2989:3010  req.state[msg.sender] */\n      0xffffffffffffffffffffffffffffffffffffffff\n      and\n      0xffffffffffffffffffffffffffffffffffffffff\n      and\n      dup2\n      mstore\n      0x20\n      add\n      swap1\n      dup2\n      mstore\n      0x20\n      add\n      0x00\n      keccak256\n        /* \"campaign.sol\":2989:3014  req.state[msg.sender] = 1 */\n      dup2\n      swap1\n      sstore\n      pop\n        /* \"campaign.sol\":2376:3022  function approveRequest(uint req_number, bool isApproved) public{\r... */\n      pop\n      pop\n      pop\n      jump\t// out\n        /* \"campaign.sol\":1892:2370  function createRequest(string memory description , uint value, address recipient) public restricted{\r... */\n    tag_22:\n        /* \"campaign.sol\":1424:1431  manager */\n      0x00\n      dup1\n      sload\n      swap1\n      0x0100\n      exp\n      swap1\n      div\n      0xffffffffffffffffffffffffffffffffffffffff\n      and\n        /* \"campaign.sol\":1410:1431  msg.sender == manager */\n      0xffffffffffffffffffffffffffffffffffffffff\n      and\n        /* \"campaign.sol\":1410:1420  msg.sender */\n      caller\n        /* \"campaign.sol\":1410:1431  msg.sender == manager */\n      0xffffffffffffffffffffffffffffffffffffffff\n      and\n      eq\n        /* \"campaign.sol\":1402:1432  require(msg.sender == manager) */\n      tag_44\n      jumpi\n      0x00\n      dup1\n      revert\n    tag_44:\n        /* \"campaign.sol\":2002:2011  reqNumber */\n      0x03\n      0x00\n        /* \"campaign.sol\":2002:2013  reqNumber++ */\n      dup2\n      sload\n      dup1\n      swap3\n      swap2\n      swap1\n      tag_46\n      swap1\n      tag_47\n      jump\t// in\n    tag_46:\n      swap2\n      swap1\n      pop\n      sstore\n      pop\n        /* \"campaign.sol\":2046:2065  request storage req */\n      0x00\n        /* \"campaign.sol\":2068:2076  requests */\n      0x06\n        /* \"campaign.sol\":2068:2089  requests[reqNumber++] */\n      0x00\n        /* \"campaign.sol\":2077:2086  reqNumber */\n      0x03\n      0x00\n        /* \"campaign.sol\":2077:2088  reqNumber++ */\n      dup2\n      sload\n      dup1\n      swap3\n      swap2\n      swap1\n      tag_48\n      swap1\n      tag_47\n      jump\t// in\n    tag_48:\n      swap2\n      swap1\n      pop\n      sstore\n        /* \"campaign.sol\":2068:2089  requests[reqNumber++] */\n      dup2\n      mstore\n      0x20\n      add\n      swap1\n      dup2\n      mstore\n      0x20\n      add\n      0x00\n      keccak256\n        /* \"campaign.sol\":2046:2089  request storage req = requests[reqNumber++] */\n      swap1\n      pop\n        /* \"campaign.sol\":2118:2129  description */\n      dup4\n        /* \"campaign.sol\":2100:2103  req */\n      dup2\n        /* \"campaign.sol\":2100:2115  req.description */\n      0x02\n      add\n        /* \"campaign.sol\":2100:2129  req.description = description */\n      swap1\n      dup1\n      mload\n      swap1\n      0x20\n      add\n      swap1\n      tag_49\n      swap3\n      swap2\n      swap1\n      tag_50\n      jump\t// in\n    tag_49:\n      pop\n        /* \"campaign.sol\":2152:2157  value */\n      dup3\n        /* \"campaign.sol\":2140:2143  req */\n      dup2\n        /* \"campaign.sol\":2140:2149  req.value */\n      0x00\n      add\n        /* \"campaign.sol\":2140:2157  req.value = value */\n      dup2\n      swap1\n      sstore\n      pop\n        /* \"campaign.sol\":2184:2193  recipient */\n      dup2\n        /* \"campaign.sol\":2168:2171  req */\n      dup2\n        /* \"campaign.sol\":2168:2181  req.recipient */\n      0x01\n      add\n      0x00\n        /* \"campaign.sol\":2168:2193  req.recipient = recipient */\n      0x0100\n      exp\n      dup2\n      sload\n      dup2\n      0xffffffffffffffffffffffffffffffffffffffff\n      mul\n      not\n      and\n      swap1\n      dup4\n      0xffffffffffffffffffffffffffffffffffffffff\n      and\n      mul\n      or\n      swap1\n      sstore\n      pop\n        /* \"campaign.sol\":2216:2225  reqNumber */\n      sload(0x03)\n        /* \"campaign.sol\":2204:2207  req */\n      dup2\n        /* \"campaign.sol\":2204:2213  req.index */\n      0x03\n      add\n        /* \"campaign.sol\":2204:2225  req.index = reqNumber */\n      dup2\n      swap1\n      sstore\n      pop\n        /* \"campaign.sol\":2254:2259  false */\n      0x00\n        /* \"campaign.sol\":2236:2239  req */\n      dup2\n        /* \"campaign.sol\":2236:2251  req.isProcessed */\n      0x05\n      add\n      0x00\n        /* \"campaign.sol\":2236:2259  req.isProcessed = false */\n      0x0100\n      exp\n      dup2\n      sload\n      dup2\n      0xff\n      mul\n      not\n      and\n      swap1\n      dup4\n      iszero\n      iszero\n      mul\n      or\n      swap1\n      sstore\n      pop\n        /* \"campaign.sol\":2284:2285  0 */\n      0x00\n        /* \"campaign.sol\":2270:2273  req */\n      dup2\n        /* \"campaign.sol\":2270:2281  req.denials */\n      0x04\n      add\n        /* \"campaign.sol\":2270:2285  req.denials = 0 */\n      dup2\n      swap1\n      sstore\n      pop\n        /* \"campaign.sol\":2311:2316  false */\n      0x00\n        /* \"campaign.sol\":2296:2299  req */\n      dup2\n        /* \"campaign.sol\":2296:2308  req.approved */\n      0x05\n      add\n      0x01\n        /* \"campaign.sol\":2296:2316  req.approved = false */\n      0x0100\n      exp\n      dup2\n      sload\n      dup2\n      0xff\n      mul\n      not\n      and\n      swap1\n      dup4\n      iszero\n      iszero\n      mul\n      or\n      swap1\n      sstore\n      pop\n        /* \"campaign.sol\":2347:2352  false */\n      0x00\n        /* \"campaign.sol\":2327:2330  req */\n      dup2\n        /* \"campaign.sol\":2327:2344  req.isTransferred */\n      0x05\n      add\n      0x02\n        /* \"campaign.sol\":2327:2352  req.isTransferred = false */\n      0x0100\n      exp\n      dup2\n      sload\n      dup2\n      0xff\n      mul\n      not\n      and\n      swap1\n      dup4\n      iszero\n      iszero\n      mul\n      or\n      swap1\n      sstore\n      pop\n        /* \"campaign.sol\":1443:1444  _ */\n      pop\n        /* \"campaign.sol\":1892:2370  function createRequest(string memory description , uint value, address recipient) public restricted{\r... */\n      pop\n      pop\n      pop\n      jump\t// out\n        /* \"campaign.sol\":687:714  uint public minContribution */\n    tag_25:\n      sload(0x01)\n      dup2\n      jump\t// out\n        /* \"campaign.sol\":1701:1879  function contribute() public payable{\r... */\n    tag_29:\n        /* \"campaign.sol\":1769:1784  minContribution */\n      sload(0x01)\n        /* \"campaign.sol\":1756:1765  msg.value */\n      callvalue\n        /* \"campaign.sol\":1756:1784  msg.value >= minContribution */\n      lt\n      iszero\n        /* \"campaign.sol\":1748:1785  require(msg.value >= minContribution) */\n      tag_52\n      jumpi\n      0x00\n      dup1\n      revert\n    tag_52:\n        /* \"campaign.sol\":1831:1840  msg.value */\n      callvalue\n        /* \"campaign.sol\":1796:1805  approvers */\n      0x02\n        /* \"campaign.sol\":1796:1817  approvers[msg.sender] */\n      0x00\n        /* \"campaign.sol\":1806:1816  msg.sender */\n      caller\n        /* \"campaign.sol\":1796:1817  approvers[msg.sender] */\n      0xffffffffffffffffffffffffffffffffffffffff\n      and\n      0xffffffffffffffffffffffffffffffffffffffff\n      and\n      dup2\n      mstore\n      0x20\n      add\n      swap1\n      dup2\n      mstore\n      0x20\n      add\n      0x00\n      keccak256\n        /* \"campaign.sol\":1796:1828  approvers[msg.sender].stakeValue */\n      0x00\n      add\n        /* \"campaign.sol\":1796:1840  approvers[msg.sender].stakeValue = msg.value */\n      dup2\n      swap1\n      sstore\n      pop\n        /* \"campaign.sol\":1870:1871  1 */\n      0x01\n        /* \"campaign.sol\":1851:1868  numberOfApprovers */\n      0x05\n      0x00\n        /* \"campaign.sol\":1851:1871  numberOfApprovers+=1 */\n      dup3\n      dup3\n      sload\n      tag_53\n      swap2\n      swap1\n      tag_42\n      jump\t// in\n    tag_53:\n      swap3\n      pop\n      pop\n      dup2\n      swap1\n      sstore\n      pop\n        /* \"campaign.sol\":1701:1879  function contribute() public payable{\r... */\n      jump\t// out\n        /* \"campaign.sol\":3028:3735  function checkApproval(uint req_number) public restricted{\r... */\n    tag_34:\n        /* \"campaign.sol\":1424:1431  manager */\n      0x00\n      dup1\n      sload\n      swap1\n      0x0100\n      exp\n      swap1\n      div\n      0xffffffffffffffffffffffffffffffffffffffff\n      and\n        /* \"campaign.sol\":1410:1431  msg.sender == manager */\n      0xffffffffffffffffffffffffffffffffffffffff\n      and\n        /* \"campaign.sol\":1410:1420  msg.sender */\n      caller\n        /* \"campaign.sol\":1410:1431  msg.sender == manager */\n      0xffffffffffffffffffffffffffffffffffffffff\n      and\n      eq\n        /* \"campaign.sol\":1402:1432  require(msg.sender == manager) */\n      tag_55\n      jumpi\n      0x00\n      dup1\n      revert\n    tag_55:\n        /* \"campaign.sol\":3310:3329  request storage req */\n      0x00\n        /* \"campaign.sol\":3332:3340  requests */\n      0x06\n        /* \"campaign.sol\":3332:3356  requests[req_number - 1] */\n      0x00\n        /* \"campaign.sol\":3354:3355  1 */\n      0x01\n        /* \"campaign.sol\":3341:3351  req_number */\n      dup5\n        /* \"campaign.sol\":3341:3355  req_number - 1 */\n      tag_57\n      swap2\n      swap1\n      tag_37\n      jump\t// in\n    tag_57:\n        /* \"campaign.sol\":3332:3356  requests[req_number - 1] */\n      dup2\n      mstore\n      0x20\n      add\n      swap1\n      dup2\n      mstore\n      0x20\n      add\n      0x00\n      keccak256\n        /* \"campaign.sol\":3310:3356  request storage req = requests[req_number - 1] */\n      swap1\n      pop\n        /* \"campaign.sol\":3418:3421  req */\n      dup1\n        /* \"campaign.sol\":3418:3433  req.isProcessed */\n      0x05\n      add\n      0x00\n      swap1\n      sload\n      swap1\n      0x0100\n      exp\n      swap1\n      div\n      0xff\n      and\n        /* \"campaign.sol\":3417:3433  !req.isProcessed */\n      iszero\n        /* \"campaign.sol\":3409:3434  require(!req.isProcessed) */\n      tag_58\n      jumpi\n      0x00\n      dup1\n      revert\n    tag_58:\n        /* \"campaign.sol\":3445:3455  uint total */\n      0x00\n        /* \"campaign.sol\":3458:3475  numberOfApprovers */\n      sload(0x05)\n        /* \"campaign.sol\":3445:3475  uint total = numberOfApprovers */\n      swap1\n      pop\n        /* \"campaign.sol\":3486:3497  uint denied */\n      0x00\n        /* \"campaign.sol\":3500:3503  req */\n      dup3\n        /* \"campaign.sol\":3500:3511  req.denials */\n      0x04\n      add\n      sload\n        /* \"campaign.sol\":3486:3511  uint denied = req.denials */\n      swap1\n      pop\n        /* \"campaign.sol\":3522:3537  uint percentage */\n      0x00\n        /* \"campaign.sol\":3553:3558  total */\n      dup3\n        /* \"campaign.sol\":3548:3551  100 */\n      0x64\n        /* \"campaign.sol\":3541:3547  denied */\n      dup4\n        /* \"campaign.sol\":3541:3551  denied*100 */\n      tag_59\n      swap2\n      swap1\n      tag_60\n      jump\t// in\n    tag_59:\n        /* \"campaign.sol\":3540:3558  (denied*100)/total */\n      tag_61\n      swap2\n      swap1\n      tag_62\n      jump\t// in\n    tag_61:\n        /* \"campaign.sol\":3522:3558  uint percentage = (denied*100)/total */\n      swap1\n      pop\n        /* \"campaign.sol\":3587:3591  true */\n      0x01\n        /* \"campaign.sol\":3569:3572  req */\n      dup5\n        /* \"campaign.sol\":3569:3584  req.isProcessed */\n      0x05\n      add\n      0x00\n        /* \"campaign.sol\":3569:3591  req.isProcessed = true */\n      0x0100\n      exp\n      dup2\n      sload\n      dup2\n      0xff\n      mul\n      not\n      and\n      swap1\n      dup4\n      iszero\n      iszero\n      mul\n      or\n      swap1\n      sstore\n      pop\n        /* \"campaign.sol\":3619:3635  approveThreshlod */\n      sload(0x04)\n        /* \"campaign.sol\":3605:3615  percentage */\n      dup2\n        /* \"campaign.sol\":3605:3635  percentage >= approveThreshlod */\n      lt\n        /* \"campaign.sol\":3602:3682  if(percentage >= approveThreshlod){\r... */\n      tag_63\n      jumpi\n        /* \"campaign.sol\":3666:3670  true */\n      0x01\n        /* \"campaign.sol\":3651:3654  req */\n      dup5\n        /* \"campaign.sol\":3651:3663  req.approved */\n      0x05\n      add\n      0x01\n        /* \"campaign.sol\":3651:3670  req.approved = true */\n      0x0100\n      exp\n      dup2\n      sload\n      dup2\n      0xff\n      mul\n      not\n      and\n      swap1\n      dup4\n      iszero\n      iszero\n      mul\n      or\n      swap1\n      sstore\n      pop\n        /* \"campaign.sol\":3602:3682  if(percentage >= approveThreshlod){\r... */\n    tag_63:\n        /* \"campaign.sol\":1443:1444  _ */\n      pop\n      pop\n      pop\n      pop\n        /* \"campaign.sol\":3028:3735  function checkApproval(uint req_number) public restricted{\r... */\n      pop\n      jump\t// out\n    tag_50:\n      dup3\n      dup1\n      sload\n      tag_64\n      swap1\n      tag_65\n      jump\t// in\n    tag_64:\n      swap1\n      0x00\n      mstore\n      keccak256(0x00, 0x20)\n      swap1\n      0x1f\n      add\n      0x20\n      swap1\n      div\n      dup2\n      add\n      swap3\n      dup3\n      tag_67\n      jumpi\n      0x00\n      dup6\n      sstore\n      jump(tag_66)\n    tag_67:\n      dup3\n      0x1f\n      lt\n      tag_68\n      jumpi\n      dup1\n      mload\n      not(0xff)\n      and\n      dup4\n      dup1\n      add\n      or\n      dup6\n      sstore\n      jump(tag_66)\n    tag_68:\n      dup3\n      dup1\n      add\n      0x01\n      add\n      dup6\n      sstore\n      dup3\n      iszero\n      tag_66\n      jumpi\n      swap2\n      dup3\n      add\n    tag_69:\n      dup3\n      dup2\n      gt\n      iszero\n      tag_70\n      jumpi\n      dup3\n      mload\n      dup3\n      sstore\n      swap2\n      0x20\n      add\n      swap2\n      swap1\n      0x01\n      add\n      swap1\n      jump(tag_69)\n    tag_70:\n    tag_66:\n      pop\n      swap1\n      pop\n      tag_71\n      swap2\n      swap1\n      tag_72\n      jump\t// in\n    tag_71:\n      pop\n      swap1\n      jump\t// out\n    tag_72:\n    tag_73:\n      dup1\n      dup3\n      gt\n      iszero\n      tag_74\n      jumpi\n      0x00\n      dup2\n      0x00\n      swap1\n      sstore\n      pop\n      0x01\n      add\n      jump(tag_73)\n    tag_74:\n      pop\n      swap1\n      jump\t// out\n        /* \"#utility.yul\":7:351   */\n    tag_76:\n      0x00\n        /* \"#utility.yul\":110:175   */\n      tag_78\n        /* \"#utility.yul\":125:174   */\n      tag_79\n        /* \"#utility.yul\":167:173   */\n      dup5\n        /* \"#utility.yul\":125:174   */\n      tag_80\n      jump\t// in\n    tag_79:\n        /* \"#utility.yul\":110:175   */\n      tag_81\n      jump\t// in\n    tag_78:\n        /* \"#utility.yul\":101:175   */\n      swap1\n      pop\n        /* \"#utility.yul\":198:204   */\n      dup3\n        /* \"#utility.yul\":191:196   */\n      dup2\n        /* \"#utility.yul\":184:205   */\n      mstore\n        /* \"#utility.yul\":236:240   */\n      0x20\n        /* \"#utility.yul\":229:234   */\n      dup2\n        /* \"#utility.yul\":225:241   */\n      add\n        /* \"#utility.yul\":274:277   */\n      dup5\n        /* \"#utility.yul\":265:271   */\n      dup5\n        /* \"#utility.yul\":260:263   */\n      dup5\n        /* \"#utility.yul\":256:272   */\n      add\n        /* \"#utility.yul\":253:278   */\n      gt\n        /* \"#utility.yul\":250:252   */\n      iszero\n      tag_82\n      jumpi\n        /* \"#utility.yul\":291:292   */\n      0x00\n        /* \"#utility.yul\":288:289   */\n      dup1\n        /* \"#utility.yul\":281:293   */\n      revert\n        /* \"#utility.yul\":250:252   */\n    tag_82:\n        /* \"#utility.yul\":304:345   */\n      tag_83\n        /* \"#utility.yul\":338:344   */\n      dup5\n        /* \"#utility.yul\":333:336   */\n      dup3\n        /* \"#utility.yul\":328:331   */\n      dup6\n        /* \"#utility.yul\":304:345   */\n      tag_84\n      jump\t// in\n    tag_83:\n        /* \"#utility.yul\":91:351   */\n      pop\n      swap4\n      swap3\n      pop\n      pop\n      pop\n      jump\t// out\n        /* \"#utility.yul\":357:496   */\n    tag_85:\n      0x00\n        /* \"#utility.yul\":441:447   */\n      dup2\n        /* \"#utility.yul\":428:448   */\n      calldataload\n        /* \"#utility.yul\":419:448   */\n      swap1\n      pop\n        /* \"#utility.yul\":457:490   */\n      tag_87\n        /* \"#utility.yul\":484:489   */\n      dup2\n        /* \"#utility.yul\":457:490   */\n      tag_88\n      jump\t// in\n    tag_87:\n        /* \"#utility.yul\":409:496   */\n      swap3\n      swap2\n      pop\n      pop\n      jump\t// out\n        /* \"#utility.yul\":502:635   */\n    tag_89:\n      0x00\n        /* \"#utility.yul\":583:589   */\n      dup2\n        /* \"#utility.yul\":570:590   */\n      calldataload\n        /* \"#utility.yul\":561:590   */\n      swap1\n      pop\n        /* \"#utility.yul\":599:629   */\n      tag_91\n        /* \"#utility.yul\":623:628   */\n      dup2\n        /* \"#utility.yul\":599:629   */\n      tag_92\n      jump\t// in\n    tag_91:\n        /* \"#utility.yul\":551:635   */\n      swap3\n      swap2\n      pop\n      pop\n      jump\t// out\n        /* \"#utility.yul\":655:928   */\n    tag_93:\n      0x00\n        /* \"#utility.yul\":760:763   */\n      dup3\n        /* \"#utility.yul\":753:757   */\n      0x1f\n        /* \"#utility.yul\":745:751   */\n      dup4\n        /* \"#utility.yul\":741:758   */\n      add\n        /* \"#utility.yul\":737:764   */\n      slt\n        /* \"#utility.yul\":727:729   */\n      tag_95\n      jumpi\n        /* \"#utility.yul\":778:779   */\n      0x00\n        /* \"#utility.yul\":775:776   */\n      dup1\n        /* \"#utility.yul\":768:780   */\n      revert\n        /* \"#utility.yul\":727:729   */\n    tag_95:\n        /* \"#utility.yul\":818:824   */\n      dup2\n        /* \"#utility.yul\":805:825   */\n      calldataload\n        /* \"#utility.yul\":843:922   */\n      tag_96\n        /* \"#utility.yul\":918:921   */\n      dup5\n        /* \"#utility.yul\":910:916   */\n      dup3\n        /* \"#utility.yul\":903:907   */\n      0x20\n        /* \"#utility.yul\":895:901   */\n      dup7\n        /* \"#utility.yul\":891:908   */\n      add\n        /* \"#utility.yul\":843:922   */\n      tag_76\n      jump\t// in\n    tag_96:\n        /* \"#utility.yul\":834:922   */\n      swap2\n      pop\n        /* \"#utility.yul\":717:928   */\n      pop\n      swap3\n      swap2\n      pop\n      pop\n      jump\t// out\n        /* \"#utility.yul\":934:1073   */\n    tag_97:\n      0x00\n        /* \"#utility.yul\":1018:1024   */\n      dup2\n        /* \"#utility.yul\":1005:1025   */\n      calldataload\n        /* \"#utility.yul\":996:1025   */\n      swap1\n      pop\n        /* \"#utility.yul\":1034:1067   */\n      tag_99\n        /* \"#utility.yul\":1061:1066   */\n      dup2\n        /* \"#utility.yul\":1034:1067   */\n      tag_100\n      jump\t// in\n    tag_99:\n        /* \"#utility.yul\":986:1073   */\n      swap3\n      swap2\n      pop\n      pop\n      jump\t// out\n        /* \"#utility.yul\":1079:1744   */\n    tag_21:\n      0x00\n      dup1\n      0x00\n        /* \"#utility.yul\":1231:1233   */\n      0x60\n        /* \"#utility.yul\":1219:1228   */\n      dup5\n        /* \"#utility.yul\":1210:1217   */\n      dup7\n        /* \"#utility.yul\":1206:1229   */\n      sub\n        /* \"#utility.yul\":1202:1234   */\n      slt\n        /* \"#utility.yul\":1199:1201   */\n      iszero\n      tag_102\n      jumpi\n        /* \"#utility.yul\":1247:1248   */\n      0x00\n        /* \"#utility.yul\":1244:1245   */\n      dup1\n        /* \"#utility.yul\":1237:1249   */\n      revert\n        /* \"#utility.yul\":1199:1201   */\n    tag_102:\n        /* \"#utility.yul\":1318:1319   */\n      0x00\n        /* \"#utility.yul\":1307:1316   */\n      dup5\n        /* \"#utility.yul\":1303:1320   */\n      add\n        /* \"#utility.yul\":1290:1321   */\n      calldataload\n        /* \"#utility.yul\":1348:1366   */\n      0xffffffffffffffff\n        /* \"#utility.yul\":1340:1346   */\n      dup2\n        /* \"#utility.yul\":1337:1367   */\n      gt\n        /* \"#utility.yul\":1334:1336   */\n      iszero\n      tag_103\n      jumpi\n        /* \"#utility.yul\":1380:1381   */\n      0x00\n        /* \"#utility.yul\":1377:1378   */\n      dup1\n        /* \"#utility.yul\":1370:1382   */\n      revert\n        /* \"#utility.yul\":1334:1336   */\n    tag_103:\n        /* \"#utility.yul\":1408:1471   */\n      tag_104\n        /* \"#utility.yul\":1463:1470   */\n      dup7\n        /* \"#utility.yul\":1454:1460   */\n      dup3\n        /* \"#utility.yul\":1443:1452   */\n      dup8\n        /* \"#utility.yul\":1439:1461   */\n      add\n        /* \"#utility.yul\":1408:1471   */\n      tag_93\n      jump\t// in\n    tag_104:\n        /* \"#utility.yul\":1398:1471   */\n      swap4\n      pop\n        /* \"#utility.yul\":1261:1481   */\n      pop\n        /* \"#utility.yul\":1520:1522   */\n      0x20\n        /* \"#utility.yul\":1546:1599   */\n      tag_105\n        /* \"#utility.yul\":1591:1598   */\n      dup7\n        /* \"#utility.yul\":1582:1588   */\n      dup3\n        /* \"#utility.yul\":1571:1580   */\n      dup8\n        /* \"#utility.yul\":1567:1589   */\n      add\n        /* \"#utility.yul\":1546:1599   */\n      tag_97\n      jump\t// in\n    tag_105:\n        /* \"#utility.yul\":1536:1599   */\n      swap3\n      pop\n        /* \"#utility.yul\":1491:1609   */\n      pop\n        /* \"#utility.yul\":1648:1650   */\n      0x40\n        /* \"#utility.yul\":1674:1727   */\n      tag_106\n        /* \"#utility.yul\":1719:1726   */\n      dup7\n        /* \"#utility.yul\":1710:1716   */\n      dup3\n        /* \"#utility.yul\":1699:1708   */\n      dup8\n        /* \"#utility.yul\":1695:1717   */\n      add\n        /* \"#utility.yul\":1674:1727   */\n      tag_85\n      jump\t// in\n    tag_106:\n        /* \"#utility.yul\":1664:1727   */\n      swap2\n      pop\n        /* \"#utility.yul\":1619:1737   */\n      pop\n        /* \"#utility.yul\":1189:1744   */\n      swap3\n      pop\n      swap3\n      pop\n      swap3\n      jump\t// out\n        /* \"#utility.yul\":1750:2012   */\n    tag_33:\n      0x00\n        /* \"#utility.yul\":1858:1860   */\n      0x20\n        /* \"#utility.yul\":1846:1855   */\n      dup3\n        /* \"#utility.yul\":1837:1844   */\n      dup5\n        /* \"#utility.yul\":1833:1856   */\n      sub\n        /* \"#utility.yul\":1829:1861   */\n      slt\n        /* \"#utility.yul\":1826:1828   */\n      iszero\n      tag_108\n      jumpi\n        /* \"#utility.yul\":1874:1875   */\n      0x00\n        /* \"#utility.yul\":1871:1872   */\n      dup1\n        /* \"#utility.yul\":1864:1876   */\n      revert\n        /* \"#utility.yul\":1826:1828   */\n    tag_108:\n        /* \"#utility.yul\":1917:1918   */\n      0x00\n        /* \"#utility.yul\":1942:1995   */\n      tag_109\n        /* \"#utility.yul\":1987:1994   */\n      dup5\n        /* \"#utility.yul\":1978:1984   */\n      dup3\n        /* \"#utility.yul\":1967:1976   */\n      dup6\n        /* \"#utility.yul\":1963:1985   */\n      add\n        /* \"#utility.yul\":1942:1995   */\n      tag_97\n      jump\t// in\n    tag_109:\n        /* \"#utility.yul\":1932:1995   */\n      swap2\n      pop\n        /* \"#utility.yul\":1888:2005   */\n      pop\n        /* \"#utility.yul\":1816:2012   */\n      swap3\n      swap2\n      pop\n      pop\n      jump\t// out\n        /* \"#utility.yul\":2018:2419   */\n    tag_16:\n      0x00\n      dup1\n        /* \"#utility.yul\":2140:2142   */\n      0x40\n        /* \"#utility.yul\":2128:2137   */\n      dup4\n        /* \"#utility.yul\":2119:2126   */\n      dup6\n        /* \"#utility.yul\":2115:2138   */\n      sub\n        /* \"#utility.yul\":2111:2143   */\n      slt\n        /* \"#utility.yul\":2108:2110   */\n      iszero\n      tag_111\n      jumpi\n        /* \"#utility.yul\":2156:2157   */\n      0x00\n        /* \"#utility.yul\":2153:2154   */\n      dup1\n        /* \"#utility.yul\":2146:2158   */\n      revert\n        /* \"#utility.yul\":2108:2110   */\n    tag_111:\n        /* \"#utility.yul\":2199:2200   */\n      0x00\n        /* \"#utility.yul\":2224:2277   */\n      tag_112\n        /* \"#utility.yul\":2269:2276   */\n      dup6\n        /* \"#utility.yul\":2260:2266   */\n      dup3\n        /* \"#utility.yul\":2249:2258   */\n      dup7\n        /* \"#utility.yul\":2245:2267   */\n      add\n        /* \"#utility.yul\":2224:2277   */\n      tag_97\n      jump\t// in\n    tag_112:\n        /* \"#utility.yul\":2214:2277   */\n      swap3\n      pop\n        /* \"#utility.yul\":2170:2287   */\n      pop\n        /* \"#utility.yul\":2326:2328   */\n      0x20\n        /* \"#utility.yul\":2352:2402   */\n      tag_113\n        /* \"#utility.yul\":2394:2401   */\n      dup6\n        /* \"#utility.yul\":2385:2391   */\n      dup3\n        /* \"#utility.yul\":2374:2383   */\n      dup7\n        /* \"#utility.yul\":2370:2392   */\n      add\n        /* \"#utility.yul\":2352:2402   */\n      tag_89\n      jump\t// in\n    tag_113:\n        /* \"#utility.yul\":2342:2402   */\n      swap2\n      pop\n        /* \"#utility.yul\":2297:2412   */\n      pop\n        /* \"#utility.yul\":2098:2419   */\n      swap3\n      pop\n      swap3\n      swap1\n      pop\n      jump\t// out\n        /* \"#utility.yul\":2425:2543   */\n    tag_114:\n        /* \"#utility.yul\":2512:2536   */\n      tag_116\n        /* \"#utility.yul\":2530:2535   */\n      dup2\n        /* \"#utility.yul\":2512:2536   */\n      tag_117\n      jump\t// in\n    tag_116:\n        /* \"#utility.yul\":2507:2510   */\n      dup3\n        /* \"#utility.yul\":2500:2537   */\n      mstore\n        /* \"#utility.yul\":2490:2543   */\n      pop\n      pop\n      jump\t// out\n        /* \"#utility.yul\":2549:2667   */\n    tag_118:\n        /* \"#utility.yul\":2636:2660   */\n      tag_120\n        /* \"#utility.yul\":2654:2659   */\n      dup2\n        /* \"#utility.yul\":2636:2660   */\n      tag_121\n      jump\t// in\n    tag_120:\n        /* \"#utility.yul\":2631:2634   */\n      dup3\n        /* \"#utility.yul\":2624:2661   */\n      mstore\n        /* \"#utility.yul\":2614:2667   */\n      pop\n      pop\n      jump\t// out\n        /* \"#utility.yul\":2673:2895   */\n    tag_12:\n      0x00\n        /* \"#utility.yul\":2804:2806   */\n      0x20\n        /* \"#utility.yul\":2793:2802   */\n      dup3\n        /* \"#utility.yul\":2789:2807   */\n      add\n        /* \"#utility.yul\":2781:2807   */\n      swap1\n      pop\n        /* \"#utility.yul\":2817:2888   */\n      tag_123\n        /* \"#utility.yul\":2885:2886   */\n      0x00\n        /* \"#utility.yul\":2874:2883   */\n      dup4\n        /* \"#utility.yul\":2870:2887   */\n      add\n        /* \"#utility.yul\":2861:2867   */\n      dup5\n        /* \"#utility.yul\":2817:2888   */\n      tag_114\n      jump\t// in\n    tag_123:\n        /* \"#utility.yul\":2771:2895   */\n      swap3\n      swap2\n      pop\n      pop\n      jump\t// out\n        /* \"#utility.yul\":2901:3123   */\n    tag_27:\n      0x00\n        /* \"#utility.yul\":3032:3034   */\n      0x20\n        /* \"#utility.yul\":3021:3030   */\n      dup3\n        /* \"#utility.yul\":3017:3035   */\n      add\n        /* \"#utility.yul\":3009:3035   */\n      swap1\n      pop\n        /* \"#utility.yul\":3045:3116   */\n      tag_125\n        /* \"#utility.yul\":3113:3114   */\n      0x00\n        /* \"#utility.yul\":3102:3111   */\n      dup4\n        /* \"#utility.yul\":3098:3115   */\n      add\n        /* \"#utility.yul\":3089:3095   */\n      dup5\n        /* \"#utility.yul\":3045:3116   */\n      tag_118\n      jump\t// in\n    tag_125:\n        /* \"#utility.yul\":2999:3123   */\n      swap3\n      swap2\n      pop\n      pop\n      jump\t// out\n        /* \"#utility.yul\":3129:3412   */\n    tag_81:\n      0x00\n        /* \"#utility.yul\":3195:3197   */\n      0x40\n        /* \"#utility.yul\":3189:3198   */\n      mload\n        /* \"#utility.yul\":3179:3198   */\n      swap1\n      pop\n        /* \"#utility.yul\":3237:3241   */\n      dup2\n        /* \"#utility.yul\":3229:3235   */\n      dup2\n        /* \"#utility.yul\":3225:3242   */\n      add\n        /* \"#utility.yul\":3344:3350   */\n      dup2\n        /* \"#utility.yul\":3332:3342   */\n      dup2\n        /* \"#utility.yul\":3329:3351   */\n      lt\n        /* \"#utility.yul\":3308:3326   */\n      0xffffffffffffffff\n        /* \"#utility.yul\":3296:3306   */\n      dup3\n        /* \"#utility.yul\":3293:3327   */\n      gt\n        /* \"#utility.yul\":3290:3352   */\n      or\n        /* \"#utility.yul\":3287:3289   */\n      iszero\n      tag_127\n      jumpi\n        /* \"#utility.yul\":3355:3373   */\n      tag_128\n      tag_129\n      jump\t// in\n    tag_128:\n        /* \"#utility.yul\":3287:3289   */\n    tag_127:\n        /* \"#utility.yul\":3395:3405   */\n      dup1\n        /* \"#utility.yul\":3391:3393   */\n      0x40\n        /* \"#utility.yul\":3384:3406   */\n      mstore\n        /* \"#utility.yul\":3169:3412   */\n      pop\n      swap2\n      swap1\n      pop\n      jump\t// out\n        /* \"#utility.yul\":3418:3750   */\n    tag_80:\n      0x00\n        /* \"#utility.yul\":3570:3588   */\n      0xffffffffffffffff\n        /* \"#utility.yul\":3562:3568   */\n      dup3\n        /* \"#utility.yul\":3559:3589   */\n      gt\n        /* \"#utility.yul\":3556:3558   */\n      iszero\n      tag_131\n      jumpi\n        /* \"#utility.yul\":3592:3610   */\n      tag_132\n      tag_129\n      jump\t// in\n    tag_132:\n        /* \"#utility.yul\":3556:3558   */\n    tag_131:\n        /* \"#utility.yul\":3677:3681   */\n      0x1f\n        /* \"#utility.yul\":3673:3682   */\n      not\n        /* \"#utility.yul\":3666:3670   */\n      0x1f\n        /* \"#utility.yul\":3658:3664   */\n      dup4\n        /* \"#utility.yul\":3654:3671   */\n      add\n        /* \"#utility.yul\":3650:3683   */\n      and\n        /* \"#utility.yul\":3642:3683   */\n      swap1\n      pop\n        /* \"#utility.yul\":3738:3742   */\n      0x20\n        /* \"#utility.yul\":3732:3736   */\n      dup2\n        /* \"#utility.yul\":3728:3743   */\n      add\n        /* \"#utility.yul\":3720:3743   */\n      swap1\n      pop\n        /* \"#utility.yul\":3485:3750   */\n      swap2\n      swap1\n      pop\n      jump\t// out\n        /* \"#utility.yul\":3756:4061   */\n    tag_42:\n      0x00\n        /* \"#utility.yul\":3815:3835   */\n      tag_134\n        /* \"#utility.yul\":3833:3834   */\n      dup3\n        /* \"#utility.yul\":3815:3835   */\n      tag_121\n      jump\t// in\n    tag_134:\n        /* \"#utility.yul\":3810:3835   */\n      swap2\n      pop\n        /* \"#utility.yul\":3849:3869   */\n      tag_135\n        /* \"#utility.yul\":3867:3868   */\n      dup4\n        /* \"#utility.yul\":3849:3869   */\n      tag_121\n      jump\t// in\n    tag_135:\n        /* \"#utility.yul\":3844:3869   */\n      swap3\n      pop\n        /* \"#utility.yul\":4003:4004   */\n      dup3\n        /* \"#utility.yul\":3935:4001   */\n      0xffffffffffffffffffffffffffffffffffffffffffffffffffffffffffffffff\n        /* \"#utility.yul\":3931:4005   */\n      sub\n        /* \"#utility.yul\":3928:3929   */\n      dup3\n        /* \"#utility.yul\":3925:4006   */\n      gt\n        /* \"#utility.yul\":3922:3924   */\n      iszero\n      tag_136\n      jumpi\n        /* \"#utility.yul\":4009:4027   */\n      tag_137\n      tag_138\n      jump\t// in\n    tag_137:\n        /* \"#utility.yul\":3922:3924   */\n    tag_136:\n        /* \"#utility.yul\":4053:4054   */\n      dup3\n        /* \"#utility.yul\":4050:4051   */\n      dup3\n        /* \"#utility.yul\":4046:4055   */\n      add\n        /* \"#utility.yul\":4039:4055   */\n      swap1\n      pop\n        /* \"#utility.yul\":3800:4061   */\n      swap3\n      swap2\n      pop\n      pop\n      jump\t// out\n        /* \"#utility.yul\":4067:4252   */\n    tag_62:\n      0x00\n        /* \"#utility.yul\":4124:4144   */\n      tag_140\n        /* \"#utility.yul\":4142:4143   */\n      dup3\n        /* \"#utility.yul\":4124:4144   */\n      tag_121\n      jump\t// in\n    tag_140:\n        /* \"#utility.yul\":4119:4144   */\n      swap2\n      pop\n        /* \"#utility.yul\":4158:4178   */\n      tag_141\n        /* \"#utility.yul\":4176:4177   */\n      dup4\n        /* \"#utility.yul\":4158:4178   */\n      tag_121\n      jump\t// in\n    tag_141:\n        /* \"#utility.yul\":4153:4178   */\n      swap3\n      pop\n        /* \"#utility.yul\":4197:4198   */\n      dup3\n        /* \"#utility.yul\":4187:4189   */\n      tag_142\n      jumpi\n        /* \"#utility.yul\":4202:4220   */\n      tag_143\n      tag_144\n      jump\t// in\n    tag_143:\n        /* \"#utility.yul\":4187:4189   */\n    tag_142:\n        /* \"#utility.yul\":4244:4245   */\n      dup3\n        /* \"#utility.yul\":4241:4242   */\n      dup3\n        /* \"#utility.yul\":4237:4246   */\n      div\n        /* \"#utility.yul\":4232:4246   */\n      swap1\n      pop\n        /* \"#utility.yul\":4109:4252   */\n      swap3\n      swap2\n      pop\n      pop\n      jump\t// out\n        /* \"#utility.yul\":4258:4606   */\n    tag_60:\n      0x00\n        /* \"#utility.yul\":4321:4341   */\n      tag_146\n        /* \"#utility.yul\":4339:4340   */\n      dup3\n        /* \"#utility.yul\":4321:4341   */\n      tag_121\n      jump\t// in\n    tag_146:\n        /* \"#utility.yul\":4316:4341   */\n      swap2\n      pop\n        /* \"#utility.yul\":4355:4375   */\n      tag_147\n        /* \"#utility.yul\":4373:4374   */\n      dup4\n        /* \"#utility.yul\":4355:4375   */\n      tag_121\n      jump\t// in\n    tag_147:\n        /* \"#utility.yul\":4350:4375   */\n      swap3\n      pop\n        /* \"#utility.yul\":4543:4544   */\n      dup2\n        /* \"#utility.yul\":4475:4541   */\n      0xffffffffffffffffffffffffffffffffffffffffffffffffffffffffffffffff\n        /* \"#utility.yul\":4471:4545   */\n      div\n        /* \"#utility.yul\":4468:4469   */\n      dup4\n        /* \"#utility.yul\":4465:4546   */\n      gt\n        /* \"#utility.yul\":4460:4461   */\n      dup3\n        /* \"#utility.yul\":4453:4462   */\n      iszero\n        /* \"#utility.yul\":4446:4463   */\n      iszero\n        /* \"#utility.yul\":4442:4547   */\n      and\n        /* \"#utility.yul\":4439:4441   */\n      iszero\n      tag_148\n      jumpi\n        /* \"#utility.yul\":4550:4568   */\n      tag_149\n      tag_138\n      jump\t// in\n    tag_149:\n        /* \"#utility.yul\":4439:4441   */\n    tag_148:\n        /* \"#utility.yul\":4598:4599   */\n      dup3\n        /* \"#utility.yul\":4595:4596   */\n      dup3\n        /* \"#utility.yul\":4591:4600   */\n      mul\n        /* \"#utility.yul\":4580:4600   */\n      swap1\n      pop\n        /* \"#utility.yul\":4306:4606   */\n      swap3\n      swap2\n      pop\n      pop\n      jump\t// out\n        /* \"#utility.yul\":4612:4803   */\n    tag_37:\n      0x00\n        /* \"#utility.yul\":4672:4692   */\n      tag_151\n        /* \"#utility.yul\":4690:4691   */\n      dup3\n        /* \"#utility.yul\":4672:4692   */\n      tag_121\n      jump\t// in\n    tag_151:\n        /* \"#utility.yul\":4667:4692   */\n      swap2\n      pop\n        /* \"#utility.yul\":4706:4726   */\n      tag_152\n        /* \"#utility.yul\":4724:4725   */\n      dup4\n        /* \"#utility.yul\":4706:4726   */\n      tag_121\n      jump\t// in\n    tag_152:\n        /* \"#utility.yul\":4701:4726   */\n      swap3\n      pop\n        /* \"#utility.yul\":4745:4746   */\n      dup3\n        /* \"#utility.yul\":4742:4743   */\n      dup3\n        /* \"#utility.yul\":4739:4747   */\n      lt\n        /* \"#utility.yul\":4736:4738   */\n      iszero\n      tag_153\n      jumpi\n        /* \"#utility.yul\":4750:4768   */\n      tag_154\n      tag_138\n      jump\t// in\n    tag_154:\n        /* \"#utility.yul\":4736:4738   */\n    tag_153:\n        /* \"#utility.yul\":4795:4796   */\n      dup3\n        /* \"#utility.yul\":4792:4793   */\n      dup3\n        /* \"#utility.yul\":4788:4797   */\n      sub\n        /* \"#utility.yul\":4780:4797   */\n      swap1\n      pop\n        /* \"#utility.yul\":4657:4803   */\n      swap3\n      swap2\n      pop\n      pop\n      jump\t// out\n        /* \"#utility.yul\":4809:4905   */\n    tag_117:\n      0x00\n        /* \"#utility.yul\":4875:4899   */\n      tag_156\n        /* \"#utility.yul\":4893:4898   */\n      dup3\n        /* \"#utility.yul\":4875:4899   */\n      tag_157\n      jump\t// in\n    tag_156:\n        /* \"#utility.yul\":4864:4899   */\n      swap1\n      pop\n        /* \"#utility.yul\":4854:4905   */\n      swap2\n      swap1\n      pop\n      jump\t// out\n        /* \"#utility.yul\":4911:5001   */\n    tag_158:\n      0x00\n        /* \"#utility.yul\":4988:4993   */\n      dup2\n        /* \"#utility.yul\":4981:4994   */\n      iszero\n        /* \"#utility.yul\":4974:4995   */\n      iszero\n        /* \"#utility.yul\":4963:4995   */\n      swap1\n      pop\n        /* \"#utility.yul\":4953:5001   */\n      swap2\n      swap1\n      pop\n      jump\t// out\n        /* \"#utility.yul\":5007:5133   */\n    tag_157:\n      0x00\n        /* \"#utility.yul\":5084:5126   */\n      0xffffffffffffffffffffffffffffffffffffffff\n        /* \"#utility.yul\":5077:5082   */\n      dup3\n        /* \"#utility.yul\":5073:5127   */\n      and\n        /* \"#utility.yul\":5062:5127   */\n      swap1\n      pop\n        /* \"#utility.yul\":5052:5133   */\n      swap2\n      swap1\n      pop\n      jump\t// out\n        /* \"#utility.yul\":5139:5216   */\n    tag_121:\n      0x00\n        /* \"#utility.yul\":5205:5210   */\n      dup2\n        /* \"#utility.yul\":5194:5210   */\n      swap1\n      pop\n        /* \"#utility.yul\":5184:5216   */\n      swap2\n      swap1\n      pop\n      jump\t// out\n        /* \"#utility.yul\":5222:5376   */\n    tag_84:\n        /* \"#utility.yul\":5306:5312   */\n      dup3\n        /* \"#utility.yul\":5301:5304   */\n      dup2\n        /* \"#utility.yul\":5296:5299   */\n      dup4\n        /* \"#utility.yul\":5283:5313   */\n      calldatacopy\n        /* \"#utility.yul\":5368:5369   */\n      0x00\n        /* \"#utility.yul\":5359:5365   */\n      dup4\n        /* \"#utility.yul\":5354:5357   */\n      dup4\n        /* \"#utility.yul\":5350:5366   */\n      add\n        /* \"#utility.yul\":5343:5370   */\n      mstore\n        /* \"#utility.yul\":5273:5376   */\n      pop\n      pop\n      pop\n      jump\t// out\n        /* \"#utility.yul\":5382:5702   */\n    tag_65:\n      0x00\n        /* \"#utility.yul\":5463:5464   */\n      0x02\n        /* \"#utility.yul\":5457:5461   */\n      dup3\n        /* \"#utility.yul\":5453:5465   */\n      div\n        /* \"#utility.yul\":5443:5465   */\n      swap1\n      pop\n        /* \"#utility.yul\":5510:5511   */\n      0x01\n        /* \"#utility.yul\":5504:5508   */\n      dup3\n        /* \"#utility.yul\":5500:5512   */\n      and\n        /* \"#utility.yul\":5531:5549   */\n      dup1\n        /* \"#utility.yul\":5521:5523   */\n      tag_164\n      jumpi\n        /* \"#utility.yul\":5587:5591   */\n      0x7f\n        /* \"#utility.yul\":5579:5585   */\n      dup3\n        /* \"#utility.yul\":5575:5592   */\n      and\n        /* \"#utility.yul\":5565:5592   */\n      swap2\n      pop\n        /* \"#utility.yul\":5521:5523   */\n    tag_164:\n        /* \"#utility.yul\":5649:5651   */\n      0x20\n        /* \"#utility.yul\":5641:5647   */\n      dup3\n        /* \"#utility.yul\":5638:5652   */\n      lt\n        /* \"#utility.yul\":5618:5636   */\n      dup2\n        /* \"#utility.yul\":5615:5653   */\n      eq\n        /* \"#utility.yul\":5612:5614   */\n      iszero\n      tag_165\n      jumpi\n        /* \"#utility.yul\":5668:5686   */\n      tag_166\n      tag_167\n      jump\t// in\n    tag_166:\n        /* \"#utility.yul\":5612:5614   */\n    tag_165:\n        /* \"#utility.yul\":5433:5702   */\n      pop\n      swap2\n      swap1\n      pop\n      jump\t// out\n        /* \"#utility.yul\":5708:5941   */\n    tag_47:\n      0x00\n        /* \"#utility.yul\":5770:5794   */\n      tag_169\n        /* \"#utility.yul\":5788:5793   */\n      dup3\n        /* \"#utility.yul\":5770:5794   */\n      tag_121\n      jump\t// in\n    tag_169:\n        /* \"#utility.yul\":5761:5794   */\n      swap2\n      pop\n        /* \"#utility.yul\":5816:5882   */\n      0xffffffffffffffffffffffffffffffffffffffffffffffffffffffffffffffff\n        /* \"#utility.yul\":5809:5814   */\n      dup3\n        /* \"#utility.yul\":5806:5883   */\n      eq\n        /* \"#utility.yul\":5803:5805   */\n      iszero\n      tag_170\n      jumpi\n        /* \"#utility.yul\":5886:5904   */\n      tag_171\n      tag_138\n      jump\t// in\n    tag_171:\n        /* \"#utility.yul\":5803:5805   */\n    tag_170:\n        /* \"#utility.yul\":5933:5934   */\n      0x01\n        /* \"#utility.yul\":5926:5931   */\n      dup3\n        /* \"#utility.yul\":5922:5935   */\n      add\n        /* \"#utility.yul\":5915:5935   */\n      swap1\n      pop\n        /* \"#utility.yul\":5751:5941   */\n      swap2\n      swap1\n      pop\n      jump\t// out\n        /* \"#utility.yul\":5947:6127   */\n    tag_138:\n        /* \"#utility.yul\":5995:6072   */\n      0x4e487b7100000000000000000000000000000000000000000000000000000000\n        /* \"#utility.yul\":5992:5993   */\n      0x00\n        /* \"#utility.yul\":5985:6073   */\n      mstore\n        /* \"#utility.yul\":6092:6096   */\n      0x11\n        /* \"#utility.yul\":6089:6090   */\n      0x04\n        /* \"#utility.yul\":6082:6097   */\n      mstore\n        /* \"#utility.yul\":6116:6120   */\n      0x24\n        /* \"#utility.yul\":6113:6114   */\n      0x00\n        /* \"#utility.yul\":6106:6121   */\n      revert\n        /* \"#utility.yul\":6133:6313   */\n    tag_144:\n        /* \"#utility.yul\":6181:6258   */\n      0x4e487b7100000000000000000000000000000000000000000000000000000000\n        /* \"#utility.yul\":6178:6179   */\n      0x00\n        /* \"#utility.yul\":6171:6259   */\n      mstore\n        /* \"#utility.yul\":6278:6282   */\n      0x12\n        /* \"#utility.yul\":6275:6276   */\n      0x04\n        /* \"#utility.yul\":6268:6283   */\n      mstore\n        /* \"#utility.yul\":6302:6306   */\n      0x24\n        /* \"#utility.yul\":6299:6300   */\n      0x00\n        /* \"#utility.yul\":6292:6307   */\n      revert\n        /* \"#utility.yul\":6319:6499   */\n    tag_167:\n        /* \"#utility.yul\":6367:6444   */\n      0x4e487b7100000000000000000000000000000000000000000000000000000000\n        /* \"#utility.yul\":6364:6365   */\n      0x00\n        /* \"#utility.yul\":6357:6445   */\n      mstore\n        /* \"#utility.yul\":6464:6468   */\n      0x22\n        /* \"#utility.yul\":6461:6462   */\n      0x04\n        /* \"#utility.yul\":6454:6469   */\n      mstore\n        /* \"#utility.yul\":6488:6492   */\n      0x24\n        /* \"#utility.yul\":6485:6486   */\n      0x00\n        /* \"#utility.yul\":6478:6493   */\n      revert\n        /* \"#utility.yul\":6505:6685   */\n    tag_129:\n        /* \"#utility.yul\":6553:6630   */\n      0x4e487b7100000000000000000000000000000000000000000000000000000000\n        /* \"#utility.yul\":6550:6551   */\n      0x00\n        /* \"#utility.yul\":6543:6631   */\n      mstore\n        /* \"#utility.yul\":6650:6654   */\n      0x41\n        /* \"#utility.yul\":6647:6648   */\n      0x04\n        /* \"#utility.yul\":6640:6655   */\n      mstore\n        /* \"#utility.yul\":6674:6678   */\n      0x24\n        /* \"#utility.yul\":6671:6672   */\n      0x00\n        /* \"#utility.yul\":6664:6679   */\n      revert\n        /* \"#utility.yul\":6691:6813   */\n    tag_88:\n        /* \"#utility.yul\":6764:6788   */\n      tag_177\n        /* \"#utility.yul\":6782:6787   */\n      dup2\n        /* \"#utility.yul\":6764:6788   */\n      tag_117\n      jump\t// in\n    tag_177:\n        /* \"#utility.yul\":6757:6762   */\n      dup2\n        /* \"#utility.yul\":6754:6789   */\n      eq\n        /* \"#utility.yul\":6744:6746   */\n      tag_178\n      jumpi\n        /* \"#utility.yul\":6803:6804   */\n      0x00\n        /* \"#utility.yul\":6800:6801   */\n      dup1\n        /* \"#utility.yul\":6793:6805   */\n      revert\n        /* \"#utility.yul\":6744:6746   */\n    tag_178:\n        /* \"#utility.yul\":6734:6813   */\n      pop\n      jump\t// out\n        /* \"#utility.yul\":6819:6935   */\n    tag_92:\n        /* \"#utility.yul\":6889:6910   */\n      tag_180\n        /* \"#utility.yul\":6904:6909   */\n      dup2\n        /* \"#utility.yul\":6889:6910   */\n      tag_158\n      jump\t// in\n    tag_180:\n        /* \"#utility.yul\":6882:6887   */\n      dup2\n        /* \"#utility.yul\":6879:6911   */\n      eq\n        /* \"#utility.yul\":6869:6871   */\n      tag_181\n      jumpi\n        /* \"#utility.yul\":6925:6926   */\n      0x00\n        /* \"#utility.yul\":6922:6923   */\n      dup1\n        /* \"#utility.yul\":6915:6927   */\n      revert\n        /* \"#utility.yul\":6869:6871   */\n    tag_181:\n        /* \"#utility.yul\":6859:6935   */\n      pop\n      jump\t// out\n        /* \"#utility.yul\":6941:7063   */\n    tag_100:\n        /* \"#utility.yul\":7014:7038   */\n      tag_183\n        /* \"#utility.yul\":7032:7037   */\n      dup2\n        /* \"#utility.yul\":7014:7038   */\n      tag_121\n      jump\t// in\n    tag_183:\n        /* \"#utility.yul\":7007:7012   */\n      dup2\n        /* \"#utility.yul\":7004:7039   */\n      eq\n        /* \"#utility.yul\":6994:6996   */\n      tag_184\n      jumpi\n        /* \"#utility.yul\":7053:7054   */\n      0x00\n        /* \"#utility.yul\":7050:7051   */\n      dup1\n        /* \"#utility.yul\":7043:7055   */\n      revert\n        /* \"#utility.yul\":6994:6996   */\n    tag_184:\n        /* \"#utility.yul\":6984:7063   */\n      pop\n      jump\t// out\n\n    auxdata: 0xa26469706673582212204626a5bee68cede126042a21fc724c4f4abe1c947796fd79c307bbc77c85661664736f6c63430008000033\n}\n","bytecode":{"linkReferences":{},"object":"60806040523480156200001157600080fd5b5060405162000d2238038062000d228339818101604052810190620000379190620000cc565b806000806101000a81548173ffffffffffffffffffffffffffffffffffffffff021916908373ffffffffffffffffffffffffffffffffffffffff16021790555082600181905550816004819055506000600381905550600060058190555050505062000194565b600081519050620000af8162000160565b92915050565b600081519050620000c6816200017a565b92915050565b600080600060608486031215620000e257600080fd5b6000620000f286828701620000b5565b93505060206200010586828701620000b5565b925050604062000118868287016200009e565b9150509250925092565b60006200012f8262000136565b9050919050565b600073ffffffffffffffffffffffffffffffffffffffff82169050919050565b6000819050919050565b6200016b8162000122565b81146200017757600080fd5b50565b620001858162000156565b81146200019157600080fd5b50565b610b7e80620001a46000396000f3fe6080604052600436106100555760003560e01c8063481c6a751461005a578063767e0b9c146100855780638a9cfd55146100ae578063aaffadf3146100d7578063d7bb99ba14610102578063fea21ce51461010c575b600080fd5b34801561006657600080fd5b5061006f610135565b60405161007c91906107c9565b60405180910390f35b34801561009157600080fd5b506100ac60048036038101906100a7919061076f565b610159565b005b3480156100ba57600080fd5b506100d560048036038101906100d091906106df565b61029b565b005b3480156100e357600080fd5b506100ec61040f565b6040516100f991906107e4565b60405180910390f35b61010a610415565b005b34801561011857600080fd5b50610133600480360381019061012e9190610746565b610487565b005b60008054906101000a900473ffffffffffffffffffffffffffffffffffffffff1681565b60006006600060018561016c9190610941565b815260200190815260200160002090508060050160009054906101000a900460ff161561019857600080fd5b60008160060160003373ffffffffffffffffffffffffffffffffffffffff1673ffffffffffffffffffffffffffffffffffffffff16815260200190815260200160002054146101e657600080fd5b8161024f5760018160040160008282546102009190610860565b9250508190555060028160060160003373ffffffffffffffffffffffffffffffffffffffff1673ffffffffffffffffffffffffffffffffffffffff168152602001908152602001600020819055505b60018160060160003373ffffffffffffffffffffffffffffffffffffffff1673ffffffffffffffffffffffffffffffffffffffff16815260200190815260200160002081905550505050565b60008054906101000a900473ffffffffffffffffffffffffffffffffffffffff1673ffffffffffffffffffffffffffffffffffffffff163373ffffffffffffffffffffffffffffffffffffffff16146102f357600080fd5b60036000815480929190610306906109fe565b919050555060006006600060036000815480929190610324906109fe565b919050558152602001908152602001600020905083816002019080519060200190610350929190610595565b50828160000181905550818160010160006101000a81548173ffffffffffffffffffffffffffffffffffffffff021916908373ffffffffffffffffffffffffffffffffffffffff160217905550600354816003018190555060008160050160006101000a81548160ff0219169083151502179055506000816004018190555060008160050160016101000a81548160ff02191690831515021790555060008160050160026101000a81548160ff02191690831515021790555050505050565b60015481565b60015434101561042457600080fd5b34600260003373ffffffffffffffffffffffffffffffffffffffff1673ffffffffffffffffffffffffffffffffffffffff1681526020019081526020016000206000018190555060016005600082825461047e9190610860565b92505081905550565b60008054906101000a900473ffffffffffffffffffffffffffffffffffffffff1673ffffffffffffffffffffffffffffffffffffffff163373ffffffffffffffffffffffffffffffffffffffff16146104df57600080fd5b6000600660006001846104f29190610941565b815260200190815260200160002090508060050160009054906101000a900460ff161561051e57600080fd5b6000600554905060008260040154905060008260648361053e91906108e7565b61054891906108b6565b905060018460050160006101000a81548160ff021916908315150217905550600454811061058e5760018460050160016101000a81548160ff0219169083151502179055505b5050505050565b8280546105a1906109cc565b90600052602060002090601f0160209004810192826105c3576000855561060a565b82601f106105dc57805160ff191683800117855561060a565b8280016001018555821561060a579182015b828111156106095782518255916020019190600101906105ee565b5b509050610617919061061b565b5090565b5b8082111561063457600081600090555060010161061c565b5090565b600061064b61064684610830565b6107ff565b90508281526020810184848401111561066357600080fd5b61066e8482856109bd565b509392505050565b60008135905061068581610b03565b92915050565b60008135905061069a81610b1a565b92915050565b600082601f8301126106b157600080fd5b81356106c1848260208601610638565b91505092915050565b6000813590506106d981610b31565b92915050565b6000806000606084860312156106f457600080fd5b600084013567ffffffffffffffff81111561070e57600080fd5b61071a868287016106a0565b935050602061072b868287016106ca565b925050604061073c86828701610676565b9150509250925092565b60006020828403121561075857600080fd5b6000610766848285016106ca565b91505092915050565b6000806040838503121561078257600080fd5b6000610790858286016106ca565b92505060206107a18582860161068b565b9150509250929050565b6107b481610975565b82525050565b6107c3816109b3565b82525050565b60006020820190506107de60008301846107ab565b92915050565b60006020820190506107f960008301846107ba565b92915050565b6000604051905081810181811067ffffffffffffffff8211171561082657610825610ad4565b5b8060405250919050565b600067ffffffffffffffff82111561084b5761084a610ad4565b5b601f19601f8301169050602081019050919050565b600061086b826109b3565b9150610876836109b3565b9250827fffffffffffffffffffffffffffffffffffffffffffffffffffffffffffffffff038211156108ab576108aa610a47565b5b828201905092915050565b60006108c1826109b3565b91506108cc836109b3565b9250826108dc576108db610a76565b5b828204905092915050565b60006108f2826109b3565b91506108fd836109b3565b9250817fffffffffffffffffffffffffffffffffffffffffffffffffffffffffffffffff048311821515161561093657610935610a47565b5b828202905092915050565b600061094c826109b3565b9150610957836109b3565b92508282101561096a57610969610a47565b5b828203905092915050565b600061098082610993565b9050919050565b60008115159050919050565b600073ffffffffffffffffffffffffffffffffffffffff82169050919050565b6000819050919050565b82818337600083830152505050565b600060028204905060018216806109e457607f821691505b602082108114156109f8576109f7610aa5565b5b50919050565b6000610a09826109b3565b91507fffffffffffffffffffffffffffffffffffffffffffffffffffffffffffffffff821415610a3c57610a3b610a47565b5b600182019050919050565b7f4e487b7100000000000000000000000000000000000000000000000000000000600052601160045260246000fd5b7f4e487b7100000000000000000000000000000000000000000000000000000000600052601260045260246000fd5b7f4e487b7100000000000000000000000000000000000000000000000000000000600052602260045260246000fd5b7f4e487b7100000000000000000000000000000000000000000000000000000000600052604160045260246000fd5b610b0c81610975565b8114610b1757600080fd5b50565b610b2381610987565b8114610b2e57600080fd5b50565b610b3a816109b3565b8114610b4557600080fd5b5056fea26469706673582212204626a5bee68cede126042a21fc724c4f4abe1c947796fd79c307bbc77c85661664736f6c63430008000033","opcodes":"PUSH1 0x80 PUSH1 0x40 MSTORE CALLVALUE DUP1 ISZERO PUSH3 0x11 JUMPI PUSH1 0x0 DUP1 REVERT JUMPDEST POP PUSH1 0x40 MLOAD PUSH3 0xD22 CODESIZE SUB DUP1 PUSH3 0xD22 DUP4 CODECOPY DUP2 DUP2 ADD PUSH1 0x40 MSTORE DUP2 ADD SWAP1 PUSH3 0x37 SWAP2 SWAP1 PUSH3 0xCC JUMP JUMPDEST DUP1 PUSH1 0x0 DUP1 PUSH2 0x100 EXP DUP2 SLOAD DUP2 PUSH20 0xFFFFFFFFFFFFFFFFFFFFFFFFFFFFFFFFFFFFFFFF MUL NOT AND SWAP1 DUP4 PUSH20 0xFFFFFFFFFFFFFFFFFFFFFFFFFFFFFFFFFFFFFFFF AND MUL OR SWAP1 SSTORE POP DUP3 PUSH1 0x1 DUP2 SWAP1 SSTORE POP DUP2 PUSH1 0x4 DUP2 SWAP1 SSTORE POP PUSH1 0x0 PUSH1 0x3 DUP2 SWAP1 SSTORE POP PUSH1 0x0 PUSH1 0x5 DUP2 SWAP1 SSTORE POP POP POP POP PUSH3 0x194 JUMP JUMPDEST PUSH1 0x0 DUP2 MLOAD SWAP1 POP PUSH3 0xAF DUP2 PUSH3 0x160 JUMP JUMPDEST SWAP3 SWAP2 POP POP JUMP JUMPDEST PUSH1 0x0 DUP2 MLOAD SWAP1 POP PUSH3 0xC6 DUP2 PUSH3 0x17A JUMP JUMPDEST SWAP3 SWAP2 POP POP JUMP JUMPDEST PUSH1 0x0 DUP1 PUSH1 0x0 PUSH1 0x60 DUP5 DUP7 SUB SLT ISZERO PUSH3 0xE2 JUMPI PUSH1 0x0 DUP1 REVERT JUMPDEST PUSH1 0x0 PUSH3 0xF2 DUP7 DUP3 DUP8 ADD PUSH3 0xB5 JUMP JUMPDEST SWAP4 POP POP PUSH1 0x20 PUSH3 0x105 DUP7 DUP3 DUP8 ADD PUSH3 0xB5 JUMP JUMPDEST SWAP3 POP POP PUSH1 0x40 PUSH3 0x118 DUP7 DUP3 DUP8 ADD PUSH3 0x9E JUMP JUMPDEST SWAP2 POP POP SWAP3 POP SWAP3 POP SWAP3 JUMP JUMPDEST PUSH1 0x0 PUSH3 0x12F DUP3 PUSH3 0x136 JUMP JUMPDEST SWAP1 POP SWAP2 SWAP1 POP JUMP JUMPDEST PUSH1 0x0 PUSH20 0xFFFFFFFFFFFFFFFFFFFFFFFFFFFFFFFFFFFFFFFF DUP3 AND SWAP1 POP SWAP2 SWAP1 POP JUMP JUMPDEST PUSH1 0x0 DUP2 SWAP1 POP SWAP2 SWAP1 POP JUMP JUMPDEST PUSH3 0x16B DUP2 PUSH3 0x122 JUMP JUMPDEST DUP2 EQ PUSH3 0x177 JUMPI PUSH1 0x0 DUP1 REVERT JUMPDEST POP JUMP JUMPDEST PUSH3 0x185 DUP2 PUSH3 0x156 JUMP JUMPDEST DUP2 EQ PUSH3 0x191 JUMPI PUSH1 0x0 DUP1 REVERT JUMPDEST POP JUMP JUMPDEST PUSH2 0xB7E DUP1 PUSH3 0x1A4 PUSH1 0x0 CODECOPY PUSH1 0x0 RETURN INVALID PUSH1 0x80 PUSH1 0x40 MSTORE PUSH1 0x4 CALLDATASIZE LT PUSH2 0x55 JUMPI PUSH1 0x0 CALLDATALOAD PUSH1 0xE0 SHR DUP1 PUSH4 0x481C6A75 EQ PUSH2 0x5A JUMPI DUP1 PUSH4 0x767E0B9C EQ PUSH2 0x85 JUMPI DUP1 PUSH4 0x8A9CFD55 EQ PUSH2 0xAE JUMPI DUP1 PUSH4 0xAAFFADF3 EQ PUSH2 0xD7 JUMPI DUP1 PUSH4 0xD7BB99BA EQ PUSH2 0x102 JUMPI DUP1 PUSH4 0xFEA21CE5 EQ PUSH2 0x10C JUMPI JUMPDEST PUSH1 0x0 DUP1 REVERT JUMPDEST CALLVALUE DUP1 ISZERO PUSH2 0x66 JUMPI PUSH1 0x0 DUP1 REVERT JUMPDEST POP PUSH2 0x6F PUSH2 0x135 JUMP JUMPDEST PUSH1 0x40 MLOAD PUSH2 0x7C SWAP2 SWAP1 PUSH2 0x7C9 JUMP JUMPDEST PUSH1 0x40 MLOAD DUP1 SWAP2 SUB SWAP1 RETURN JUMPDEST CALLVALUE DUP1 ISZERO PUSH2 0x91 JUMPI PUSH1 0x0 DUP1 REVERT JUMPDEST POP PUSH2 0xAC PUSH1 0x4 DUP1 CALLDATASIZE SUB DUP2 ADD SWAP1 PUSH2 0xA7 SWAP2 SWAP1 PUSH2 0x76F JUMP JUMPDEST PUSH2 0x159 JUMP JUMPDEST STOP JUMPDEST CALLVALUE DUP1 ISZERO PUSH2 0xBA JUMPI PUSH1 0x0 DUP1 REVERT JUMPDEST POP PUSH2 0xD5 PUSH1 0x4 DUP1 CALLDATASIZE SUB DUP2 ADD SWAP1 PUSH2 0xD0 SWAP2 SWAP1 PUSH2 0x6DF JUMP JUMPDEST PUSH2 0x29B JUMP JUMPDEST STOP JUMPDEST CALLVALUE DUP1 ISZERO PUSH2 0xE3 JUMPI PUSH1 0x0 DUP1 REVERT JUMPDEST POP PUSH2 0xEC PUSH2 0x40F JUMP JUMPDEST PUSH1 0x40 MLOAD PUSH2 0xF9 SWAP2 SWAP1 PUSH2 0x7E4 JUMP JUMPDEST PUSH1 0x40 MLOAD DUP1 SWAP2 SUB SWAP1 RETURN JUMPDEST PUSH2 0x10A PUSH2 0x415 JUMP JUMPDEST STOP JUMPDEST CALLVALUE DUP1 ISZERO PUSH2 0x118 JUMPI PUSH1 0x0 DUP1 REVERT JUMPDEST POP PUSH2 0x133 PUSH1 0x4 DUP1 CALLDATASIZE SUB DUP2 ADD SWAP1 PUSH2 0x12E SWAP2 SWAP1 PUSH2 0x746 JUMP JUMPDEST PUSH2 0x487 JUMP JUMPDEST STOP JUMPDEST PUSH1 0x0 DUP1 SLOAD SWAP1 PUSH2 0x100 EXP SWAP1 DIV PUSH20 0xFFFFFFFFFFFFFFFFFFFFFFFFFFFFFFFFFFFFFFFF AND DUP2 JUMP JUMPDEST PUSH1 0x0 PUSH1 0x6 PUSH1 0x0 PUSH1 0x1 DUP6 PUSH2 0x16C SWAP2 SWAP1 PUSH2 0x941 JUMP JUMPDEST DUP2 MSTORE PUSH1 0x20 ADD SWAP1 DUP2 MSTORE PUSH1 0x20 ADD PUSH1 0x0 KECCAK256 SWAP1 POP DUP1 PUSH1 0x5 ADD PUSH1 0x0 SWAP1 SLOAD SWAP1 PUSH2 0x100 EXP SWAP1 DIV PUSH1 0xFF AND ISZERO PUSH2 0x198 JUMPI PUSH1 0x0 DUP1 REVERT JUMPDEST PUSH1 0x0 DUP2 PUSH1 0x6 ADD PUSH1 0x0 CALLER PUSH20 0xFFFFFFFFFFFFFFFFFFFFFFFFFFFFFFFFFFFFFFFF AND PUSH20 0xFFFFFFFFFFFFFFFFFFFFFFFFFFFFFFFFFFFFFFFF AND DUP2 MSTORE PUSH1 0x20 ADD SWAP1 DUP2 MSTORE PUSH1 0x20 ADD PUSH1 0x0 KECCAK256 SLOAD EQ PUSH2 0x1E6 JUMPI PUSH1 0x0 DUP1 REVERT JUMPDEST DUP2 PUSH2 0x24F JUMPI PUSH1 0x1 DUP2 PUSH1 0x4 ADD PUSH1 0x0 DUP3 DUP3 SLOAD PUSH2 0x200 SWAP2 SWAP1 PUSH2 0x860 JUMP JUMPDEST SWAP3 POP POP DUP2 SWAP1 SSTORE POP PUSH1 0x2 DUP2 PUSH1 0x6 ADD PUSH1 0x0 CALLER PUSH20 0xFFFFFFFFFFFFFFFFFFFFFFFFFFFFFFFFFFFFFFFF AND PUSH20 0xFFFFFFFFFFFFFFFFFFFFFFFFFFFFFFFFFFFFFFFF AND DUP2 MSTORE PUSH1 0x20 ADD SWAP1 DUP2 MSTORE PUSH1 0x20 ADD PUSH1 0x0 KECCAK256 DUP2 SWAP1 SSTORE POP JUMPDEST PUSH1 0x1 DUP2 PUSH1 0x6 ADD PUSH1 0x0 CALLER PUSH20 0xFFFFFFFFFFFFFFFFFFFFFFFFFFFFFFFFFFFFFFFF AND PUSH20 0xFFFFFFFFFFFFFFFFFFFFFFFFFFFFFFFFFFFFFFFF AND DUP2 MSTORE PUSH1 0x20 ADD SWAP1 DUP2 MSTORE PUSH1 0x20 ADD PUSH1 0x0 KECCAK256 DUP2 SWAP1 SSTORE POP POP POP POP JUMP JUMPDEST PUSH1 0x0 DUP1 SLOAD SWAP1 PUSH2 0x100 EXP SWAP1 DIV PUSH20 0xFFFFFFFFFFFFFFFFFFFFFFFFFFFFFFFFFFFFFFFF AND PUSH20 0xFFFFFFFFFFFFFFFFFFFFFFFFFFFFFFFFFFFFFFFF AND CALLER PUSH20 0xFFFFFFFFFFFFFFFFFFFFFFFFFFFFFFFFFFFFFFFF AND EQ PUSH2 0x2F3 JUMPI PUSH1 0x0 DUP1 REVERT JUMPDEST PUSH1 0x3 PUSH1 0x0 DUP2 SLOAD DUP1 SWAP3 SWAP2 SWAP1 PUSH2 0x306 SWAP1 PUSH2 0x9FE JUMP JUMPDEST SWAP2 SWAP1 POP SSTORE POP PUSH1 0x0 PUSH1 0x6 PUSH1 0x0 PUSH1 0x3 PUSH1 0x0 DUP2 SLOAD DUP1 SWAP3 SWAP2 SWAP1 PUSH2 0x324 SWAP1 PUSH2 0x9FE JUMP JUMPDEST SWAP2 SWAP1 POP SSTORE DUP2 MSTORE PUSH1 0x20 ADD SWAP1 DUP2 MSTORE PUSH1 0x20 ADD PUSH1 0x0 KECCAK256 SWAP1 POP DUP4 DUP2 PUSH1 0x2 ADD SWAP1 DUP1 MLOAD SWAP1 PUSH1 0x20 ADD SWAP1 PUSH2 0x350 SWAP3 SWAP2 SWAP1 PUSH2 0x595 JUMP JUMPDEST POP DUP3 DUP2 PUSH1 0x0 ADD DUP2 SWAP1 SSTORE POP DUP2 DUP2 PUSH1 0x1 ADD PUSH1 0x0 PUSH2 0x100 EXP DUP2 SLOAD DUP2 PUSH20 0xFFFFFFFFFFFFFFFFFFFFFFFFFFFFFFFFFFFFFFFF MUL NOT AND SWAP1 DUP4 PUSH20 0xFFFFFFFFFFFFFFFFFFFFFFFFFFFFFFFFFFFFFFFF AND MUL OR SWAP1 SSTORE POP PUSH1 0x3 SLOAD DUP2 PUSH1 0x3 ADD DUP2 SWAP1 SSTORE POP PUSH1 0x0 DUP2 PUSH1 0x5 ADD PUSH1 0x0 PUSH2 0x100 EXP DUP2 SLOAD DUP2 PUSH1 0xFF MUL NOT AND SWAP1 DUP4 ISZERO ISZERO MUL OR SWAP1 SSTORE POP PUSH1 0x0 DUP2 PUSH1 0x4 ADD DUP2 SWAP1 SSTORE POP PUSH1 0x0 DUP2 PUSH1 0x5 ADD PUSH1 0x1 PUSH2 0x100 EXP DUP2 SLOAD DUP2 PUSH1 0xFF MUL NOT AND SWAP1 DUP4 ISZERO ISZERO MUL OR SWAP1 SSTORE POP PUSH1 0x0 DUP2 PUSH1 0x5 ADD PUSH1 0x2 PUSH2 0x100 EXP DUP2 SLOAD DUP2 PUSH1 0xFF MUL NOT AND SWAP1 DUP4 ISZERO ISZERO MUL OR SWAP1 SSTORE POP POP POP POP POP JUMP JUMPDEST PUSH1 0x1 SLOAD DUP2 JUMP JUMPDEST PUSH1 0x1 SLOAD CALLVALUE LT ISZERO PUSH2 0x424 JUMPI PUSH1 0x0 DUP1 REVERT JUMPDEST CALLVALUE PUSH1 0x2 PUSH1 0x0 CALLER PUSH20 0xFFFFFFFFFFFFFFFFFFFFFFFFFFFFFFFFFFFFFFFF AND PUSH20 0xFFFFFFFFFFFFFFFFFFFFFFFFFFFFFFFFFFFFFFFF AND DUP2 MSTORE PUSH1 0x20 ADD SWAP1 DUP2 MSTORE PUSH1 0x20 ADD PUSH1 0x0 KECCAK256 PUSH1 0x0 ADD DUP2 SWAP1 SSTORE POP PUSH1 0x1 PUSH1 0x5 PUSH1 0x0 DUP3 DUP3 SLOAD PUSH2 0x47E SWAP2 SWAP1 PUSH2 0x860 JUMP JUMPDEST SWAP3 POP POP DUP2 SWAP1 SSTORE POP JUMP JUMPDEST PUSH1 0x0 DUP1 SLOAD SWAP1 PUSH2 0x100 EXP SWAP1 DIV PUSH20 0xFFFFFFFFFFFFFFFFFFFFFFFFFFFFFFFFFFFFFFFF AND PUSH20 0xFFFFFFFFFFFFFFFFFFFFFFFFFFFFFFFFFFFFFFFF AND CALLER PUSH20 0xFFFFFFFFFFFFFFFFFFFFFFFFFFFFFFFFFFFFFFFF AND EQ PUSH2 0x4DF JUMPI PUSH1 0x0 DUP1 REVERT JUMPDEST PUSH1 0x0 PUSH1 0x6 PUSH1 0x0 PUSH1 0x1 DUP5 PUSH2 0x4F2 SWAP2 SWAP1 PUSH2 0x941 JUMP JUMPDEST DUP2 MSTORE PUSH1 0x20 ADD SWAP1 DUP2 MSTORE PUSH1 0x20 ADD PUSH1 0x0 KECCAK256 SWAP1 POP DUP1 PUSH1 0x5 ADD PUSH1 0x0 SWAP1 SLOAD SWAP1 PUSH2 0x100 EXP SWAP1 DIV PUSH1 0xFF AND ISZERO PUSH2 0x51E JUMPI PUSH1 0x0 DUP1 REVERT JUMPDEST PUSH1 0x0 PUSH1 0x5 SLOAD SWAP1 POP PUSH1 0x0 DUP3 PUSH1 0x4 ADD SLOAD SWAP1 POP PUSH1 0x0 DUP3 PUSH1 0x64 DUP4 PUSH2 0x53E SWAP2 SWAP1 PUSH2 0x8E7 JUMP JUMPDEST PUSH2 0x548 SWAP2 SWAP1 PUSH2 0x8B6 JUMP JUMPDEST SWAP1 POP PUSH1 0x1 DUP5 PUSH1 0x5 ADD PUSH1 0x0 PUSH2 0x100 EXP DUP2 SLOAD DUP2 PUSH1 0xFF MUL NOT AND SWAP1 DUP4 ISZERO ISZERO MUL OR SWAP1 SSTORE POP PUSH1 0x4 SLOAD DUP2 LT PUSH2 0x58E JUMPI PUSH1 0x1 DUP5 PUSH1 0x5 ADD PUSH1 0x1 PUSH2 0x100 EXP DUP2 SLOAD DUP2 PUSH1 0xFF MUL NOT AND SWAP1 DUP4 ISZERO ISZERO MUL OR SWAP1 SSTORE POP JUMPDEST POP POP POP POP POP JUMP JUMPDEST DUP3 DUP1 SLOAD PUSH2 0x5A1 SWAP1 PUSH2 0x9CC JUMP JUMPDEST SWAP1 PUSH1 0x0 MSTORE PUSH1 0x20 PUSH1 0x0 KECCAK256 SWAP1 PUSH1 0x1F ADD PUSH1 0x20 SWAP1 DIV DUP2 ADD SWAP3 DUP3 PUSH2 0x5C3 JUMPI PUSH1 0x0 DUP6 SSTORE PUSH2 0x60A JUMP JUMPDEST DUP3 PUSH1 0x1F LT PUSH2 0x5DC JUMPI DUP1 MLOAD PUSH1 0xFF NOT AND DUP4 DUP1 ADD OR DUP6 SSTORE PUSH2 0x60A JUMP JUMPDEST DUP3 DUP1 ADD PUSH1 0x1 ADD DUP6 SSTORE DUP3 ISZERO PUSH2 0x60A JUMPI SWAP2 DUP3 ADD JUMPDEST DUP3 DUP2 GT ISZERO PUSH2 0x609 JUMPI DUP3 MLOAD DUP3 SSTORE SWAP2 PUSH1 0x20 ADD SWAP2 SWAP1 PUSH1 0x1 ADD SWAP1 PUSH2 0x5EE JUMP JUMPDEST JUMPDEST POP SWAP1 POP PUSH2 0x617 SWAP2 SWAP1 PUSH2 0x61B JUMP JUMPDEST POP SWAP1 JUMP JUMPDEST JUMPDEST DUP1 DUP3 GT ISZERO PUSH2 0x634 JUMPI PUSH1 0x0 DUP2 PUSH1 0x0 SWAP1 SSTORE POP PUSH1 0x1 ADD PUSH2 0x61C JUMP JUMPDEST POP SWAP1 JUMP JUMPDEST PUSH1 0x0 PUSH2 0x64B PUSH2 0x646 DUP5 PUSH2 0x830 JUMP JUMPDEST PUSH2 0x7FF JUMP JUMPDEST SWAP1 POP DUP3 DUP2 MSTORE PUSH1 0x20 DUP2 ADD DUP5 DUP5 DUP5 ADD GT ISZERO PUSH2 0x663 JUMPI PUSH1 0x0 DUP1 REVERT JUMPDEST PUSH2 0x66E DUP5 DUP3 DUP6 PUSH2 0x9BD JUMP JUMPDEST POP SWAP4 SWAP3 POP POP POP JUMP JUMPDEST PUSH1 0x0 DUP2 CALLDATALOAD SWAP1 POP PUSH2 0x685 DUP2 PUSH2 0xB03 JUMP JUMPDEST SWAP3 SWAP2 POP POP JUMP JUMPDEST PUSH1 0x0 DUP2 CALLDATALOAD SWAP1 POP PUSH2 0x69A DUP2 PUSH2 0xB1A JUMP JUMPDEST SWAP3 SWAP2 POP POP JUMP JUMPDEST PUSH1 0x0 DUP3 PUSH1 0x1F DUP4 ADD SLT PUSH2 0x6B1 JUMPI PUSH1 0x0 DUP1 REVERT JUMPDEST DUP2 CALLDATALOAD PUSH2 0x6C1 DUP5 DUP3 PUSH1 0x20 DUP7 ADD PUSH2 0x638 JUMP JUMPDEST SWAP2 POP POP SWAP3 SWAP2 POP POP JUMP JUMPDEST PUSH1 0x0 DUP2 CALLDATALOAD SWAP1 POP PUSH2 0x6D9 DUP2 PUSH2 0xB31 JUMP JUMPDEST SWAP3 SWAP2 POP POP JUMP JUMPDEST PUSH1 0x0 DUP1 PUSH1 0x0 PUSH1 0x60 DUP5 DUP7 SUB SLT ISZERO PUSH2 0x6F4 JUMPI PUSH1 0x0 DUP1 REVERT JUMPDEST PUSH1 0x0 DUP5 ADD CALLDATALOAD PUSH8 0xFFFFFFFFFFFFFFFF DUP2 GT ISZERO PUSH2 0x70E JUMPI PUSH1 0x0 DUP1 REVERT JUMPDEST PUSH2 0x71A DUP7 DUP3 DUP8 ADD PUSH2 0x6A0 JUMP JUMPDEST SWAP4 POP POP PUSH1 0x20 PUSH2 0x72B DUP7 DUP3 DUP8 ADD PUSH2 0x6CA JUMP JUMPDEST SWAP3 POP POP PUSH1 0x40 PUSH2 0x73C DUP7 DUP3 DUP8 ADD PUSH2 0x676 JUMP JUMPDEST SWAP2 POP POP SWAP3 POP SWAP3 POP SWAP3 JUMP JUMPDEST PUSH1 0x0 PUSH1 0x20 DUP3 DUP5 SUB SLT ISZERO PUSH2 0x758 JUMPI PUSH1 0x0 DUP1 REVERT JUMPDEST PUSH1 0x0 PUSH2 0x766 DUP5 DUP3 DUP6 ADD PUSH2 0x6CA JUMP JUMPDEST SWAP2 POP POP SWAP3 SWAP2 POP POP JUMP JUMPDEST PUSH1 0x0 DUP1 PUSH1 0x40 DUP4 DUP6 SUB SLT ISZERO PUSH2 0x782 JUMPI PUSH1 0x0 DUP1 REVERT JUMPDEST PUSH1 0x0 PUSH2 0x790 DUP6 DUP3 DUP7 ADD PUSH2 0x6CA JUMP JUMPDEST SWAP3 POP POP PUSH1 0x20 PUSH2 0x7A1 DUP6 DUP3 DUP7 ADD PUSH2 0x68B JUMP JUMPDEST SWAP2 POP POP SWAP3 POP SWAP3 SWAP1 POP JUMP JUMPDEST PUSH2 0x7B4 DUP2 PUSH2 0x975 JUMP JUMPDEST DUP3 MSTORE POP POP JUMP JUMPDEST PUSH2 0x7C3 DUP2 PUSH2 0x9B3 JUMP JUMPDEST DUP3 MSTORE POP POP JUMP JUMPDEST PUSH1 0x0 PUSH1 0x20 DUP3 ADD SWAP1 POP PUSH2 0x7DE PUSH1 0x0 DUP4 ADD DUP5 PUSH2 0x7AB JUMP JUMPDEST SWAP3 SWAP2 POP POP JUMP JUMPDEST PUSH1 0x0 PUSH1 0x20 DUP3 ADD SWAP1 POP PUSH2 0x7F9 PUSH1 0x0 DUP4 ADD DUP5 PUSH2 0x7BA JUMP JUMPDEST SWAP3 SWAP2 POP POP JUMP JUMPDEST PUSH1 0x0 PUSH1 0x40 MLOAD SWAP1 POP DUP2 DUP2 ADD DUP2 DUP2 LT PUSH8 0xFFFFFFFFFFFFFFFF DUP3 GT OR ISZERO PUSH2 0x826 JUMPI PUSH2 0x825 PUSH2 0xAD4 JUMP JUMPDEST JUMPDEST DUP1 PUSH1 0x40 MSTORE POP SWAP2 SWAP1 POP JUMP JUMPDEST PUSH1 0x0 PUSH8 0xFFFFFFFFFFFFFFFF DUP3 GT ISZERO PUSH2 0x84B JUMPI PUSH2 0x84A PUSH2 0xAD4 JUMP JUMPDEST JUMPDEST PUSH1 0x1F NOT PUSH1 0x1F DUP4 ADD AND SWAP1 POP PUSH1 0x20 DUP2 ADD SWAP1 POP SWAP2 SWAP1 POP JUMP JUMPDEST PUSH1 0x0 PUSH2 0x86B DUP3 PUSH2 0x9B3 JUMP JUMPDEST SWAP2 POP PUSH2 0x876 DUP4 PUSH2 0x9B3 JUMP JUMPDEST SWAP3 POP DUP3 PUSH32 0xFFFFFFFFFFFFFFFFFFFFFFFFFFFFFFFFFFFFFFFFFFFFFFFFFFFFFFFFFFFFFFFF SUB DUP3 GT ISZERO PUSH2 0x8AB JUMPI PUSH2 0x8AA PUSH2 0xA47 JUMP JUMPDEST JUMPDEST DUP3 DUP3 ADD SWAP1 POP SWAP3 SWAP2 POP POP JUMP JUMPDEST PUSH1 0x0 PUSH2 0x8C1 DUP3 PUSH2 0x9B3 JUMP JUMPDEST SWAP2 POP PUSH2 0x8CC DUP4 PUSH2 0x9B3 JUMP JUMPDEST SWAP3 POP DUP3 PUSH2 0x8DC JUMPI PUSH2 0x8DB PUSH2 0xA76 JUMP JUMPDEST JUMPDEST DUP3 DUP3 DIV SWAP1 POP SWAP3 SWAP2 POP POP JUMP JUMPDEST PUSH1 0x0 PUSH2 0x8F2 DUP3 PUSH2 0x9B3 JUMP JUMPDEST SWAP2 POP PUSH2 0x8FD DUP4 PUSH2 0x9B3 JUMP JUMPDEST SWAP3 POP DUP2 PUSH32 0xFFFFFFFFFFFFFFFFFFFFFFFFFFFFFFFFFFFFFFFFFFFFFFFFFFFFFFFFFFFFFFFF DIV DUP4 GT DUP3 ISZERO ISZERO AND ISZERO PUSH2 0x936 JUMPI PUSH2 0x935 PUSH2 0xA47 JUMP JUMPDEST JUMPDEST DUP3 DUP3 MUL SWAP1 POP SWAP3 SWAP2 POP POP JUMP JUMPDEST PUSH1 0x0 PUSH2 0x94C DUP3 PUSH2 0x9B3 JUMP JUMPDEST SWAP2 POP PUSH2 0x957 DUP4 PUSH2 0x9B3 JUMP JUMPDEST SWAP3 POP DUP3 DUP3 LT ISZERO PUSH2 0x96A JUMPI PUSH2 0x969 PUSH2 0xA47 JUMP JUMPDEST JUMPDEST DUP3 DUP3 SUB SWAP1 POP SWAP3 SWAP2 POP POP JUMP JUMPDEST PUSH1 0x0 PUSH2 0x980 DUP3 PUSH2 0x993 JUMP JUMPDEST SWAP1 POP SWAP2 SWAP1 POP JUMP JUMPDEST PUSH1 0x0 DUP2 ISZERO ISZERO SWAP1 POP SWAP2 SWAP1 POP JUMP JUMPDEST PUSH1 0x0 PUSH20 0xFFFFFFFFFFFFFFFFFFFFFFFFFFFFFFFFFFFFFFFF DUP3 AND SWAP1 POP SWAP2 SWAP1 POP JUMP JUMPDEST PUSH1 0x0 DUP2 SWAP1 POP SWAP2 SWAP1 POP JUMP JUMPDEST DUP3 DUP2 DUP4 CALLDATACOPY PUSH1 0x0 DUP4 DUP4 ADD MSTORE POP POP POP JUMP JUMPDEST PUSH1 0x0 PUSH1 0x2 DUP3 DIV SWAP1 POP PUSH1 0x1 DUP3 AND DUP1 PUSH2 0x9E4 JUMPI PUSH1 0x7F DUP3 AND SWAP2 POP JUMPDEST PUSH1 0x20 DUP3 LT DUP2 EQ ISZERO PUSH2 0x9F8 JUMPI PUSH2 0x9F7 PUSH2 0xAA5 JUMP JUMPDEST JUMPDEST POP SWAP2 SWAP1 POP JUMP JUMPDEST PUSH1 0x0 PUSH2 0xA09 DUP3 PUSH2 0x9B3 JUMP JUMPDEST SWAP2 POP PUSH32 0xFFFFFFFFFFFFFFFFFFFFFFFFFFFFFFFFFFFFFFFFFFFFFFFFFFFFFFFFFFFFFFFF DUP3 EQ ISZERO PUSH2 0xA3C JUMPI PUSH2 0xA3B PUSH2 0xA47 JUMP JUMPDEST JUMPDEST PUSH1 0x1 DUP3 ADD SWAP1 POP SWAP2 SWAP1 POP JUMP JUMPDEST PUSH32 0x4E487B7100000000000000000000000000000000000000000000000000000000 PUSH1 0x0 MSTORE PUSH1 0x11 PUSH1 0x4 MSTORE PUSH1 0x24 PUSH1 0x0 REVERT JUMPDEST PUSH32 0x4E487B7100000000000000000000000000000000000000000000000000000000 PUSH1 0x0 MSTORE PUSH1 0x12 PUSH1 0x4 MSTORE PUSH1 0x24 PUSH1 0x0 REVERT JUMPDEST PUSH32 0x4E487B7100000000000000000000000000000000000000000000000000000000 PUSH1 0x0 MSTORE PUSH1 0x22 PUSH1 0x4 MSTORE PUSH1 0x24 PUSH1 0x0 REVERT JUMPDEST PUSH32 0x4E487B7100000000000000000000000000000000000000000000000000000000 PUSH1 0x0 MSTORE PUSH1 0x41 PUSH1 0x4 MSTORE PUSH1 0x24 PUSH1 0x0 REVERT JUMPDEST PUSH2 0xB0C DUP2 PUSH2 0x975 JUMP JUMPDEST DUP2 EQ PUSH2 0xB17 JUMPI PUSH1 0x0 DUP1 REVERT JUMPDEST POP JUMP JUMPDEST PUSH2 0xB23 DUP2 PUSH2 0x987 JUMP JUMPDEST DUP2 EQ PUSH2 0xB2E JUMPI PUSH1 0x0 DUP1 REVERT JUMPDEST POP JUMP JUMPDEST PUSH2 0xB3A DUP2 PUSH2 0x9B3 JUMP JUMPDEST DUP2 EQ PUSH2 0xB45 JUMPI PUSH1 0x0 DUP1 REVERT JUMPDEST POP JUMP INVALID LOG2 PUSH5 0x6970667358 0x22 SLT KECCAK256 CHAINID 0x26 0xA5 0xBE 0xE6 DUP13 0xED 0xE1 0x26 DIV 0x2A 0x21 0xFC PUSH19 0x4C4F4ABE1C947796FD79C307BBC77C85661664 PUSH20 0x6F6C634300080000330000000000000000000000 "},"gasEstimates":{"creation":{"codeDepositCost":"588400","executionCost":"infinite","totalCost":"infinite"},"external":{"approveRequest(uint256,bool)":"infinite","checkApproval(uint256)":"infinite","contribute()":"infinite","createRequest(string,uint256,address)":"infinite","manager()":"1189","minContribution()":"1173"}},"methodIdentifiers":{"approveRequest(uint256,bool)":"767e0b9c","checkApproval(uint256)":"fea21ce5","contribute()":"d7bb99ba","createRequest(string,uint256,address)":"8a9cfd55","manager()":"481c6a75","minContribution()":"aaffadf3"}},"storageLayout":{"storage":[{"astId":55,"contract":"campaign.sol:campaign","label":"manager","offset":0,"slot":"0","type":"t_address"},{"astId":57,"contract":"campaign.sol:campaign","label":"minContribution","offset":0,"slot":"1","type":"t_uint256"},{"astId":62,"contract":"campaign.sol:campaign","label":"approvers","offset":0,"slot":"2","type":"t_mapping(t_address,t_struct(approver)76_storage)"},{"astId":64,"contract":"campaign.sol:campaign","label":"reqNumber","offset":0,"slot":"3","type":"t_uint256"},{"astId":66,"contract":"campaign.sol:campaign","label":"approveThreshlod","offset":0,"slot":"4","type":"t_uint256"},{"astId":68,"contract":"campaign.sol:campaign","label":"numberOfApprovers","offset":0,"slot":"5","type":"t_uint256"},{"astId":73,"contract":"campaign.sol:campaign","label":"requests","offset":0,"slot":"6","type":"t_mapping(t_uint256,t_struct(request)97_storage)"}],"types":{"t_address":{"encoding":"inplace","label":"address","numberOfBytes":"20"},"t_bool":{"encoding":"inplace","label":"bool","numberOfBytes":"1"},"t_mapping(t_address,t_struct(approver)76_storage)":{"encoding":"mapping","key":"t_address","label":"mapping(address => struct campaign.approver)","numberOfBytes":"32","value":"t_struct(approver)76_storage"},"t_mapping(t_address,t_uint256)":{"encoding":"mapping","key":"t_address","label":"mapping(address => uint256)","numberOfBytes":"32","value":"t_uint256"},"t_mapping(t_uint256,t_struct(request)97_storage)":{"encoding":"mapping","key":"t_uint256","label":"mapping(uint256 => struct campaign.request)","numberOfBytes":"32","value":"t_struct(request)97_storage"},"t_string_storage":{"encoding":"bytes","label":"string","numberOfBytes":"32"},"t_struct(approver)76_storage":{"encoding":"inplace","label":"struct campaign.approver","members":[{"astId":75,"contract":"campaign.sol:campaign","label":"stakeValue","offset":0,"slot":"0","type":"t_uint256"}],"numberOfBytes":"32"},"t_struct(request)97_storage":{"encoding":"inplace","label":"struct campaign.request","members":[{"astId":78,"contract":"campaign.sol:campaign","label":"value","offset":0,"slot":"0","type":"t_uint256"},{"astId":80,"contract":"campaign.sol:campaign","label":"recipient","offset":0,"slot":"1","type":"t_address"},{"astId":82,"contract":"campaign.sol:campaign","label":"description","offset":0,"slot":"2","type":"t_string_storage"},{"astId":84,"contract":"campaign.sol:campaign","label":"index","offset":0,"slot":"3","type":"t_uint256"},{"astId":86,"contract":"campaign.sol:campaign","label":"denials","offset":0,"slot":"4","type":"t_uint256"},{"astId":88,"contract":"campaign.sol:campaign","label":"isProcessed","offset":0,"slot":"5","type":"t_bool"},{"astId":90,"contract":"campaign.sol:campaign","label":"approved","offset":1,"slot":"5","type":"t_bool"},{"astId":92,"contract":"campaign.sol:campaign","label":"isTransferred","offset":2,"slot":"5","type":"t_bool"},{"astId":96,"contract":"campaign.sol:campaign","label":"state","offset":0,"slot":"6","type":"t_mapping(t_address,t_uint256)"}],"numberOfBytes":"224"},"t_uint256":{"encoding":"inplace","label":"uint256","numberOfBytes":"32"}}},"userdoc":{"kind":"user","methods":{},"version":1}}