{"abi":[{"inputs":[{"internalType":"uint256","name":"min_val","type":"uint256"},{"internalType":"uint256","name":"threshold","type":"uint256"},{"internalType":"uint256","name":"timewindow","type":"uint256"},{"internalType":"address","name":"creator","type":"address"}],"stateMutability":"nonpayable","type":"constructor"},{"inputs":[{"internalType":"uint256","name":"req_number","type":"uint256"},{"internalType":"bool","name":"isApproved","type":"bool"}],"name":"approveRequest","outputs":[],"stateMutability":"nonpayable","type":"function"},{"inputs":[],"name":"contribute","outputs":[],"stateMutability":"payable","type":"function"},{"inputs":[{"internalType":"string","name":"description","type":"string"},{"internalType":"uint256","name":"value","type":"uint256"},{"internalType":"address","name":"recipient","type":"address"}],"name":"createRequest","outputs":[],"stateMutability":"nonpayable","type":"function"},{"inputs":[{"internalType":"uint256","name":"req_number","type":"uint256"}],"name":"getRequest","outputs":[{"components":[{"internalType":"uint256","name":"value","type":"uint256"},{"internalType":"address","name":"recipient","type":"address"},{"internalType":"string","name":"description","type":"string"},{"internalType":"uint256","name":"index","type":"uint256"},{"internalType":"uint256","name":"denials","type":"uint256"},{"internalType":"bool","name":"isProcessed","type":"bool"},{"internalType":"bool","name":"isApproved","type":"bool"},{"internalType":"uint256","name":"deadline","type":"uint256"}],"internalType":"struct campaign.request","name":"","type":"tuple"}],"stateMutability":"view","type":"function"},{"inputs":[],"name":"getRequestCount","outputs":[{"internalType":"uint256","name":"","type":"uint256"}],"stateMutability":"view","type":"function"},{"inputs":[],"name":"manager","outputs":[{"internalType":"address","name":"","type":"address"}],"stateMutability":"view","type":"function"},{"inputs":[{"internalType":"uint256","name":"req_number","type":"uint256"}],"name":"processRequest","outputs":[],"stateMutability":"nonpayable","type":"function"},{"inputs":[{"internalType":"uint256","name":"","type":"uint256"}],"name":"requests","outputs":[{"internalType":"uint256","name":"value","type":"uint256"},{"internalType":"address","name":"recipient","type":"address"},{"internalType":"string","name":"description","type":"string"},{"internalType":"uint256","name":"index","type":"uint256"},{"internalType":"uint256","name":"denials","type":"uint256"},{"internalType":"bool","name":"isProcessed","type":"bool"},{"internalType":"bool","name":"isApproved","type":"bool"},{"internalType":"uint256","name":"deadline","type":"uint256"}],"stateMutability":"view","type":"function"},{"inputs":[],"name":"returnStats","outputs":[{"internalType":"uint256","name":"","type":"uint256"},{"internalType":"uint256","name":"","type":"uint256"},{"internalType":"uint256","name":"","type":"uint256"},{"internalType":"uint256","name":"","type":"uint256"},{"internalType":"uint256","name":"","type":"uint256"},{"internalType":"address","name":"","type":"address"}],"stateMutability":"view","type":"function"},{"inputs":[{"internalType":"uint256","name":"req_number","type":"uint256"}],"name":"transferRequestMoney","outputs":[],"stateMutability":"nonpayable","type":"function"}],"devdoc":{"kind":"dev","methods":{},"version":1},"evm":{"assembly":"    /* \"campaign.sol\":729:5175  contract campaign{\r... */\n  mstore(0x40, 0x80)\n    /* \"campaign.sol\":1654:1929  constructor(uint min_val,uint threshold,uint timewindow, address creator) {\r... */\n  callvalue\n  dup1\n  iszero\n  tag_1\n  jumpi\n  0x00\n  dup1\n  revert\ntag_1:\n  pop\n  mload(0x40)\n  sub(codesize, bytecodeSize)\n  dup1\n  bytecodeSize\n  dup4\n  codecopy\n  dup2\n  dup2\n  add\n  0x40\n  mstore\n  dup2\n  add\n  swap1\n  tag_2\n  swap2\n  swap1\n  tag_3\n  jump\t// in\ntag_2:\n    /* \"campaign.sol\":1749:1756  creator */\n  dup1\n    /* \"campaign.sol\":1739:1746  manager */\n  0x00\n  dup1\n    /* \"campaign.sol\":1739:1756  manager = creator */\n  0x0100\n  exp\n  dup2\n  sload\n  dup2\n  0xffffffffffffffffffffffffffffffffffffffff\n  mul\n  not\n  and\n  swap1\n  dup4\n  0xffffffffffffffffffffffffffffffffffffffff\n  and\n  mul\n  or\n  swap1\n  sstore\n  pop\n    /* \"campaign.sol\":1785:1792  min_val */\n  dup4\n    /* \"campaign.sol\":1767:1782  minContribution */\n  0x01\n    /* \"campaign.sol\":1767:1792  minContribution = min_val */\n  dup2\n  swap1\n  sstore\n  pop\n    /* \"campaign.sol\":1822:1831  threshold */\n  dup3\n    /* \"campaign.sol\":1803:1819  approveThreshlod */\n  0x05\n    /* \"campaign.sol\":1803:1831  approveThreshlod = threshold */\n  dup2\n  swap1\n  sstore\n  pop\n    /* \"campaign.sol\":1854:1855  0 */\n  0x00\n    /* \"campaign.sol\":1842:1851  reqNumber */\n  0x04\n    /* \"campaign.sol\":1842:1855  reqNumber = 0 */\n  dup2\n  swap1\n  sstore\n  pop\n    /* \"campaign.sol\":1886:1887  0 */\n  0x00\n    /* \"campaign.sol\":1866:1883  numberOfApprovers */\n  0x06\n    /* \"campaign.sol\":1866:1887  numberOfApprovers = 0 */\n  dup2\n  swap1\n  sstore\n  pop\n    /* \"campaign.sol\":1911:1921  timewindow */\n  dup2\n    /* \"campaign.sol\":1898:1908  timeWindow */\n  0x07\n    /* \"campaign.sol\":1898:1921  timeWindow = timewindow */\n  dup2\n  swap1\n  sstore\n  pop\n    /* \"campaign.sol\":1654:1929  constructor(uint min_val,uint threshold,uint timewindow, address creator) {\r... */\n  pop\n  pop\n  pop\n  pop\n    /* \"campaign.sol\":729:5175  contract campaign{\r... */\n  jump(tag_6)\n    /* \"#utility.yul\":7:150   */\ntag_8:\n  0x00\n    /* \"#utility.yul\":95:101   */\n  dup2\n    /* \"#utility.yul\":89:102   */\n  mload\n    /* \"#utility.yul\":80:102   */\n  swap1\n  pop\n    /* \"#utility.yul\":111:144   */\n  tag_10\n    /* \"#utility.yul\":138:143   */\n  dup2\n    /* \"#utility.yul\":111:144   */\n  tag_11\n  jump\t// in\ntag_10:\n    /* \"#utility.yul\":70:150   */\n  swap3\n  swap2\n  pop\n  pop\n  jump\t// out\n    /* \"#utility.yul\":156:299   */\ntag_12:\n  0x00\n    /* \"#utility.yul\":244:250   */\n  dup2\n    /* \"#utility.yul\":238:251   */\n  mload\n    /* \"#utility.yul\":229:251   */\n  swap1\n  pop\n    /* \"#utility.yul\":260:293   */\n  tag_14\n    /* \"#utility.yul\":287:292   */\n  dup2\n    /* \"#utility.yul\":260:293   */\n  tag_15\n  jump\t// in\ntag_14:\n    /* \"#utility.yul\":219:299   */\n  swap3\n  swap2\n  pop\n  pop\n  jump\t// out\n    /* \"#utility.yul\":305:1058   */\ntag_3:\n  0x00\n  dup1\n  0x00\n  dup1\n    /* \"#utility.yul\":475:478   */\n  0x80\n    /* \"#utility.yul\":463:472   */\n  dup6\n    /* \"#utility.yul\":454:461   */\n  dup8\n    /* \"#utility.yul\":450:473   */\n  sub\n    /* \"#utility.yul\":446:479   */\n  slt\n    /* \"#utility.yul\":443:445   */\n  iszero\n  tag_17\n  jumpi\n    /* \"#utility.yul\":492:493   */\n  0x00\n    /* \"#utility.yul\":489:490   */\n  dup1\n    /* \"#utility.yul\":482:494   */\n  revert\n    /* \"#utility.yul\":443:445   */\ntag_17:\n    /* \"#utility.yul\":535:536   */\n  0x00\n    /* \"#utility.yul\":560:624   */\n  tag_18\n    /* \"#utility.yul\":616:623   */\n  dup8\n    /* \"#utility.yul\":607:613   */\n  dup3\n    /* \"#utility.yul\":596:605   */\n  dup9\n    /* \"#utility.yul\":592:614   */\n  add\n    /* \"#utility.yul\":560:624   */\n  tag_12\n  jump\t// in\ntag_18:\n    /* \"#utility.yul\":550:624   */\n  swap5\n  pop\n    /* \"#utility.yul\":506:634   */\n  pop\n    /* \"#utility.yul\":673:675   */\n  0x20\n    /* \"#utility.yul\":699:763   */\n  tag_19\n    /* \"#utility.yul\":755:762   */\n  dup8\n    /* \"#utility.yul\":746:752   */\n  dup3\n    /* \"#utility.yul\":735:744   */\n  dup9\n    /* \"#utility.yul\":731:753   */\n  add\n    /* \"#utility.yul\":699:763   */\n  tag_12\n  jump\t// in\ntag_19:\n    /* \"#utility.yul\":689:763   */\n  swap4\n  pop\n    /* \"#utility.yul\":644:773   */\n  pop\n    /* \"#utility.yul\":812:814   */\n  0x40\n    /* \"#utility.yul\":838:902   */\n  tag_20\n    /* \"#utility.yul\":894:901   */\n  dup8\n    /* \"#utility.yul\":885:891   */\n  dup3\n    /* \"#utility.yul\":874:883   */\n  dup9\n    /* \"#utility.yul\":870:892   */\n  add\n    /* \"#utility.yul\":838:902   */\n  tag_12\n  jump\t// in\ntag_20:\n    /* \"#utility.yul\":828:902   */\n  swap3\n  pop\n    /* \"#utility.yul\":783:912   */\n  pop\n    /* \"#utility.yul\":951:953   */\n  0x60\n    /* \"#utility.yul\":977:1041   */\n  tag_21\n    /* \"#utility.yul\":1033:1040   */\n  dup8\n    /* \"#utility.yul\":1024:1030   */\n  dup3\n    /* \"#utility.yul\":1013:1022   */\n  dup9\n    /* \"#utility.yul\":1009:1031   */\n  add\n    /* \"#utility.yul\":977:1041   */\n  tag_8\n  jump\t// in\ntag_21:\n    /* \"#utility.yul\":967:1041   */\n  swap2\n  pop\n    /* \"#utility.yul\":922:1051   */\n  pop\n    /* \"#utility.yul\":433:1058   */\n  swap3\n  swap6\n  swap2\n  swap5\n  pop\n  swap3\n  pop\n  jump\t// out\n    /* \"#utility.yul\":1064:1160   */\ntag_22:\n  0x00\n    /* \"#utility.yul\":1130:1154   */\n  tag_24\n    /* \"#utility.yul\":1148:1153   */\n  dup3\n    /* \"#utility.yul\":1130:1154   */\n  tag_25\n  jump\t// in\ntag_24:\n    /* \"#utility.yul\":1119:1154   */\n  swap1\n  pop\n    /* \"#utility.yul\":1109:1160   */\n  swap2\n  swap1\n  pop\n  jump\t// out\n    /* \"#utility.yul\":1166:1292   */\ntag_25:\n  0x00\n    /* \"#utility.yul\":1243:1285   */\n  0xffffffffffffffffffffffffffffffffffffffff\n    /* \"#utility.yul\":1236:1241   */\n  dup3\n    /* \"#utility.yul\":1232:1286   */\n  and\n    /* \"#utility.yul\":1221:1286   */\n  swap1\n  pop\n    /* \"#utility.yul\":1211:1292   */\n  swap2\n  swap1\n  pop\n  jump\t// out\n    /* \"#utility.yul\":1298:1375   */\ntag_27:\n  0x00\n    /* \"#utility.yul\":1364:1369   */\n  dup2\n    /* \"#utility.yul\":1353:1369   */\n  swap1\n  pop\n    /* \"#utility.yul\":1343:1375   */\n  swap2\n  swap1\n  pop\n  jump\t// out\n    /* \"#utility.yul\":1381:1503   */\ntag_11:\n    /* \"#utility.yul\":1454:1478   */\n  tag_30\n    /* \"#utility.yul\":1472:1477   */\n  dup2\n    /* \"#utility.yul\":1454:1478   */\n  tag_22\n  jump\t// in\ntag_30:\n    /* \"#utility.yul\":1447:1452   */\n  dup2\n    /* \"#utility.yul\":1444:1479   */\n  eq\n    /* \"#utility.yul\":1434:1436   */\n  tag_31\n  jumpi\n    /* \"#utility.yul\":1493:1494   */\n  0x00\n    /* \"#utility.yul\":1490:1491   */\n  dup1\n    /* \"#utility.yul\":1483:1495   */\n  revert\n    /* \"#utility.yul\":1434:1436   */\ntag_31:\n    /* \"#utility.yul\":1424:1503   */\n  pop\n  jump\t// out\n    /* \"#utility.yul\":1509:1631   */\ntag_15:\n    /* \"#utility.yul\":1582:1606   */\n  tag_33\n    /* \"#utility.yul\":1600:1605   */\n  dup2\n    /* \"#utility.yul\":1582:1606   */\n  tag_27\n  jump\t// in\ntag_33:\n    /* \"#utility.yul\":1575:1580   */\n  dup2\n    /* \"#utility.yul\":1572:1607   */\n  eq\n    /* \"#utility.yul\":1562:1564   */\n  tag_34\n  jumpi\n    /* \"#utility.yul\":1621:1622   */\n  0x00\n    /* \"#utility.yul\":1618:1619   */\n  dup1\n    /* \"#utility.yul\":1611:1623   */\n  revert\n    /* \"#utility.yul\":1562:1564   */\ntag_34:\n    /* \"#utility.yul\":1552:1631   */\n  pop\n  jump\t// out\n    /* \"campaign.sol\":729:5175  contract campaign{\r... */\ntag_6:\n  dataSize(sub_0)\n  dup1\n  dataOffset(sub_0)\n  0x00\n  codecopy\n  0x00\n  return\nstop\n\nsub_0: assembly {\n        /* \"campaign.sol\":729:5175  contract campaign{\r... */\n      mstore(0x40, 0x80)\n      jumpi(tag_1, lt(calldatasize, 0x04))\n      shr(0xe0, calldataload(0x00))\n      dup1\n      0x8a9cfd55\n      gt\n      tag_12\n      jumpi\n      dup1\n      0x8a9cfd55\n      eq\n      tag_7\n      jumpi\n      dup1\n      0xb664a9f1\n      eq\n      tag_8\n      jumpi\n      dup1\n      0xbd0681a4\n      eq\n      tag_9\n      jumpi\n      dup1\n      0xc58343ef\n      eq\n      tag_10\n      jumpi\n      dup1\n      0xd7bb99ba\n      eq\n      tag_11\n      jumpi\n      jump(tag_1)\n    tag_12:\n      dup1\n      0x2d8f1adc\n      eq\n      tag_2\n      jumpi\n      dup1\n      0x3fad1834\n      eq\n      tag_3\n      jumpi\n      dup1\n      0x481c6a75\n      eq\n      tag_4\n      jumpi\n      dup1\n      0x767e0b9c\n      eq\n      tag_5\n      jumpi\n      dup1\n      0x81d12c58\n      eq\n      tag_6\n      jumpi\n    tag_1:\n      0x00\n      dup1\n      revert\n        /* \"campaign.sol\":4746:4954  function returnStats() public view returns(uint,uint,uint,uint,uint,address){\r... */\n    tag_2:\n      callvalue\n      dup1\n      iszero\n      tag_13\n      jumpi\n      0x00\n      dup1\n      revert\n    tag_13:\n      pop\n      tag_14\n      tag_15\n      jump\t// in\n    tag_14:\n      mload(0x40)\n      tag_16\n      swap7\n      swap6\n      swap5\n      swap4\n      swap3\n      swap2\n      swap1\n      tag_17\n      jump\t// in\n    tag_16:\n      mload(0x40)\n      dup1\n      swap2\n      sub\n      swap1\n      return\n        /* \"campaign.sol\":4960:5048  function getRequestCount() public view returns (uint){\r... */\n    tag_3:\n      callvalue\n      dup1\n      iszero\n      tag_18\n      jumpi\n      0x00\n      dup1\n      revert\n    tag_18:\n      pop\n      tag_19\n      tag_20\n      jump\t// in\n    tag_19:\n      mload(0x40)\n      tag_21\n      swap2\n      swap1\n      tag_22\n      jump\t// in\n    tag_21:\n      mload(0x40)\n      dup1\n      swap2\n      sub\n      swap1\n      return\n        /* \"campaign.sol\":759:781  address public manager */\n    tag_4:\n      callvalue\n      dup1\n      iszero\n      tag_23\n      jumpi\n      0x00\n      dup1\n      revert\n    tag_23:\n      pop\n      tag_24\n      tag_25\n      jump\t// in\n    tag_24:\n      mload(0x40)\n      tag_26\n      swap2\n      swap1\n      tag_27\n      jump\t// in\n    tag_26:\n      mload(0x40)\n      dup1\n      swap2\n      sub\n      swap1\n      return\n        /* \"campaign.sol\":2803:3666  function approveRequest(uint req_number, bool isApproved) public{\r... */\n    tag_5:\n      callvalue\n      dup1\n      iszero\n      tag_28\n      jumpi\n      0x00\n      dup1\n      revert\n    tag_28:\n      pop\n      tag_29\n      0x04\n      dup1\n      calldatasize\n      sub\n      dup2\n      add\n      swap1\n      tag_30\n      swap2\n      swap1\n      tag_31\n      jump\t// in\n    tag_30:\n      tag_32\n      jump\t// in\n    tag_29:\n      stop\n        /* \"campaign.sol\":1057:1083  request [] public requests */\n    tag_6:\n      callvalue\n      dup1\n      iszero\n      tag_33\n      jumpi\n      0x00\n      dup1\n      revert\n    tag_33:\n      pop\n      tag_34\n      0x04\n      dup1\n      calldatasize\n      sub\n      dup2\n      add\n      swap1\n      tag_35\n      swap2\n      swap1\n      tag_36\n      jump\t// in\n    tag_35:\n      tag_37\n      jump\t// in\n    tag_34:\n      mload(0x40)\n      tag_38\n      swap9\n      swap8\n      swap7\n      swap6\n      swap5\n      swap4\n      swap3\n      swap2\n      swap1\n      tag_39\n      jump\t// in\n    tag_38:\n      mload(0x40)\n      dup1\n      swap2\n      sub\n      swap1\n      return\n        /* \"campaign.sol\":2294:2797  function createRequest(string memory description , uint value, address recipient) public restricted{\r... */\n    tag_7:\n      callvalue\n      dup1\n      iszero\n      tag_40\n      jumpi\n      0x00\n      dup1\n      revert\n    tag_40:\n      pop\n      tag_41\n      0x04\n      dup1\n      calldatasize\n      sub\n      dup2\n      add\n      swap1\n      tag_42\n      swap2\n      swap1\n      tag_43\n      jump\t// in\n    tag_42:\n      tag_44\n      jump\t// in\n    tag_41:\n      stop\n        /* \"campaign.sol\":3672:4407  function processRequest(uint req_number) public restricted{\r... */\n    tag_8:\n      callvalue\n      dup1\n      iszero\n      tag_45\n      jumpi\n      0x00\n      dup1\n      revert\n    tag_45:\n      pop\n      tag_46\n      0x04\n      dup1\n      calldatasize\n      sub\n      dup2\n      add\n      swap1\n      tag_47\n      swap2\n      swap1\n      tag_36\n      jump\t// in\n    tag_47:\n      tag_48\n      jump\t// in\n    tag_46:\n      stop\n        /* \"campaign.sol\":4413:4677  function transferRequestMoney(uint req_number) public restricted{\r... */\n    tag_9:\n      callvalue\n      dup1\n      iszero\n      tag_49\n      jumpi\n      0x00\n      dup1\n      revert\n    tag_49:\n      pop\n      tag_50\n      0x04\n      dup1\n      calldatasize\n      sub\n      dup2\n      add\n      swap1\n      tag_51\n      swap2\n      swap1\n      tag_36\n      jump\t// in\n    tag_51:\n      tag_52\n      jump\t// in\n    tag_50:\n      stop\n        /* \"campaign.sol\":5054:5172  function getRequest(uint req_number) public view returns(request memory){\r... */\n    tag_10:\n      callvalue\n      dup1\n      iszero\n      tag_53\n      jumpi\n      0x00\n      dup1\n      revert\n    tag_53:\n      pop\n      tag_54\n      0x04\n      dup1\n      calldatasize\n      sub\n      dup2\n      add\n      swap1\n      tag_55\n      swap2\n      swap1\n      tag_36\n      jump\t// in\n    tag_55:\n      tag_56\n      jump\t// in\n    tag_54:\n      mload(0x40)\n      tag_57\n      swap2\n      swap1\n      tag_58\n      jump\t// in\n    tag_57:\n      mload(0x40)\n      dup1\n      swap2\n      sub\n      swap1\n      return\n        /* \"campaign.sol\":1941:2281  function contribute() public payable{\r... */\n    tag_11:\n      tag_59\n      tag_60\n      jump\t// in\n    tag_59:\n      stop\n        /* \"campaign.sol\":4746:4954  function returnStats() public view returns(uint,uint,uint,uint,uint,address){\r... */\n    tag_15:\n        /* \"campaign.sol\":4789:4793  uint */\n      0x00\n        /* \"campaign.sol\":4794:4798  uint */\n      dup1\n        /* \"campaign.sol\":4799:4803  uint */\n      0x00\n        /* \"campaign.sol\":4804:4808  uint */\n      dup1\n        /* \"campaign.sol\":4809:4813  uint */\n      0x00\n        /* \"campaign.sol\":4814:4821  address */\n      dup1\n        /* \"campaign.sol\":4842:4851  reqNumber */\n      sload(0x04)\n        /* \"campaign.sol\":4853:4869  approveThreshlod */\n      sload(0x05)\n        /* \"campaign.sol\":4871:4886  minContribution */\n      sload(0x01)\n        /* \"campaign.sol\":4887:4908  address(this).balance */\n      selfbalance\n        /* \"campaign.sol\":4909:4926  numberOfApprovers */\n      sload(0x06)\n        /* \"campaign.sol\":4928:4935  manager */\n      0x00\n      dup1\n      sload\n      swap1\n      0x0100\n      exp\n      swap1\n      div\n      0xffffffffffffffffffffffffffffffffffffffff\n      and\n        /* \"campaign.sol\":4835:4936  return(reqNumber, approveThreshlod, minContribution,address(this).balance,numberOfApprovers, manager) */\n      swap6\n      pop\n      swap6\n      pop\n      swap6\n      pop\n      swap6\n      pop\n      swap6\n      pop\n      swap6\n      pop\n        /* \"campaign.sol\":4746:4954  function returnStats() public view returns(uint,uint,uint,uint,uint,address){\r... */\n      swap1\n      swap2\n      swap3\n      swap4\n      swap5\n      swap6\n      jump\t// out\n        /* \"campaign.sol\":4960:5048  function getRequestCount() public view returns (uint){\r... */\n    tag_20:\n        /* \"campaign.sol\":5008:5012  uint */\n      0x00\n        /* \"campaign.sol\":5031:5040  reqNumber */\n      sload(0x04)\n        /* \"campaign.sol\":5024:5040  return reqNumber */\n      swap1\n      pop\n        /* \"campaign.sol\":4960:5048  function getRequestCount() public view returns (uint){\r... */\n      swap1\n      jump\t// out\n        /* \"campaign.sol\":759:781  address public manager */\n    tag_25:\n      0x00\n      dup1\n      sload\n      swap1\n      0x0100\n      exp\n      swap1\n      div\n      0xffffffffffffffffffffffffffffffffffffffff\n      and\n      dup2\n      jump\t// out\n        /* \"campaign.sol\":2803:3666  function approveRequest(uint req_number, bool isApproved) public{\r... */\n    tag_32:\n        /* \"campaign.sol\":3063:3082  request storage req */\n      0x00\n        /* \"campaign.sol\":3085:3093  requests */\n      0x08\n        /* \"campaign.sol\":3105:3106  1 */\n      0x01\n        /* \"campaign.sol\":3094:3104  req_number */\n      dup5\n        /* \"campaign.sol\":3094:3106  req_number-1 */\n      tag_64\n      swap2\n      swap1\n      tag_65\n      jump\t// in\n    tag_64:\n        /* \"campaign.sol\":3085:3107  requests[req_number-1] */\n      dup2\n      sload\n      dup2\n      lt\n      tag_66\n      jumpi\n      mstore(0x00, 0x4e487b7100000000000000000000000000000000000000000000000000000000)\n      mstore(0x04, 0x32)\n      revert(0x00, 0x24)\n    tag_66:\n      swap1\n      0x00\n      mstore\n      keccak256(0x00, 0x20)\n      swap1\n      0x07\n      mul\n      add\n        /* \"campaign.sol\":3063:3107  request storage req = requests[req_number-1] */\n      swap1\n      pop\n        /* \"campaign.sol\":3162:3163  0 */\n      0x00\n        /* \"campaign.sol\":3126:3135  approvers */\n      0x02\n        /* \"campaign.sol\":3126:3147  approvers[msg.sender] */\n      0x00\n        /* \"campaign.sol\":3136:3146  msg.sender */\n      caller\n        /* \"campaign.sol\":3126:3147  approvers[msg.sender] */\n      0xffffffffffffffffffffffffffffffffffffffff\n      and\n      0xffffffffffffffffffffffffffffffffffffffff\n      and\n      dup2\n      mstore\n      0x20\n      add\n      swap1\n      dup2\n      mstore\n      0x20\n      add\n      0x00\n      keccak256\n        /* \"campaign.sol\":3126:3158  approvers[msg.sender].stakeValue */\n      0x00\n      add\n      sload\n        /* \"campaign.sol\":3126:3163  approvers[msg.sender].stakeValue != 0 */\n      eq\n      iszero\n        /* \"campaign.sol\":3118:3164  require(approvers[msg.sender].stakeValue != 0) */\n      tag_68\n      jumpi\n      0x00\n      dup1\n      revert\n    tag_68:\n        /* \"campaign.sol\":3211:3214  req */\n      dup1\n        /* \"campaign.sol\":3211:3226  req.isProcessed */\n      0x05\n      add\n      0x00\n      swap1\n      sload\n      swap1\n      0x0100\n      exp\n      swap1\n      div\n      0xff\n      and\n        /* \"campaign.sol\":3210:3226  !req.isProcessed */\n      iszero\n        /* \"campaign.sol\":3202:3227  require(!req.isProcessed) */\n      tag_69\n      jumpi\n      0x00\n      dup1\n      revert\n    tag_69:\n        /* \"campaign.sol\":3326:3327  0 */\n      0x00\n        /* \"campaign.sol\":3288:3298  voteStatus */\n      0x03\n        /* \"campaign.sol\":3288:3310  voteStatus[req_number] */\n      0x00\n        /* \"campaign.sol\":3299:3309  req_number */\n      dup6\n        /* \"campaign.sol\":3288:3310  voteStatus[req_number] */\n      dup2\n      mstore\n      0x20\n      add\n      swap1\n      dup2\n      mstore\n      0x20\n      add\n      0x00\n      keccak256\n        /* \"campaign.sol\":3288:3322  voteStatus[req_number][msg.sender] */\n      0x00\n        /* \"campaign.sol\":3311:3321  msg.sender */\n      caller\n        /* \"campaign.sol\":3288:3322  voteStatus[req_number][msg.sender] */\n      0xffffffffffffffffffffffffffffffffffffffff\n      and\n      0xffffffffffffffffffffffffffffffffffffffff\n      and\n      dup2\n      mstore\n      0x20\n      add\n      swap1\n      dup2\n      mstore\n      0x20\n      add\n      0x00\n      keccak256\n      sload\n        /* \"campaign.sol\":3288:3327  voteStatus[req_number][msg.sender] == 0 */\n      eq\n        /* \"campaign.sol\":3279:3329  require((voteStatus[req_number][msg.sender] == 0)) */\n      tag_70\n      jumpi\n      0x00\n      dup1\n      revert\n    tag_70:\n        /* \"campaign.sol\":3492:3502  isApproved */\n      dup2\n        /* \"campaign.sol\":3488:3611  if(!isApproved){\r... */\n      tag_71\n      jumpi\n        /* \"campaign.sol\":3531:3532  1 */\n      0x01\n        /* \"campaign.sol\":3518:3521  req */\n      dup2\n        /* \"campaign.sol\":3518:3529  req.denials */\n      0x04\n      add\n      0x00\n        /* \"campaign.sol\":3518:3532  req.denials+=1 */\n      dup3\n      dup3\n      sload\n      tag_72\n      swap2\n      swap1\n      tag_73\n      jump\t// in\n    tag_72:\n      swap3\n      pop\n      pop\n      dup2\n      swap1\n      sstore\n      pop\n        /* \"campaign.sol\":3584:3585  2 */\n      0x02\n        /* \"campaign.sol\":3547:3557  voteStatus */\n      0x03\n        /* \"campaign.sol\":3547:3569  voteStatus[req_number] */\n      0x00\n        /* \"campaign.sol\":3558:3568  req_number */\n      dup6\n        /* \"campaign.sol\":3547:3569  voteStatus[req_number] */\n      dup2\n      mstore\n      0x20\n      add\n      swap1\n      dup2\n      mstore\n      0x20\n      add\n      0x00\n      keccak256\n        /* \"campaign.sol\":3547:3581  voteStatus[req_number][msg.sender] */\n      0x00\n        /* \"campaign.sol\":3570:3580  msg.sender */\n      caller\n        /* \"campaign.sol\":3547:3581  voteStatus[req_number][msg.sender] */\n      0xffffffffffffffffffffffffffffffffffffffff\n      and\n      0xffffffffffffffffffffffffffffffffffffffff\n      and\n      dup2\n      mstore\n      0x20\n      add\n      swap1\n      dup2\n      mstore\n      0x20\n      add\n      0x00\n      keccak256\n        /* \"campaign.sol\":3547:3585  voteStatus[req_number][msg.sender] = 2 */\n      dup2\n      swap1\n      sstore\n      pop\n        /* \"campaign.sol\":3488:3611  if(!isApproved){\r... */\n    tag_71:\n        /* \"campaign.sol\":3657:3658  1 */\n      0x01\n        /* \"campaign.sol\":3620:3630  voteStatus */\n      0x03\n        /* \"campaign.sol\":3620:3642  voteStatus[req_number] */\n      0x00\n        /* \"campaign.sol\":3631:3641  req_number */\n      dup6\n        /* \"campaign.sol\":3620:3642  voteStatus[req_number] */\n      dup2\n      mstore\n      0x20\n      add\n      swap1\n      dup2\n      mstore\n      0x20\n      add\n      0x00\n      keccak256\n        /* \"campaign.sol\":3620:3654  voteStatus[req_number][msg.sender] */\n      0x00\n        /* \"campaign.sol\":3643:3653  msg.sender */\n      caller\n        /* \"campaign.sol\":3620:3654  voteStatus[req_number][msg.sender] */\n      0xffffffffffffffffffffffffffffffffffffffff\n      and\n      0xffffffffffffffffffffffffffffffffffffffff\n      and\n      dup2\n      mstore\n      0x20\n      add\n      swap1\n      dup2\n      mstore\n      0x20\n      add\n      0x00\n      keccak256\n        /* \"campaign.sol\":3620:3658  voteStatus[req_number][msg.sender] = 1 */\n      dup2\n      swap1\n      sstore\n      pop\n        /* \"campaign.sol\":2803:3666  function approveRequest(uint req_number, bool isApproved) public{\r... */\n      pop\n      pop\n      pop\n      jump\t// out\n        /* \"campaign.sol\":1057:1083  request [] public requests */\n    tag_37:\n      0x08\n      dup2\n      dup2\n      sload\n      dup2\n      lt\n      tag_74\n      jumpi\n      0x00\n      dup1\n      revert\n    tag_74:\n      swap1\n      0x00\n      mstore\n      keccak256(0x00, 0x20)\n      swap1\n      0x07\n      mul\n      add\n      0x00\n      swap2\n      pop\n      swap1\n      pop\n      dup1\n      0x00\n      add\n      sload\n      swap1\n      dup1\n      0x01\n      add\n      0x00\n      swap1\n      sload\n      swap1\n      0x0100\n      exp\n      swap1\n      div\n      0xffffffffffffffffffffffffffffffffffffffff\n      and\n      swap1\n      dup1\n      0x02\n      add\n      dup1\n      sload\n      tag_76\n      swap1\n      tag_77\n      jump\t// in\n    tag_76:\n      dup1\n      0x1f\n      add\n      0x20\n      dup1\n      swap2\n      div\n      mul\n      0x20\n      add\n      mload(0x40)\n      swap1\n      dup2\n      add\n      0x40\n      mstore\n      dup1\n      swap3\n      swap2\n      swap1\n      dup2\n      dup2\n      mstore\n      0x20\n      add\n      dup3\n      dup1\n      sload\n      tag_78\n      swap1\n      tag_77\n      jump\t// in\n    tag_78:\n      dup1\n      iszero\n      tag_79\n      jumpi\n      dup1\n      0x1f\n      lt\n      tag_80\n      jumpi\n      0x0100\n      dup1\n      dup4\n      sload\n      div\n      mul\n      dup4\n      mstore\n      swap2\n      0x20\n      add\n      swap2\n      jump(tag_79)\n    tag_80:\n      dup3\n      add\n      swap2\n      swap1\n      0x00\n      mstore\n      keccak256(0x00, 0x20)\n      swap1\n    tag_81:\n      dup2\n      sload\n      dup2\n      mstore\n      swap1\n      0x01\n      add\n      swap1\n      0x20\n      add\n      dup1\n      dup4\n      gt\n      tag_81\n      jumpi\n      dup3\n      swap1\n      sub\n      0x1f\n      and\n      dup3\n      add\n      swap2\n    tag_79:\n      pop\n      pop\n      pop\n      pop\n      pop\n      swap1\n      dup1\n      0x03\n      add\n      sload\n      swap1\n      dup1\n      0x04\n      add\n      sload\n      swap1\n      dup1\n      0x05\n      add\n      0x00\n      swap1\n      sload\n      swap1\n      0x0100\n      exp\n      swap1\n      div\n      0xff\n      and\n      swap1\n      dup1\n      0x05\n      add\n      0x01\n      swap1\n      sload\n      swap1\n      0x0100\n      exp\n      swap1\n      div\n      0xff\n      and\n      swap1\n      dup1\n      0x06\n      add\n      sload\n      swap1\n      pop\n      dup9\n      jump\t// out\n        /* \"campaign.sol\":2294:2797  function createRequest(string memory description , uint value, address recipient) public restricted{\r... */\n    tag_44:\n        /* \"campaign.sol\":1614:1621  manager */\n      0x00\n      dup1\n      sload\n      swap1\n      0x0100\n      exp\n      swap1\n      div\n      0xffffffffffffffffffffffffffffffffffffffff\n      and\n        /* \"campaign.sol\":1600:1621  msg.sender == manager */\n      0xffffffffffffffffffffffffffffffffffffffff\n      and\n        /* \"campaign.sol\":1600:1610  msg.sender */\n      caller\n        /* \"campaign.sol\":1600:1621  msg.sender == manager */\n      0xffffffffffffffffffffffffffffffffffffffff\n      and\n      eq\n        /* \"campaign.sol\":1592:1622  require(msg.sender == manager) */\n      tag_83\n      jumpi\n      0x00\n      dup1\n      revert\n    tag_83:\n        /* \"campaign.sol\":2426:2435  reqNumber */\n      0x04\n      0x00\n        /* \"campaign.sol\":2426:2437  reqNumber++ */\n      dup2\n      sload\n      dup1\n      swap3\n      swap2\n      swap1\n      tag_85\n      swap1\n      tag_86\n      jump\t// in\n    tag_85:\n      swap2\n      swap1\n      pop\n      sstore\n      pop\n        /* \"campaign.sol\":2448:2466  request memory req */\n      tag_87\n      tag_88\n      jump\t// in\n    tag_87:\n        /* \"campaign.sol\":2496:2507  description */\n      dup4\n        /* \"campaign.sol\":2478:2481  req */\n      dup2\n        /* \"campaign.sol\":2478:2493  req.description */\n      0x40\n      add\n        /* \"campaign.sol\":2478:2507  req.description = description */\n      dup2\n      swap1\n      mstore\n      pop\n        /* \"campaign.sol\":2530:2535  value */\n      dup3\n        /* \"campaign.sol\":2518:2521  req */\n      dup2\n        /* \"campaign.sol\":2518:2527  req.value */\n      0x00\n      add\n        /* \"campaign.sol\":2518:2535  req.value = value */\n      dup2\n      dup2\n      mstore\n      pop\n      pop\n        /* \"campaign.sol\":2562:2571  recipient */\n      dup2\n        /* \"campaign.sol\":2546:2549  req */\n      dup2\n        /* \"campaign.sol\":2546:2559  req.recipient */\n      0x20\n      add\n        /* \"campaign.sol\":2546:2571  req.recipient = recipient */\n      swap1\n      0xffffffffffffffffffffffffffffffffffffffff\n      and\n      swap1\n      dup2\n      0xffffffffffffffffffffffffffffffffffffffff\n      and\n      dup2\n      mstore\n      pop\n      pop\n        /* \"campaign.sol\":2594:2603  reqNumber */\n      sload(0x04)\n        /* \"campaign.sol\":2582:2585  req */\n      dup2\n        /* \"campaign.sol\":2582:2591  req.index */\n      0x60\n      add\n        /* \"campaign.sol\":2582:2603  req.index = reqNumber */\n      dup2\n      dup2\n      mstore\n      pop\n      pop\n        /* \"campaign.sol\":2632:2637  false */\n      0x00\n        /* \"campaign.sol\":2614:2617  req */\n      dup2\n        /* \"campaign.sol\":2614:2629  req.isProcessed */\n      0xa0\n      add\n        /* \"campaign.sol\":2614:2637  req.isProcessed = false */\n      swap1\n      iszero\n      iszero\n      swap1\n      dup2\n      iszero\n      iszero\n      dup2\n      mstore\n      pop\n      pop\n        /* \"campaign.sol\":2662:2663  0 */\n      0x00\n        /* \"campaign.sol\":2648:2651  req */\n      dup2\n        /* \"campaign.sol\":2648:2659  req.denials */\n      0x80\n      add\n        /* \"campaign.sol\":2648:2663  req.denials = 0 */\n      dup2\n      dup2\n      mstore\n      pop\n      pop\n        /* \"campaign.sol\":2691:2696  false */\n      0x00\n        /* \"campaign.sol\":2674:2677  req */\n      dup2\n        /* \"campaign.sol\":2674:2688  req.isApproved */\n      0xc0\n      add\n        /* \"campaign.sol\":2674:2696  req.isApproved = false */\n      swap1\n      iszero\n      iszero\n      swap1\n      dup2\n      iszero\n      iszero\n      dup2\n      mstore\n      pop\n      pop\n        /* \"campaign.sol\":2740:2750  timeWindow */\n      sload(0x07)\n        /* \"campaign.sol\":2722:2737  block.timestamp */\n      timestamp\n        /* \"campaign.sol\":2722:2750  block.timestamp + timeWindow */\n      tag_89\n      swap2\n      swap1\n      tag_73\n      jump\t// in\n    tag_89:\n        /* \"campaign.sol\":2707:2710  req */\n      dup2\n        /* \"campaign.sol\":2707:2719  req.deadline */\n      0xe0\n      add\n        /* \"campaign.sol\":2707:2750  req.deadline = block.timestamp + timeWindow */\n      dup2\n      dup2\n      mstore\n      pop\n      pop\n        /* \"campaign.sol\":2761:2769  requests */\n      0x08\n        /* \"campaign.sol\":2775:2778  req */\n      dup2\n        /* \"campaign.sol\":2761:2779  requests.push(req) */\n      swap1\n      dup1\n      0x01\n      dup2\n      sload\n      add\n      dup1\n      dup3\n      sstore\n      dup1\n      swap2\n      pop\n      pop\n      0x01\n      swap1\n      sub\n      swap1\n      0x00\n      mstore\n      keccak256(0x00, 0x20)\n      swap1\n      0x07\n      mul\n      add\n      0x00\n      swap1\n      swap2\n      swap1\n      swap2\n      swap1\n      swap2\n      pop\n      0x00\n      dup3\n      add\n      mload\n      dup2\n      0x00\n      add\n      sstore\n      0x20\n      dup3\n      add\n      mload\n      dup2\n      0x01\n      add\n      exp(0x0100, 0x00)\n      dup2\n      sload\n      dup2\n      0xffffffffffffffffffffffffffffffffffffffff\n      mul\n      not\n      and\n      swap1\n      dup4\n      0xffffffffffffffffffffffffffffffffffffffff\n      and\n      mul\n      or\n      swap1\n      sstore\n      pop\n      0x40\n      dup3\n      add\n      mload\n      dup2\n      0x02\n      add\n      swap1\n      dup1\n      mload\n      swap1\n      0x20\n      add\n      swap1\n      tag_91\n      swap3\n      swap2\n      swap1\n      tag_92\n      jump\t// in\n    tag_91:\n      pop\n      0x60\n      dup3\n      add\n      mload\n      dup2\n      0x03\n      add\n      sstore\n      0x80\n      dup3\n      add\n      mload\n      dup2\n      0x04\n      add\n      sstore\n      0xa0\n      dup3\n      add\n      mload\n      dup2\n      0x05\n      add\n      exp(0x0100, 0x00)\n      dup2\n      sload\n      dup2\n      0xff\n      mul\n      not\n      and\n      swap1\n      dup4\n      iszero\n      iszero\n      mul\n      or\n      swap1\n      sstore\n      pop\n      0xc0\n      dup3\n      add\n      mload\n      dup2\n      0x05\n      add\n      exp(0x0100, 0x01)\n      dup2\n      sload\n      dup2\n      0xff\n      mul\n      not\n      and\n      swap1\n      dup4\n      iszero\n      iszero\n      mul\n      or\n      swap1\n      sstore\n      pop\n      0xe0\n      dup3\n      add\n      mload\n      dup2\n      0x06\n      add\n      sstore\n      pop\n      pop\n        /* \"campaign.sol\":1633:1634  _ */\n      pop\n        /* \"campaign.sol\":2294:2797  function createRequest(string memory description , uint value, address recipient) public restricted{\r... */\n      pop\n      pop\n      pop\n      jump\t// out\n        /* \"campaign.sol\":3672:4407  function processRequest(uint req_number) public restricted{\r... */\n    tag_48:\n        /* \"campaign.sol\":1614:1621  manager */\n      0x00\n      dup1\n      sload\n      swap1\n      0x0100\n      exp\n      swap1\n      div\n      0xffffffffffffffffffffffffffffffffffffffff\n      and\n        /* \"campaign.sol\":1600:1621  msg.sender == manager */\n      0xffffffffffffffffffffffffffffffffffffffff\n      and\n        /* \"campaign.sol\":1600:1610  msg.sender */\n      caller\n        /* \"campaign.sol\":1600:1621  msg.sender == manager */\n      0xffffffffffffffffffffffffffffffffffffffff\n      and\n      eq\n        /* \"campaign.sol\":1592:1622  require(msg.sender == manager) */\n      tag_94\n      jumpi\n      0x00\n      dup1\n      revert\n    tag_94:\n        /* \"campaign.sol\":3955:3974  request storage req */\n      0x00\n        /* \"campaign.sol\":3977:3985  requests */\n      0x08\n        /* \"campaign.sol\":3999:4000  1 */\n      0x01\n        /* \"campaign.sol\":3986:3996  req_number */\n      dup4\n        /* \"campaign.sol\":3986:4000  req_number - 1 */\n      tag_96\n      swap2\n      swap1\n      tag_65\n      jump\t// in\n    tag_96:\n        /* \"campaign.sol\":3977:4001  requests[req_number - 1] */\n      dup2\n      sload\n      dup2\n      lt\n      tag_97\n      jumpi\n      mstore(0x00, 0x4e487b7100000000000000000000000000000000000000000000000000000000)\n      mstore(0x04, 0x32)\n      revert(0x00, 0x24)\n    tag_97:\n      swap1\n      0x00\n      mstore\n      keccak256(0x00, 0x20)\n      swap1\n      0x07\n      mul\n      add\n        /* \"campaign.sol\":3955:4001  request storage req = requests[req_number - 1] */\n      swap1\n      pop\n        /* \"campaign.sol\":4021:4024  req */\n      dup1\n        /* \"campaign.sol\":4021:4036  req.isProcessed */\n      0x05\n      add\n      0x00\n      swap1\n      sload\n      swap1\n      0x0100\n      exp\n      swap1\n      div\n      0xff\n      and\n        /* \"campaign.sol\":4020:4036  !req.isProcessed */\n      iszero\n        /* \"campaign.sol\":4012:4037  require(!req.isProcessed) */\n      tag_99\n      jumpi\n      0x00\n      dup1\n      revert\n    tag_99:\n        /* \"campaign.sol\":4058:4068  uint total */\n      0x00\n        /* \"campaign.sol\":4071:4088  numberOfApprovers */\n      sload(0x06)\n        /* \"campaign.sol\":4058:4088  uint total = numberOfApprovers */\n      swap1\n      pop\n        /* \"campaign.sol\":4099:4110  uint denied */\n      0x00\n        /* \"campaign.sol\":4113:4116  req */\n      dup3\n        /* \"campaign.sol\":4113:4124  req.denials */\n      0x04\n      add\n      sload\n        /* \"campaign.sol\":4099:4124  uint denied = req.denials */\n      swap1\n      pop\n        /* \"campaign.sol\":4135:4150  uint percentage */\n      0x00\n        /* \"campaign.sol\":4166:4171  total */\n      dup3\n        /* \"campaign.sol\":4161:4164  100 */\n      0x64\n        /* \"campaign.sol\":4154:4160  denied */\n      dup4\n        /* \"campaign.sol\":4154:4164  denied*100 */\n      tag_100\n      swap2\n      swap1\n      tag_101\n      jump\t// in\n    tag_100:\n        /* \"campaign.sol\":4153:4171  (denied*100)/total */\n      tag_102\n      swap2\n      swap1\n      tag_103\n      jump\t// in\n    tag_102:\n        /* \"campaign.sol\":4135:4171  uint percentage = (denied*100)/total */\n      swap1\n      pop\n        /* \"campaign.sol\":4209:4225  approveThreshlod */\n      sload(0x05)\n        /* \"campaign.sol\":4195:4205  percentage */\n      dup2\n        /* \"campaign.sol\":4195:4225  percentage <= approveThreshlod */\n      gt\n        /* \"campaign.sol\":4192:4321  if(percentage <= approveThreshlod){\r... */\n      tag_104\n      jumpi\n        /* \"campaign.sol\":4258:4262  true */\n      0x01\n        /* \"campaign.sol\":4241:4244  req */\n      dup5\n        /* \"campaign.sol\":4241:4255  req.isApproved */\n      0x05\n      add\n      0x01\n        /* \"campaign.sol\":4241:4262  req.isApproved = true */\n      0x0100\n      exp\n      dup2\n      sload\n      dup2\n      0xff\n      mul\n      not\n      and\n      swap1\n      dup4\n      iszero\n      iszero\n      mul\n      or\n      swap1\n      sstore\n      pop\n        /* \"campaign.sol\":4277:4309  transferRequestMoney(req_number) */\n      tag_105\n        /* \"campaign.sol\":4298:4308  req_number */\n      dup6\n        /* \"campaign.sol\":4277:4297  transferRequestMoney */\n      tag_52\n        /* \"campaign.sol\":4277:4309  transferRequestMoney(req_number) */\n      jump\t// in\n    tag_105:\n        /* \"campaign.sol\":4192:4321  if(percentage <= approveThreshlod){\r... */\n    tag_104:\n        /* \"campaign.sol\":4349:4353  true */\n      0x01\n        /* \"campaign.sol\":4331:4334  req */\n      dup5\n        /* \"campaign.sol\":4331:4346  req.isProcessed */\n      0x05\n      add\n      0x00\n        /* \"campaign.sol\":4331:4353  req.isProcessed = true */\n      0x0100\n      exp\n      dup2\n      sload\n      dup2\n      0xff\n      mul\n      not\n      and\n      swap1\n      dup4\n      iszero\n      iszero\n      mul\n      or\n      swap1\n      sstore\n      pop\n        /* \"campaign.sol\":1633:1634  _ */\n      pop\n      pop\n      pop\n      pop\n        /* \"campaign.sol\":3672:4407  function processRequest(uint req_number) public restricted{\r... */\n      pop\n      jump\t// out\n        /* \"campaign.sol\":4413:4677  function transferRequestMoney(uint req_number) public restricted{\r... */\n    tag_52:\n        /* \"campaign.sol\":1614:1621  manager */\n      0x00\n      dup1\n      sload\n      swap1\n      0x0100\n      exp\n      swap1\n      div\n      0xffffffffffffffffffffffffffffffffffffffff\n      and\n        /* \"campaign.sol\":1600:1621  msg.sender == manager */\n      0xffffffffffffffffffffffffffffffffffffffff\n      and\n        /* \"campaign.sol\":1600:1610  msg.sender */\n      caller\n        /* \"campaign.sol\":1600:1621  msg.sender == manager */\n      0xffffffffffffffffffffffffffffffffffffffff\n      and\n      eq\n        /* \"campaign.sol\":1592:1622  require(msg.sender == manager) */\n      tag_107\n      jumpi\n      0x00\n      dup1\n      revert\n    tag_107:\n        /* \"campaign.sol\":4488:4507  request storage req */\n      0x00\n        /* \"campaign.sol\":4510:4518  requests */\n      0x08\n        /* \"campaign.sol\":4532:4533  1 */\n      0x01\n        /* \"campaign.sol\":4519:4529  req_number */\n      dup4\n        /* \"campaign.sol\":4519:4533  req_number - 1 */\n      tag_109\n      swap2\n      swap1\n      tag_65\n      jump\t// in\n    tag_109:\n        /* \"campaign.sol\":4510:4534  requests[req_number - 1] */\n      dup2\n      sload\n      dup2\n      lt\n      tag_110\n      jumpi\n      mstore(0x00, 0x4e487b7100000000000000000000000000000000000000000000000000000000)\n      mstore(0x04, 0x32)\n      revert(0x00, 0x24)\n    tag_110:\n      swap1\n      0x00\n      mstore\n      keccak256(0x00, 0x20)\n      swap1\n      0x07\n      mul\n      add\n        /* \"campaign.sol\":4488:4534  request storage req = requests[req_number - 1] */\n      swap1\n      pop\n        /* \"campaign.sol\":4553:4556  req */\n      dup1\n        /* \"campaign.sol\":4553:4567  req.isApproved */\n      0x05\n      add\n      0x01\n      swap1\n      sload\n      swap1\n      0x0100\n      exp\n      swap1\n      div\n      0xff\n      and\n        /* \"campaign.sol\":4545:4568  require(req.isApproved) */\n      tag_112\n      jumpi\n      0x00\n      dup1\n      revert\n    tag_112:\n        /* \"campaign.sol\":4579:4604  address payable recipient */\n      0x00\n        /* \"campaign.sol\":4615:4618  req */\n      dup2\n        /* \"campaign.sol\":4615:4628  req.recipient */\n      0x01\n      add\n      0x00\n      swap1\n      sload\n      swap1\n      0x0100\n      exp\n      swap1\n      div\n      0xffffffffffffffffffffffffffffffffffffffff\n      and\n        /* \"campaign.sol\":4579:4629  address payable recipient = payable(req.recipient) */\n      swap1\n      pop\n        /* \"campaign.sol\":4640:4649  recipient */\n      dup1\n        /* \"campaign.sol\":4640:4658  recipient.transfer */\n      0xffffffffffffffffffffffffffffffffffffffff\n      and\n        /* \"campaign.sol\":4640:4669  recipient.transfer(req.value) */\n      0x08fc\n        /* \"campaign.sol\":4659:4662  req */\n      dup4\n        /* \"campaign.sol\":4659:4668  req.value */\n      0x00\n      add\n      sload\n        /* \"campaign.sol\":4640:4669  recipient.transfer(req.value) */\n      swap1\n      dup2\n      iszero\n      mul\n      swap1\n      mload(0x40)\n      0x00\n      mload(0x40)\n      dup1\n      dup4\n      sub\n      dup2\n      dup6\n      dup9\n      dup9\n      call\n      swap4\n      pop\n      pop\n      pop\n      pop\n      iszero\n      dup1\n      iszero\n      tag_114\n      jumpi\n      returndatasize\n      0x00\n      dup1\n      returndatacopy\n      revert(0x00, returndatasize)\n    tag_114:\n      pop\n        /* \"campaign.sol\":1633:1634  _ */\n      pop\n      pop\n        /* \"campaign.sol\":4413:4677  function transferRequestMoney(uint req_number) public restricted{\r... */\n      pop\n      jump\t// out\n        /* \"campaign.sol\":5054:5172  function getRequest(uint req_number) public view returns(request memory){\r... */\n    tag_56:\n        /* \"campaign.sol\":5111:5125  request memory */\n      tag_115\n      tag_88\n      jump\t// in\n    tag_115:\n        /* \"campaign.sol\":5144:5152  requests */\n      0x08\n        /* \"campaign.sol\":5153:5163  req_number */\n      dup3\n        /* \"campaign.sol\":5144:5164  requests[req_number] */\n      dup2\n      sload\n      dup2\n      lt\n      tag_117\n      jumpi\n      mstore(0x00, 0x4e487b7100000000000000000000000000000000000000000000000000000000)\n      mstore(0x04, 0x32)\n      revert(0x00, 0x24)\n    tag_117:\n      swap1\n      0x00\n      mstore\n      keccak256(0x00, 0x20)\n      swap1\n      0x07\n      mul\n      add\n        /* \"campaign.sol\":5137:5164  return requests[req_number] */\n      mload(0x40)\n      dup1\n      0x0100\n      add\n      0x40\n      mstore\n      swap1\n      dup2\n      0x00\n      dup3\n      add\n      sload\n      dup2\n      mstore\n      0x20\n      add\n      0x01\n      dup3\n      add\n      0x00\n      swap1\n      sload\n      swap1\n      0x0100\n      exp\n      swap1\n      div\n      0xffffffffffffffffffffffffffffffffffffffff\n      and\n      0xffffffffffffffffffffffffffffffffffffffff\n      and\n      0xffffffffffffffffffffffffffffffffffffffff\n      and\n      dup2\n      mstore\n      0x20\n      add\n      0x02\n      dup3\n      add\n      dup1\n      sload\n      tag_119\n      swap1\n      tag_77\n      jump\t// in\n    tag_119:\n      dup1\n      0x1f\n      add\n      0x20\n      dup1\n      swap2\n      div\n      mul\n      0x20\n      add\n      mload(0x40)\n      swap1\n      dup2\n      add\n      0x40\n      mstore\n      dup1\n      swap3\n      swap2\n      swap1\n      dup2\n      dup2\n      mstore\n      0x20\n      add\n      dup3\n      dup1\n      sload\n      tag_120\n      swap1\n      tag_77\n      jump\t// in\n    tag_120:\n      dup1\n      iszero\n      tag_121\n      jumpi\n      dup1\n      0x1f\n      lt\n      tag_122\n      jumpi\n      0x0100\n      dup1\n      dup4\n      sload\n      div\n      mul\n      dup4\n      mstore\n      swap2\n      0x20\n      add\n      swap2\n      jump(tag_121)\n    tag_122:\n      dup3\n      add\n      swap2\n      swap1\n      0x00\n      mstore\n      keccak256(0x00, 0x20)\n      swap1\n    tag_123:\n      dup2\n      sload\n      dup2\n      mstore\n      swap1\n      0x01\n      add\n      swap1\n      0x20\n      add\n      dup1\n      dup4\n      gt\n      tag_123\n      jumpi\n      dup3\n      swap1\n      sub\n      0x1f\n      and\n      dup3\n      add\n      swap2\n    tag_121:\n      pop\n      pop\n      pop\n      pop\n      pop\n      dup2\n      mstore\n      0x20\n      add\n      0x03\n      dup3\n      add\n      sload\n      dup2\n      mstore\n      0x20\n      add\n      0x04\n      dup3\n      add\n      sload\n      dup2\n      mstore\n      0x20\n      add\n      0x05\n      dup3\n      add\n      0x00\n      swap1\n      sload\n      swap1\n      0x0100\n      exp\n      swap1\n      div\n      0xff\n      and\n      iszero\n      iszero\n      iszero\n      iszero\n      dup2\n      mstore\n      0x20\n      add\n      0x05\n      dup3\n      add\n      0x01\n      swap1\n      sload\n      swap1\n      0x0100\n      exp\n      swap1\n      div\n      0xff\n      and\n      iszero\n      iszero\n      iszero\n      iszero\n      dup2\n      mstore\n      0x20\n      add\n      0x06\n      dup3\n      add\n      sload\n      dup2\n      mstore\n      pop\n      pop\n      swap1\n      pop\n        /* \"campaign.sol\":5054:5172  function getRequest(uint req_number) public view returns(request memory){\r... */\n      swap2\n      swap1\n      pop\n      jump\t// out\n        /* \"campaign.sol\":1941:2281  function contribute() public payable{\r... */\n    tag_60:\n        /* \"campaign.sol\":2009:2024  minContribution */\n      sload(0x01)\n        /* \"campaign.sol\":1996:2005  msg.value */\n      callvalue\n        /* \"campaign.sol\":1996:2024  msg.value >= minContribution */\n      lt\n      iszero\n        /* \"campaign.sol\":1988:2025  require(msg.value >= minContribution) */\n      tag_125\n      jumpi\n      0x00\n      dup1\n      revert\n    tag_125:\n        /* \"campaign.sol\":2075:2076  0 */\n      0x00\n        /* \"campaign.sol\":2039:2048  approvers */\n      0x02\n        /* \"campaign.sol\":2039:2060  approvers[msg.sender] */\n      0x00\n        /* \"campaign.sol\":2049:2059  msg.sender */\n      caller\n        /* \"campaign.sol\":2039:2060  approvers[msg.sender] */\n      0xffffffffffffffffffffffffffffffffffffffff\n      and\n      0xffffffffffffffffffffffffffffffffffffffff\n      and\n      dup2\n      mstore\n      0x20\n      add\n      swap1\n      dup2\n      mstore\n      0x20\n      add\n      0x00\n      keccak256\n        /* \"campaign.sol\":2039:2071  approvers[msg.sender].stakeValue */\n      0x00\n      add\n      sload\n        /* \"campaign.sol\":2039:2076  approvers[msg.sender].stakeValue == 0 */\n      eq\n        /* \"campaign.sol\":2036:2120  if(approvers[msg.sender].stakeValue == 0){\r... */\n      iszero\n      tag_126\n      jumpi\n        /* \"campaign.sol\":2107:2108  1 */\n      0x01\n        /* \"campaign.sol\":2088:2105  numberOfApprovers */\n      0x06\n      0x00\n        /* \"campaign.sol\":2088:2108  numberOfApprovers+=1 */\n      dup3\n      dup3\n      sload\n      tag_127\n      swap2\n      swap1\n      tag_73\n      jump\t// in\n    tag_127:\n      swap3\n      pop\n      pop\n      dup2\n      swap1\n      sstore\n      pop\n        /* \"campaign.sol\":2036:2120  if(approvers[msg.sender].stakeValue == 0){\r... */\n    tag_126:\n        /* \"campaign.sol\":2166:2175  msg.value */\n      callvalue\n        /* \"campaign.sol\":2130:2139  approvers */\n      0x02\n        /* \"campaign.sol\":2130:2151  approvers[msg.sender] */\n      0x00\n        /* \"campaign.sol\":2140:2150  msg.sender */\n      caller\n        /* \"campaign.sol\":2130:2151  approvers[msg.sender] */\n      0xffffffffffffffffffffffffffffffffffffffff\n      and\n      0xffffffffffffffffffffffffffffffffffffffff\n      and\n      dup2\n      mstore\n      0x20\n      add\n      swap1\n      dup2\n      mstore\n      0x20\n      add\n      0x00\n      keccak256\n        /* \"campaign.sol\":2130:2162  approvers[msg.sender].stakeValue */\n      0x00\n      add\n      0x00\n        /* \"campaign.sol\":2130:2175  approvers[msg.sender].stakeValue += msg.value */\n      dup3\n      dup3\n      sload\n      tag_128\n      swap2\n      swap1\n      tag_73\n      jump\t// in\n    tag_128:\n      swap3\n      pop\n      pop\n      dup2\n      swap1\n      sstore\n      pop\n        /* \"campaign.sol\":1941:2281  function contribute() public payable{\r... */\n      jump\t// out\n    tag_88:\n      mload(0x40)\n      dup1\n      0x0100\n      add\n      0x40\n      mstore\n      dup1\n      0x00\n      dup2\n      mstore\n      0x20\n      add\n      and(0xffffffffffffffffffffffffffffffffffffffff, 0x00)\n      dup2\n      mstore\n      0x20\n      add\n      0x60\n      dup2\n      mstore\n      0x20\n      add\n      0x00\n      dup2\n      mstore\n      0x20\n      add\n      0x00\n      dup2\n      mstore\n      0x20\n      add\n      iszero(iszero(0x00))\n      dup2\n      mstore\n      0x20\n      add\n      iszero(iszero(0x00))\n      dup2\n      mstore\n      0x20\n      add\n      0x00\n      dup2\n      mstore\n      pop\n      swap1\n      jump\t// out\n    tag_92:\n      dup3\n      dup1\n      sload\n      tag_129\n      swap1\n      tag_77\n      jump\t// in\n    tag_129:\n      swap1\n      0x00\n      mstore\n      keccak256(0x00, 0x20)\n      swap1\n      0x1f\n      add\n      0x20\n      swap1\n      div\n      dup2\n      add\n      swap3\n      dup3\n      tag_131\n      jumpi\n      0x00\n      dup6\n      sstore\n      jump(tag_130)\n    tag_131:\n      dup3\n      0x1f\n      lt\n      tag_132\n      jumpi\n      dup1\n      mload\n      not(0xff)\n      and\n      dup4\n      dup1\n      add\n      or\n      dup6\n      sstore\n      jump(tag_130)\n    tag_132:\n      dup3\n      dup1\n      add\n      0x01\n      add\n      dup6\n      sstore\n      dup3\n      iszero\n      tag_130\n      jumpi\n      swap2\n      dup3\n      add\n    tag_133:\n      dup3\n      dup2\n      gt\n      iszero\n      tag_134\n      jumpi\n      dup3\n      mload\n      dup3\n      sstore\n      swap2\n      0x20\n      add\n      swap2\n      swap1\n      0x01\n      add\n      swap1\n      jump(tag_133)\n    tag_134:\n    tag_130:\n      pop\n      swap1\n      pop\n      tag_135\n      swap2\n      swap1\n      tag_136\n      jump\t// in\n    tag_135:\n      pop\n      swap1\n      jump\t// out\n    tag_136:\n    tag_137:\n      dup1\n      dup3\n      gt\n      iszero\n      tag_138\n      jumpi\n      0x00\n      dup2\n      0x00\n      swap1\n      sstore\n      pop\n      0x01\n      add\n      jump(tag_137)\n    tag_138:\n      pop\n      swap1\n      jump\t// out\n        /* \"#utility.yul\":7:351   */\n    tag_140:\n      0x00\n        /* \"#utility.yul\":110:175   */\n      tag_142\n        /* \"#utility.yul\":125:174   */\n      tag_143\n        /* \"#utility.yul\":167:173   */\n      dup5\n        /* \"#utility.yul\":125:174   */\n      tag_144\n      jump\t// in\n    tag_143:\n        /* \"#utility.yul\":110:175   */\n      tag_145\n      jump\t// in\n    tag_142:\n        /* \"#utility.yul\":101:175   */\n      swap1\n      pop\n        /* \"#utility.yul\":198:204   */\n      dup3\n        /* \"#utility.yul\":191:196   */\n      dup2\n        /* \"#utility.yul\":184:205   */\n      mstore\n        /* \"#utility.yul\":236:240   */\n      0x20\n        /* \"#utility.yul\":229:234   */\n      dup2\n        /* \"#utility.yul\":225:241   */\n      add\n        /* \"#utility.yul\":274:277   */\n      dup5\n        /* \"#utility.yul\":265:271   */\n      dup5\n        /* \"#utility.yul\":260:263   */\n      dup5\n        /* \"#utility.yul\":256:272   */\n      add\n        /* \"#utility.yul\":253:278   */\n      gt\n        /* \"#utility.yul\":250:252   */\n      iszero\n      tag_146\n      jumpi\n        /* \"#utility.yul\":291:292   */\n      0x00\n        /* \"#utility.yul\":288:289   */\n      dup1\n        /* \"#utility.yul\":281:293   */\n      revert\n        /* \"#utility.yul\":250:252   */\n    tag_146:\n        /* \"#utility.yul\":304:345   */\n      tag_147\n        /* \"#utility.yul\":338:344   */\n      dup5\n        /* \"#utility.yul\":333:336   */\n      dup3\n        /* \"#utility.yul\":328:331   */\n      dup6\n        /* \"#utility.yul\":304:345   */\n      tag_148\n      jump\t// in\n    tag_147:\n        /* \"#utility.yul\":91:351   */\n      pop\n      swap4\n      swap3\n      pop\n      pop\n      pop\n      jump\t// out\n        /* \"#utility.yul\":357:496   */\n    tag_149:\n      0x00\n        /* \"#utility.yul\":441:447   */\n      dup2\n        /* \"#utility.yul\":428:448   */\n      calldataload\n        /* \"#utility.yul\":419:448   */\n      swap1\n      pop\n        /* \"#utility.yul\":457:490   */\n      tag_151\n        /* \"#utility.yul\":484:489   */\n      dup2\n        /* \"#utility.yul\":457:490   */\n      tag_152\n      jump\t// in\n    tag_151:\n        /* \"#utility.yul\":409:496   */\n      swap3\n      swap2\n      pop\n      pop\n      jump\t// out\n        /* \"#utility.yul\":502:635   */\n    tag_153:\n      0x00\n        /* \"#utility.yul\":583:589   */\n      dup2\n        /* \"#utility.yul\":570:590   */\n      calldataload\n        /* \"#utility.yul\":561:590   */\n      swap1\n      pop\n        /* \"#utility.yul\":599:629   */\n      tag_155\n        /* \"#utility.yul\":623:628   */\n      dup2\n        /* \"#utility.yul\":599:629   */\n      tag_156\n      jump\t// in\n    tag_155:\n        /* \"#utility.yul\":551:635   */\n      swap3\n      swap2\n      pop\n      pop\n      jump\t// out\n        /* \"#utility.yul\":655:928   */\n    tag_157:\n      0x00\n        /* \"#utility.yul\":760:763   */\n      dup3\n        /* \"#utility.yul\":753:757   */\n      0x1f\n        /* \"#utility.yul\":745:751   */\n      dup4\n        /* \"#utility.yul\":741:758   */\n      add\n        /* \"#utility.yul\":737:764   */\n      slt\n        /* \"#utility.yul\":727:729   */\n      tag_159\n      jumpi\n        /* \"#utility.yul\":778:779   */\n      0x00\n        /* \"#utility.yul\":775:776   */\n      dup1\n        /* \"#utility.yul\":768:780   */\n      revert\n        /* \"#utility.yul\":727:729   */\n    tag_159:\n        /* \"#utility.yul\":818:824   */\n      dup2\n        /* \"#utility.yul\":805:825   */\n      calldataload\n        /* \"#utility.yul\":843:922   */\n      tag_160\n        /* \"#utility.yul\":918:921   */\n      dup5\n        /* \"#utility.yul\":910:916   */\n      dup3\n        /* \"#utility.yul\":903:907   */\n      0x20\n        /* \"#utility.yul\":895:901   */\n      dup7\n        /* \"#utility.yul\":891:908   */\n      add\n        /* \"#utility.yul\":843:922   */\n      tag_140\n      jump\t// in\n    tag_160:\n        /* \"#utility.yul\":834:922   */\n      swap2\n      pop\n        /* \"#utility.yul\":717:928   */\n      pop\n      swap3\n      swap2\n      pop\n      pop\n      jump\t// out\n        /* \"#utility.yul\":934:1073   */\n    tag_161:\n      0x00\n        /* \"#utility.yul\":1018:1024   */\n      dup2\n        /* \"#utility.yul\":1005:1025   */\n      calldataload\n        /* \"#utility.yul\":996:1025   */\n      swap1\n      pop\n        /* \"#utility.yul\":1034:1067   */\n      tag_163\n        /* \"#utility.yul\":1061:1066   */\n      dup2\n        /* \"#utility.yul\":1034:1067   */\n      tag_164\n      jump\t// in\n    tag_163:\n        /* \"#utility.yul\":986:1073   */\n      swap3\n      swap2\n      pop\n      pop\n      jump\t// out\n        /* \"#utility.yul\":1079:1744   */\n    tag_43:\n      0x00\n      dup1\n      0x00\n        /* \"#utility.yul\":1231:1233   */\n      0x60\n        /* \"#utility.yul\":1219:1228   */\n      dup5\n        /* \"#utility.yul\":1210:1217   */\n      dup7\n        /* \"#utility.yul\":1206:1229   */\n      sub\n        /* \"#utility.yul\":1202:1234   */\n      slt\n        /* \"#utility.yul\":1199:1201   */\n      iszero\n      tag_166\n      jumpi\n        /* \"#utility.yul\":1247:1248   */\n      0x00\n        /* \"#utility.yul\":1244:1245   */\n      dup1\n        /* \"#utility.yul\":1237:1249   */\n      revert\n        /* \"#utility.yul\":1199:1201   */\n    tag_166:\n        /* \"#utility.yul\":1318:1319   */\n      0x00\n        /* \"#utility.yul\":1307:1316   */\n      dup5\n        /* \"#utility.yul\":1303:1320   */\n      add\n        /* \"#utility.yul\":1290:1321   */\n      calldataload\n        /* \"#utility.yul\":1348:1366   */\n      0xffffffffffffffff\n        /* \"#utility.yul\":1340:1346   */\n      dup2\n        /* \"#utility.yul\":1337:1367   */\n      gt\n        /* \"#utility.yul\":1334:1336   */\n      iszero\n      tag_167\n      jumpi\n        /* \"#utility.yul\":1380:1381   */\n      0x00\n        /* \"#utility.yul\":1377:1378   */\n      dup1\n        /* \"#utility.yul\":1370:1382   */\n      revert\n        /* \"#utility.yul\":1334:1336   */\n    tag_167:\n        /* \"#utility.yul\":1408:1471   */\n      tag_168\n        /* \"#utility.yul\":1463:1470   */\n      dup7\n        /* \"#utility.yul\":1454:1460   */\n      dup3\n        /* \"#utility.yul\":1443:1452   */\n      dup8\n        /* \"#utility.yul\":1439:1461   */\n      add\n        /* \"#utility.yul\":1408:1471   */\n      tag_157\n      jump\t// in\n    tag_168:\n        /* \"#utility.yul\":1398:1471   */\n      swap4\n      pop\n        /* \"#utility.yul\":1261:1481   */\n      pop\n        /* \"#utility.yul\":1520:1522   */\n      0x20\n        /* \"#utility.yul\":1546:1599   */\n      tag_169\n        /* \"#utility.yul\":1591:1598   */\n      dup7\n        /* \"#utility.yul\":1582:1588   */\n      dup3\n        /* \"#utility.yul\":1571:1580   */\n      dup8\n        /* \"#utility.yul\":1567:1589   */\n      add\n        /* \"#utility.yul\":1546:1599   */\n      tag_161\n      jump\t// in\n    tag_169:\n        /* \"#utility.yul\":1536:1599   */\n      swap3\n      pop\n        /* \"#utility.yul\":1491:1609   */\n      pop\n        /* \"#utility.yul\":1648:1650   */\n      0x40\n        /* \"#utility.yul\":1674:1727   */\n      tag_170\n        /* \"#utility.yul\":1719:1726   */\n      dup7\n        /* \"#utility.yul\":1710:1716   */\n      dup3\n        /* \"#utility.yul\":1699:1708   */\n      dup8\n        /* \"#utility.yul\":1695:1717   */\n      add\n        /* \"#utility.yul\":1674:1727   */\n      tag_149\n      jump\t// in\n    tag_170:\n        /* \"#utility.yul\":1664:1727   */\n      swap2\n      pop\n        /* \"#utility.yul\":1619:1737   */\n      pop\n        /* \"#utility.yul\":1189:1744   */\n      swap3\n      pop\n      swap3\n      pop\n      swap3\n      jump\t// out\n        /* \"#utility.yul\":1750:2012   */\n    tag_36:\n      0x00\n        /* \"#utility.yul\":1858:1860   */\n      0x20\n        /* \"#utility.yul\":1846:1855   */\n      dup3\n        /* \"#utility.yul\":1837:1844   */\n      dup5\n        /* \"#utility.yul\":1833:1856   */\n      sub\n        /* \"#utility.yul\":1829:1861   */\n      slt\n        /* \"#utility.yul\":1826:1828   */\n      iszero\n      tag_172\n      jumpi\n        /* \"#utility.yul\":1874:1875   */\n      0x00\n        /* \"#utility.yul\":1871:1872   */\n      dup1\n        /* \"#utility.yul\":1864:1876   */\n      revert\n        /* \"#utility.yul\":1826:1828   */\n    tag_172:\n        /* \"#utility.yul\":1917:1918   */\n      0x00\n        /* \"#utility.yul\":1942:1995   */\n      tag_173\n        /* \"#utility.yul\":1987:1994   */\n      dup5\n        /* \"#utility.yul\":1978:1984   */\n      dup3\n        /* \"#utility.yul\":1967:1976   */\n      dup6\n        /* \"#utility.yul\":1963:1985   */\n      add\n        /* \"#utility.yul\":1942:1995   */\n      tag_161\n      jump\t// in\n    tag_173:\n        /* \"#utility.yul\":1932:1995   */\n      swap2\n      pop\n        /* \"#utility.yul\":1888:2005   */\n      pop\n        /* \"#utility.yul\":1816:2012   */\n      swap3\n      swap2\n      pop\n      pop\n      jump\t// out\n        /* \"#utility.yul\":2018:2419   */\n    tag_31:\n      0x00\n      dup1\n        /* \"#utility.yul\":2140:2142   */\n      0x40\n        /* \"#utility.yul\":2128:2137   */\n      dup4\n        /* \"#utility.yul\":2119:2126   */\n      dup6\n        /* \"#utility.yul\":2115:2138   */\n      sub\n        /* \"#utility.yul\":2111:2143   */\n      slt\n        /* \"#utility.yul\":2108:2110   */\n      iszero\n      tag_175\n      jumpi\n        /* \"#utility.yul\":2156:2157   */\n      0x00\n        /* \"#utility.yul\":2153:2154   */\n      dup1\n        /* \"#utility.yul\":2146:2158   */\n      revert\n        /* \"#utility.yul\":2108:2110   */\n    tag_175:\n        /* \"#utility.yul\":2199:2200   */\n      0x00\n        /* \"#utility.yul\":2224:2277   */\n      tag_176\n        /* \"#utility.yul\":2269:2276   */\n      dup6\n        /* \"#utility.yul\":2260:2266   */\n      dup3\n        /* \"#utility.yul\":2249:2258   */\n      dup7\n        /* \"#utility.yul\":2245:2267   */\n      add\n        /* \"#utility.yul\":2224:2277   */\n      tag_161\n      jump\t// in\n    tag_176:\n        /* \"#utility.yul\":2214:2277   */\n      swap3\n      pop\n        /* \"#utility.yul\":2170:2287   */\n      pop\n        /* \"#utility.yul\":2326:2328   */\n      0x20\n        /* \"#utility.yul\":2352:2402   */\n      tag_177\n        /* \"#utility.yul\":2394:2401   */\n      dup6\n        /* \"#utility.yul\":2385:2391   */\n      dup3\n        /* \"#utility.yul\":2374:2383   */\n      dup7\n        /* \"#utility.yul\":2370:2392   */\n      add\n        /* \"#utility.yul\":2352:2402   */\n      tag_153\n      jump\t// in\n    tag_177:\n        /* \"#utility.yul\":2342:2402   */\n      swap2\n      pop\n        /* \"#utility.yul\":2297:2412   */\n      pop\n        /* \"#utility.yul\":2098:2419   */\n      swap3\n      pop\n      swap3\n      swap1\n      pop\n      jump\t// out\n        /* \"#utility.yul\":2425:2533   */\n    tag_178:\n        /* \"#utility.yul\":2502:2526   */\n      tag_180\n        /* \"#utility.yul\":2520:2525   */\n      dup2\n        /* \"#utility.yul\":2502:2526   */\n      tag_181\n      jump\t// in\n    tag_180:\n        /* \"#utility.yul\":2497:2500   */\n      dup3\n        /* \"#utility.yul\":2490:2527   */\n      mstore\n        /* \"#utility.yul\":2480:2533   */\n      pop\n      pop\n      jump\t// out\n        /* \"#utility.yul\":2539:2657   */\n    tag_182:\n        /* \"#utility.yul\":2626:2650   */\n      tag_184\n        /* \"#utility.yul\":2644:2649   */\n      dup2\n        /* \"#utility.yul\":2626:2650   */\n      tag_181\n      jump\t// in\n    tag_184:\n        /* \"#utility.yul\":2621:2624   */\n      dup3\n        /* \"#utility.yul\":2614:2651   */\n      mstore\n        /* \"#utility.yul\":2604:2657   */\n      pop\n      pop\n      jump\t// out\n        /* \"#utility.yul\":2663:2762   */\n    tag_185:\n        /* \"#utility.yul\":2734:2755   */\n      tag_187\n        /* \"#utility.yul\":2749:2754   */\n      dup2\n        /* \"#utility.yul\":2734:2755   */\n      tag_188\n      jump\t// in\n    tag_187:\n        /* \"#utility.yul\":2729:2732   */\n      dup3\n        /* \"#utility.yul\":2722:2756   */\n      mstore\n        /* \"#utility.yul\":2712:2762   */\n      pop\n      pop\n      jump\t// out\n        /* \"#utility.yul\":2768:2877   */\n    tag_189:\n        /* \"#utility.yul\":2849:2870   */\n      tag_191\n        /* \"#utility.yul\":2864:2869   */\n      dup2\n        /* \"#utility.yul\":2849:2870   */\n      tag_188\n      jump\t// in\n    tag_191:\n        /* \"#utility.yul\":2844:2847   */\n      dup3\n        /* \"#utility.yul\":2837:2871   */\n      mstore\n        /* \"#utility.yul\":2827:2877   */\n      pop\n      pop\n      jump\t// out\n        /* \"#utility.yul\":2883:3227   */\n    tag_192:\n      0x00\n        /* \"#utility.yul\":2989:3028   */\n      tag_194\n        /* \"#utility.yul\":3022:3027   */\n      dup3\n        /* \"#utility.yul\":2989:3028   */\n      tag_195\n      jump\t// in\n    tag_194:\n        /* \"#utility.yul\":3044:3105   */\n      tag_196\n        /* \"#utility.yul\":3098:3104   */\n      dup2\n        /* \"#utility.yul\":3093:3096   */\n      dup6\n        /* \"#utility.yul\":3044:3105   */\n      tag_197\n      jump\t// in\n    tag_196:\n        /* \"#utility.yul\":3037:3105   */\n      swap4\n      pop\n        /* \"#utility.yul\":3114:3166   */\n      tag_198\n        /* \"#utility.yul\":3159:3165   */\n      dup2\n        /* \"#utility.yul\":3154:3157   */\n      dup6\n        /* \"#utility.yul\":3147:3151   */\n      0x20\n        /* \"#utility.yul\":3140:3145   */\n      dup7\n        /* \"#utility.yul\":3136:3152   */\n      add\n        /* \"#utility.yul\":3114:3166   */\n      tag_199\n      jump\t// in\n    tag_198:\n        /* \"#utility.yul\":3191:3220   */\n      tag_200\n        /* \"#utility.yul\":3213:3219   */\n      dup2\n        /* \"#utility.yul\":3191:3220   */\n      tag_201\n      jump\t// in\n    tag_200:\n        /* \"#utility.yul\":3186:3189   */\n      dup5\n        /* \"#utility.yul\":3182:3221   */\n      add\n        /* \"#utility.yul\":3175:3221   */\n      swap2\n      pop\n        /* \"#utility.yul\":2965:3227   */\n      pop\n      swap3\n      swap2\n      pop\n      pop\n      jump\t// out\n        /* \"#utility.yul\":3233:3597   */\n    tag_202:\n      0x00\n        /* \"#utility.yul\":3349:3388   */\n      tag_204\n        /* \"#utility.yul\":3382:3387   */\n      dup3\n        /* \"#utility.yul\":3349:3388   */\n      tag_195\n      jump\t// in\n    tag_204:\n        /* \"#utility.yul\":3404:3475   */\n      tag_205\n        /* \"#utility.yul\":3468:3474   */\n      dup2\n        /* \"#utility.yul\":3463:3466   */\n      dup6\n        /* \"#utility.yul\":3404:3475   */\n      tag_206\n      jump\t// in\n    tag_205:\n        /* \"#utility.yul\":3397:3475   */\n      swap4\n      pop\n        /* \"#utility.yul\":3484:3536   */\n      tag_207\n        /* \"#utility.yul\":3529:3535   */\n      dup2\n        /* \"#utility.yul\":3524:3527   */\n      dup6\n        /* \"#utility.yul\":3517:3521   */\n      0x20\n        /* \"#utility.yul\":3510:3515   */\n      dup7\n        /* \"#utility.yul\":3506:3522   */\n      add\n        /* \"#utility.yul\":3484:3536   */\n      tag_199\n      jump\t// in\n    tag_207:\n        /* \"#utility.yul\":3561:3590   */\n      tag_208\n        /* \"#utility.yul\":3583:3589   */\n      dup2\n        /* \"#utility.yul\":3561:3590   */\n      tag_201\n      jump\t// in\n    tag_208:\n        /* \"#utility.yul\":3556:3559   */\n      dup5\n        /* \"#utility.yul\":3552:3591   */\n      add\n        /* \"#utility.yul\":3545:3591   */\n      swap2\n      pop\n        /* \"#utility.yul\":3325:3597   */\n      pop\n      swap3\n      swap2\n      pop\n      pop\n      jump\t// out\n        /* \"#utility.yul\":3661:5333   */\n    tag_209:\n      0x00\n        /* \"#utility.yul\":3814:3820   */\n      0x0100\n        /* \"#utility.yul\":3809:3812   */\n      dup4\n        /* \"#utility.yul\":3805:3821   */\n      add\n        /* \"#utility.yul\":3904:3908   */\n      0x00\n        /* \"#utility.yul\":3897:3902   */\n      dup4\n        /* \"#utility.yul\":3893:3909   */\n      add\n        /* \"#utility.yul\":3887:3910   */\n      mload\n        /* \"#utility.yul\":3923:3986   */\n      tag_211\n        /* \"#utility.yul\":3980:3984   */\n      0x00\n        /* \"#utility.yul\":3975:3978   */\n      dup7\n        /* \"#utility.yul\":3971:3985   */\n      add\n        /* \"#utility.yul\":3957:3969   */\n      dup3\n        /* \"#utility.yul\":3923:3986   */\n      tag_212\n      jump\t// in\n    tag_211:\n        /* \"#utility.yul\":3831:3996   */\n      pop\n        /* \"#utility.yul\":4083:4087   */\n      0x20\n        /* \"#utility.yul\":4076:4081   */\n      dup4\n        /* \"#utility.yul\":4072:4088   */\n      add\n        /* \"#utility.yul\":4066:4089   */\n      mload\n        /* \"#utility.yul\":4102:4165   */\n      tag_213\n        /* \"#utility.yul\":4159:4163   */\n      0x20\n        /* \"#utility.yul\":4154:4157   */\n      dup7\n        /* \"#utility.yul\":4150:4164   */\n      add\n        /* \"#utility.yul\":4136:4148   */\n      dup3\n        /* \"#utility.yul\":4102:4165   */\n      tag_178\n      jump\t// in\n    tag_213:\n        /* \"#utility.yul\":4006:4175   */\n      pop\n        /* \"#utility.yul\":4264:4268   */\n      0x40\n        /* \"#utility.yul\":4257:4262   */\n      dup4\n        /* \"#utility.yul\":4253:4269   */\n      add\n        /* \"#utility.yul\":4247:4270   */\n      mload\n        /* \"#utility.yul\":4317:4320   */\n      dup5\n        /* \"#utility.yul\":4311:4315   */\n      dup3\n        /* \"#utility.yul\":4307:4321   */\n      sub\n        /* \"#utility.yul\":4300:4304   */\n      0x40\n        /* \"#utility.yul\":4295:4298   */\n      dup7\n        /* \"#utility.yul\":4291:4305   */\n      add\n        /* \"#utility.yul\":4284:4322   */\n      mstore\n        /* \"#utility.yul\":4343:4416   */\n      tag_214\n        /* \"#utility.yul\":4411:4415   */\n      dup3\n        /* \"#utility.yul\":4397:4409   */\n      dup3\n        /* \"#utility.yul\":4343:4416   */\n      tag_192\n      jump\t// in\n    tag_214:\n        /* \"#utility.yul\":4335:4416   */\n      swap2\n      pop\n        /* \"#utility.yul\":4185:4427   */\n      pop\n        /* \"#utility.yul\":4510:4514   */\n      0x60\n        /* \"#utility.yul\":4503:4508   */\n      dup4\n        /* \"#utility.yul\":4499:4515   */\n      add\n        /* \"#utility.yul\":4493:4516   */\n      mload\n        /* \"#utility.yul\":4529:4592   */\n      tag_215\n        /* \"#utility.yul\":4586:4590   */\n      0x60\n        /* \"#utility.yul\":4581:4584   */\n      dup7\n        /* \"#utility.yul\":4577:4591   */\n      add\n        /* \"#utility.yul\":4563:4575   */\n      dup3\n        /* \"#utility.yul\":4529:4592   */\n      tag_212\n      jump\t// in\n    tag_215:\n        /* \"#utility.yul\":4437:4602   */\n      pop\n        /* \"#utility.yul\":4687:4691   */\n      0x80\n        /* \"#utility.yul\":4680:4685   */\n      dup4\n        /* \"#utility.yul\":4676:4692   */\n      add\n        /* \"#utility.yul\":4670:4693   */\n      mload\n        /* \"#utility.yul\":4706:4769   */\n      tag_216\n        /* \"#utility.yul\":4763:4767   */\n      0x80\n        /* \"#utility.yul\":4758:4761   */\n      dup7\n        /* \"#utility.yul\":4754:4768   */\n      add\n        /* \"#utility.yul\":4740:4752   */\n      dup3\n        /* \"#utility.yul\":4706:4769   */\n      tag_212\n      jump\t// in\n    tag_216:\n        /* \"#utility.yul\":4612:4779   */\n      pop\n        /* \"#utility.yul\":4868:4872   */\n      0xa0\n        /* \"#utility.yul\":4861:4866   */\n      dup4\n        /* \"#utility.yul\":4857:4873   */\n      add\n        /* \"#utility.yul\":4851:4874   */\n      mload\n        /* \"#utility.yul\":4887:4944   */\n      tag_217\n        /* \"#utility.yul\":4938:4942   */\n      0xa0\n        /* \"#utility.yul\":4933:4936   */\n      dup7\n        /* \"#utility.yul\":4929:4943   */\n      add\n        /* \"#utility.yul\":4915:4927   */\n      dup3\n        /* \"#utility.yul\":4887:4944   */\n      tag_185\n      jump\t// in\n    tag_217:\n        /* \"#utility.yul\":4789:4954   */\n      pop\n        /* \"#utility.yul\":5042:5046   */\n      0xc0\n        /* \"#utility.yul\":5035:5040   */\n      dup4\n        /* \"#utility.yul\":5031:5047   */\n      add\n        /* \"#utility.yul\":5025:5048   */\n      mload\n        /* \"#utility.yul\":5061:5118   */\n      tag_218\n        /* \"#utility.yul\":5112:5116   */\n      0xc0\n        /* \"#utility.yul\":5107:5110   */\n      dup7\n        /* \"#utility.yul\":5103:5117   */\n      add\n        /* \"#utility.yul\":5089:5101   */\n      dup3\n        /* \"#utility.yul\":5061:5118   */\n      tag_185\n      jump\t// in\n    tag_218:\n        /* \"#utility.yul\":4964:5128   */\n      pop\n        /* \"#utility.yul\":5214:5218   */\n      0xe0\n        /* \"#utility.yul\":5207:5212   */\n      dup4\n        /* \"#utility.yul\":5203:5219   */\n      add\n        /* \"#utility.yul\":5197:5220   */\n      mload\n        /* \"#utility.yul\":5233:5296   */\n      tag_219\n        /* \"#utility.yul\":5290:5294   */\n      0xe0\n        /* \"#utility.yul\":5285:5288   */\n      dup7\n        /* \"#utility.yul\":5281:5295   */\n      add\n        /* \"#utility.yul\":5267:5279   */\n      dup3\n        /* \"#utility.yul\":5233:5296   */\n      tag_212\n      jump\t// in\n    tag_219:\n        /* \"#utility.yul\":5138:5306   */\n      pop\n        /* \"#utility.yul\":5323:5327   */\n      dup1\n        /* \"#utility.yul\":5316:5327   */\n      swap2\n      pop\n        /* \"#utility.yul\":3783:5333   */\n      pop\n      swap3\n      swap2\n      pop\n      pop\n      jump\t// out\n        /* \"#utility.yul\":5339:5447   */\n    tag_212:\n        /* \"#utility.yul\":5416:5440   */\n      tag_221\n        /* \"#utility.yul\":5434:5439   */\n      dup2\n        /* \"#utility.yul\":5416:5440   */\n      tag_222\n      jump\t// in\n    tag_221:\n        /* \"#utility.yul\":5411:5414   */\n      dup3\n        /* \"#utility.yul\":5404:5441   */\n      mstore\n        /* \"#utility.yul\":5394:5447   */\n      pop\n      pop\n      jump\t// out\n        /* \"#utility.yul\":5453:5571   */\n    tag_223:\n        /* \"#utility.yul\":5540:5564   */\n      tag_225\n        /* \"#utility.yul\":5558:5563   */\n      dup2\n        /* \"#utility.yul\":5540:5564   */\n      tag_222\n      jump\t// in\n    tag_225:\n        /* \"#utility.yul\":5535:5538   */\n      dup3\n        /* \"#utility.yul\":5528:5565   */\n      mstore\n        /* \"#utility.yul\":5518:5571   */\n      pop\n      pop\n      jump\t// out\n        /* \"#utility.yul\":5577:5799   */\n    tag_27:\n      0x00\n        /* \"#utility.yul\":5708:5710   */\n      0x20\n        /* \"#utility.yul\":5697:5706   */\n      dup3\n        /* \"#utility.yul\":5693:5711   */\n      add\n        /* \"#utility.yul\":5685:5711   */\n      swap1\n      pop\n        /* \"#utility.yul\":5721:5792   */\n      tag_227\n        /* \"#utility.yul\":5789:5790   */\n      0x00\n        /* \"#utility.yul\":5778:5787   */\n      dup4\n        /* \"#utility.yul\":5774:5791   */\n      add\n        /* \"#utility.yul\":5765:5771   */\n      dup5\n        /* \"#utility.yul\":5721:5792   */\n      tag_182\n      jump\t// in\n    tag_227:\n        /* \"#utility.yul\":5675:5799   */\n      swap3\n      swap2\n      pop\n      pop\n      jump\t// out\n        /* \"#utility.yul\":5805:6174   */\n    tag_58:\n      0x00\n        /* \"#utility.yul\":5984:5986   */\n      0x20\n        /* \"#utility.yul\":5973:5982   */\n      dup3\n        /* \"#utility.yul\":5969:5987   */\n      add\n        /* \"#utility.yul\":5961:5987   */\n      swap1\n      pop\n        /* \"#utility.yul\":6033:6042   */\n      dup2\n        /* \"#utility.yul\":6027:6031   */\n      dup2\n        /* \"#utility.yul\":6023:6043   */\n      sub\n        /* \"#utility.yul\":6019:6020   */\n      0x00\n        /* \"#utility.yul\":6008:6017   */\n      dup4\n        /* \"#utility.yul\":6004:6021   */\n      add\n        /* \"#utility.yul\":5997:6044   */\n      mstore\n        /* \"#utility.yul\":6061:6167   */\n      tag_229\n        /* \"#utility.yul\":6162:6166   */\n      dup2\n        /* \"#utility.yul\":6153:6159   */\n      dup5\n        /* \"#utility.yul\":6061:6167   */\n      tag_209\n      jump\t// in\n    tag_229:\n        /* \"#utility.yul\":6053:6167   */\n      swap1\n      pop\n        /* \"#utility.yul\":5951:6174   */\n      swap3\n      swap2\n      pop\n      pop\n      jump\t// out\n        /* \"#utility.yul\":6180:6402   */\n    tag_22:\n      0x00\n        /* \"#utility.yul\":6311:6313   */\n      0x20\n        /* \"#utility.yul\":6300:6309   */\n      dup3\n        /* \"#utility.yul\":6296:6314   */\n      add\n        /* \"#utility.yul\":6288:6314   */\n      swap1\n      pop\n        /* \"#utility.yul\":6324:6395   */\n      tag_231\n        /* \"#utility.yul\":6392:6393   */\n      0x00\n        /* \"#utility.yul\":6381:6390   */\n      dup4\n        /* \"#utility.yul\":6377:6394   */\n      add\n        /* \"#utility.yul\":6368:6374   */\n      dup5\n        /* \"#utility.yul\":6324:6395   */\n      tag_223\n      jump\t// in\n    tag_231:\n        /* \"#utility.yul\":6278:6402   */\n      swap3\n      swap2\n      pop\n      pop\n      jump\t// out\n        /* \"#utility.yul\":6408:7472   */\n    tag_39:\n      0x00\n        /* \"#utility.yul\":6743:6746   */\n      0x0100\n        /* \"#utility.yul\":6732:6741   */\n      dup3\n        /* \"#utility.yul\":6728:6747   */\n      add\n        /* \"#utility.yul\":6720:6747   */\n      swap1\n      pop\n        /* \"#utility.yul\":6757:6828   */\n      tag_233\n        /* \"#utility.yul\":6825:6826   */\n      0x00\n        /* \"#utility.yul\":6814:6823   */\n      dup4\n        /* \"#utility.yul\":6810:6827   */\n      add\n        /* \"#utility.yul\":6801:6807   */\n      dup12\n        /* \"#utility.yul\":6757:6828   */\n      tag_223\n      jump\t// in\n    tag_233:\n        /* \"#utility.yul\":6838:6910   */\n      tag_234\n        /* \"#utility.yul\":6906:6908   */\n      0x20\n        /* \"#utility.yul\":6895:6904   */\n      dup4\n        /* \"#utility.yul\":6891:6909   */\n      add\n        /* \"#utility.yul\":6882:6888   */\n      dup11\n        /* \"#utility.yul\":6838:6910   */\n      tag_182\n      jump\t// in\n    tag_234:\n        /* \"#utility.yul\":6957:6966   */\n      dup2\n        /* \"#utility.yul\":6951:6955   */\n      dup2\n        /* \"#utility.yul\":6947:6967   */\n      sub\n        /* \"#utility.yul\":6942:6944   */\n      0x40\n        /* \"#utility.yul\":6931:6940   */\n      dup4\n        /* \"#utility.yul\":6927:6945   */\n      add\n        /* \"#utility.yul\":6920:6968   */\n      mstore\n        /* \"#utility.yul\":6985:7063   */\n      tag_235\n        /* \"#utility.yul\":7058:7062   */\n      dup2\n        /* \"#utility.yul\":7049:7055   */\n      dup10\n        /* \"#utility.yul\":6985:7063   */\n      tag_202\n      jump\t// in\n    tag_235:\n        /* \"#utility.yul\":6977:7063   */\n      swap1\n      pop\n        /* \"#utility.yul\":7073:7145   */\n      tag_236\n        /* \"#utility.yul\":7141:7143   */\n      0x60\n        /* \"#utility.yul\":7130:7139   */\n      dup4\n        /* \"#utility.yul\":7126:7144   */\n      add\n        /* \"#utility.yul\":7117:7123   */\n      dup9\n        /* \"#utility.yul\":7073:7145   */\n      tag_223\n      jump\t// in\n    tag_236:\n        /* \"#utility.yul\":7155:7228   */\n      tag_237\n        /* \"#utility.yul\":7223:7226   */\n      0x80\n        /* \"#utility.yul\":7212:7221   */\n      dup4\n        /* \"#utility.yul\":7208:7227   */\n      add\n        /* \"#utility.yul\":7199:7205   */\n      dup8\n        /* \"#utility.yul\":7155:7228   */\n      tag_223\n      jump\t// in\n    tag_237:\n        /* \"#utility.yul\":7238:7305   */\n      tag_238\n        /* \"#utility.yul\":7300:7303   */\n      0xa0\n        /* \"#utility.yul\":7289:7298   */\n      dup4\n        /* \"#utility.yul\":7285:7304   */\n      add\n        /* \"#utility.yul\":7276:7282   */\n      dup7\n        /* \"#utility.yul\":7238:7305   */\n      tag_189\n      jump\t// in\n    tag_238:\n        /* \"#utility.yul\":7315:7382   */\n      tag_239\n        /* \"#utility.yul\":7377:7380   */\n      0xc0\n        /* \"#utility.yul\":7366:7375   */\n      dup4\n        /* \"#utility.yul\":7362:7381   */\n      add\n        /* \"#utility.yul\":7353:7359   */\n      dup6\n        /* \"#utility.yul\":7315:7382   */\n      tag_189\n      jump\t// in\n    tag_239:\n        /* \"#utility.yul\":7392:7465   */\n      tag_240\n        /* \"#utility.yul\":7460:7463   */\n      0xe0\n        /* \"#utility.yul\":7449:7458   */\n      dup4\n        /* \"#utility.yul\":7445:7464   */\n      add\n        /* \"#utility.yul\":7436:7442   */\n      dup5\n        /* \"#utility.yul\":7392:7465   */\n      tag_223\n      jump\t// in\n    tag_240:\n        /* \"#utility.yul\":6710:7472   */\n      swap10\n      swap9\n      pop\n      pop\n      pop\n      pop\n      pop\n      pop\n      pop\n      pop\n      pop\n      jump\t// out\n        /* \"#utility.yul\":7478:8253   */\n    tag_17:\n      0x00\n        /* \"#utility.yul\":7749:7752   */\n      0xc0\n        /* \"#utility.yul\":7738:7747   */\n      dup3\n        /* \"#utility.yul\":7734:7753   */\n      add\n        /* \"#utility.yul\":7726:7753   */\n      swap1\n      pop\n        /* \"#utility.yul\":7763:7834   */\n      tag_242\n        /* \"#utility.yul\":7831:7832   */\n      0x00\n        /* \"#utility.yul\":7820:7829   */\n      dup4\n        /* \"#utility.yul\":7816:7833   */\n      add\n        /* \"#utility.yul\":7807:7813   */\n      dup10\n        /* \"#utility.yul\":7763:7834   */\n      tag_223\n      jump\t// in\n    tag_242:\n        /* \"#utility.yul\":7844:7916   */\n      tag_243\n        /* \"#utility.yul\":7912:7914   */\n      0x20\n        /* \"#utility.yul\":7901:7910   */\n      dup4\n        /* \"#utility.yul\":7897:7915   */\n      add\n        /* \"#utility.yul\":7888:7894   */\n      dup9\n        /* \"#utility.yul\":7844:7916   */\n      tag_223\n      jump\t// in\n    tag_243:\n        /* \"#utility.yul\":7926:7998   */\n      tag_244\n        /* \"#utility.yul\":7994:7996   */\n      0x40\n        /* \"#utility.yul\":7983:7992   */\n      dup4\n        /* \"#utility.yul\":7979:7997   */\n      add\n        /* \"#utility.yul\":7970:7976   */\n      dup8\n        /* \"#utility.yul\":7926:7998   */\n      tag_223\n      jump\t// in\n    tag_244:\n        /* \"#utility.yul\":8008:8080   */\n      tag_245\n        /* \"#utility.yul\":8076:8078   */\n      0x60\n        /* \"#utility.yul\":8065:8074   */\n      dup4\n        /* \"#utility.yul\":8061:8079   */\n      add\n        /* \"#utility.yul\":8052:8058   */\n      dup7\n        /* \"#utility.yul\":8008:8080   */\n      tag_223\n      jump\t// in\n    tag_245:\n        /* \"#utility.yul\":8090:8163   */\n      tag_246\n        /* \"#utility.yul\":8158:8161   */\n      0x80\n        /* \"#utility.yul\":8147:8156   */\n      dup4\n        /* \"#utility.yul\":8143:8162   */\n      add\n        /* \"#utility.yul\":8134:8140   */\n      dup6\n        /* \"#utility.yul\":8090:8163   */\n      tag_223\n      jump\t// in\n    tag_246:\n        /* \"#utility.yul\":8173:8246   */\n      tag_247\n        /* \"#utility.yul\":8241:8244   */\n      0xa0\n        /* \"#utility.yul\":8230:8239   */\n      dup4\n        /* \"#utility.yul\":8226:8245   */\n      add\n        /* \"#utility.yul\":8217:8223   */\n      dup5\n        /* \"#utility.yul\":8173:8246   */\n      tag_182\n      jump\t// in\n    tag_247:\n        /* \"#utility.yul\":7716:8253   */\n      swap8\n      swap7\n      pop\n      pop\n      pop\n      pop\n      pop\n      pop\n      pop\n      jump\t// out\n        /* \"#utility.yul\":8259:8542   */\n    tag_145:\n      0x00\n        /* \"#utility.yul\":8325:8327   */\n      0x40\n        /* \"#utility.yul\":8319:8328   */\n      mload\n        /* \"#utility.yul\":8309:8328   */\n      swap1\n      pop\n        /* \"#utility.yul\":8367:8371   */\n      dup2\n        /* \"#utility.yul\":8359:8365   */\n      dup2\n        /* \"#utility.yul\":8355:8372   */\n      add\n        /* \"#utility.yul\":8474:8480   */\n      dup2\n        /* \"#utility.yul\":8462:8472   */\n      dup2\n        /* \"#utility.yul\":8459:8481   */\n      lt\n        /* \"#utility.yul\":8438:8456   */\n      0xffffffffffffffff\n        /* \"#utility.yul\":8426:8436   */\n      dup3\n        /* \"#utility.yul\":8423:8457   */\n      gt\n        /* \"#utility.yul\":8420:8482   */\n      or\n        /* \"#utility.yul\":8417:8419   */\n      iszero\n      tag_249\n      jumpi\n        /* \"#utility.yul\":8485:8503   */\n      tag_250\n      tag_251\n      jump\t// in\n    tag_250:\n        /* \"#utility.yul\":8417:8419   */\n    tag_249:\n        /* \"#utility.yul\":8525:8535   */\n      dup1\n        /* \"#utility.yul\":8521:8523   */\n      0x40\n        /* \"#utility.yul\":8514:8536   */\n      mstore\n        /* \"#utility.yul\":8299:8542   */\n      pop\n      swap2\n      swap1\n      pop\n      jump\t// out\n        /* \"#utility.yul\":8548:8880   */\n    tag_144:\n      0x00\n        /* \"#utility.yul\":8700:8718   */\n      0xffffffffffffffff\n        /* \"#utility.yul\":8692:8698   */\n      dup3\n        /* \"#utility.yul\":8689:8719   */\n      gt\n        /* \"#utility.yul\":8686:8688   */\n      iszero\n      tag_253\n      jumpi\n        /* \"#utility.yul\":8722:8740   */\n      tag_254\n      tag_251\n      jump\t// in\n    tag_254:\n        /* \"#utility.yul\":8686:8688   */\n    tag_253:\n        /* \"#utility.yul\":8807:8811   */\n      0x1f\n        /* \"#utility.yul\":8803:8812   */\n      not\n        /* \"#utility.yul\":8796:8800   */\n      0x1f\n        /* \"#utility.yul\":8788:8794   */\n      dup4\n        /* \"#utility.yul\":8784:8801   */\n      add\n        /* \"#utility.yul\":8780:8813   */\n      and\n        /* \"#utility.yul\":8772:8813   */\n      swap1\n      pop\n        /* \"#utility.yul\":8868:8872   */\n      0x20\n        /* \"#utility.yul\":8862:8866   */\n      dup2\n        /* \"#utility.yul\":8858:8873   */\n      add\n        /* \"#utility.yul\":8850:8873   */\n      swap1\n      pop\n        /* \"#utility.yul\":8615:8880   */\n      swap2\n      swap1\n      pop\n      jump\t// out\n        /* \"#utility.yul\":8886:8985   */\n    tag_195:\n      0x00\n        /* \"#utility.yul\":8972:8977   */\n      dup2\n        /* \"#utility.yul\":8966:8978   */\n      mload\n        /* \"#utility.yul\":8956:8978   */\n      swap1\n      pop\n        /* \"#utility.yul\":8945:8985   */\n      swap2\n      swap1\n      pop\n      jump\t// out\n        /* \"#utility.yul\":8991:9150   */\n    tag_197:\n      0x00\n        /* \"#utility.yul\":9099:9105   */\n      dup3\n        /* \"#utility.yul\":9094:9097   */\n      dup3\n        /* \"#utility.yul\":9087:9106   */\n      mstore\n        /* \"#utility.yul\":9139:9143   */\n      0x20\n        /* \"#utility.yul\":9134:9137   */\n      dup3\n        /* \"#utility.yul\":9130:9144   */\n      add\n        /* \"#utility.yul\":9115:9144   */\n      swap1\n      pop\n        /* \"#utility.yul\":9077:9150   */\n      swap3\n      swap2\n      pop\n      pop\n      jump\t// out\n        /* \"#utility.yul\":9156:9325   */\n    tag_206:\n      0x00\n        /* \"#utility.yul\":9274:9280   */\n      dup3\n        /* \"#utility.yul\":9269:9272   */\n      dup3\n        /* \"#utility.yul\":9262:9281   */\n      mstore\n        /* \"#utility.yul\":9314:9318   */\n      0x20\n        /* \"#utility.yul\":9309:9312   */\n      dup3\n        /* \"#utility.yul\":9305:9319   */\n      add\n        /* \"#utility.yul\":9290:9319   */\n      swap1\n      pop\n        /* \"#utility.yul\":9252:9325   */\n      swap3\n      swap2\n      pop\n      pop\n      jump\t// out\n        /* \"#utility.yul\":9331:9636   */\n    tag_73:\n      0x00\n        /* \"#utility.yul\":9390:9410   */\n      tag_259\n        /* \"#utility.yul\":9408:9409   */\n      dup3\n        /* \"#utility.yul\":9390:9410   */\n      tag_222\n      jump\t// in\n    tag_259:\n        /* \"#utility.yul\":9385:9410   */\n      swap2\n      pop\n        /* \"#utility.yul\":9424:9444   */\n      tag_260\n        /* \"#utility.yul\":9442:9443   */\n      dup4\n        /* \"#utility.yul\":9424:9444   */\n      tag_222\n      jump\t// in\n    tag_260:\n        /* \"#utility.yul\":9419:9444   */\n      swap3\n      pop\n        /* \"#utility.yul\":9578:9579   */\n      dup3\n        /* \"#utility.yul\":9510:9576   */\n      0xffffffffffffffffffffffffffffffffffffffffffffffffffffffffffffffff\n        /* \"#utility.yul\":9506:9580   */\n      sub\n        /* \"#utility.yul\":9503:9504   */\n      dup3\n        /* \"#utility.yul\":9500:9581   */\n      gt\n        /* \"#utility.yul\":9497:9499   */\n      iszero\n      tag_261\n      jumpi\n        /* \"#utility.yul\":9584:9602   */\n      tag_262\n      tag_263\n      jump\t// in\n    tag_262:\n        /* \"#utility.yul\":9497:9499   */\n    tag_261:\n        /* \"#utility.yul\":9628:9629   */\n      dup3\n        /* \"#utility.yul\":9625:9626   */\n      dup3\n        /* \"#utility.yul\":9621:9630   */\n      add\n        /* \"#utility.yul\":9614:9630   */\n      swap1\n      pop\n        /* \"#utility.yul\":9375:9636   */\n      swap3\n      swap2\n      pop\n      pop\n      jump\t// out\n        /* \"#utility.yul\":9642:9827   */\n    tag_103:\n      0x00\n        /* \"#utility.yul\":9699:9719   */\n      tag_265\n        /* \"#utility.yul\":9717:9718   */\n      dup3\n        /* \"#utility.yul\":9699:9719   */\n      tag_222\n      jump\t// in\n    tag_265:\n        /* \"#utility.yul\":9694:9719   */\n      swap2\n      pop\n        /* \"#utility.yul\":9733:9753   */\n      tag_266\n        /* \"#utility.yul\":9751:9752   */\n      dup4\n        /* \"#utility.yul\":9733:9753   */\n      tag_222\n      jump\t// in\n    tag_266:\n        /* \"#utility.yul\":9728:9753   */\n      swap3\n      pop\n        /* \"#utility.yul\":9772:9773   */\n      dup3\n        /* \"#utility.yul\":9762:9764   */\n      tag_267\n      jumpi\n        /* \"#utility.yul\":9777:9795   */\n      tag_268\n      tag_269\n      jump\t// in\n    tag_268:\n        /* \"#utility.yul\":9762:9764   */\n    tag_267:\n        /* \"#utility.yul\":9819:9820   */\n      dup3\n        /* \"#utility.yul\":9816:9817   */\n      dup3\n        /* \"#utility.yul\":9812:9821   */\n      div\n        /* \"#utility.yul\":9807:9821   */\n      swap1\n      pop\n        /* \"#utility.yul\":9684:9827   */\n      swap3\n      swap2\n      pop\n      pop\n      jump\t// out\n        /* \"#utility.yul\":9833:10181   */\n    tag_101:\n      0x00\n        /* \"#utility.yul\":9896:9916   */\n      tag_271\n        /* \"#utility.yul\":9914:9915   */\n      dup3\n        /* \"#utility.yul\":9896:9916   */\n      tag_222\n      jump\t// in\n    tag_271:\n        /* \"#utility.yul\":9891:9916   */\n      swap2\n      pop\n        /* \"#utility.yul\":9930:9950   */\n      tag_272\n        /* \"#utility.yul\":9948:9949   */\n      dup4\n        /* \"#utility.yul\":9930:9950   */\n      tag_222\n      jump\t// in\n    tag_272:\n        /* \"#utility.yul\":9925:9950   */\n      swap3\n      pop\n        /* \"#utility.yul\":10118:10119   */\n      dup2\n        /* \"#utility.yul\":10050:10116   */\n      0xffffffffffffffffffffffffffffffffffffffffffffffffffffffffffffffff\n        /* \"#utility.yul\":10046:10120   */\n      div\n        /* \"#utility.yul\":10043:10044   */\n      dup4\n        /* \"#utility.yul\":10040:10121   */\n      gt\n        /* \"#utility.yul\":10035:10036   */\n      dup3\n        /* \"#utility.yul\":10028:10037   */\n      iszero\n        /* \"#utility.yul\":10021:10038   */\n      iszero\n        /* \"#utility.yul\":10017:10122   */\n      and\n        /* \"#utility.yul\":10014:10016   */\n      iszero\n      tag_273\n      jumpi\n        /* \"#utility.yul\":10125:10143   */\n      tag_274\n      tag_263\n      jump\t// in\n    tag_274:\n        /* \"#utility.yul\":10014:10016   */\n    tag_273:\n        /* \"#utility.yul\":10173:10174   */\n      dup3\n        /* \"#utility.yul\":10170:10171   */\n      dup3\n        /* \"#utility.yul\":10166:10175   */\n      mul\n        /* \"#utility.yul\":10155:10175   */\n      swap1\n      pop\n        /* \"#utility.yul\":9881:10181   */\n      swap3\n      swap2\n      pop\n      pop\n      jump\t// out\n        /* \"#utility.yul\":10187:10378   */\n    tag_65:\n      0x00\n        /* \"#utility.yul\":10247:10267   */\n      tag_276\n        /* \"#utility.yul\":10265:10266   */\n      dup3\n        /* \"#utility.yul\":10247:10267   */\n      tag_222\n      jump\t// in\n    tag_276:\n        /* \"#utility.yul\":10242:10267   */\n      swap2\n      pop\n        /* \"#utility.yul\":10281:10301   */\n      tag_277\n        /* \"#utility.yul\":10299:10300   */\n      dup4\n        /* \"#utility.yul\":10281:10301   */\n      tag_222\n      jump\t// in\n    tag_277:\n        /* \"#utility.yul\":10276:10301   */\n      swap3\n      pop\n        /* \"#utility.yul\":10320:10321   */\n      dup3\n        /* \"#utility.yul\":10317:10318   */\n      dup3\n        /* \"#utility.yul\":10314:10322   */\n      lt\n        /* \"#utility.yul\":10311:10313   */\n      iszero\n      tag_278\n      jumpi\n        /* \"#utility.yul\":10325:10343   */\n      tag_279\n      tag_263\n      jump\t// in\n    tag_279:\n        /* \"#utility.yul\":10311:10313   */\n    tag_278:\n        /* \"#utility.yul\":10370:10371   */\n      dup3\n        /* \"#utility.yul\":10367:10368   */\n      dup3\n        /* \"#utility.yul\":10363:10372   */\n      sub\n        /* \"#utility.yul\":10355:10372   */\n      swap1\n      pop\n        /* \"#utility.yul\":10232:10378   */\n      swap3\n      swap2\n      pop\n      pop\n      jump\t// out\n        /* \"#utility.yul\":10384:10480   */\n    tag_181:\n      0x00\n        /* \"#utility.yul\":10450:10474   */\n      tag_281\n        /* \"#utility.yul\":10468:10473   */\n      dup3\n        /* \"#utility.yul\":10450:10474   */\n      tag_282\n      jump\t// in\n    tag_281:\n        /* \"#utility.yul\":10439:10474   */\n      swap1\n      pop\n        /* \"#utility.yul\":10429:10480   */\n      swap2\n      swap1\n      pop\n      jump\t// out\n        /* \"#utility.yul\":10486:10576   */\n    tag_188:\n      0x00\n        /* \"#utility.yul\":10563:10568   */\n      dup2\n        /* \"#utility.yul\":10556:10569   */\n      iszero\n        /* \"#utility.yul\":10549:10570   */\n      iszero\n        /* \"#utility.yul\":10538:10570   */\n      swap1\n      pop\n        /* \"#utility.yul\":10528:10576   */\n      swap2\n      swap1\n      pop\n      jump\t// out\n        /* \"#utility.yul\":10582:10708   */\n    tag_282:\n      0x00\n        /* \"#utility.yul\":10659:10701   */\n      0xffffffffffffffffffffffffffffffffffffffff\n        /* \"#utility.yul\":10652:10657   */\n      dup3\n        /* \"#utility.yul\":10648:10702   */\n      and\n        /* \"#utility.yul\":10637:10702   */\n      swap1\n      pop\n        /* \"#utility.yul\":10627:10708   */\n      swap2\n      swap1\n      pop\n      jump\t// out\n        /* \"#utility.yul\":10714:10791   */\n    tag_222:\n      0x00\n        /* \"#utility.yul\":10780:10785   */\n      dup2\n        /* \"#utility.yul\":10769:10785   */\n      swap1\n      pop\n        /* \"#utility.yul\":10759:10791   */\n      swap2\n      swap1\n      pop\n      jump\t// out\n        /* \"#utility.yul\":10797:10951   */\n    tag_148:\n        /* \"#utility.yul\":10881:10887   */\n      dup3\n        /* \"#utility.yul\":10876:10879   */\n      dup2\n        /* \"#utility.yul\":10871:10874   */\n      dup4\n        /* \"#utility.yul\":10858:10888   */\n      calldatacopy\n        /* \"#utility.yul\":10943:10944   */\n      0x00\n        /* \"#utility.yul\":10934:10940   */\n      dup4\n        /* \"#utility.yul\":10929:10932   */\n      dup4\n        /* \"#utility.yul\":10925:10941   */\n      add\n        /* \"#utility.yul\":10918:10945   */\n      mstore\n        /* \"#utility.yul\":10848:10951   */\n      pop\n      pop\n      pop\n      jump\t// out\n        /* \"#utility.yul\":10957:11264   */\n    tag_199:\n        /* \"#utility.yul\":11025:11026   */\n      0x00\n        /* \"#utility.yul\":11035:11148   */\n    tag_288:\n        /* \"#utility.yul\":11049:11055   */\n      dup4\n        /* \"#utility.yul\":11046:11047   */\n      dup2\n        /* \"#utility.yul\":11043:11056   */\n      lt\n        /* \"#utility.yul\":11035:11148   */\n      iszero\n      tag_290\n      jumpi\n        /* \"#utility.yul\":11134:11135   */\n      dup1\n        /* \"#utility.yul\":11129:11132   */\n      dup3\n        /* \"#utility.yul\":11125:11136   */\n      add\n        /* \"#utility.yul\":11119:11137   */\n      mload\n        /* \"#utility.yul\":11115:11116   */\n      dup2\n        /* \"#utility.yul\":11110:11113   */\n      dup5\n        /* \"#utility.yul\":11106:11117   */\n      add\n        /* \"#utility.yul\":11099:11138   */\n      mstore\n        /* \"#utility.yul\":11071:11073   */\n      0x20\n        /* \"#utility.yul\":11068:11069   */\n      dup2\n        /* \"#utility.yul\":11064:11074   */\n      add\n        /* \"#utility.yul\":11059:11074   */\n      swap1\n      pop\n        /* \"#utility.yul\":11035:11148   */\n      jump(tag_288)\n    tag_290:\n        /* \"#utility.yul\":11166:11172   */\n      dup4\n        /* \"#utility.yul\":11163:11164   */\n      dup2\n        /* \"#utility.yul\":11160:11173   */\n      gt\n        /* \"#utility.yul\":11157:11159   */\n      iszero\n      tag_291\n      jumpi\n        /* \"#utility.yul\":11246:11247   */\n      0x00\n        /* \"#utility.yul\":11237:11243   */\n      dup5\n        /* \"#utility.yul\":11232:11235   */\n      dup5\n        /* \"#utility.yul\":11228:11244   */\n      add\n        /* \"#utility.yul\":11221:11248   */\n      mstore\n        /* \"#utility.yul\":11157:11159   */\n    tag_291:\n        /* \"#utility.yul\":11006:11264   */\n      pop\n      pop\n      pop\n      pop\n      jump\t// out\n        /* \"#utility.yul\":11270:11590   */\n    tag_77:\n      0x00\n        /* \"#utility.yul\":11351:11352   */\n      0x02\n        /* \"#utility.yul\":11345:11349   */\n      dup3\n        /* \"#utility.yul\":11341:11353   */\n      div\n        /* \"#utility.yul\":11331:11353   */\n      swap1\n      pop\n        /* \"#utility.yul\":11398:11399   */\n      0x01\n        /* \"#utility.yul\":11392:11396   */\n      dup3\n        /* \"#utility.yul\":11388:11400   */\n      and\n        /* \"#utility.yul\":11419:11437   */\n      dup1\n        /* \"#utility.yul\":11409:11411   */\n      tag_293\n      jumpi\n        /* \"#utility.yul\":11475:11479   */\n      0x7f\n        /* \"#utility.yul\":11467:11473   */\n      dup3\n        /* \"#utility.yul\":11463:11480   */\n      and\n        /* \"#utility.yul\":11453:11480   */\n      swap2\n      pop\n        /* \"#utility.yul\":11409:11411   */\n    tag_293:\n        /* \"#utility.yul\":11537:11539   */\n      0x20\n        /* \"#utility.yul\":11529:11535   */\n      dup3\n        /* \"#utility.yul\":11526:11540   */\n      lt\n        /* \"#utility.yul\":11506:11524   */\n      dup2\n        /* \"#utility.yul\":11503:11541   */\n      eq\n        /* \"#utility.yul\":11500:11502   */\n      iszero\n      tag_294\n      jumpi\n        /* \"#utility.yul\":11556:11574   */\n      tag_295\n      tag_296\n      jump\t// in\n    tag_295:\n        /* \"#utility.yul\":11500:11502   */\n    tag_294:\n        /* \"#utility.yul\":11321:11590   */\n      pop\n      swap2\n      swap1\n      pop\n      jump\t// out\n        /* \"#utility.yul\":11596:11829   */\n    tag_86:\n      0x00\n        /* \"#utility.yul\":11658:11682   */\n      tag_298\n        /* \"#utility.yul\":11676:11681   */\n      dup3\n        /* \"#utility.yul\":11658:11682   */\n      tag_222\n      jump\t// in\n    tag_298:\n        /* \"#utility.yul\":11649:11682   */\n      swap2\n      pop\n        /* \"#utility.yul\":11704:11770   */\n      0xffffffffffffffffffffffffffffffffffffffffffffffffffffffffffffffff\n        /* \"#utility.yul\":11697:11702   */\n      dup3\n        /* \"#utility.yul\":11694:11771   */\n      eq\n        /* \"#utility.yul\":11691:11693   */\n      iszero\n      tag_299\n      jumpi\n        /* \"#utility.yul\":11774:11792   */\n      tag_300\n      tag_263\n      jump\t// in\n    tag_300:\n        /* \"#utility.yul\":11691:11693   */\n    tag_299:\n        /* \"#utility.yul\":11821:11822   */\n      0x01\n        /* \"#utility.yul\":11814:11819   */\n      dup3\n        /* \"#utility.yul\":11810:11823   */\n      add\n        /* \"#utility.yul\":11803:11823   */\n      swap1\n      pop\n        /* \"#utility.yul\":11639:11829   */\n      swap2\n      swap1\n      pop\n      jump\t// out\n        /* \"#utility.yul\":11835:12015   */\n    tag_263:\n        /* \"#utility.yul\":11883:11960   */\n      0x4e487b7100000000000000000000000000000000000000000000000000000000\n        /* \"#utility.yul\":11880:11881   */\n      0x00\n        /* \"#utility.yul\":11873:11961   */\n      mstore\n        /* \"#utility.yul\":11980:11984   */\n      0x11\n        /* \"#utility.yul\":11977:11978   */\n      0x04\n        /* \"#utility.yul\":11970:11985   */\n      mstore\n        /* \"#utility.yul\":12004:12008   */\n      0x24\n        /* \"#utility.yul\":12001:12002   */\n      0x00\n        /* \"#utility.yul\":11994:12009   */\n      revert\n        /* \"#utility.yul\":12021:12201   */\n    tag_269:\n        /* \"#utility.yul\":12069:12146   */\n      0x4e487b7100000000000000000000000000000000000000000000000000000000\n        /* \"#utility.yul\":12066:12067   */\n      0x00\n        /* \"#utility.yul\":12059:12147   */\n      mstore\n        /* \"#utility.yul\":12166:12170   */\n      0x12\n        /* \"#utility.yul\":12163:12164   */\n      0x04\n        /* \"#utility.yul\":12156:12171   */\n      mstore\n        /* \"#utility.yul\":12190:12194   */\n      0x24\n        /* \"#utility.yul\":12187:12188   */\n      0x00\n        /* \"#utility.yul\":12180:12195   */\n      revert\n        /* \"#utility.yul\":12207:12387   */\n    tag_296:\n        /* \"#utility.yul\":12255:12332   */\n      0x4e487b7100000000000000000000000000000000000000000000000000000000\n        /* \"#utility.yul\":12252:12253   */\n      0x00\n        /* \"#utility.yul\":12245:12333   */\n      mstore\n        /* \"#utility.yul\":12352:12356   */\n      0x22\n        /* \"#utility.yul\":12349:12350   */\n      0x04\n        /* \"#utility.yul\":12342:12357   */\n      mstore\n        /* \"#utility.yul\":12376:12380   */\n      0x24\n        /* \"#utility.yul\":12373:12374   */\n      0x00\n        /* \"#utility.yul\":12366:12381   */\n      revert\n        /* \"#utility.yul\":12393:12573   */\n    tag_251:\n        /* \"#utility.yul\":12441:12518   */\n      0x4e487b7100000000000000000000000000000000000000000000000000000000\n        /* \"#utility.yul\":12438:12439   */\n      0x00\n        /* \"#utility.yul\":12431:12519   */\n      mstore\n        /* \"#utility.yul\":12538:12542   */\n      0x41\n        /* \"#utility.yul\":12535:12536   */\n      0x04\n        /* \"#utility.yul\":12528:12543   */\n      mstore\n        /* \"#utility.yul\":12562:12566   */\n      0x24\n        /* \"#utility.yul\":12559:12560   */\n      0x00\n        /* \"#utility.yul\":12552:12567   */\n      revert\n        /* \"#utility.yul\":12579:12681   */\n    tag_201:\n      0x00\n        /* \"#utility.yul\":12671:12673   */\n      0x1f\n        /* \"#utility.yul\":12667:12674   */\n      not\n        /* \"#utility.yul\":12662:12664   */\n      0x1f\n        /* \"#utility.yul\":12655:12660   */\n      dup4\n        /* \"#utility.yul\":12651:12665   */\n      add\n        /* \"#utility.yul\":12647:12675   */\n      and\n        /* \"#utility.yul\":12637:12675   */\n      swap1\n      pop\n        /* \"#utility.yul\":12627:12681   */\n      swap2\n      swap1\n      pop\n      jump\t// out\n        /* \"#utility.yul\":12687:12809   */\n    tag_152:\n        /* \"#utility.yul\":12760:12784   */\n      tag_307\n        /* \"#utility.yul\":12778:12783   */\n      dup2\n        /* \"#utility.yul\":12760:12784   */\n      tag_181\n      jump\t// in\n    tag_307:\n        /* \"#utility.yul\":12753:12758   */\n      dup2\n        /* \"#utility.yul\":12750:12785   */\n      eq\n        /* \"#utility.yul\":12740:12742   */\n      tag_308\n      jumpi\n        /* \"#utility.yul\":12799:12800   */\n      0x00\n        /* \"#utility.yul\":12796:12797   */\n      dup1\n        /* \"#utility.yul\":12789:12801   */\n      revert\n        /* \"#utility.yul\":12740:12742   */\n    tag_308:\n        /* \"#utility.yul\":12730:12809   */\n      pop\n      jump\t// out\n        /* \"#utility.yul\":12815:12931   */\n    tag_156:\n        /* \"#utility.yul\":12885:12906   */\n      tag_310\n        /* \"#utility.yul\":12900:12905   */\n      dup2\n        /* \"#utility.yul\":12885:12906   */\n      tag_188\n      jump\t// in\n    tag_310:\n        /* \"#utility.yul\":12878:12883   */\n      dup2\n        /* \"#utility.yul\":12875:12907   */\n      eq\n        /* \"#utility.yul\":12865:12867   */\n      tag_311\n      jumpi\n        /* \"#utility.yul\":12921:12922   */\n      0x00\n        /* \"#utility.yul\":12918:12919   */\n      dup1\n        /* \"#utility.yul\":12911:12923   */\n      revert\n        /* \"#utility.yul\":12865:12867   */\n    tag_311:\n        /* \"#utility.yul\":12855:12931   */\n      pop\n      jump\t// out\n        /* \"#utility.yul\":12937:13059   */\n    tag_164:\n        /* \"#utility.yul\":13010:13034   */\n      tag_313\n        /* \"#utility.yul\":13028:13033   */\n      dup2\n        /* \"#utility.yul\":13010:13034   */\n      tag_222\n      jump\t// in\n    tag_313:\n        /* \"#utility.yul\":13003:13008   */\n      dup2\n        /* \"#utility.yul\":13000:13035   */\n      eq\n        /* \"#utility.yul\":12990:12992   */\n      tag_314\n      jumpi\n        /* \"#utility.yul\":13049:13050   */\n      0x00\n        /* \"#utility.yul\":13046:13047   */\n      dup1\n        /* \"#utility.yul\":13039:13051   */\n      revert\n        /* \"#utility.yul\":12990:12992   */\n    tag_314:\n        /* \"#utility.yul\":12980:13059   */\n      pop\n      jump\t// out\n\n    auxdata: 0xa26469706673582212203926aff4349263d007c95f706043836109d3e0c3a574a5b25672d1567d91de6364736f6c63430008000033\n}\n","bytecode":{"linkReferences":{},"object":"60806040523480156200001157600080fd5b50604051620017cf380380620017cf8339818101604052810190620000379190620000d4565b806000806101000a81548173ffffffffffffffffffffffffffffffffffffffff021916908373ffffffffffffffffffffffffffffffffffffffff1602179055508360018190555082600581905550600060048190555060006006819055508160078190555050505050620001b2565b600081519050620000b7816200017e565b92915050565b600081519050620000ce8162000198565b92915050565b60008060008060808587031215620000eb57600080fd5b6000620000fb87828801620000bd565b94505060206200010e87828801620000bd565b93505060406200012187828801620000bd565b92505060606200013487828801620000a6565b91505092959194509250565b60006200014d8262000154565b9050919050565b600073ffffffffffffffffffffffffffffffffffffffff82169050919050565b6000819050919050565b620001898162000140565b81146200019557600080fd5b50565b620001a38162000174565b8114620001af57600080fd5b50565b61160d80620001c26000396000f3fe6080604052600436106100915760003560e01c80638a9cfd55116100595780638a9cfd5514610189578063b664a9f1146101b2578063bd0681a4146101db578063c58343ef14610204578063d7bb99ba1461024157610091565b80632d8f1adc146100965780633fad1834146100c6578063481c6a75146100f1578063767e0b9c1461011c57806381d12c5814610145575b600080fd5b3480156100a257600080fd5b506100ab61024b565b6040516100bd969594939291906111bc565b60405180910390f35b3480156100d257600080fd5b506100db610296565b6040516100e8919061111c565b60405180910390f35b3480156100fd57600080fd5b506101066102a0565b60405161011391906110df565b60405180910390f35b34801561012857600080fd5b50610143600480360381019061013e9190610f27565b6102c4565b005b34801561015157600080fd5b5061016c60048036038101906101679190610efe565b6104b8565b604051610180989796959493929190611137565b60405180910390f35b34801561019557600080fd5b506101b060048036038101906101ab9190610e97565b6105d2565b005b3480156101be57600080fd5b506101d960048036038101906101d49190610efe565b6107e5565b005b3480156101e757600080fd5b5061020260048036038101906101fd9190610efe565b610931565b005b34801561021057600080fd5b5061022b60048036038101906102269190610efe565b610a75565b60405161023891906110fa565b60405180910390f35b610249610c1e565b005b6000806000806000806004546005546001544760065460008054906101000a900473ffffffffffffffffffffffffffffffffffffffff16955095509550955095509550909192939495565b6000600454905090565b60008054906101000a900473ffffffffffffffffffffffffffffffffffffffff1681565b600060086001846102d5919061138c565b8154811061030c577f4e487b7100000000000000000000000000000000000000000000000000000000600052603260045260246000fd5b906000526020600020906007020190506000600260003373ffffffffffffffffffffffffffffffffffffffff1673ffffffffffffffffffffffffffffffffffffffff16815260200190815260200160002060000154141561036c57600080fd5b8060050160009054906101000a900460ff161561038857600080fd5b60006003600085815260200190815260200160002060003373ffffffffffffffffffffffffffffffffffffffff1673ffffffffffffffffffffffffffffffffffffffff16815260200190815260200160002054146103e557600080fd5b8161045d5760018160040160008282546103ff91906112ab565b9250508190555060026003600085815260200190815260200160002060003373ffffffffffffffffffffffffffffffffffffffff1673ffffffffffffffffffffffffffffffffffffffff168152602001908152602001600020819055505b60016003600085815260200190815260200160002060003373ffffffffffffffffffffffffffffffffffffffff1673ffffffffffffffffffffffffffffffffffffffff16815260200190815260200160002081905550505050565b600881815481106104c857600080fd5b90600052602060002090600702016000915090508060000154908060010160009054906101000a900473ffffffffffffffffffffffffffffffffffffffff16908060020180546105179061144a565b80601f01602080910402602001604051908101604052809291908181526020018280546105439061144a565b80156105905780601f1061056557610100808354040283529160200191610590565b820191906000526020600020905b81548152906001019060200180831161057357829003601f168201915b5050505050908060030154908060040154908060050160009054906101000a900460ff16908060050160019054906101000a900460ff16908060060154905088565b60008054906101000a900473ffffffffffffffffffffffffffffffffffffffff1673ffffffffffffffffffffffffffffffffffffffff163373ffffffffffffffffffffffffffffffffffffffff161461062a57600080fd5b6004600081548092919061063d9061147c565b919050555061064a610cee565b8381604001819052508281600001818152505081816020019073ffffffffffffffffffffffffffffffffffffffff16908173ffffffffffffffffffffffffffffffffffffffff168152505060045481606001818152505060008160a0019015159081151581525050600081608001818152505060008160c0019015159081151581525050600754426106dc91906112ab565b8160e001818152505060088190806001815401808255809150506001900390600052602060002090600702016000909190919091506000820151816000015560208201518160010160006101000a81548173ffffffffffffffffffffffffffffffffffffffff021916908373ffffffffffffffffffffffffffffffffffffffff160217905550604082015181600201908051906020019061077e929190610d4d565b50606082015181600301556080820151816004015560a08201518160050160006101000a81548160ff02191690831515021790555060c08201518160050160016101000a81548160ff02191690831515021790555060e08201518160060155505050505050565b60008054906101000a900473ffffffffffffffffffffffffffffffffffffffff1673ffffffffffffffffffffffffffffffffffffffff163373ffffffffffffffffffffffffffffffffffffffff161461083d57600080fd5b6000600860018361084e919061138c565b81548110610885577f4e487b7100000000000000000000000000000000000000000000000000000000600052603260045260246000fd5b906000526020600020906007020190508060050160009054906101000a900460ff16156108b157600080fd5b600060065490506000826004015490506000826064836108d19190611332565b6108db9190611301565b9050600554811161090d5760018460050160016101000a81548160ff02191690831515021790555061090c85610931565b5b60018460050160006101000a81548160ff0219169083151502179055505050505050565b60008054906101000a900473ffffffffffffffffffffffffffffffffffffffff1673ffffffffffffffffffffffffffffffffffffffff163373ffffffffffffffffffffffffffffffffffffffff161461098957600080fd5b6000600860018361099a919061138c565b815481106109d1577f4e487b7100000000000000000000000000000000000000000000000000000000600052603260045260246000fd5b906000526020600020906007020190508060050160019054906101000a900460ff166109fc57600080fd5b60008160010160009054906101000a900473ffffffffffffffffffffffffffffffffffffffff1690508073ffffffffffffffffffffffffffffffffffffffff166108fc83600001549081150290604051600060405180830381858888f19350505050158015610a6f573d6000803e3d6000fd5b50505050565b610a7d610cee565b60088281548110610ab7577f4e487b7100000000000000000000000000000000000000000000000000000000600052603260045260246000fd5b906000526020600020906007020160405180610100016040529081600082015481526020016001820160009054906101000a900473ffffffffffffffffffffffffffffffffffffffff1673ffffffffffffffffffffffffffffffffffffffff1673ffffffffffffffffffffffffffffffffffffffff168152602001600282018054610b419061144a565b80601f0160208091040260200160405190810160405280929190818152602001828054610b6d9061144a565b8015610bba5780601f10610b8f57610100808354040283529160200191610bba565b820191906000526020600020905b815481529060010190602001808311610b9d57829003601f168201915b5050505050815260200160038201548152602001600482015481526020016005820160009054906101000a900460ff161515151581526020016005820160019054906101000a900460ff161515151581526020016006820154815250509050919050565b600154341015610c2d57600080fd5b6000600260003373ffffffffffffffffffffffffffffffffffffffff1673ffffffffffffffffffffffffffffffffffffffff168152602001908152602001600020600001541415610c9357600160066000828254610c8b91906112ab565b925050819055505b34600260003373ffffffffffffffffffffffffffffffffffffffff1673ffffffffffffffffffffffffffffffffffffffff1681526020019081526020016000206000016000828254610ce591906112ab565b92505081905550565b60405180610100016040528060008152602001600073ffffffffffffffffffffffffffffffffffffffff168152602001606081526020016000815260200160008152602001600015158152602001600015158152602001600081525090565b828054610d599061144a565b90600052602060002090601f016020900481019282610d7b5760008555610dc2565b82601f10610d9457805160ff1916838001178555610dc2565b82800160010185558215610dc2579182015b82811115610dc1578251825591602001919060010190610da6565b5b509050610dcf9190610dd3565b5090565b5b80821115610dec576000816000905550600101610dd4565b5090565b6000610e03610dfe8461124e565b61121d565b905082815260208101848484011115610e1b57600080fd5b610e26848285611408565b509392505050565b600081359050610e3d81611592565b92915050565b600081359050610e52816115a9565b92915050565b600082601f830112610e6957600080fd5b8135610e79848260208601610df0565b91505092915050565b600081359050610e91816115c0565b92915050565b600080600060608486031215610eac57600080fd5b600084013567ffffffffffffffff811115610ec657600080fd5b610ed286828701610e58565b9350506020610ee386828701610e82565b9250506040610ef486828701610e2e565b9150509250925092565b600060208284031215610f1057600080fd5b6000610f1e84828501610e82565b91505092915050565b60008060408385031215610f3a57600080fd5b6000610f4885828601610e82565b9250506020610f5985828601610e43565b9150509250929050565b610f6c816113c0565b82525050565b610f7b816113c0565b82525050565b610f8a816113d2565b82525050565b610f99816113d2565b82525050565b6000610faa8261127e565b610fb48185611289565b9350610fc4818560208601611417565b610fcd81611581565b840191505092915050565b6000610fe38261127e565b610fed818561129a565b9350610ffd818560208601611417565b61100681611581565b840191505092915050565b60006101008301600083015161102a60008601826110c1565b50602083015161103d6020860182610f63565b50604083015184820360408601526110558282610f9f565b915050606083015161106a60608601826110c1565b50608083015161107d60808601826110c1565b5060a083015161109060a0860182610f81565b5060c08301516110a360c0860182610f81565b5060e08301516110b660e08601826110c1565b508091505092915050565b6110ca816113fe565b82525050565b6110d9816113fe565b82525050565b60006020820190506110f46000830184610f72565b92915050565b600060208201905081810360008301526111148184611011565b905092915050565b600060208201905061113160008301846110d0565b92915050565b60006101008201905061114d600083018b6110d0565b61115a602083018a610f72565b818103604083015261116c8189610fd8565b905061117b60608301886110d0565b61118860808301876110d0565b61119560a0830186610f90565b6111a260c0830185610f90565b6111af60e08301846110d0565b9998505050505050505050565b600060c0820190506111d160008301896110d0565b6111de60208301886110d0565b6111eb60408301876110d0565b6111f860608301866110d0565b61120560808301856110d0565b61121260a0830184610f72565b979650505050505050565b6000604051905081810181811067ffffffffffffffff8211171561124457611243611552565b5b8060405250919050565b600067ffffffffffffffff82111561126957611268611552565b5b601f19601f8301169050602081019050919050565b600081519050919050565b600082825260208201905092915050565b600082825260208201905092915050565b60006112b6826113fe565b91506112c1836113fe565b9250827fffffffffffffffffffffffffffffffffffffffffffffffffffffffffffffffff038211156112f6576112f56114c5565b5b828201905092915050565b600061130c826113fe565b9150611317836113fe565b925082611327576113266114f4565b5b828204905092915050565b600061133d826113fe565b9150611348836113fe565b9250817fffffffffffffffffffffffffffffffffffffffffffffffffffffffffffffffff0483118215151615611381576113806114c5565b5b828202905092915050565b6000611397826113fe565b91506113a2836113fe565b9250828210156113b5576113b46114c5565b5b828203905092915050565b60006113cb826113de565b9050919050565b60008115159050919050565b600073ffffffffffffffffffffffffffffffffffffffff82169050919050565b6000819050919050565b82818337600083830152505050565b60005b8381101561143557808201518184015260208101905061141a565b83811115611444576000848401525b50505050565b6000600282049050600182168061146257607f821691505b6020821081141561147657611475611523565b5b50919050565b6000611487826113fe565b91507fffffffffffffffffffffffffffffffffffffffffffffffffffffffffffffffff8214156114ba576114b96114c5565b5b600182019050919050565b7f4e487b7100000000000000000000000000000000000000000000000000000000600052601160045260246000fd5b7f4e487b7100000000000000000000000000000000000000000000000000000000600052601260045260246000fd5b7f4e487b7100000000000000000000000000000000000000000000000000000000600052602260045260246000fd5b7f4e487b7100000000000000000000000000000000000000000000000000000000600052604160045260246000fd5b6000601f19601f8301169050919050565b61159b816113c0565b81146115a657600080fd5b50565b6115b2816113d2565b81146115bd57600080fd5b50565b6115c9816113fe565b81146115d457600080fd5b5056fea26469706673582212203926aff4349263d007c95f706043836109d3e0c3a574a5b25672d1567d91de6364736f6c63430008000033","opcodes":"PUSH1 0x80 PUSH1 0x40 MSTORE CALLVALUE DUP1 ISZERO PUSH3 0x11 JUMPI PUSH1 0x0 DUP1 REVERT JUMPDEST POP PUSH1 0x40 MLOAD PUSH3 0x17CF CODESIZE SUB DUP1 PUSH3 0x17CF DUP4 CODECOPY DUP2 DUP2 ADD PUSH1 0x40 MSTORE DUP2 ADD SWAP1 PUSH3 0x37 SWAP2 SWAP1 PUSH3 0xD4 JUMP JUMPDEST DUP1 PUSH1 0x0 DUP1 PUSH2 0x100 EXP DUP2 SLOAD DUP2 PUSH20 0xFFFFFFFFFFFFFFFFFFFFFFFFFFFFFFFFFFFFFFFF MUL NOT AND SWAP1 DUP4 PUSH20 0xFFFFFFFFFFFFFFFFFFFFFFFFFFFFFFFFFFFFFFFF AND MUL OR SWAP1 SSTORE POP DUP4 PUSH1 0x1 DUP2 SWAP1 SSTORE POP DUP3 PUSH1 0x5 DUP2 SWAP1 SSTORE POP PUSH1 0x0 PUSH1 0x4 DUP2 SWAP1 SSTORE POP PUSH1 0x0 PUSH1 0x6 DUP2 SWAP1 SSTORE POP DUP2 PUSH1 0x7 DUP2 SWAP1 SSTORE POP POP POP POP POP PUSH3 0x1B2 JUMP JUMPDEST PUSH1 0x0 DUP2 MLOAD SWAP1 POP PUSH3 0xB7 DUP2 PUSH3 0x17E JUMP JUMPDEST SWAP3 SWAP2 POP POP JUMP JUMPDEST PUSH1 0x0 DUP2 MLOAD SWAP1 POP PUSH3 0xCE DUP2 PUSH3 0x198 JUMP JUMPDEST SWAP3 SWAP2 POP POP JUMP JUMPDEST PUSH1 0x0 DUP1 PUSH1 0x0 DUP1 PUSH1 0x80 DUP6 DUP8 SUB SLT ISZERO PUSH3 0xEB JUMPI PUSH1 0x0 DUP1 REVERT JUMPDEST PUSH1 0x0 PUSH3 0xFB DUP8 DUP3 DUP9 ADD PUSH3 0xBD JUMP JUMPDEST SWAP5 POP POP PUSH1 0x20 PUSH3 0x10E DUP8 DUP3 DUP9 ADD PUSH3 0xBD JUMP JUMPDEST SWAP4 POP POP PUSH1 0x40 PUSH3 0x121 DUP8 DUP3 DUP9 ADD PUSH3 0xBD JUMP JUMPDEST SWAP3 POP POP PUSH1 0x60 PUSH3 0x134 DUP8 DUP3 DUP9 ADD PUSH3 0xA6 JUMP JUMPDEST SWAP2 POP POP SWAP3 SWAP6 SWAP2 SWAP5 POP SWAP3 POP JUMP JUMPDEST PUSH1 0x0 PUSH3 0x14D DUP3 PUSH3 0x154 JUMP JUMPDEST SWAP1 POP SWAP2 SWAP1 POP JUMP JUMPDEST PUSH1 0x0 PUSH20 0xFFFFFFFFFFFFFFFFFFFFFFFFFFFFFFFFFFFFFFFF DUP3 AND SWAP1 POP SWAP2 SWAP1 POP JUMP JUMPDEST PUSH1 0x0 DUP2 SWAP1 POP SWAP2 SWAP1 POP JUMP JUMPDEST PUSH3 0x189 DUP2 PUSH3 0x140 JUMP JUMPDEST DUP2 EQ PUSH3 0x195 JUMPI PUSH1 0x0 DUP1 REVERT JUMPDEST POP JUMP JUMPDEST PUSH3 0x1A3 DUP2 PUSH3 0x174 JUMP JUMPDEST DUP2 EQ PUSH3 0x1AF JUMPI PUSH1 0x0 DUP1 REVERT JUMPDEST POP JUMP JUMPDEST PUSH2 0x160D DUP1 PUSH3 0x1C2 PUSH1 0x0 CODECOPY PUSH1 0x0 RETURN INVALID PUSH1 0x80 PUSH1 0x40 MSTORE PUSH1 0x4 CALLDATASIZE LT PUSH2 0x91 JUMPI PUSH1 0x0 CALLDATALOAD PUSH1 0xE0 SHR DUP1 PUSH4 0x8A9CFD55 GT PUSH2 0x59 JUMPI DUP1 PUSH4 0x8A9CFD55 EQ PUSH2 0x189 JUMPI DUP1 PUSH4 0xB664A9F1 EQ PUSH2 0x1B2 JUMPI DUP1 PUSH4 0xBD0681A4 EQ PUSH2 0x1DB JUMPI DUP1 PUSH4 0xC58343EF EQ PUSH2 0x204 JUMPI DUP1 PUSH4 0xD7BB99BA EQ PUSH2 0x241 JUMPI PUSH2 0x91 JUMP JUMPDEST DUP1 PUSH4 0x2D8F1ADC EQ PUSH2 0x96 JUMPI DUP1 PUSH4 0x3FAD1834 EQ PUSH2 0xC6 JUMPI DUP1 PUSH4 0x481C6A75 EQ PUSH2 0xF1 JUMPI DUP1 PUSH4 0x767E0B9C EQ PUSH2 0x11C JUMPI DUP1 PUSH4 0x81D12C58 EQ PUSH2 0x145 JUMPI JUMPDEST PUSH1 0x0 DUP1 REVERT JUMPDEST CALLVALUE DUP1 ISZERO PUSH2 0xA2 JUMPI PUSH1 0x0 DUP1 REVERT JUMPDEST POP PUSH2 0xAB PUSH2 0x24B JUMP JUMPDEST PUSH1 0x40 MLOAD PUSH2 0xBD SWAP7 SWAP6 SWAP5 SWAP4 SWAP3 SWAP2 SWAP1 PUSH2 0x11BC JUMP JUMPDEST PUSH1 0x40 MLOAD DUP1 SWAP2 SUB SWAP1 RETURN JUMPDEST CALLVALUE DUP1 ISZERO PUSH2 0xD2 JUMPI PUSH1 0x0 DUP1 REVERT JUMPDEST POP PUSH2 0xDB PUSH2 0x296 JUMP JUMPDEST PUSH1 0x40 MLOAD PUSH2 0xE8 SWAP2 SWAP1 PUSH2 0x111C JUMP JUMPDEST PUSH1 0x40 MLOAD DUP1 SWAP2 SUB SWAP1 RETURN JUMPDEST CALLVALUE DUP1 ISZERO PUSH2 0xFD JUMPI PUSH1 0x0 DUP1 REVERT JUMPDEST POP PUSH2 0x106 PUSH2 0x2A0 JUMP JUMPDEST PUSH1 0x40 MLOAD PUSH2 0x113 SWAP2 SWAP1 PUSH2 0x10DF JUMP JUMPDEST PUSH1 0x40 MLOAD DUP1 SWAP2 SUB SWAP1 RETURN JUMPDEST CALLVALUE DUP1 ISZERO PUSH2 0x128 JUMPI PUSH1 0x0 DUP1 REVERT JUMPDEST POP PUSH2 0x143 PUSH1 0x4 DUP1 CALLDATASIZE SUB DUP2 ADD SWAP1 PUSH2 0x13E SWAP2 SWAP1 PUSH2 0xF27 JUMP JUMPDEST PUSH2 0x2C4 JUMP JUMPDEST STOP JUMPDEST CALLVALUE DUP1 ISZERO PUSH2 0x151 JUMPI PUSH1 0x0 DUP1 REVERT JUMPDEST POP PUSH2 0x16C PUSH1 0x4 DUP1 CALLDATASIZE SUB DUP2 ADD SWAP1 PUSH2 0x167 SWAP2 SWAP1 PUSH2 0xEFE JUMP JUMPDEST PUSH2 0x4B8 JUMP JUMPDEST PUSH1 0x40 MLOAD PUSH2 0x180 SWAP9 SWAP8 SWAP7 SWAP6 SWAP5 SWAP4 SWAP3 SWAP2 SWAP1 PUSH2 0x1137 JUMP JUMPDEST PUSH1 0x40 MLOAD DUP1 SWAP2 SUB SWAP1 RETURN JUMPDEST CALLVALUE DUP1 ISZERO PUSH2 0x195 JUMPI PUSH1 0x0 DUP1 REVERT JUMPDEST POP PUSH2 0x1B0 PUSH1 0x4 DUP1 CALLDATASIZE SUB DUP2 ADD SWAP1 PUSH2 0x1AB SWAP2 SWAP1 PUSH2 0xE97 JUMP JUMPDEST PUSH2 0x5D2 JUMP JUMPDEST STOP JUMPDEST CALLVALUE DUP1 ISZERO PUSH2 0x1BE JUMPI PUSH1 0x0 DUP1 REVERT JUMPDEST POP PUSH2 0x1D9 PUSH1 0x4 DUP1 CALLDATASIZE SUB DUP2 ADD SWAP1 PUSH2 0x1D4 SWAP2 SWAP1 PUSH2 0xEFE JUMP JUMPDEST PUSH2 0x7E5 JUMP JUMPDEST STOP JUMPDEST CALLVALUE DUP1 ISZERO PUSH2 0x1E7 JUMPI PUSH1 0x0 DUP1 REVERT JUMPDEST POP PUSH2 0x202 PUSH1 0x4 DUP1 CALLDATASIZE SUB DUP2 ADD SWAP1 PUSH2 0x1FD SWAP2 SWAP1 PUSH2 0xEFE JUMP JUMPDEST PUSH2 0x931 JUMP JUMPDEST STOP JUMPDEST CALLVALUE DUP1 ISZERO PUSH2 0x210 JUMPI PUSH1 0x0 DUP1 REVERT JUMPDEST POP PUSH2 0x22B PUSH1 0x4 DUP1 CALLDATASIZE SUB DUP2 ADD SWAP1 PUSH2 0x226 SWAP2 SWAP1 PUSH2 0xEFE JUMP JUMPDEST PUSH2 0xA75 JUMP JUMPDEST PUSH1 0x40 MLOAD PUSH2 0x238 SWAP2 SWAP1 PUSH2 0x10FA JUMP JUMPDEST PUSH1 0x40 MLOAD DUP1 SWAP2 SUB SWAP1 RETURN JUMPDEST PUSH2 0x249 PUSH2 0xC1E JUMP JUMPDEST STOP JUMPDEST PUSH1 0x0 DUP1 PUSH1 0x0 DUP1 PUSH1 0x0 DUP1 PUSH1 0x4 SLOAD PUSH1 0x5 SLOAD PUSH1 0x1 SLOAD SELFBALANCE PUSH1 0x6 SLOAD PUSH1 0x0 DUP1 SLOAD SWAP1 PUSH2 0x100 EXP SWAP1 DIV PUSH20 0xFFFFFFFFFFFFFFFFFFFFFFFFFFFFFFFFFFFFFFFF AND SWAP6 POP SWAP6 POP SWAP6 POP SWAP6 POP SWAP6 POP SWAP6 POP SWAP1 SWAP2 SWAP3 SWAP4 SWAP5 SWAP6 JUMP JUMPDEST PUSH1 0x0 PUSH1 0x4 SLOAD SWAP1 POP SWAP1 JUMP JUMPDEST PUSH1 0x0 DUP1 SLOAD SWAP1 PUSH2 0x100 EXP SWAP1 DIV PUSH20 0xFFFFFFFFFFFFFFFFFFFFFFFFFFFFFFFFFFFFFFFF AND DUP2 JUMP JUMPDEST PUSH1 0x0 PUSH1 0x8 PUSH1 0x1 DUP5 PUSH2 0x2D5 SWAP2 SWAP1 PUSH2 0x138C JUMP JUMPDEST DUP2 SLOAD DUP2 LT PUSH2 0x30C JUMPI PUSH32 0x4E487B7100000000000000000000000000000000000000000000000000000000 PUSH1 0x0 MSTORE PUSH1 0x32 PUSH1 0x4 MSTORE PUSH1 0x24 PUSH1 0x0 REVERT JUMPDEST SWAP1 PUSH1 0x0 MSTORE PUSH1 0x20 PUSH1 0x0 KECCAK256 SWAP1 PUSH1 0x7 MUL ADD SWAP1 POP PUSH1 0x0 PUSH1 0x2 PUSH1 0x0 CALLER PUSH20 0xFFFFFFFFFFFFFFFFFFFFFFFFFFFFFFFFFFFFFFFF AND PUSH20 0xFFFFFFFFFFFFFFFFFFFFFFFFFFFFFFFFFFFFFFFF AND DUP2 MSTORE PUSH1 0x20 ADD SWAP1 DUP2 MSTORE PUSH1 0x20 ADD PUSH1 0x0 KECCAK256 PUSH1 0x0 ADD SLOAD EQ ISZERO PUSH2 0x36C JUMPI PUSH1 0x0 DUP1 REVERT JUMPDEST DUP1 PUSH1 0x5 ADD PUSH1 0x0 SWAP1 SLOAD SWAP1 PUSH2 0x100 EXP SWAP1 DIV PUSH1 0xFF AND ISZERO PUSH2 0x388 JUMPI PUSH1 0x0 DUP1 REVERT JUMPDEST PUSH1 0x0 PUSH1 0x3 PUSH1 0x0 DUP6 DUP2 MSTORE PUSH1 0x20 ADD SWAP1 DUP2 MSTORE PUSH1 0x20 ADD PUSH1 0x0 KECCAK256 PUSH1 0x0 CALLER PUSH20 0xFFFFFFFFFFFFFFFFFFFFFFFFFFFFFFFFFFFFFFFF AND PUSH20 0xFFFFFFFFFFFFFFFFFFFFFFFFFFFFFFFFFFFFFFFF AND DUP2 MSTORE PUSH1 0x20 ADD SWAP1 DUP2 MSTORE PUSH1 0x20 ADD PUSH1 0x0 KECCAK256 SLOAD EQ PUSH2 0x3E5 JUMPI PUSH1 0x0 DUP1 REVERT JUMPDEST DUP2 PUSH2 0x45D JUMPI PUSH1 0x1 DUP2 PUSH1 0x4 ADD PUSH1 0x0 DUP3 DUP3 SLOAD PUSH2 0x3FF SWAP2 SWAP1 PUSH2 0x12AB JUMP JUMPDEST SWAP3 POP POP DUP2 SWAP1 SSTORE POP PUSH1 0x2 PUSH1 0x3 PUSH1 0x0 DUP6 DUP2 MSTORE PUSH1 0x20 ADD SWAP1 DUP2 MSTORE PUSH1 0x20 ADD PUSH1 0x0 KECCAK256 PUSH1 0x0 CALLER PUSH20 0xFFFFFFFFFFFFFFFFFFFFFFFFFFFFFFFFFFFFFFFF AND PUSH20 0xFFFFFFFFFFFFFFFFFFFFFFFFFFFFFFFFFFFFFFFF AND DUP2 MSTORE PUSH1 0x20 ADD SWAP1 DUP2 MSTORE PUSH1 0x20 ADD PUSH1 0x0 KECCAK256 DUP2 SWAP1 SSTORE POP JUMPDEST PUSH1 0x1 PUSH1 0x3 PUSH1 0x0 DUP6 DUP2 MSTORE PUSH1 0x20 ADD SWAP1 DUP2 MSTORE PUSH1 0x20 ADD PUSH1 0x0 KECCAK256 PUSH1 0x0 CALLER PUSH20 0xFFFFFFFFFFFFFFFFFFFFFFFFFFFFFFFFFFFFFFFF AND PUSH20 0xFFFFFFFFFFFFFFFFFFFFFFFFFFFFFFFFFFFFFFFF AND DUP2 MSTORE PUSH1 0x20 ADD SWAP1 DUP2 MSTORE PUSH1 0x20 ADD PUSH1 0x0 KECCAK256 DUP2 SWAP1 SSTORE POP POP POP POP JUMP JUMPDEST PUSH1 0x8 DUP2 DUP2 SLOAD DUP2 LT PUSH2 0x4C8 JUMPI PUSH1 0x0 DUP1 REVERT JUMPDEST SWAP1 PUSH1 0x0 MSTORE PUSH1 0x20 PUSH1 0x0 KECCAK256 SWAP1 PUSH1 0x7 MUL ADD PUSH1 0x0 SWAP2 POP SWAP1 POP DUP1 PUSH1 0x0 ADD SLOAD SWAP1 DUP1 PUSH1 0x1 ADD PUSH1 0x0 SWAP1 SLOAD SWAP1 PUSH2 0x100 EXP SWAP1 DIV PUSH20 0xFFFFFFFFFFFFFFFFFFFFFFFFFFFFFFFFFFFFFFFF AND SWAP1 DUP1 PUSH1 0x2 ADD DUP1 SLOAD PUSH2 0x517 SWAP1 PUSH2 0x144A JUMP JUMPDEST DUP1 PUSH1 0x1F ADD PUSH1 0x20 DUP1 SWAP2 DIV MUL PUSH1 0x20 ADD PUSH1 0x40 MLOAD SWAP1 DUP2 ADD PUSH1 0x40 MSTORE DUP1 SWAP3 SWAP2 SWAP1 DUP2 DUP2 MSTORE PUSH1 0x20 ADD DUP3 DUP1 SLOAD PUSH2 0x543 SWAP1 PUSH2 0x144A JUMP JUMPDEST DUP1 ISZERO PUSH2 0x590 JUMPI DUP1 PUSH1 0x1F LT PUSH2 0x565 JUMPI PUSH2 0x100 DUP1 DUP4 SLOAD DIV MUL DUP4 MSTORE SWAP2 PUSH1 0x20 ADD SWAP2 PUSH2 0x590 JUMP JUMPDEST DUP3 ADD SWAP2 SWAP1 PUSH1 0x0 MSTORE PUSH1 0x20 PUSH1 0x0 KECCAK256 SWAP1 JUMPDEST DUP2 SLOAD DUP2 MSTORE SWAP1 PUSH1 0x1 ADD SWAP1 PUSH1 0x20 ADD DUP1 DUP4 GT PUSH2 0x573 JUMPI DUP3 SWAP1 SUB PUSH1 0x1F AND DUP3 ADD SWAP2 JUMPDEST POP POP POP POP POP SWAP1 DUP1 PUSH1 0x3 ADD SLOAD SWAP1 DUP1 PUSH1 0x4 ADD SLOAD SWAP1 DUP1 PUSH1 0x5 ADD PUSH1 0x0 SWAP1 SLOAD SWAP1 PUSH2 0x100 EXP SWAP1 DIV PUSH1 0xFF AND SWAP1 DUP1 PUSH1 0x5 ADD PUSH1 0x1 SWAP1 SLOAD SWAP1 PUSH2 0x100 EXP SWAP1 DIV PUSH1 0xFF AND SWAP1 DUP1 PUSH1 0x6 ADD SLOAD SWAP1 POP DUP9 JUMP JUMPDEST PUSH1 0x0 DUP1 SLOAD SWAP1 PUSH2 0x100 EXP SWAP1 DIV PUSH20 0xFFFFFFFFFFFFFFFFFFFFFFFFFFFFFFFFFFFFFFFF AND PUSH20 0xFFFFFFFFFFFFFFFFFFFFFFFFFFFFFFFFFFFFFFFF AND CALLER PUSH20 0xFFFFFFFFFFFFFFFFFFFFFFFFFFFFFFFFFFFFFFFF AND EQ PUSH2 0x62A JUMPI PUSH1 0x0 DUP1 REVERT JUMPDEST PUSH1 0x4 PUSH1 0x0 DUP2 SLOAD DUP1 SWAP3 SWAP2 SWAP1 PUSH2 0x63D SWAP1 PUSH2 0x147C JUMP JUMPDEST SWAP2 SWAP1 POP SSTORE POP PUSH2 0x64A PUSH2 0xCEE JUMP JUMPDEST DUP4 DUP2 PUSH1 0x40 ADD DUP2 SWAP1 MSTORE POP DUP3 DUP2 PUSH1 0x0 ADD DUP2 DUP2 MSTORE POP POP DUP2 DUP2 PUSH1 0x20 ADD SWAP1 PUSH20 0xFFFFFFFFFFFFFFFFFFFFFFFFFFFFFFFFFFFFFFFF AND SWAP1 DUP2 PUSH20 0xFFFFFFFFFFFFFFFFFFFFFFFFFFFFFFFFFFFFFFFF AND DUP2 MSTORE POP POP PUSH1 0x4 SLOAD DUP2 PUSH1 0x60 ADD DUP2 DUP2 MSTORE POP POP PUSH1 0x0 DUP2 PUSH1 0xA0 ADD SWAP1 ISZERO ISZERO SWAP1 DUP2 ISZERO ISZERO DUP2 MSTORE POP POP PUSH1 0x0 DUP2 PUSH1 0x80 ADD DUP2 DUP2 MSTORE POP POP PUSH1 0x0 DUP2 PUSH1 0xC0 ADD SWAP1 ISZERO ISZERO SWAP1 DUP2 ISZERO ISZERO DUP2 MSTORE POP POP PUSH1 0x7 SLOAD TIMESTAMP PUSH2 0x6DC SWAP2 SWAP1 PUSH2 0x12AB JUMP JUMPDEST DUP2 PUSH1 0xE0 ADD DUP2 DUP2 MSTORE POP POP PUSH1 0x8 DUP2 SWAP1 DUP1 PUSH1 0x1 DUP2 SLOAD ADD DUP1 DUP3 SSTORE DUP1 SWAP2 POP POP PUSH1 0x1 SWAP1 SUB SWAP1 PUSH1 0x0 MSTORE PUSH1 0x20 PUSH1 0x0 KECCAK256 SWAP1 PUSH1 0x7 MUL ADD PUSH1 0x0 SWAP1 SWAP2 SWAP1 SWAP2 SWAP1 SWAP2 POP PUSH1 0x0 DUP3 ADD MLOAD DUP2 PUSH1 0x0 ADD SSTORE PUSH1 0x20 DUP3 ADD MLOAD DUP2 PUSH1 0x1 ADD PUSH1 0x0 PUSH2 0x100 EXP DUP2 SLOAD DUP2 PUSH20 0xFFFFFFFFFFFFFFFFFFFFFFFFFFFFFFFFFFFFFFFF MUL NOT AND SWAP1 DUP4 PUSH20 0xFFFFFFFFFFFFFFFFFFFFFFFFFFFFFFFFFFFFFFFF AND MUL OR SWAP1 SSTORE POP PUSH1 0x40 DUP3 ADD MLOAD DUP2 PUSH1 0x2 ADD SWAP1 DUP1 MLOAD SWAP1 PUSH1 0x20 ADD SWAP1 PUSH2 0x77E SWAP3 SWAP2 SWAP1 PUSH2 0xD4D JUMP JUMPDEST POP PUSH1 0x60 DUP3 ADD MLOAD DUP2 PUSH1 0x3 ADD SSTORE PUSH1 0x80 DUP3 ADD MLOAD DUP2 PUSH1 0x4 ADD SSTORE PUSH1 0xA0 DUP3 ADD MLOAD DUP2 PUSH1 0x5 ADD PUSH1 0x0 PUSH2 0x100 EXP DUP2 SLOAD DUP2 PUSH1 0xFF MUL NOT AND SWAP1 DUP4 ISZERO ISZERO MUL OR SWAP1 SSTORE POP PUSH1 0xC0 DUP3 ADD MLOAD DUP2 PUSH1 0x5 ADD PUSH1 0x1 PUSH2 0x100 EXP DUP2 SLOAD DUP2 PUSH1 0xFF MUL NOT AND SWAP1 DUP4 ISZERO ISZERO MUL OR SWAP1 SSTORE POP PUSH1 0xE0 DUP3 ADD MLOAD DUP2 PUSH1 0x6 ADD SSTORE POP POP POP POP POP POP JUMP JUMPDEST PUSH1 0x0 DUP1 SLOAD SWAP1 PUSH2 0x100 EXP SWAP1 DIV PUSH20 0xFFFFFFFFFFFFFFFFFFFFFFFFFFFFFFFFFFFFFFFF AND PUSH20 0xFFFFFFFFFFFFFFFFFFFFFFFFFFFFFFFFFFFFFFFF AND CALLER PUSH20 0xFFFFFFFFFFFFFFFFFFFFFFFFFFFFFFFFFFFFFFFF AND EQ PUSH2 0x83D JUMPI PUSH1 0x0 DUP1 REVERT JUMPDEST PUSH1 0x0 PUSH1 0x8 PUSH1 0x1 DUP4 PUSH2 0x84E SWAP2 SWAP1 PUSH2 0x138C JUMP JUMPDEST DUP2 SLOAD DUP2 LT PUSH2 0x885 JUMPI PUSH32 0x4E487B7100000000000000000000000000000000000000000000000000000000 PUSH1 0x0 MSTORE PUSH1 0x32 PUSH1 0x4 MSTORE PUSH1 0x24 PUSH1 0x0 REVERT JUMPDEST SWAP1 PUSH1 0x0 MSTORE PUSH1 0x20 PUSH1 0x0 KECCAK256 SWAP1 PUSH1 0x7 MUL ADD SWAP1 POP DUP1 PUSH1 0x5 ADD PUSH1 0x0 SWAP1 SLOAD SWAP1 PUSH2 0x100 EXP SWAP1 DIV PUSH1 0xFF AND ISZERO PUSH2 0x8B1 JUMPI PUSH1 0x0 DUP1 REVERT JUMPDEST PUSH1 0x0 PUSH1 0x6 SLOAD SWAP1 POP PUSH1 0x0 DUP3 PUSH1 0x4 ADD SLOAD SWAP1 POP PUSH1 0x0 DUP3 PUSH1 0x64 DUP4 PUSH2 0x8D1 SWAP2 SWAP1 PUSH2 0x1332 JUMP JUMPDEST PUSH2 0x8DB SWAP2 SWAP1 PUSH2 0x1301 JUMP JUMPDEST SWAP1 POP PUSH1 0x5 SLOAD DUP2 GT PUSH2 0x90D JUMPI PUSH1 0x1 DUP5 PUSH1 0x5 ADD PUSH1 0x1 PUSH2 0x100 EXP DUP2 SLOAD DUP2 PUSH1 0xFF MUL NOT AND SWAP1 DUP4 ISZERO ISZERO MUL OR SWAP1 SSTORE POP PUSH2 0x90C DUP6 PUSH2 0x931 JUMP JUMPDEST JUMPDEST PUSH1 0x1 DUP5 PUSH1 0x5 ADD PUSH1 0x0 PUSH2 0x100 EXP DUP2 SLOAD DUP2 PUSH1 0xFF MUL NOT AND SWAP1 DUP4 ISZERO ISZERO MUL OR SWAP1 SSTORE POP POP POP POP POP POP JUMP JUMPDEST PUSH1 0x0 DUP1 SLOAD SWAP1 PUSH2 0x100 EXP SWAP1 DIV PUSH20 0xFFFFFFFFFFFFFFFFFFFFFFFFFFFFFFFFFFFFFFFF AND PUSH20 0xFFFFFFFFFFFFFFFFFFFFFFFFFFFFFFFFFFFFFFFF AND CALLER PUSH20 0xFFFFFFFFFFFFFFFFFFFFFFFFFFFFFFFFFFFFFFFF AND EQ PUSH2 0x989 JUMPI PUSH1 0x0 DUP1 REVERT JUMPDEST PUSH1 0x0 PUSH1 0x8 PUSH1 0x1 DUP4 PUSH2 0x99A SWAP2 SWAP1 PUSH2 0x138C JUMP JUMPDEST DUP2 SLOAD DUP2 LT PUSH2 0x9D1 JUMPI PUSH32 0x4E487B7100000000000000000000000000000000000000000000000000000000 PUSH1 0x0 MSTORE PUSH1 0x32 PUSH1 0x4 MSTORE PUSH1 0x24 PUSH1 0x0 REVERT JUMPDEST SWAP1 PUSH1 0x0 MSTORE PUSH1 0x20 PUSH1 0x0 KECCAK256 SWAP1 PUSH1 0x7 MUL ADD SWAP1 POP DUP1 PUSH1 0x5 ADD PUSH1 0x1 SWAP1 SLOAD SWAP1 PUSH2 0x100 EXP SWAP1 DIV PUSH1 0xFF AND PUSH2 0x9FC JUMPI PUSH1 0x0 DUP1 REVERT JUMPDEST PUSH1 0x0 DUP2 PUSH1 0x1 ADD PUSH1 0x0 SWAP1 SLOAD SWAP1 PUSH2 0x100 EXP SWAP1 DIV PUSH20 0xFFFFFFFFFFFFFFFFFFFFFFFFFFFFFFFFFFFFFFFF AND SWAP1 POP DUP1 PUSH20 0xFFFFFFFFFFFFFFFFFFFFFFFFFFFFFFFFFFFFFFFF AND PUSH2 0x8FC DUP4 PUSH1 0x0 ADD SLOAD SWAP1 DUP2 ISZERO MUL SWAP1 PUSH1 0x40 MLOAD PUSH1 0x0 PUSH1 0x40 MLOAD DUP1 DUP4 SUB DUP2 DUP6 DUP9 DUP9 CALL SWAP4 POP POP POP POP ISZERO DUP1 ISZERO PUSH2 0xA6F JUMPI RETURNDATASIZE PUSH1 0x0 DUP1 RETURNDATACOPY RETURNDATASIZE PUSH1 0x0 REVERT JUMPDEST POP POP POP POP JUMP JUMPDEST PUSH2 0xA7D PUSH2 0xCEE JUMP JUMPDEST PUSH1 0x8 DUP3 DUP2 SLOAD DUP2 LT PUSH2 0xAB7 JUMPI PUSH32 0x4E487B7100000000000000000000000000000000000000000000000000000000 PUSH1 0x0 MSTORE PUSH1 0x32 PUSH1 0x4 MSTORE PUSH1 0x24 PUSH1 0x0 REVERT JUMPDEST SWAP1 PUSH1 0x0 MSTORE PUSH1 0x20 PUSH1 0x0 KECCAK256 SWAP1 PUSH1 0x7 MUL ADD PUSH1 0x40 MLOAD DUP1 PUSH2 0x100 ADD PUSH1 0x40 MSTORE SWAP1 DUP2 PUSH1 0x0 DUP3 ADD SLOAD DUP2 MSTORE PUSH1 0x20 ADD PUSH1 0x1 DUP3 ADD PUSH1 0x0 SWAP1 SLOAD SWAP1 PUSH2 0x100 EXP SWAP1 DIV PUSH20 0xFFFFFFFFFFFFFFFFFFFFFFFFFFFFFFFFFFFFFFFF AND PUSH20 0xFFFFFFFFFFFFFFFFFFFFFFFFFFFFFFFFFFFFFFFF AND PUSH20 0xFFFFFFFFFFFFFFFFFFFFFFFFFFFFFFFFFFFFFFFF AND DUP2 MSTORE PUSH1 0x20 ADD PUSH1 0x2 DUP3 ADD DUP1 SLOAD PUSH2 0xB41 SWAP1 PUSH2 0x144A JUMP JUMPDEST DUP1 PUSH1 0x1F ADD PUSH1 0x20 DUP1 SWAP2 DIV MUL PUSH1 0x20 ADD PUSH1 0x40 MLOAD SWAP1 DUP2 ADD PUSH1 0x40 MSTORE DUP1 SWAP3 SWAP2 SWAP1 DUP2 DUP2 MSTORE PUSH1 0x20 ADD DUP3 DUP1 SLOAD PUSH2 0xB6D SWAP1 PUSH2 0x144A JUMP JUMPDEST DUP1 ISZERO PUSH2 0xBBA JUMPI DUP1 PUSH1 0x1F LT PUSH2 0xB8F JUMPI PUSH2 0x100 DUP1 DUP4 SLOAD DIV MUL DUP4 MSTORE SWAP2 PUSH1 0x20 ADD SWAP2 PUSH2 0xBBA JUMP JUMPDEST DUP3 ADD SWAP2 SWAP1 PUSH1 0x0 MSTORE PUSH1 0x20 PUSH1 0x0 KECCAK256 SWAP1 JUMPDEST DUP2 SLOAD DUP2 MSTORE SWAP1 PUSH1 0x1 ADD SWAP1 PUSH1 0x20 ADD DUP1 DUP4 GT PUSH2 0xB9D JUMPI DUP3 SWAP1 SUB PUSH1 0x1F AND DUP3 ADD SWAP2 JUMPDEST POP POP POP POP POP DUP2 MSTORE PUSH1 0x20 ADD PUSH1 0x3 DUP3 ADD SLOAD DUP2 MSTORE PUSH1 0x20 ADD PUSH1 0x4 DUP3 ADD SLOAD DUP2 MSTORE PUSH1 0x20 ADD PUSH1 0x5 DUP3 ADD PUSH1 0x0 SWAP1 SLOAD SWAP1 PUSH2 0x100 EXP SWAP1 DIV PUSH1 0xFF AND ISZERO ISZERO ISZERO ISZERO DUP2 MSTORE PUSH1 0x20 ADD PUSH1 0x5 DUP3 ADD PUSH1 0x1 SWAP1 SLOAD SWAP1 PUSH2 0x100 EXP SWAP1 DIV PUSH1 0xFF AND ISZERO ISZERO ISZERO ISZERO DUP2 MSTORE PUSH1 0x20 ADD PUSH1 0x6 DUP3 ADD SLOAD DUP2 MSTORE POP POP SWAP1 POP SWAP2 SWAP1 POP JUMP JUMPDEST PUSH1 0x1 SLOAD CALLVALUE LT ISZERO PUSH2 0xC2D JUMPI PUSH1 0x0 DUP1 REVERT JUMPDEST PUSH1 0x0 PUSH1 0x2 PUSH1 0x0 CALLER PUSH20 0xFFFFFFFFFFFFFFFFFFFFFFFFFFFFFFFFFFFFFFFF AND PUSH20 0xFFFFFFFFFFFFFFFFFFFFFFFFFFFFFFFFFFFFFFFF AND DUP2 MSTORE PUSH1 0x20 ADD SWAP1 DUP2 MSTORE PUSH1 0x20 ADD PUSH1 0x0 KECCAK256 PUSH1 0x0 ADD SLOAD EQ ISZERO PUSH2 0xC93 JUMPI PUSH1 0x1 PUSH1 0x6 PUSH1 0x0 DUP3 DUP3 SLOAD PUSH2 0xC8B SWAP2 SWAP1 PUSH2 0x12AB JUMP JUMPDEST SWAP3 POP POP DUP2 SWAP1 SSTORE POP JUMPDEST CALLVALUE PUSH1 0x2 PUSH1 0x0 CALLER PUSH20 0xFFFFFFFFFFFFFFFFFFFFFFFFFFFFFFFFFFFFFFFF AND PUSH20 0xFFFFFFFFFFFFFFFFFFFFFFFFFFFFFFFFFFFFFFFF AND DUP2 MSTORE PUSH1 0x20 ADD SWAP1 DUP2 MSTORE PUSH1 0x20 ADD PUSH1 0x0 KECCAK256 PUSH1 0x0 ADD PUSH1 0x0 DUP3 DUP3 SLOAD PUSH2 0xCE5 SWAP2 SWAP1 PUSH2 0x12AB JUMP JUMPDEST SWAP3 POP POP DUP2 SWAP1 SSTORE POP JUMP JUMPDEST PUSH1 0x40 MLOAD DUP1 PUSH2 0x100 ADD PUSH1 0x40 MSTORE DUP1 PUSH1 0x0 DUP2 MSTORE PUSH1 0x20 ADD PUSH1 0x0 PUSH20 0xFFFFFFFFFFFFFFFFFFFFFFFFFFFFFFFFFFFFFFFF AND DUP2 MSTORE PUSH1 0x20 ADD PUSH1 0x60 DUP2 MSTORE PUSH1 0x20 ADD PUSH1 0x0 DUP2 MSTORE PUSH1 0x20 ADD PUSH1 0x0 DUP2 MSTORE PUSH1 0x20 ADD PUSH1 0x0 ISZERO ISZERO DUP2 MSTORE PUSH1 0x20 ADD PUSH1 0x0 ISZERO ISZERO DUP2 MSTORE PUSH1 0x20 ADD PUSH1 0x0 DUP2 MSTORE POP SWAP1 JUMP JUMPDEST DUP3 DUP1 SLOAD PUSH2 0xD59 SWAP1 PUSH2 0x144A JUMP JUMPDEST SWAP1 PUSH1 0x0 MSTORE PUSH1 0x20 PUSH1 0x0 KECCAK256 SWAP1 PUSH1 0x1F ADD PUSH1 0x20 SWAP1 DIV DUP2 ADD SWAP3 DUP3 PUSH2 0xD7B JUMPI PUSH1 0x0 DUP6 SSTORE PUSH2 0xDC2 JUMP JUMPDEST DUP3 PUSH1 0x1F LT PUSH2 0xD94 JUMPI DUP1 MLOAD PUSH1 0xFF NOT AND DUP4 DUP1 ADD OR DUP6 SSTORE PUSH2 0xDC2 JUMP JUMPDEST DUP3 DUP1 ADD PUSH1 0x1 ADD DUP6 SSTORE DUP3 ISZERO PUSH2 0xDC2 JUMPI SWAP2 DUP3 ADD JUMPDEST DUP3 DUP2 GT ISZERO PUSH2 0xDC1 JUMPI DUP3 MLOAD DUP3 SSTORE SWAP2 PUSH1 0x20 ADD SWAP2 SWAP1 PUSH1 0x1 ADD SWAP1 PUSH2 0xDA6 JUMP JUMPDEST JUMPDEST POP SWAP1 POP PUSH2 0xDCF SWAP2 SWAP1 PUSH2 0xDD3 JUMP JUMPDEST POP SWAP1 JUMP JUMPDEST JUMPDEST DUP1 DUP3 GT ISZERO PUSH2 0xDEC JUMPI PUSH1 0x0 DUP2 PUSH1 0x0 SWAP1 SSTORE POP PUSH1 0x1 ADD PUSH2 0xDD4 JUMP JUMPDEST POP SWAP1 JUMP JUMPDEST PUSH1 0x0 PUSH2 0xE03 PUSH2 0xDFE DUP5 PUSH2 0x124E JUMP JUMPDEST PUSH2 0x121D JUMP JUMPDEST SWAP1 POP DUP3 DUP2 MSTORE PUSH1 0x20 DUP2 ADD DUP5 DUP5 DUP5 ADD GT ISZERO PUSH2 0xE1B JUMPI PUSH1 0x0 DUP1 REVERT JUMPDEST PUSH2 0xE26 DUP5 DUP3 DUP6 PUSH2 0x1408 JUMP JUMPDEST POP SWAP4 SWAP3 POP POP POP JUMP JUMPDEST PUSH1 0x0 DUP2 CALLDATALOAD SWAP1 POP PUSH2 0xE3D DUP2 PUSH2 0x1592 JUMP JUMPDEST SWAP3 SWAP2 POP POP JUMP JUMPDEST PUSH1 0x0 DUP2 CALLDATALOAD SWAP1 POP PUSH2 0xE52 DUP2 PUSH2 0x15A9 JUMP JUMPDEST SWAP3 SWAP2 POP POP JUMP JUMPDEST PUSH1 0x0 DUP3 PUSH1 0x1F DUP4 ADD SLT PUSH2 0xE69 JUMPI PUSH1 0x0 DUP1 REVERT JUMPDEST DUP2 CALLDATALOAD PUSH2 0xE79 DUP5 DUP3 PUSH1 0x20 DUP7 ADD PUSH2 0xDF0 JUMP JUMPDEST SWAP2 POP POP SWAP3 SWAP2 POP POP JUMP JUMPDEST PUSH1 0x0 DUP2 CALLDATALOAD SWAP1 POP PUSH2 0xE91 DUP2 PUSH2 0x15C0 JUMP JUMPDEST SWAP3 SWAP2 POP POP JUMP JUMPDEST PUSH1 0x0 DUP1 PUSH1 0x0 PUSH1 0x60 DUP5 DUP7 SUB SLT ISZERO PUSH2 0xEAC JUMPI PUSH1 0x0 DUP1 REVERT JUMPDEST PUSH1 0x0 DUP5 ADD CALLDATALOAD PUSH8 0xFFFFFFFFFFFFFFFF DUP2 GT ISZERO PUSH2 0xEC6 JUMPI PUSH1 0x0 DUP1 REVERT JUMPDEST PUSH2 0xED2 DUP7 DUP3 DUP8 ADD PUSH2 0xE58 JUMP JUMPDEST SWAP4 POP POP PUSH1 0x20 PUSH2 0xEE3 DUP7 DUP3 DUP8 ADD PUSH2 0xE82 JUMP JUMPDEST SWAP3 POP POP PUSH1 0x40 PUSH2 0xEF4 DUP7 DUP3 DUP8 ADD PUSH2 0xE2E JUMP JUMPDEST SWAP2 POP POP SWAP3 POP SWAP3 POP SWAP3 JUMP JUMPDEST PUSH1 0x0 PUSH1 0x20 DUP3 DUP5 SUB SLT ISZERO PUSH2 0xF10 JUMPI PUSH1 0x0 DUP1 REVERT JUMPDEST PUSH1 0x0 PUSH2 0xF1E DUP5 DUP3 DUP6 ADD PUSH2 0xE82 JUMP JUMPDEST SWAP2 POP POP SWAP3 SWAP2 POP POP JUMP JUMPDEST PUSH1 0x0 DUP1 PUSH1 0x40 DUP4 DUP6 SUB SLT ISZERO PUSH2 0xF3A JUMPI PUSH1 0x0 DUP1 REVERT JUMPDEST PUSH1 0x0 PUSH2 0xF48 DUP6 DUP3 DUP7 ADD PUSH2 0xE82 JUMP JUMPDEST SWAP3 POP POP PUSH1 0x20 PUSH2 0xF59 DUP6 DUP3 DUP7 ADD PUSH2 0xE43 JUMP JUMPDEST SWAP2 POP POP SWAP3 POP SWAP3 SWAP1 POP JUMP JUMPDEST PUSH2 0xF6C DUP2 PUSH2 0x13C0 JUMP JUMPDEST DUP3 MSTORE POP POP JUMP JUMPDEST PUSH2 0xF7B DUP2 PUSH2 0x13C0 JUMP JUMPDEST DUP3 MSTORE POP POP JUMP JUMPDEST PUSH2 0xF8A DUP2 PUSH2 0x13D2 JUMP JUMPDEST DUP3 MSTORE POP POP JUMP JUMPDEST PUSH2 0xF99 DUP2 PUSH2 0x13D2 JUMP JUMPDEST DUP3 MSTORE POP POP JUMP JUMPDEST PUSH1 0x0 PUSH2 0xFAA DUP3 PUSH2 0x127E JUMP JUMPDEST PUSH2 0xFB4 DUP2 DUP6 PUSH2 0x1289 JUMP JUMPDEST SWAP4 POP PUSH2 0xFC4 DUP2 DUP6 PUSH1 0x20 DUP7 ADD PUSH2 0x1417 JUMP JUMPDEST PUSH2 0xFCD DUP2 PUSH2 0x1581 JUMP JUMPDEST DUP5 ADD SWAP2 POP POP SWAP3 SWAP2 POP POP JUMP JUMPDEST PUSH1 0x0 PUSH2 0xFE3 DUP3 PUSH2 0x127E JUMP JUMPDEST PUSH2 0xFED DUP2 DUP6 PUSH2 0x129A JUMP JUMPDEST SWAP4 POP PUSH2 0xFFD DUP2 DUP6 PUSH1 0x20 DUP7 ADD PUSH2 0x1417 JUMP JUMPDEST PUSH2 0x1006 DUP2 PUSH2 0x1581 JUMP JUMPDEST DUP5 ADD SWAP2 POP POP SWAP3 SWAP2 POP POP JUMP JUMPDEST PUSH1 0x0 PUSH2 0x100 DUP4 ADD PUSH1 0x0 DUP4 ADD MLOAD PUSH2 0x102A PUSH1 0x0 DUP7 ADD DUP3 PUSH2 0x10C1 JUMP JUMPDEST POP PUSH1 0x20 DUP4 ADD MLOAD PUSH2 0x103D PUSH1 0x20 DUP7 ADD DUP3 PUSH2 0xF63 JUMP JUMPDEST POP PUSH1 0x40 DUP4 ADD MLOAD DUP5 DUP3 SUB PUSH1 0x40 DUP7 ADD MSTORE PUSH2 0x1055 DUP3 DUP3 PUSH2 0xF9F JUMP JUMPDEST SWAP2 POP POP PUSH1 0x60 DUP4 ADD MLOAD PUSH2 0x106A PUSH1 0x60 DUP7 ADD DUP3 PUSH2 0x10C1 JUMP JUMPDEST POP PUSH1 0x80 DUP4 ADD MLOAD PUSH2 0x107D PUSH1 0x80 DUP7 ADD DUP3 PUSH2 0x10C1 JUMP JUMPDEST POP PUSH1 0xA0 DUP4 ADD MLOAD PUSH2 0x1090 PUSH1 0xA0 DUP7 ADD DUP3 PUSH2 0xF81 JUMP JUMPDEST POP PUSH1 0xC0 DUP4 ADD MLOAD PUSH2 0x10A3 PUSH1 0xC0 DUP7 ADD DUP3 PUSH2 0xF81 JUMP JUMPDEST POP PUSH1 0xE0 DUP4 ADD MLOAD PUSH2 0x10B6 PUSH1 0xE0 DUP7 ADD DUP3 PUSH2 0x10C1 JUMP JUMPDEST POP DUP1 SWAP2 POP POP SWAP3 SWAP2 POP POP JUMP JUMPDEST PUSH2 0x10CA DUP2 PUSH2 0x13FE JUMP JUMPDEST DUP3 MSTORE POP POP JUMP JUMPDEST PUSH2 0x10D9 DUP2 PUSH2 0x13FE JUMP JUMPDEST DUP3 MSTORE POP POP JUMP JUMPDEST PUSH1 0x0 PUSH1 0x20 DUP3 ADD SWAP1 POP PUSH2 0x10F4 PUSH1 0x0 DUP4 ADD DUP5 PUSH2 0xF72 JUMP JUMPDEST SWAP3 SWAP2 POP POP JUMP JUMPDEST PUSH1 0x0 PUSH1 0x20 DUP3 ADD SWAP1 POP DUP2 DUP2 SUB PUSH1 0x0 DUP4 ADD MSTORE PUSH2 0x1114 DUP2 DUP5 PUSH2 0x1011 JUMP JUMPDEST SWAP1 POP SWAP3 SWAP2 POP POP JUMP JUMPDEST PUSH1 0x0 PUSH1 0x20 DUP3 ADD SWAP1 POP PUSH2 0x1131 PUSH1 0x0 DUP4 ADD DUP5 PUSH2 0x10D0 JUMP JUMPDEST SWAP3 SWAP2 POP POP JUMP JUMPDEST PUSH1 0x0 PUSH2 0x100 DUP3 ADD SWAP1 POP PUSH2 0x114D PUSH1 0x0 DUP4 ADD DUP12 PUSH2 0x10D0 JUMP JUMPDEST PUSH2 0x115A PUSH1 0x20 DUP4 ADD DUP11 PUSH2 0xF72 JUMP JUMPDEST DUP2 DUP2 SUB PUSH1 0x40 DUP4 ADD MSTORE PUSH2 0x116C DUP2 DUP10 PUSH2 0xFD8 JUMP JUMPDEST SWAP1 POP PUSH2 0x117B PUSH1 0x60 DUP4 ADD DUP9 PUSH2 0x10D0 JUMP JUMPDEST PUSH2 0x1188 PUSH1 0x80 DUP4 ADD DUP8 PUSH2 0x10D0 JUMP JUMPDEST PUSH2 0x1195 PUSH1 0xA0 DUP4 ADD DUP7 PUSH2 0xF90 JUMP JUMPDEST PUSH2 0x11A2 PUSH1 0xC0 DUP4 ADD DUP6 PUSH2 0xF90 JUMP JUMPDEST PUSH2 0x11AF PUSH1 0xE0 DUP4 ADD DUP5 PUSH2 0x10D0 JUMP JUMPDEST SWAP10 SWAP9 POP POP POP POP POP POP POP POP POP JUMP JUMPDEST PUSH1 0x0 PUSH1 0xC0 DUP3 ADD SWAP1 POP PUSH2 0x11D1 PUSH1 0x0 DUP4 ADD DUP10 PUSH2 0x10D0 JUMP JUMPDEST PUSH2 0x11DE PUSH1 0x20 DUP4 ADD DUP9 PUSH2 0x10D0 JUMP JUMPDEST PUSH2 0x11EB PUSH1 0x40 DUP4 ADD DUP8 PUSH2 0x10D0 JUMP JUMPDEST PUSH2 0x11F8 PUSH1 0x60 DUP4 ADD DUP7 PUSH2 0x10D0 JUMP JUMPDEST PUSH2 0x1205 PUSH1 0x80 DUP4 ADD DUP6 PUSH2 0x10D0 JUMP JUMPDEST PUSH2 0x1212 PUSH1 0xA0 DUP4 ADD DUP5 PUSH2 0xF72 JUMP JUMPDEST SWAP8 SWAP7 POP POP POP POP POP POP POP JUMP JUMPDEST PUSH1 0x0 PUSH1 0x40 MLOAD SWAP1 POP DUP2 DUP2 ADD DUP2 DUP2 LT PUSH8 0xFFFFFFFFFFFFFFFF DUP3 GT OR ISZERO PUSH2 0x1244 JUMPI PUSH2 0x1243 PUSH2 0x1552 JUMP JUMPDEST JUMPDEST DUP1 PUSH1 0x40 MSTORE POP SWAP2 SWAP1 POP JUMP JUMPDEST PUSH1 0x0 PUSH8 0xFFFFFFFFFFFFFFFF DUP3 GT ISZERO PUSH2 0x1269 JUMPI PUSH2 0x1268 PUSH2 0x1552 JUMP JUMPDEST JUMPDEST PUSH1 0x1F NOT PUSH1 0x1F DUP4 ADD AND SWAP1 POP PUSH1 0x20 DUP2 ADD SWAP1 POP SWAP2 SWAP1 POP JUMP JUMPDEST PUSH1 0x0 DUP2 MLOAD SWAP1 POP SWAP2 SWAP1 POP JUMP JUMPDEST PUSH1 0x0 DUP3 DUP3 MSTORE PUSH1 0x20 DUP3 ADD SWAP1 POP SWAP3 SWAP2 POP POP JUMP JUMPDEST PUSH1 0x0 DUP3 DUP3 MSTORE PUSH1 0x20 DUP3 ADD SWAP1 POP SWAP3 SWAP2 POP POP JUMP JUMPDEST PUSH1 0x0 PUSH2 0x12B6 DUP3 PUSH2 0x13FE JUMP JUMPDEST SWAP2 POP PUSH2 0x12C1 DUP4 PUSH2 0x13FE JUMP JUMPDEST SWAP3 POP DUP3 PUSH32 0xFFFFFFFFFFFFFFFFFFFFFFFFFFFFFFFFFFFFFFFFFFFFFFFFFFFFFFFFFFFFFFFF SUB DUP3 GT ISZERO PUSH2 0x12F6 JUMPI PUSH2 0x12F5 PUSH2 0x14C5 JUMP JUMPDEST JUMPDEST DUP3 DUP3 ADD SWAP1 POP SWAP3 SWAP2 POP POP JUMP JUMPDEST PUSH1 0x0 PUSH2 0x130C DUP3 PUSH2 0x13FE JUMP JUMPDEST SWAP2 POP PUSH2 0x1317 DUP4 PUSH2 0x13FE JUMP JUMPDEST SWAP3 POP DUP3 PUSH2 0x1327 JUMPI PUSH2 0x1326 PUSH2 0x14F4 JUMP JUMPDEST JUMPDEST DUP3 DUP3 DIV SWAP1 POP SWAP3 SWAP2 POP POP JUMP JUMPDEST PUSH1 0x0 PUSH2 0x133D DUP3 PUSH2 0x13FE JUMP JUMPDEST SWAP2 POP PUSH2 0x1348 DUP4 PUSH2 0x13FE JUMP JUMPDEST SWAP3 POP DUP2 PUSH32 0xFFFFFFFFFFFFFFFFFFFFFFFFFFFFFFFFFFFFFFFFFFFFFFFFFFFFFFFFFFFFFFFF DIV DUP4 GT DUP3 ISZERO ISZERO AND ISZERO PUSH2 0x1381 JUMPI PUSH2 0x1380 PUSH2 0x14C5 JUMP JUMPDEST JUMPDEST DUP3 DUP3 MUL SWAP1 POP SWAP3 SWAP2 POP POP JUMP JUMPDEST PUSH1 0x0 PUSH2 0x1397 DUP3 PUSH2 0x13FE JUMP JUMPDEST SWAP2 POP PUSH2 0x13A2 DUP4 PUSH2 0x13FE JUMP JUMPDEST SWAP3 POP DUP3 DUP3 LT ISZERO PUSH2 0x13B5 JUMPI PUSH2 0x13B4 PUSH2 0x14C5 JUMP JUMPDEST JUMPDEST DUP3 DUP3 SUB SWAP1 POP SWAP3 SWAP2 POP POP JUMP JUMPDEST PUSH1 0x0 PUSH2 0x13CB DUP3 PUSH2 0x13DE JUMP JUMPDEST SWAP1 POP SWAP2 SWAP1 POP JUMP JUMPDEST PUSH1 0x0 DUP2 ISZERO ISZERO SWAP1 POP SWAP2 SWAP1 POP JUMP JUMPDEST PUSH1 0x0 PUSH20 0xFFFFFFFFFFFFFFFFFFFFFFFFFFFFFFFFFFFFFFFF DUP3 AND SWAP1 POP SWAP2 SWAP1 POP JUMP JUMPDEST PUSH1 0x0 DUP2 SWAP1 POP SWAP2 SWAP1 POP JUMP JUMPDEST DUP3 DUP2 DUP4 CALLDATACOPY PUSH1 0x0 DUP4 DUP4 ADD MSTORE POP POP POP JUMP JUMPDEST PUSH1 0x0 JUMPDEST DUP4 DUP2 LT ISZERO PUSH2 0x1435 JUMPI DUP1 DUP3 ADD MLOAD DUP2 DUP5 ADD MSTORE PUSH1 0x20 DUP2 ADD SWAP1 POP PUSH2 0x141A JUMP JUMPDEST DUP4 DUP2 GT ISZERO PUSH2 0x1444 JUMPI PUSH1 0x0 DUP5 DUP5 ADD MSTORE JUMPDEST POP POP POP POP JUMP JUMPDEST PUSH1 0x0 PUSH1 0x2 DUP3 DIV SWAP1 POP PUSH1 0x1 DUP3 AND DUP1 PUSH2 0x1462 JUMPI PUSH1 0x7F DUP3 AND SWAP2 POP JUMPDEST PUSH1 0x20 DUP3 LT DUP2 EQ ISZERO PUSH2 0x1476 JUMPI PUSH2 0x1475 PUSH2 0x1523 JUMP JUMPDEST JUMPDEST POP SWAP2 SWAP1 POP JUMP JUMPDEST PUSH1 0x0 PUSH2 0x1487 DUP3 PUSH2 0x13FE JUMP JUMPDEST SWAP2 POP PUSH32 0xFFFFFFFFFFFFFFFFFFFFFFFFFFFFFFFFFFFFFFFFFFFFFFFFFFFFFFFFFFFFFFFF DUP3 EQ ISZERO PUSH2 0x14BA JUMPI PUSH2 0x14B9 PUSH2 0x14C5 JUMP JUMPDEST JUMPDEST PUSH1 0x1 DUP3 ADD SWAP1 POP SWAP2 SWAP1 POP JUMP JUMPDEST PUSH32 0x4E487B7100000000000000000000000000000000000000000000000000000000 PUSH1 0x0 MSTORE PUSH1 0x11 PUSH1 0x4 MSTORE PUSH1 0x24 PUSH1 0x0 REVERT JUMPDEST PUSH32 0x4E487B7100000000000000000000000000000000000000000000000000000000 PUSH1 0x0 MSTORE PUSH1 0x12 PUSH1 0x4 MSTORE PUSH1 0x24 PUSH1 0x0 REVERT JUMPDEST PUSH32 0x4E487B7100000000000000000000000000000000000000000000000000000000 PUSH1 0x0 MSTORE PUSH1 0x22 PUSH1 0x4 MSTORE PUSH1 0x24 PUSH1 0x0 REVERT JUMPDEST PUSH32 0x4E487B7100000000000000000000000000000000000000000000000000000000 PUSH1 0x0 MSTORE PUSH1 0x41 PUSH1 0x4 MSTORE PUSH1 0x24 PUSH1 0x0 REVERT JUMPDEST PUSH1 0x0 PUSH1 0x1F NOT PUSH1 0x1F DUP4 ADD AND SWAP1 POP SWAP2 SWAP1 POP JUMP JUMPDEST PUSH2 0x159B DUP2 PUSH2 0x13C0 JUMP JUMPDEST DUP2 EQ PUSH2 0x15A6 JUMPI PUSH1 0x0 DUP1 REVERT JUMPDEST POP JUMP JUMPDEST PUSH2 0x15B2 DUP2 PUSH2 0x13D2 JUMP JUMPDEST DUP2 EQ PUSH2 0x15BD JUMPI PUSH1 0x0 DUP1 REVERT JUMPDEST POP JUMP JUMPDEST PUSH2 0x15C9 DUP2 PUSH2 0x13FE JUMP JUMPDEST DUP2 EQ PUSH2 0x15D4 JUMPI PUSH1 0x0 DUP1 REVERT JUMPDEST POP JUMP INVALID LOG2 PUSH5 0x6970667358 0x22 SLT KECCAK256 CODECOPY 0x26 0xAF DELEGATECALL CALLVALUE SWAP3 PUSH4 0xD007C95F PUSH17 0x6043836109D3E0C3A574A5B25672D1567D SWAP2 0xDE PUSH4 0x64736F6C PUSH4 0x43000800 STOP CALLER "},"gasEstimates":{"creation":{"codeDepositCost":"1129000","executionCost":"infinite","totalCost":"infinite"},"external":{"approveRequest(uint256,bool)":"infinite","contribute()":"infinite","createRequest(string,uint256,address)":"infinite","getRequest(uint256)":"infinite","getRequestCount()":"1160","manager()":"1256","processRequest(uint256)":"infinite","requests(uint256)":"infinite","returnStats()":"infinite","transferRequestMoney(uint256)":"infinite"}},"methodIdentifiers":{"approveRequest(uint256,bool)":"767e0b9c","contribute()":"d7bb99ba","createRequest(string,uint256,address)":"8a9cfd55","getRequest(uint256)":"c58343ef","getRequestCount()":"3fad1834","manager()":"481c6a75","processRequest(uint256)":"b664a9f1","requests(uint256)":"81d12c58","returnStats()":"2d8f1adc","transferRequestMoney(uint256)":"bd0681a4"}},"storageLayout":{"storage":[{"astId":63,"contract":"campaign.sol:campaign","label":"manager","offset":0,"slot":"0","type":"t_address"},{"astId":65,"contract":"campaign.sol:campaign","label":"minContribution","offset":0,"slot":"1","type":"t_uint256"},{"astId":70,"contract":"campaign.sol:campaign","label":"approvers","offset":0,"slot":"2","type":"t_mapping(t_address,t_struct(approver)91_storage)"},{"astId":76,"contract":"campaign.sol:campaign","label":"voteStatus","offset":0,"slot":"3","type":"t_mapping(t_uint256,t_mapping(t_address,t_uint256))"},{"astId":78,"contract":"campaign.sol:campaign","label":"reqNumber","offset":0,"slot":"4","type":"t_uint256"},{"astId":80,"contract":"campaign.sol:campaign","label":"approveThreshlod","offset":0,"slot":"5","type":"t_uint256"},{"astId":82,"contract":"campaign.sol:campaign","label":"numberOfApprovers","offset":0,"slot":"6","type":"t_uint256"},{"astId":84,"contract":"campaign.sol:campaign","label":"timeWindow","offset":0,"slot":"7","type":"t_uint256"},{"astId":88,"contract":"campaign.sol:campaign","label":"requests","offset":0,"slot":"8","type":"t_array(t_struct(request)108_storage)dyn_storage"}],"types":{"t_address":{"encoding":"inplace","label":"address","numberOfBytes":"20"},"t_array(t_struct(request)108_storage)dyn_storage":{"base":"t_struct(request)108_storage","encoding":"dynamic_array","label":"struct campaign.request[]","numberOfBytes":"32"},"t_bool":{"encoding":"inplace","label":"bool","numberOfBytes":"1"},"t_mapping(t_address,t_struct(approver)91_storage)":{"encoding":"mapping","key":"t_address","label":"mapping(address => struct campaign.approver)","numberOfBytes":"32","value":"t_struct(approver)91_storage"},"t_mapping(t_address,t_uint256)":{"encoding":"mapping","key":"t_address","label":"mapping(address => uint256)","numberOfBytes":"32","value":"t_uint256"},"t_mapping(t_uint256,t_mapping(t_address,t_uint256))":{"encoding":"mapping","key":"t_uint256","label":"mapping(uint256 => mapping(address => uint256))","numberOfBytes":"32","value":"t_mapping(t_address,t_uint256)"},"t_string_storage":{"encoding":"bytes","label":"string","numberOfBytes":"32"},"t_struct(approver)91_storage":{"encoding":"inplace","label":"struct campaign.approver","members":[{"astId":90,"contract":"campaign.sol:campaign","label":"stakeValue","offset":0,"slot":"0","type":"t_uint256"}],"numberOfBytes":"32"},"t_struct(request)108_storage":{"encoding":"inplace","label":"struct campaign.request","members":[{"astId":93,"contract":"campaign.sol:campaign","label":"value","offset":0,"slot":"0","type":"t_uint256"},{"astId":95,"contract":"campaign.sol:campaign","label":"recipient","offset":0,"slot":"1","type":"t_address"},{"astId":97,"contract":"campaign.sol:campaign","label":"description","offset":0,"slot":"2","type":"t_string_storage"},{"astId":99,"contract":"campaign.sol:campaign","label":"index","offset":0,"slot":"3","type":"t_uint256"},{"astId":101,"contract":"campaign.sol:campaign","label":"denials","offset":0,"slot":"4","type":"t_uint256"},{"astId":103,"contract":"campaign.sol:campaign","label":"isProcessed","offset":0,"slot":"5","type":"t_bool"},{"astId":105,"contract":"campaign.sol:campaign","label":"isApproved","offset":1,"slot":"5","type":"t_bool"},{"astId":107,"contract":"campaign.sol:campaign","label":"deadline","offset":0,"slot":"6","type":"t_uint256"}],"numberOfBytes":"224"},"t_uint256":{"encoding":"inplace","label":"uint256","numberOfBytes":"32"}}},"userdoc":{"kind":"user","methods":{},"version":1}}