{"abi":[{"inputs":[{"internalType":"uint256","name":"min_val","type":"uint256"},{"internalType":"uint256","name":"threshold","type":"uint256"},{"internalType":"address","name":"creator","type":"address"}],"stateMutability":"nonpayable","type":"constructor"},{"inputs":[{"internalType":"uint256","name":"req_number","type":"uint256"},{"internalType":"bool","name":"isApproved","type":"bool"}],"name":"approveRequest","outputs":[],"stateMutability":"nonpayable","type":"function"},{"inputs":[{"internalType":"uint256","name":"req_number","type":"uint256"}],"name":"checkApproval","outputs":[],"stateMutability":"nonpayable","type":"function"},{"inputs":[],"name":"contribute","outputs":[],"stateMutability":"payable","type":"function"},{"inputs":[{"internalType":"string","name":"description","type":"string"},{"internalType":"uint256","name":"value","type":"uint256"},{"internalType":"address","name":"recipient","type":"address"}],"name":"createRequest","outputs":[],"stateMutability":"nonpayable","type":"function"},{"inputs":[],"name":"getRequestCount","outputs":[{"internalType":"uint256","name":"","type":"uint256"}],"stateMutability":"view","type":"function"},{"inputs":[],"name":"manager","outputs":[{"internalType":"address","name":"","type":"address"}],"stateMutability":"view","type":"function"},{"inputs":[],"name":"minContribution","outputs":[{"internalType":"uint256","name":"","type":"uint256"}],"stateMutability":"view","type":"function"},{"inputs":[],"name":"returnStats","outputs":[{"internalType":"uint256","name":"","type":"uint256"},{"internalType":"uint256","name":"","type":"uint256"},{"internalType":"uint256","name":"","type":"uint256"},{"internalType":"uint256","name":"","type":"uint256"},{"internalType":"uint256","name":"","type":"uint256"},{"internalType":"address","name":"","type":"address"}],"stateMutability":"view","type":"function"}],"devdoc":{"kind":"dev","methods":{},"version":1},"evm":{"assembly":"    /* \"campaign.sol\":634:4271  contract campaign{\r... */\n  mstore(0x40, 0x80)\n    /* \"campaign.sol\":1470:1695  constructor(uint min_val,uint threshold, address creator) {\r... */\n  callvalue\n  dup1\n  iszero\n  tag_1\n  jumpi\n  0x00\n  dup1\n  revert\ntag_1:\n  pop\n  mload(0x40)\n  sub(codesize, bytecodeSize)\n  dup1\n  bytecodeSize\n  dup4\n  codecopy\n  dup2\n  dup2\n  add\n  0x40\n  mstore\n  dup2\n  add\n  swap1\n  tag_2\n  swap2\n  swap1\n  tag_3\n  jump\t// in\ntag_2:\n    /* \"campaign.sol\":1549:1556  creator */\n  dup1\n    /* \"campaign.sol\":1539:1546  manager */\n  0x00\n  dup1\n    /* \"campaign.sol\":1539:1556  manager = creator */\n  0x0100\n  exp\n  dup2\n  sload\n  dup2\n  0xffffffffffffffffffffffffffffffffffffffff\n  mul\n  not\n  and\n  swap1\n  dup4\n  0xffffffffffffffffffffffffffffffffffffffff\n  and\n  mul\n  or\n  swap1\n  sstore\n  pop\n    /* \"campaign.sol\":1585:1592  min_val */\n  dup3\n    /* \"campaign.sol\":1567:1582  minContribution */\n  0x01\n    /* \"campaign.sol\":1567:1592  minContribution = min_val */\n  dup2\n  swap1\n  sstore\n  pop\n    /* \"campaign.sol\":1622:1631  threshold */\n  dup2\n    /* \"campaign.sol\":1603:1619  approveThreshlod */\n  0x04\n    /* \"campaign.sol\":1603:1631  approveThreshlod = threshold */\n  dup2\n  swap1\n  sstore\n  pop\n    /* \"campaign.sol\":1654:1655  0 */\n  0x00\n    /* \"campaign.sol\":1642:1651  reqNumber */\n  0x03\n    /* \"campaign.sol\":1642:1655  reqNumber = 0 */\n  dup2\n  swap1\n  sstore\n  pop\n    /* \"campaign.sol\":1686:1687  0 */\n  0x00\n    /* \"campaign.sol\":1666:1683  numberOfApprovers */\n  0x05\n    /* \"campaign.sol\":1666:1687  numberOfApprovers = 0 */\n  dup2\n  swap1\n  sstore\n  pop\n    /* \"campaign.sol\":1470:1695  constructor(uint min_val,uint threshold, address creator) {\r... */\n  pop\n  pop\n  pop\n    /* \"campaign.sol\":634:4271  contract campaign{\r... */\n  jump(tag_6)\n    /* \"#utility.yul\":7:150   */\ntag_8:\n  0x00\n    /* \"#utility.yul\":95:101   */\n  dup2\n    /* \"#utility.yul\":89:102   */\n  mload\n    /* \"#utility.yul\":80:102   */\n  swap1\n  pop\n    /* \"#utility.yul\":111:144   */\n  tag_10\n    /* \"#utility.yul\":138:143   */\n  dup2\n    /* \"#utility.yul\":111:144   */\n  tag_11\n  jump\t// in\ntag_10:\n    /* \"#utility.yul\":70:150   */\n  swap3\n  swap2\n  pop\n  pop\n  jump\t// out\n    /* \"#utility.yul\":156:299   */\ntag_12:\n  0x00\n    /* \"#utility.yul\":244:250   */\n  dup2\n    /* \"#utility.yul\":238:251   */\n  mload\n    /* \"#utility.yul\":229:251   */\n  swap1\n  pop\n    /* \"#utility.yul\":260:293   */\n  tag_14\n    /* \"#utility.yul\":287:292   */\n  dup2\n    /* \"#utility.yul\":260:293   */\n  tag_15\n  jump\t// in\ntag_14:\n    /* \"#utility.yul\":219:299   */\n  swap3\n  swap2\n  pop\n  pop\n  jump\t// out\n    /* \"#utility.yul\":305:901   */\ntag_3:\n  0x00\n  dup1\n  0x00\n    /* \"#utility.yul\":458:460   */\n  0x60\n    /* \"#utility.yul\":446:455   */\n  dup5\n    /* \"#utility.yul\":437:444   */\n  dup7\n    /* \"#utility.yul\":433:456   */\n  sub\n    /* \"#utility.yul\":429:461   */\n  slt\n    /* \"#utility.yul\":426:428   */\n  iszero\n  tag_17\n  jumpi\n    /* \"#utility.yul\":474:475   */\n  0x00\n    /* \"#utility.yul\":471:472   */\n  dup1\n    /* \"#utility.yul\":464:476   */\n  revert\n    /* \"#utility.yul\":426:428   */\ntag_17:\n    /* \"#utility.yul\":517:518   */\n  0x00\n    /* \"#utility.yul\":542:606   */\n  tag_18\n    /* \"#utility.yul\":598:605   */\n  dup7\n    /* \"#utility.yul\":589:595   */\n  dup3\n    /* \"#utility.yul\":578:587   */\n  dup8\n    /* \"#utility.yul\":574:596   */\n  add\n    /* \"#utility.yul\":542:606   */\n  tag_12\n  jump\t// in\ntag_18:\n    /* \"#utility.yul\":532:606   */\n  swap4\n  pop\n    /* \"#utility.yul\":488:616   */\n  pop\n    /* \"#utility.yul\":655:657   */\n  0x20\n    /* \"#utility.yul\":681:745   */\n  tag_19\n    /* \"#utility.yul\":737:744   */\n  dup7\n    /* \"#utility.yul\":728:734   */\n  dup3\n    /* \"#utility.yul\":717:726   */\n  dup8\n    /* \"#utility.yul\":713:735   */\n  add\n    /* \"#utility.yul\":681:745   */\n  tag_12\n  jump\t// in\ntag_19:\n    /* \"#utility.yul\":671:745   */\n  swap3\n  pop\n    /* \"#utility.yul\":626:755   */\n  pop\n    /* \"#utility.yul\":794:796   */\n  0x40\n    /* \"#utility.yul\":820:884   */\n  tag_20\n    /* \"#utility.yul\":876:883   */\n  dup7\n    /* \"#utility.yul\":867:873   */\n  dup3\n    /* \"#utility.yul\":856:865   */\n  dup8\n    /* \"#utility.yul\":852:874   */\n  add\n    /* \"#utility.yul\":820:884   */\n  tag_8\n  jump\t// in\ntag_20:\n    /* \"#utility.yul\":810:884   */\n  swap2\n  pop\n    /* \"#utility.yul\":765:894   */\n  pop\n    /* \"#utility.yul\":416:901   */\n  swap3\n  pop\n  swap3\n  pop\n  swap3\n  jump\t// out\n    /* \"#utility.yul\":907:1003   */\ntag_21:\n  0x00\n    /* \"#utility.yul\":973:997   */\n  tag_23\n    /* \"#utility.yul\":991:996   */\n  dup3\n    /* \"#utility.yul\":973:997   */\n  tag_24\n  jump\t// in\ntag_23:\n    /* \"#utility.yul\":962:997   */\n  swap1\n  pop\n    /* \"#utility.yul\":952:1003   */\n  swap2\n  swap1\n  pop\n  jump\t// out\n    /* \"#utility.yul\":1009:1135   */\ntag_24:\n  0x00\n    /* \"#utility.yul\":1086:1128   */\n  0xffffffffffffffffffffffffffffffffffffffff\n    /* \"#utility.yul\":1079:1084   */\n  dup3\n    /* \"#utility.yul\":1075:1129   */\n  and\n    /* \"#utility.yul\":1064:1129   */\n  swap1\n  pop\n    /* \"#utility.yul\":1054:1135   */\n  swap2\n  swap1\n  pop\n  jump\t// out\n    /* \"#utility.yul\":1141:1218   */\ntag_26:\n  0x00\n    /* \"#utility.yul\":1207:1212   */\n  dup2\n    /* \"#utility.yul\":1196:1212   */\n  swap1\n  pop\n    /* \"#utility.yul\":1186:1218   */\n  swap2\n  swap1\n  pop\n  jump\t// out\n    /* \"#utility.yul\":1224:1346   */\ntag_11:\n    /* \"#utility.yul\":1297:1321   */\n  tag_29\n    /* \"#utility.yul\":1315:1320   */\n  dup2\n    /* \"#utility.yul\":1297:1321   */\n  tag_21\n  jump\t// in\ntag_29:\n    /* \"#utility.yul\":1290:1295   */\n  dup2\n    /* \"#utility.yul\":1287:1322   */\n  eq\n    /* \"#utility.yul\":1277:1279   */\n  tag_30\n  jumpi\n    /* \"#utility.yul\":1336:1337   */\n  0x00\n    /* \"#utility.yul\":1333:1334   */\n  dup1\n    /* \"#utility.yul\":1326:1338   */\n  revert\n    /* \"#utility.yul\":1277:1279   */\ntag_30:\n    /* \"#utility.yul\":1267:1346   */\n  pop\n  jump\t// out\n    /* \"#utility.yul\":1352:1474   */\ntag_15:\n    /* \"#utility.yul\":1425:1449   */\n  tag_32\n    /* \"#utility.yul\":1443:1448   */\n  dup2\n    /* \"#utility.yul\":1425:1449   */\n  tag_26\n  jump\t// in\ntag_32:\n    /* \"#utility.yul\":1418:1423   */\n  dup2\n    /* \"#utility.yul\":1415:1450   */\n  eq\n    /* \"#utility.yul\":1405:1407   */\n  tag_33\n  jumpi\n    /* \"#utility.yul\":1464:1465   */\n  0x00\n    /* \"#utility.yul\":1461:1462   */\n  dup1\n    /* \"#utility.yul\":1454:1466   */\n  revert\n    /* \"#utility.yul\":1405:1407   */\ntag_33:\n    /* \"#utility.yul\":1395:1474   */\n  pop\n  jump\t// out\n    /* \"campaign.sol\":634:4271  contract campaign{\r... */\ntag_6:\n  dataSize(sub_0)\n  dup1\n  dataOffset(sub_0)\n  0x00\n  codecopy\n  0x00\n  return\nstop\n\nsub_0: assembly {\n        /* \"campaign.sol\":634:4271  contract campaign{\r... */\n      mstore(0x40, 0x80)\n      jumpi(tag_1, lt(calldatasize, 0x04))\n      shr(0xe0, calldataload(0x00))\n      dup1\n      0x8a9cfd55\n      gt\n      tag_10\n      jumpi\n      dup1\n      0x8a9cfd55\n      eq\n      tag_6\n      jumpi\n      dup1\n      0xaaffadf3\n      eq\n      tag_7\n      jumpi\n      dup1\n      0xd7bb99ba\n      eq\n      tag_8\n      jumpi\n      dup1\n      0xfea21ce5\n      eq\n      tag_9\n      jumpi\n      jump(tag_1)\n    tag_10:\n      dup1\n      0x2d8f1adc\n      eq\n      tag_2\n      jumpi\n      dup1\n      0x3fad1834\n      eq\n      tag_3\n      jumpi\n      dup1\n      0x481c6a75\n      eq\n      tag_4\n      jumpi\n      dup1\n      0x767e0b9c\n      eq\n      tag_5\n      jumpi\n    tag_1:\n      0x00\n      dup1\n      revert\n        /* \"campaign.sol\":3960:4168  function returnStats() public view returns(uint,uint,uint,uint,uint,address){\r... */\n    tag_2:\n      callvalue\n      dup1\n      iszero\n      tag_11\n      jumpi\n      0x00\n      dup1\n      revert\n    tag_11:\n      pop\n      tag_12\n      tag_13\n      jump\t// in\n    tag_12:\n      mload(0x40)\n      tag_14\n      swap7\n      swap6\n      swap5\n      swap4\n      swap3\n      swap2\n      swap1\n      tag_15\n      jump\t// in\n    tag_14:\n      mload(0x40)\n      dup1\n      swap2\n      sub\n      swap1\n      return\n        /* \"campaign.sol\":4174:4262  function getRequestCount() public view returns (uint){\r... */\n    tag_3:\n      callvalue\n      dup1\n      iszero\n      tag_16\n      jumpi\n      0x00\n      dup1\n      revert\n    tag_16:\n      pop\n      tag_17\n      tag_18\n      jump\t// in\n    tag_17:\n      mload(0x40)\n      tag_19\n      swap2\n      swap1\n      tag_20\n      jump\t// in\n    tag_19:\n      mload(0x40)\n      dup1\n      swap2\n      sub\n      swap1\n      return\n        /* \"campaign.sol\":664:686  address public manager */\n    tag_4:\n      callvalue\n      dup1\n      iszero\n      tag_21\n      jumpi\n      0x00\n      dup1\n      revert\n    tag_21:\n      pop\n      tag_22\n      tag_23\n      jump\t// in\n    tag_22:\n      mload(0x40)\n      tag_24\n      swap2\n      swap1\n      tag_25\n      jump\t// in\n    tag_24:\n      mload(0x40)\n      dup1\n      swap2\n      sub\n      swap1\n      return\n        /* \"campaign.sol\":2532:3178  function approveRequest(uint req_number, bool isApproved) public{\r... */\n    tag_5:\n      callvalue\n      dup1\n      iszero\n      tag_26\n      jumpi\n      0x00\n      dup1\n      revert\n    tag_26:\n      pop\n      tag_27\n      0x04\n      dup1\n      calldatasize\n      sub\n      dup2\n      add\n      swap1\n      tag_28\n      swap2\n      swap1\n      tag_29\n      jump\t// in\n    tag_28:\n      tag_30\n      jump\t// in\n    tag_27:\n      stop\n        /* \"campaign.sol\":2060:2526  function createRequest(string memory description , uint value, address recipient) public restricted{\r... */\n    tag_6:\n      callvalue\n      dup1\n      iszero\n      tag_31\n      jumpi\n      0x00\n      dup1\n      revert\n    tag_31:\n      pop\n      tag_32\n      0x04\n      dup1\n      calldatasize\n      sub\n      dup2\n      add\n      swap1\n      tag_33\n      swap2\n      swap1\n      tag_34\n      jump\t// in\n    tag_33:\n      tag_35\n      jump\t// in\n    tag_32:\n      stop\n        /* \"campaign.sol\":693:720  uint public minContribution */\n    tag_7:\n      callvalue\n      dup1\n      iszero\n      tag_36\n      jumpi\n      0x00\n      dup1\n      revert\n    tag_36:\n      pop\n      tag_37\n      tag_38\n      jump\t// in\n    tag_37:\n      mload(0x40)\n      tag_39\n      swap2\n      swap1\n      tag_20\n      jump\t// in\n    tag_39:\n      mload(0x40)\n      dup1\n      swap2\n      sub\n      swap1\n      return\n        /* \"campaign.sol\":1707:2047  function contribute() public payable{\r... */\n    tag_8:\n      tag_40\n      tag_41\n      jump\t// in\n    tag_40:\n      stop\n        /* \"campaign.sol\":3184:3891  function checkApproval(uint req_number) public restricted{\r... */\n    tag_9:\n      callvalue\n      dup1\n      iszero\n      tag_42\n      jumpi\n      0x00\n      dup1\n      revert\n    tag_42:\n      pop\n      tag_43\n      0x04\n      dup1\n      calldatasize\n      sub\n      dup2\n      add\n      swap1\n      tag_44\n      swap2\n      swap1\n      tag_45\n      jump\t// in\n    tag_44:\n      tag_46\n      jump\t// in\n    tag_43:\n      stop\n        /* \"campaign.sol\":3960:4168  function returnStats() public view returns(uint,uint,uint,uint,uint,address){\r... */\n    tag_13:\n        /* \"campaign.sol\":4003:4007  uint */\n      0x00\n        /* \"campaign.sol\":4008:4012  uint */\n      dup1\n        /* \"campaign.sol\":4013:4017  uint */\n      0x00\n        /* \"campaign.sol\":4018:4022  uint */\n      dup1\n        /* \"campaign.sol\":4023:4027  uint */\n      0x00\n        /* \"campaign.sol\":4028:4035  address */\n      dup1\n        /* \"campaign.sol\":4056:4065  reqNumber */\n      sload(0x03)\n        /* \"campaign.sol\":4067:4083  approveThreshlod */\n      sload(0x04)\n        /* \"campaign.sol\":4085:4100  minContribution */\n      sload(0x01)\n        /* \"campaign.sol\":4101:4122  address(this).balance */\n      selfbalance\n        /* \"campaign.sol\":4123:4140  numberOfApprovers */\n      sload(0x05)\n        /* \"campaign.sol\":4142:4149  manager */\n      0x00\n      dup1\n      sload\n      swap1\n      0x0100\n      exp\n      swap1\n      div\n      0xffffffffffffffffffffffffffffffffffffffff\n      and\n        /* \"campaign.sol\":4049:4150  return(reqNumber, approveThreshlod, minContribution,address(this).balance,numberOfApprovers, manager) */\n      swap6\n      pop\n      swap6\n      pop\n      swap6\n      pop\n      swap6\n      pop\n      swap6\n      pop\n      swap6\n      pop\n        /* \"campaign.sol\":3960:4168  function returnStats() public view returns(uint,uint,uint,uint,uint,address){\r... */\n      swap1\n      swap2\n      swap3\n      swap4\n      swap5\n      swap6\n      jump\t// out\n        /* \"campaign.sol\":4174:4262  function getRequestCount() public view returns (uint){\r... */\n    tag_18:\n        /* \"campaign.sol\":4222:4226  uint */\n      0x00\n        /* \"campaign.sol\":4245:4254  reqNumber */\n      sload(0x03)\n        /* \"campaign.sol\":4238:4254  return reqNumber */\n      swap1\n      pop\n        /* \"campaign.sol\":4174:4262  function getRequestCount() public view returns (uint){\r... */\n      swap1\n      jump\t// out\n        /* \"campaign.sol\":664:686  address public manager */\n    tag_23:\n      0x00\n      dup1\n      sload\n      swap1\n      0x0100\n      exp\n      swap1\n      div\n      0xffffffffffffffffffffffffffffffffffffffff\n      and\n      dup2\n      jump\t// out\n        /* \"campaign.sol\":2532:3178  function approveRequest(uint req_number, bool isApproved) public{\r... */\n    tag_30:\n        /* \"campaign.sol\":2792:2811  request storage req */\n      0x00\n        /* \"campaign.sol\":2814:2822  requests */\n      0x06\n        /* \"campaign.sol\":2814:2836  requests[req_number-1] */\n      0x00\n        /* \"campaign.sol\":2834:2835  1 */\n      0x01\n        /* \"campaign.sol\":2823:2833  req_number */\n      dup6\n        /* \"campaign.sol\":2823:2835  req_number-1 */\n      tag_50\n      swap2\n      swap1\n      tag_51\n      jump\t// in\n    tag_50:\n        /* \"campaign.sol\":2814:2836  requests[req_number-1] */\n      dup2\n      mstore\n      0x20\n      add\n      swap1\n      dup2\n      mstore\n      0x20\n      add\n      0x00\n      keccak256\n        /* \"campaign.sol\":2792:2836  request storage req = requests[req_number-1] */\n      swap1\n      pop\n        /* \"campaign.sol\":2856:2859  req */\n      dup1\n        /* \"campaign.sol\":2856:2871  req.isProcessed */\n      0x05\n      add\n      0x00\n      swap1\n      sload\n      swap1\n      0x0100\n      exp\n      swap1\n      div\n      0xff\n      and\n        /* \"campaign.sol\":2855:2871  !req.isProcessed */\n      iszero\n        /* \"campaign.sol\":2847:2872  require(!req.isProcessed) */\n      tag_52\n      jumpi\n      0x00\n      dup1\n      revert\n    tag_52:\n        /* \"campaign.sol\":2917:2918  0 */\n      0x00\n        /* \"campaign.sol\":2892:2895  req */\n      dup2\n        /* \"campaign.sol\":2892:2901  req.state */\n      0x06\n      add\n        /* \"campaign.sol\":2892:2913  req.state[msg.sender] */\n      0x00\n        /* \"campaign.sol\":2902:2912  msg.sender */\n      caller\n        /* \"campaign.sol\":2892:2913  req.state[msg.sender] */\n      0xffffffffffffffffffffffffffffffffffffffff\n      and\n      0xffffffffffffffffffffffffffffffffffffffff\n      and\n      dup2\n      mstore\n      0x20\n      add\n      swap1\n      dup2\n      mstore\n      0x20\n      add\n      0x00\n      keccak256\n      sload\n        /* \"campaign.sol\":2892:2918  req.state[msg.sender] == 0 */\n      eq\n        /* \"campaign.sol\":2883:2920  require((req.state[msg.sender] == 0)) */\n      tag_53\n      jumpi\n      0x00\n      dup1\n      revert\n    tag_53:\n        /* \"campaign.sol\":3043:3053  isApproved */\n      dup2\n        /* \"campaign.sol\":3039:3135  if(!isApproved){\r... */\n      tag_54\n      jumpi\n        /* \"campaign.sol\":3082:3083  1 */\n      0x01\n        /* \"campaign.sol\":3069:3072  req */\n      dup2\n        /* \"campaign.sol\":3069:3080  req.denials */\n      0x04\n      add\n      0x00\n        /* \"campaign.sol\":3069:3083  req.denials+=1 */\n      dup3\n      dup3\n      sload\n      tag_55\n      swap2\n      swap1\n      tag_56\n      jump\t// in\n    tag_55:\n      swap3\n      pop\n      pop\n      dup2\n      swap1\n      sstore\n      pop\n        /* \"campaign.sol\":3122:3123  2 */\n      0x02\n        /* \"campaign.sol\":3098:3101  req */\n      dup2\n        /* \"campaign.sol\":3098:3107  req.state */\n      0x06\n      add\n        /* \"campaign.sol\":3098:3119  req.state[msg.sender] */\n      0x00\n        /* \"campaign.sol\":3108:3118  msg.sender */\n      caller\n        /* \"campaign.sol\":3098:3119  req.state[msg.sender] */\n      0xffffffffffffffffffffffffffffffffffffffff\n      and\n      0xffffffffffffffffffffffffffffffffffffffff\n      and\n      dup2\n      mstore\n      0x20\n      add\n      swap1\n      dup2\n      mstore\n      0x20\n      add\n      0x00\n      keccak256\n        /* \"campaign.sol\":3098:3123  req.state[msg.sender] = 2 */\n      dup2\n      swap1\n      sstore\n      pop\n        /* \"campaign.sol\":3039:3135  if(!isApproved){\r... */\n    tag_54:\n        /* \"campaign.sol\":3169:3170  1 */\n      0x01\n        /* \"campaign.sol\":3145:3148  req */\n      dup2\n        /* \"campaign.sol\":3145:3154  req.state */\n      0x06\n      add\n        /* \"campaign.sol\":3145:3166  req.state[msg.sender] */\n      0x00\n        /* \"campaign.sol\":3155:3165  msg.sender */\n      caller\n        /* \"campaign.sol\":3145:3166  req.state[msg.sender] */\n      0xffffffffffffffffffffffffffffffffffffffff\n      and\n      0xffffffffffffffffffffffffffffffffffffffff\n      and\n      dup2\n      mstore\n      0x20\n      add\n      swap1\n      dup2\n      mstore\n      0x20\n      add\n      0x00\n      keccak256\n        /* \"campaign.sol\":3145:3170  req.state[msg.sender] = 1 */\n      dup2\n      swap1\n      sstore\n      pop\n        /* \"campaign.sol\":2532:3178  function approveRequest(uint req_number, bool isApproved) public{\r... */\n      pop\n      pop\n      pop\n      jump\t// out\n        /* \"campaign.sol\":2060:2526  function createRequest(string memory description , uint value, address recipient) public restricted{\r... */\n    tag_35:\n        /* \"campaign.sol\":1430:1437  manager */\n      0x00\n      dup1\n      sload\n      swap1\n      0x0100\n      exp\n      swap1\n      div\n      0xffffffffffffffffffffffffffffffffffffffff\n      and\n        /* \"campaign.sol\":1416:1437  msg.sender == manager */\n      0xffffffffffffffffffffffffffffffffffffffff\n      and\n        /* \"campaign.sol\":1416:1426  msg.sender */\n      caller\n        /* \"campaign.sol\":1416:1437  msg.sender == manager */\n      0xffffffffffffffffffffffffffffffffffffffff\n      and\n      eq\n        /* \"campaign.sol\":1408:1438  require(msg.sender == manager) */\n      tag_58\n      jumpi\n      0x00\n      dup1\n      revert\n    tag_58:\n        /* \"campaign.sol\":2202:2221  request storage req */\n      0x00\n        /* \"campaign.sol\":2224:2232  requests */\n      0x06\n        /* \"campaign.sol\":2224:2245  requests[reqNumber++] */\n      0x00\n        /* \"campaign.sol\":2233:2242  reqNumber */\n      0x03\n      0x00\n        /* \"campaign.sol\":2233:2244  reqNumber++ */\n      dup2\n      sload\n      dup1\n      swap3\n      swap2\n      swap1\n      tag_60\n      swap1\n      tag_61\n      jump\t// in\n    tag_60:\n      swap2\n      swap1\n      pop\n      sstore\n        /* \"campaign.sol\":2224:2245  requests[reqNumber++] */\n      dup2\n      mstore\n      0x20\n      add\n      swap1\n      dup2\n      mstore\n      0x20\n      add\n      0x00\n      keccak256\n        /* \"campaign.sol\":2202:2245  request storage req = requests[reqNumber++] */\n      swap1\n      pop\n        /* \"campaign.sol\":2274:2285  description */\n      dup4\n        /* \"campaign.sol\":2256:2259  req */\n      dup2\n        /* \"campaign.sol\":2256:2271  req.description */\n      0x02\n      add\n        /* \"campaign.sol\":2256:2285  req.description = description */\n      swap1\n      dup1\n      mload\n      swap1\n      0x20\n      add\n      swap1\n      tag_62\n      swap3\n      swap2\n      swap1\n      tag_63\n      jump\t// in\n    tag_62:\n      pop\n        /* \"campaign.sol\":2308:2313  value */\n      dup3\n        /* \"campaign.sol\":2296:2299  req */\n      dup2\n        /* \"campaign.sol\":2296:2305  req.value */\n      0x00\n      add\n        /* \"campaign.sol\":2296:2313  req.value = value */\n      dup2\n      swap1\n      sstore\n      pop\n        /* \"campaign.sol\":2340:2349  recipient */\n      dup2\n        /* \"campaign.sol\":2324:2327  req */\n      dup2\n        /* \"campaign.sol\":2324:2337  req.recipient */\n      0x01\n      add\n      0x00\n        /* \"campaign.sol\":2324:2349  req.recipient = recipient */\n      0x0100\n      exp\n      dup2\n      sload\n      dup2\n      0xffffffffffffffffffffffffffffffffffffffff\n      mul\n      not\n      and\n      swap1\n      dup4\n      0xffffffffffffffffffffffffffffffffffffffff\n      and\n      mul\n      or\n      swap1\n      sstore\n      pop\n        /* \"campaign.sol\":2372:2381  reqNumber */\n      sload(0x03)\n        /* \"campaign.sol\":2360:2363  req */\n      dup2\n        /* \"campaign.sol\":2360:2369  req.index */\n      0x03\n      add\n        /* \"campaign.sol\":2360:2381  req.index = reqNumber */\n      dup2\n      swap1\n      sstore\n      pop\n        /* \"campaign.sol\":2410:2415  false */\n      0x00\n        /* \"campaign.sol\":2392:2395  req */\n      dup2\n        /* \"campaign.sol\":2392:2407  req.isProcessed */\n      0x05\n      add\n      0x00\n        /* \"campaign.sol\":2392:2415  req.isProcessed = false */\n      0x0100\n      exp\n      dup2\n      sload\n      dup2\n      0xff\n      mul\n      not\n      and\n      swap1\n      dup4\n      iszero\n      iszero\n      mul\n      or\n      swap1\n      sstore\n      pop\n        /* \"campaign.sol\":2440:2441  0 */\n      0x00\n        /* \"campaign.sol\":2426:2429  req */\n      dup2\n        /* \"campaign.sol\":2426:2437  req.denials */\n      0x04\n      add\n        /* \"campaign.sol\":2426:2441  req.denials = 0 */\n      dup2\n      swap1\n      sstore\n      pop\n        /* \"campaign.sol\":2467:2472  false */\n      0x00\n        /* \"campaign.sol\":2452:2455  req */\n      dup2\n        /* \"campaign.sol\":2452:2464  req.approved */\n      0x05\n      add\n      0x01\n        /* \"campaign.sol\":2452:2472  req.approved = false */\n      0x0100\n      exp\n      dup2\n      sload\n      dup2\n      0xff\n      mul\n      not\n      and\n      swap1\n      dup4\n      iszero\n      iszero\n      mul\n      or\n      swap1\n      sstore\n      pop\n        /* \"campaign.sol\":2503:2508  false */\n      0x00\n        /* \"campaign.sol\":2483:2486  req */\n      dup2\n        /* \"campaign.sol\":2483:2500  req.isTransferred */\n      0x05\n      add\n      0x02\n        /* \"campaign.sol\":2483:2508  req.isTransferred = false */\n      0x0100\n      exp\n      dup2\n      sload\n      dup2\n      0xff\n      mul\n      not\n      and\n      swap1\n      dup4\n      iszero\n      iszero\n      mul\n      or\n      swap1\n      sstore\n      pop\n        /* \"campaign.sol\":1449:1450  _ */\n      pop\n        /* \"campaign.sol\":2060:2526  function createRequest(string memory description , uint value, address recipient) public restricted{\r... */\n      pop\n      pop\n      pop\n      jump\t// out\n        /* \"campaign.sol\":693:720  uint public minContribution */\n    tag_38:\n      sload(0x01)\n      dup2\n      jump\t// out\n        /* \"campaign.sol\":1707:2047  function contribute() public payable{\r... */\n    tag_41:\n        /* \"campaign.sol\":1775:1790  minContribution */\n      sload(0x01)\n        /* \"campaign.sol\":1762:1771  msg.value */\n      callvalue\n        /* \"campaign.sol\":1762:1790  msg.value >= minContribution */\n      lt\n      iszero\n        /* \"campaign.sol\":1754:1791  require(msg.value >= minContribution) */\n      tag_65\n      jumpi\n      0x00\n      dup1\n      revert\n    tag_65:\n        /* \"campaign.sol\":1841:1842  0 */\n      0x00\n        /* \"campaign.sol\":1805:1814  approvers */\n      0x02\n        /* \"campaign.sol\":1805:1826  approvers[msg.sender] */\n      0x00\n        /* \"campaign.sol\":1815:1825  msg.sender */\n      caller\n        /* \"campaign.sol\":1805:1826  approvers[msg.sender] */\n      0xffffffffffffffffffffffffffffffffffffffff\n      and\n      0xffffffffffffffffffffffffffffffffffffffff\n      and\n      dup2\n      mstore\n      0x20\n      add\n      swap1\n      dup2\n      mstore\n      0x20\n      add\n      0x00\n      keccak256\n        /* \"campaign.sol\":1805:1837  approvers[msg.sender].stakeValue */\n      0x00\n      add\n      sload\n        /* \"campaign.sol\":1805:1842  approvers[msg.sender].stakeValue == 0 */\n      eq\n        /* \"campaign.sol\":1802:1886  if(approvers[msg.sender].stakeValue == 0){\r... */\n      iszero\n      tag_66\n      jumpi\n        /* \"campaign.sol\":1873:1874  1 */\n      0x01\n        /* \"campaign.sol\":1854:1871  numberOfApprovers */\n      0x05\n      0x00\n        /* \"campaign.sol\":1854:1874  numberOfApprovers+=1 */\n      dup3\n      dup3\n      sload\n      tag_67\n      swap2\n      swap1\n      tag_56\n      jump\t// in\n    tag_67:\n      swap3\n      pop\n      pop\n      dup2\n      swap1\n      sstore\n      pop\n        /* \"campaign.sol\":1802:1886  if(approvers[msg.sender].stakeValue == 0){\r... */\n    tag_66:\n        /* \"campaign.sol\":1932:1941  msg.value */\n      callvalue\n        /* \"campaign.sol\":1896:1905  approvers */\n      0x02\n        /* \"campaign.sol\":1896:1917  approvers[msg.sender] */\n      0x00\n        /* \"campaign.sol\":1906:1916  msg.sender */\n      caller\n        /* \"campaign.sol\":1896:1917  approvers[msg.sender] */\n      0xffffffffffffffffffffffffffffffffffffffff\n      and\n      0xffffffffffffffffffffffffffffffffffffffff\n      and\n      dup2\n      mstore\n      0x20\n      add\n      swap1\n      dup2\n      mstore\n      0x20\n      add\n      0x00\n      keccak256\n        /* \"campaign.sol\":1896:1928  approvers[msg.sender].stakeValue */\n      0x00\n      add\n      0x00\n        /* \"campaign.sol\":1896:1941  approvers[msg.sender].stakeValue += msg.value */\n      dup3\n      dup3\n      sload\n      tag_68\n      swap2\n      swap1\n      tag_56\n      jump\t// in\n    tag_68:\n      swap3\n      pop\n      pop\n      dup2\n      swap1\n      sstore\n      pop\n        /* \"campaign.sol\":1707:2047  function contribute() public payable{\r... */\n      jump\t// out\n        /* \"campaign.sol\":3184:3891  function checkApproval(uint req_number) public restricted{\r... */\n    tag_46:\n        /* \"campaign.sol\":1430:1437  manager */\n      0x00\n      dup1\n      sload\n      swap1\n      0x0100\n      exp\n      swap1\n      div\n      0xffffffffffffffffffffffffffffffffffffffff\n      and\n        /* \"campaign.sol\":1416:1437  msg.sender == manager */\n      0xffffffffffffffffffffffffffffffffffffffff\n      and\n        /* \"campaign.sol\":1416:1426  msg.sender */\n      caller\n        /* \"campaign.sol\":1416:1437  msg.sender == manager */\n      0xffffffffffffffffffffffffffffffffffffffff\n      and\n      eq\n        /* \"campaign.sol\":1408:1438  require(msg.sender == manager) */\n      tag_70\n      jumpi\n      0x00\n      dup1\n      revert\n    tag_70:\n        /* \"campaign.sol\":3466:3485  request storage req */\n      0x00\n        /* \"campaign.sol\":3488:3496  requests */\n      0x06\n        /* \"campaign.sol\":3488:3512  requests[req_number - 1] */\n      0x00\n        /* \"campaign.sol\":3510:3511  1 */\n      0x01\n        /* \"campaign.sol\":3497:3507  req_number */\n      dup5\n        /* \"campaign.sol\":3497:3511  req_number - 1 */\n      tag_72\n      swap2\n      swap1\n      tag_51\n      jump\t// in\n    tag_72:\n        /* \"campaign.sol\":3488:3512  requests[req_number - 1] */\n      dup2\n      mstore\n      0x20\n      add\n      swap1\n      dup2\n      mstore\n      0x20\n      add\n      0x00\n      keccak256\n        /* \"campaign.sol\":3466:3512  request storage req = requests[req_number - 1] */\n      swap1\n      pop\n        /* \"campaign.sol\":3574:3577  req */\n      dup1\n        /* \"campaign.sol\":3574:3589  req.isProcessed */\n      0x05\n      add\n      0x00\n      swap1\n      sload\n      swap1\n      0x0100\n      exp\n      swap1\n      div\n      0xff\n      and\n        /* \"campaign.sol\":3573:3589  !req.isProcessed */\n      iszero\n        /* \"campaign.sol\":3565:3590  require(!req.isProcessed) */\n      tag_73\n      jumpi\n      0x00\n      dup1\n      revert\n    tag_73:\n        /* \"campaign.sol\":3601:3611  uint total */\n      0x00\n        /* \"campaign.sol\":3614:3631  numberOfApprovers */\n      sload(0x05)\n        /* \"campaign.sol\":3601:3631  uint total = numberOfApprovers */\n      swap1\n      pop\n        /* \"campaign.sol\":3642:3653  uint denied */\n      0x00\n        /* \"campaign.sol\":3656:3659  req */\n      dup3\n        /* \"campaign.sol\":3656:3667  req.denials */\n      0x04\n      add\n      sload\n        /* \"campaign.sol\":3642:3667  uint denied = req.denials */\n      swap1\n      pop\n        /* \"campaign.sol\":3678:3693  uint percentage */\n      0x00\n        /* \"campaign.sol\":3709:3714  total */\n      dup3\n        /* \"campaign.sol\":3704:3707  100 */\n      0x64\n        /* \"campaign.sol\":3697:3703  denied */\n      dup4\n        /* \"campaign.sol\":3697:3707  denied*100 */\n      tag_74\n      swap2\n      swap1\n      tag_75\n      jump\t// in\n    tag_74:\n        /* \"campaign.sol\":3696:3714  (denied*100)/total */\n      tag_76\n      swap2\n      swap1\n      tag_77\n      jump\t// in\n    tag_76:\n        /* \"campaign.sol\":3678:3714  uint percentage = (denied*100)/total */\n      swap1\n      pop\n        /* \"campaign.sol\":3743:3747  true */\n      0x01\n        /* \"campaign.sol\":3725:3728  req */\n      dup5\n        /* \"campaign.sol\":3725:3740  req.isProcessed */\n      0x05\n      add\n      0x00\n        /* \"campaign.sol\":3725:3747  req.isProcessed = true */\n      0x0100\n      exp\n      dup2\n      sload\n      dup2\n      0xff\n      mul\n      not\n      and\n      swap1\n      dup4\n      iszero\n      iszero\n      mul\n      or\n      swap1\n      sstore\n      pop\n        /* \"campaign.sol\":3775:3791  approveThreshlod */\n      sload(0x04)\n        /* \"campaign.sol\":3761:3771  percentage */\n      dup2\n        /* \"campaign.sol\":3761:3791  percentage >= approveThreshlod */\n      lt\n        /* \"campaign.sol\":3758:3838  if(percentage >= approveThreshlod){\r... */\n      tag_78\n      jumpi\n        /* \"campaign.sol\":3822:3826  true */\n      0x01\n        /* \"campaign.sol\":3807:3810  req */\n      dup5\n        /* \"campaign.sol\":3807:3819  req.approved */\n      0x05\n      add\n      0x01\n        /* \"campaign.sol\":3807:3826  req.approved = true */\n      0x0100\n      exp\n      dup2\n      sload\n      dup2\n      0xff\n      mul\n      not\n      and\n      swap1\n      dup4\n      iszero\n      iszero\n      mul\n      or\n      swap1\n      sstore\n      pop\n        /* \"campaign.sol\":3758:3838  if(percentage >= approveThreshlod){\r... */\n    tag_78:\n        /* \"campaign.sol\":1449:1450  _ */\n      pop\n      pop\n      pop\n      pop\n        /* \"campaign.sol\":3184:3891  function checkApproval(uint req_number) public restricted{\r... */\n      pop\n      jump\t// out\n    tag_63:\n      dup3\n      dup1\n      sload\n      tag_79\n      swap1\n      tag_80\n      jump\t// in\n    tag_79:\n      swap1\n      0x00\n      mstore\n      keccak256(0x00, 0x20)\n      swap1\n      0x1f\n      add\n      0x20\n      swap1\n      div\n      dup2\n      add\n      swap3\n      dup3\n      tag_82\n      jumpi\n      0x00\n      dup6\n      sstore\n      jump(tag_81)\n    tag_82:\n      dup3\n      0x1f\n      lt\n      tag_83\n      jumpi\n      dup1\n      mload\n      not(0xff)\n      and\n      dup4\n      dup1\n      add\n      or\n      dup6\n      sstore\n      jump(tag_81)\n    tag_83:\n      dup3\n      dup1\n      add\n      0x01\n      add\n      dup6\n      sstore\n      dup3\n      iszero\n      tag_81\n      jumpi\n      swap2\n      dup3\n      add\n    tag_84:\n      dup3\n      dup2\n      gt\n      iszero\n      tag_85\n      jumpi\n      dup3\n      mload\n      dup3\n      sstore\n      swap2\n      0x20\n      add\n      swap2\n      swap1\n      0x01\n      add\n      swap1\n      jump(tag_84)\n    tag_85:\n    tag_81:\n      pop\n      swap1\n      pop\n      tag_86\n      swap2\n      swap1\n      tag_87\n      jump\t// in\n    tag_86:\n      pop\n      swap1\n      jump\t// out\n    tag_87:\n    tag_88:\n      dup1\n      dup3\n      gt\n      iszero\n      tag_89\n      jumpi\n      0x00\n      dup2\n      0x00\n      swap1\n      sstore\n      pop\n      0x01\n      add\n      jump(tag_88)\n    tag_89:\n      pop\n      swap1\n      jump\t// out\n        /* \"#utility.yul\":7:351   */\n    tag_91:\n      0x00\n        /* \"#utility.yul\":110:175   */\n      tag_93\n        /* \"#utility.yul\":125:174   */\n      tag_94\n        /* \"#utility.yul\":167:173   */\n      dup5\n        /* \"#utility.yul\":125:174   */\n      tag_95\n      jump\t// in\n    tag_94:\n        /* \"#utility.yul\":110:175   */\n      tag_96\n      jump\t// in\n    tag_93:\n        /* \"#utility.yul\":101:175   */\n      swap1\n      pop\n        /* \"#utility.yul\":198:204   */\n      dup3\n        /* \"#utility.yul\":191:196   */\n      dup2\n        /* \"#utility.yul\":184:205   */\n      mstore\n        /* \"#utility.yul\":236:240   */\n      0x20\n        /* \"#utility.yul\":229:234   */\n      dup2\n        /* \"#utility.yul\":225:241   */\n      add\n        /* \"#utility.yul\":274:277   */\n      dup5\n        /* \"#utility.yul\":265:271   */\n      dup5\n        /* \"#utility.yul\":260:263   */\n      dup5\n        /* \"#utility.yul\":256:272   */\n      add\n        /* \"#utility.yul\":253:278   */\n      gt\n        /* \"#utility.yul\":250:252   */\n      iszero\n      tag_97\n      jumpi\n        /* \"#utility.yul\":291:292   */\n      0x00\n        /* \"#utility.yul\":288:289   */\n      dup1\n        /* \"#utility.yul\":281:293   */\n      revert\n        /* \"#utility.yul\":250:252   */\n    tag_97:\n        /* \"#utility.yul\":304:345   */\n      tag_98\n        /* \"#utility.yul\":338:344   */\n      dup5\n        /* \"#utility.yul\":333:336   */\n      dup3\n        /* \"#utility.yul\":328:331   */\n      dup6\n        /* \"#utility.yul\":304:345   */\n      tag_99\n      jump\t// in\n    tag_98:\n        /* \"#utility.yul\":91:351   */\n      pop\n      swap4\n      swap3\n      pop\n      pop\n      pop\n      jump\t// out\n        /* \"#utility.yul\":357:496   */\n    tag_100:\n      0x00\n        /* \"#utility.yul\":441:447   */\n      dup2\n        /* \"#utility.yul\":428:448   */\n      calldataload\n        /* \"#utility.yul\":419:448   */\n      swap1\n      pop\n        /* \"#utility.yul\":457:490   */\n      tag_102\n        /* \"#utility.yul\":484:489   */\n      dup2\n        /* \"#utility.yul\":457:490   */\n      tag_103\n      jump\t// in\n    tag_102:\n        /* \"#utility.yul\":409:496   */\n      swap3\n      swap2\n      pop\n      pop\n      jump\t// out\n        /* \"#utility.yul\":502:635   */\n    tag_104:\n      0x00\n        /* \"#utility.yul\":583:589   */\n      dup2\n        /* \"#utility.yul\":570:590   */\n      calldataload\n        /* \"#utility.yul\":561:590   */\n      swap1\n      pop\n        /* \"#utility.yul\":599:629   */\n      tag_106\n        /* \"#utility.yul\":623:628   */\n      dup2\n        /* \"#utility.yul\":599:629   */\n      tag_107\n      jump\t// in\n    tag_106:\n        /* \"#utility.yul\":551:635   */\n      swap3\n      swap2\n      pop\n      pop\n      jump\t// out\n        /* \"#utility.yul\":655:928   */\n    tag_108:\n      0x00\n        /* \"#utility.yul\":760:763   */\n      dup3\n        /* \"#utility.yul\":753:757   */\n      0x1f\n        /* \"#utility.yul\":745:751   */\n      dup4\n        /* \"#utility.yul\":741:758   */\n      add\n        /* \"#utility.yul\":737:764   */\n      slt\n        /* \"#utility.yul\":727:729   */\n      tag_110\n      jumpi\n        /* \"#utility.yul\":778:779   */\n      0x00\n        /* \"#utility.yul\":775:776   */\n      dup1\n        /* \"#utility.yul\":768:780   */\n      revert\n        /* \"#utility.yul\":727:729   */\n    tag_110:\n        /* \"#utility.yul\":818:824   */\n      dup2\n        /* \"#utility.yul\":805:825   */\n      calldataload\n        /* \"#utility.yul\":843:922   */\n      tag_111\n        /* \"#utility.yul\":918:921   */\n      dup5\n        /* \"#utility.yul\":910:916   */\n      dup3\n        /* \"#utility.yul\":903:907   */\n      0x20\n        /* \"#utility.yul\":895:901   */\n      dup7\n        /* \"#utility.yul\":891:908   */\n      add\n        /* \"#utility.yul\":843:922   */\n      tag_91\n      jump\t// in\n    tag_111:\n        /* \"#utility.yul\":834:922   */\n      swap2\n      pop\n        /* \"#utility.yul\":717:928   */\n      pop\n      swap3\n      swap2\n      pop\n      pop\n      jump\t// out\n        /* \"#utility.yul\":934:1073   */\n    tag_112:\n      0x00\n        /* \"#utility.yul\":1018:1024   */\n      dup2\n        /* \"#utility.yul\":1005:1025   */\n      calldataload\n        /* \"#utility.yul\":996:1025   */\n      swap1\n      pop\n        /* \"#utility.yul\":1034:1067   */\n      tag_114\n        /* \"#utility.yul\":1061:1066   */\n      dup2\n        /* \"#utility.yul\":1034:1067   */\n      tag_115\n      jump\t// in\n    tag_114:\n        /* \"#utility.yul\":986:1073   */\n      swap3\n      swap2\n      pop\n      pop\n      jump\t// out\n        /* \"#utility.yul\":1079:1744   */\n    tag_34:\n      0x00\n      dup1\n      0x00\n        /* \"#utility.yul\":1231:1233   */\n      0x60\n        /* \"#utility.yul\":1219:1228   */\n      dup5\n        /* \"#utility.yul\":1210:1217   */\n      dup7\n        /* \"#utility.yul\":1206:1229   */\n      sub\n        /* \"#utility.yul\":1202:1234   */\n      slt\n        /* \"#utility.yul\":1199:1201   */\n      iszero\n      tag_117\n      jumpi\n        /* \"#utility.yul\":1247:1248   */\n      0x00\n        /* \"#utility.yul\":1244:1245   */\n      dup1\n        /* \"#utility.yul\":1237:1249   */\n      revert\n        /* \"#utility.yul\":1199:1201   */\n    tag_117:\n        /* \"#utility.yul\":1318:1319   */\n      0x00\n        /* \"#utility.yul\":1307:1316   */\n      dup5\n        /* \"#utility.yul\":1303:1320   */\n      add\n        /* \"#utility.yul\":1290:1321   */\n      calldataload\n        /* \"#utility.yul\":1348:1366   */\n      0xffffffffffffffff\n        /* \"#utility.yul\":1340:1346   */\n      dup2\n        /* \"#utility.yul\":1337:1367   */\n      gt\n        /* \"#utility.yul\":1334:1336   */\n      iszero\n      tag_118\n      jumpi\n        /* \"#utility.yul\":1380:1381   */\n      0x00\n        /* \"#utility.yul\":1377:1378   */\n      dup1\n        /* \"#utility.yul\":1370:1382   */\n      revert\n        /* \"#utility.yul\":1334:1336   */\n    tag_118:\n        /* \"#utility.yul\":1408:1471   */\n      tag_119\n        /* \"#utility.yul\":1463:1470   */\n      dup7\n        /* \"#utility.yul\":1454:1460   */\n      dup3\n        /* \"#utility.yul\":1443:1452   */\n      dup8\n        /* \"#utility.yul\":1439:1461   */\n      add\n        /* \"#utility.yul\":1408:1471   */\n      tag_108\n      jump\t// in\n    tag_119:\n        /* \"#utility.yul\":1398:1471   */\n      swap4\n      pop\n        /* \"#utility.yul\":1261:1481   */\n      pop\n        /* \"#utility.yul\":1520:1522   */\n      0x20\n        /* \"#utility.yul\":1546:1599   */\n      tag_120\n        /* \"#utility.yul\":1591:1598   */\n      dup7\n        /* \"#utility.yul\":1582:1588   */\n      dup3\n        /* \"#utility.yul\":1571:1580   */\n      dup8\n        /* \"#utility.yul\":1567:1589   */\n      add\n        /* \"#utility.yul\":1546:1599   */\n      tag_112\n      jump\t// in\n    tag_120:\n        /* \"#utility.yul\":1536:1599   */\n      swap3\n      pop\n        /* \"#utility.yul\":1491:1609   */\n      pop\n        /* \"#utility.yul\":1648:1650   */\n      0x40\n        /* \"#utility.yul\":1674:1727   */\n      tag_121\n        /* \"#utility.yul\":1719:1726   */\n      dup7\n        /* \"#utility.yul\":1710:1716   */\n      dup3\n        /* \"#utility.yul\":1699:1708   */\n      dup8\n        /* \"#utility.yul\":1695:1717   */\n      add\n        /* \"#utility.yul\":1674:1727   */\n      tag_100\n      jump\t// in\n    tag_121:\n        /* \"#utility.yul\":1664:1727   */\n      swap2\n      pop\n        /* \"#utility.yul\":1619:1737   */\n      pop\n        /* \"#utility.yul\":1189:1744   */\n      swap3\n      pop\n      swap3\n      pop\n      swap3\n      jump\t// out\n        /* \"#utility.yul\":1750:2012   */\n    tag_45:\n      0x00\n        /* \"#utility.yul\":1858:1860   */\n      0x20\n        /* \"#utility.yul\":1846:1855   */\n      dup3\n        /* \"#utility.yul\":1837:1844   */\n      dup5\n        /* \"#utility.yul\":1833:1856   */\n      sub\n        /* \"#utility.yul\":1829:1861   */\n      slt\n        /* \"#utility.yul\":1826:1828   */\n      iszero\n      tag_123\n      jumpi\n        /* \"#utility.yul\":1874:1875   */\n      0x00\n        /* \"#utility.yul\":1871:1872   */\n      dup1\n        /* \"#utility.yul\":1864:1876   */\n      revert\n        /* \"#utility.yul\":1826:1828   */\n    tag_123:\n        /* \"#utility.yul\":1917:1918   */\n      0x00\n        /* \"#utility.yul\":1942:1995   */\n      tag_124\n        /* \"#utility.yul\":1987:1994   */\n      dup5\n        /* \"#utility.yul\":1978:1984   */\n      dup3\n        /* \"#utility.yul\":1967:1976   */\n      dup6\n        /* \"#utility.yul\":1963:1985   */\n      add\n        /* \"#utility.yul\":1942:1995   */\n      tag_112\n      jump\t// in\n    tag_124:\n        /* \"#utility.yul\":1932:1995   */\n      swap2\n      pop\n        /* \"#utility.yul\":1888:2005   */\n      pop\n        /* \"#utility.yul\":1816:2012   */\n      swap3\n      swap2\n      pop\n      pop\n      jump\t// out\n        /* \"#utility.yul\":2018:2419   */\n    tag_29:\n      0x00\n      dup1\n        /* \"#utility.yul\":2140:2142   */\n      0x40\n        /* \"#utility.yul\":2128:2137   */\n      dup4\n        /* \"#utility.yul\":2119:2126   */\n      dup6\n        /* \"#utility.yul\":2115:2138   */\n      sub\n        /* \"#utility.yul\":2111:2143   */\n      slt\n        /* \"#utility.yul\":2108:2110   */\n      iszero\n      tag_126\n      jumpi\n        /* \"#utility.yul\":2156:2157   */\n      0x00\n        /* \"#utility.yul\":2153:2154   */\n      dup1\n        /* \"#utility.yul\":2146:2158   */\n      revert\n        /* \"#utility.yul\":2108:2110   */\n    tag_126:\n        /* \"#utility.yul\":2199:2200   */\n      0x00\n        /* \"#utility.yul\":2224:2277   */\n      tag_127\n        /* \"#utility.yul\":2269:2276   */\n      dup6\n        /* \"#utility.yul\":2260:2266   */\n      dup3\n        /* \"#utility.yul\":2249:2258   */\n      dup7\n        /* \"#utility.yul\":2245:2267   */\n      add\n        /* \"#utility.yul\":2224:2277   */\n      tag_112\n      jump\t// in\n    tag_127:\n        /* \"#utility.yul\":2214:2277   */\n      swap3\n      pop\n        /* \"#utility.yul\":2170:2287   */\n      pop\n        /* \"#utility.yul\":2326:2328   */\n      0x20\n        /* \"#utility.yul\":2352:2402   */\n      tag_128\n        /* \"#utility.yul\":2394:2401   */\n      dup6\n        /* \"#utility.yul\":2385:2391   */\n      dup3\n        /* \"#utility.yul\":2374:2383   */\n      dup7\n        /* \"#utility.yul\":2370:2392   */\n      add\n        /* \"#utility.yul\":2352:2402   */\n      tag_104\n      jump\t// in\n    tag_128:\n        /* \"#utility.yul\":2342:2402   */\n      swap2\n      pop\n        /* \"#utility.yul\":2297:2412   */\n      pop\n        /* \"#utility.yul\":2098:2419   */\n      swap3\n      pop\n      swap3\n      swap1\n      pop\n      jump\t// out\n        /* \"#utility.yul\":2425:2543   */\n    tag_129:\n        /* \"#utility.yul\":2512:2536   */\n      tag_131\n        /* \"#utility.yul\":2530:2535   */\n      dup2\n        /* \"#utility.yul\":2512:2536   */\n      tag_132\n      jump\t// in\n    tag_131:\n        /* \"#utility.yul\":2507:2510   */\n      dup3\n        /* \"#utility.yul\":2500:2537   */\n      mstore\n        /* \"#utility.yul\":2490:2543   */\n      pop\n      pop\n      jump\t// out\n        /* \"#utility.yul\":2549:2667   */\n    tag_133:\n        /* \"#utility.yul\":2636:2660   */\n      tag_135\n        /* \"#utility.yul\":2654:2659   */\n      dup2\n        /* \"#utility.yul\":2636:2660   */\n      tag_136\n      jump\t// in\n    tag_135:\n        /* \"#utility.yul\":2631:2634   */\n      dup3\n        /* \"#utility.yul\":2624:2661   */\n      mstore\n        /* \"#utility.yul\":2614:2667   */\n      pop\n      pop\n      jump\t// out\n        /* \"#utility.yul\":2673:2895   */\n    tag_25:\n      0x00\n        /* \"#utility.yul\":2804:2806   */\n      0x20\n        /* \"#utility.yul\":2793:2802   */\n      dup3\n        /* \"#utility.yul\":2789:2807   */\n      add\n        /* \"#utility.yul\":2781:2807   */\n      swap1\n      pop\n        /* \"#utility.yul\":2817:2888   */\n      tag_138\n        /* \"#utility.yul\":2885:2886   */\n      0x00\n        /* \"#utility.yul\":2874:2883   */\n      dup4\n        /* \"#utility.yul\":2870:2887   */\n      add\n        /* \"#utility.yul\":2861:2867   */\n      dup5\n        /* \"#utility.yul\":2817:2888   */\n      tag_129\n      jump\t// in\n    tag_138:\n        /* \"#utility.yul\":2771:2895   */\n      swap3\n      swap2\n      pop\n      pop\n      jump\t// out\n        /* \"#utility.yul\":2901:3123   */\n    tag_20:\n      0x00\n        /* \"#utility.yul\":3032:3034   */\n      0x20\n        /* \"#utility.yul\":3021:3030   */\n      dup3\n        /* \"#utility.yul\":3017:3035   */\n      add\n        /* \"#utility.yul\":3009:3035   */\n      swap1\n      pop\n        /* \"#utility.yul\":3045:3116   */\n      tag_140\n        /* \"#utility.yul\":3113:3114   */\n      0x00\n        /* \"#utility.yul\":3102:3111   */\n      dup4\n        /* \"#utility.yul\":3098:3115   */\n      add\n        /* \"#utility.yul\":3089:3095   */\n      dup5\n        /* \"#utility.yul\":3045:3116   */\n      tag_133\n      jump\t// in\n    tag_140:\n        /* \"#utility.yul\":2999:3123   */\n      swap3\n      swap2\n      pop\n      pop\n      jump\t// out\n        /* \"#utility.yul\":3129:3904   */\n    tag_15:\n      0x00\n        /* \"#utility.yul\":3400:3403   */\n      0xc0\n        /* \"#utility.yul\":3389:3398   */\n      dup3\n        /* \"#utility.yul\":3385:3404   */\n      add\n        /* \"#utility.yul\":3377:3404   */\n      swap1\n      pop\n        /* \"#utility.yul\":3414:3485   */\n      tag_142\n        /* \"#utility.yul\":3482:3483   */\n      0x00\n        /* \"#utility.yul\":3471:3480   */\n      dup4\n        /* \"#utility.yul\":3467:3484   */\n      add\n        /* \"#utility.yul\":3458:3464   */\n      dup10\n        /* \"#utility.yul\":3414:3485   */\n      tag_133\n      jump\t// in\n    tag_142:\n        /* \"#utility.yul\":3495:3567   */\n      tag_143\n        /* \"#utility.yul\":3563:3565   */\n      0x20\n        /* \"#utility.yul\":3552:3561   */\n      dup4\n        /* \"#utility.yul\":3548:3566   */\n      add\n        /* \"#utility.yul\":3539:3545   */\n      dup9\n        /* \"#utility.yul\":3495:3567   */\n      tag_133\n      jump\t// in\n    tag_143:\n        /* \"#utility.yul\":3577:3649   */\n      tag_144\n        /* \"#utility.yul\":3645:3647   */\n      0x40\n        /* \"#utility.yul\":3634:3643   */\n      dup4\n        /* \"#utility.yul\":3630:3648   */\n      add\n        /* \"#utility.yul\":3621:3627   */\n      dup8\n        /* \"#utility.yul\":3577:3649   */\n      tag_133\n      jump\t// in\n    tag_144:\n        /* \"#utility.yul\":3659:3731   */\n      tag_145\n        /* \"#utility.yul\":3727:3729   */\n      0x60\n        /* \"#utility.yul\":3716:3725   */\n      dup4\n        /* \"#utility.yul\":3712:3730   */\n      add\n        /* \"#utility.yul\":3703:3709   */\n      dup7\n        /* \"#utility.yul\":3659:3731   */\n      tag_133\n      jump\t// in\n    tag_145:\n        /* \"#utility.yul\":3741:3814   */\n      tag_146\n        /* \"#utility.yul\":3809:3812   */\n      0x80\n        /* \"#utility.yul\":3798:3807   */\n      dup4\n        /* \"#utility.yul\":3794:3813   */\n      add\n        /* \"#utility.yul\":3785:3791   */\n      dup6\n        /* \"#utility.yul\":3741:3814   */\n      tag_133\n      jump\t// in\n    tag_146:\n        /* \"#utility.yul\":3824:3897   */\n      tag_147\n        /* \"#utility.yul\":3892:3895   */\n      0xa0\n        /* \"#utility.yul\":3881:3890   */\n      dup4\n        /* \"#utility.yul\":3877:3896   */\n      add\n        /* \"#utility.yul\":3868:3874   */\n      dup5\n        /* \"#utility.yul\":3824:3897   */\n      tag_129\n      jump\t// in\n    tag_147:\n        /* \"#utility.yul\":3367:3904   */\n      swap8\n      swap7\n      pop\n      pop\n      pop\n      pop\n      pop\n      pop\n      pop\n      jump\t// out\n        /* \"#utility.yul\":3910:4193   */\n    tag_96:\n      0x00\n        /* \"#utility.yul\":3976:3978   */\n      0x40\n        /* \"#utility.yul\":3970:3979   */\n      mload\n        /* \"#utility.yul\":3960:3979   */\n      swap1\n      pop\n        /* \"#utility.yul\":4018:4022   */\n      dup2\n        /* \"#utility.yul\":4010:4016   */\n      dup2\n        /* \"#utility.yul\":4006:4023   */\n      add\n        /* \"#utility.yul\":4125:4131   */\n      dup2\n        /* \"#utility.yul\":4113:4123   */\n      dup2\n        /* \"#utility.yul\":4110:4132   */\n      lt\n        /* \"#utility.yul\":4089:4107   */\n      0xffffffffffffffff\n        /* \"#utility.yul\":4077:4087   */\n      dup3\n        /* \"#utility.yul\":4074:4108   */\n      gt\n        /* \"#utility.yul\":4071:4133   */\n      or\n        /* \"#utility.yul\":4068:4070   */\n      iszero\n      tag_149\n      jumpi\n        /* \"#utility.yul\":4136:4154   */\n      tag_150\n      tag_151\n      jump\t// in\n    tag_150:\n        /* \"#utility.yul\":4068:4070   */\n    tag_149:\n        /* \"#utility.yul\":4176:4186   */\n      dup1\n        /* \"#utility.yul\":4172:4174   */\n      0x40\n        /* \"#utility.yul\":4165:4187   */\n      mstore\n        /* \"#utility.yul\":3950:4193   */\n      pop\n      swap2\n      swap1\n      pop\n      jump\t// out\n        /* \"#utility.yul\":4199:4531   */\n    tag_95:\n      0x00\n        /* \"#utility.yul\":4351:4369   */\n      0xffffffffffffffff\n        /* \"#utility.yul\":4343:4349   */\n      dup3\n        /* \"#utility.yul\":4340:4370   */\n      gt\n        /* \"#utility.yul\":4337:4339   */\n      iszero\n      tag_153\n      jumpi\n        /* \"#utility.yul\":4373:4391   */\n      tag_154\n      tag_151\n      jump\t// in\n    tag_154:\n        /* \"#utility.yul\":4337:4339   */\n    tag_153:\n        /* \"#utility.yul\":4458:4462   */\n      0x1f\n        /* \"#utility.yul\":4454:4463   */\n      not\n        /* \"#utility.yul\":4447:4451   */\n      0x1f\n        /* \"#utility.yul\":4439:4445   */\n      dup4\n        /* \"#utility.yul\":4435:4452   */\n      add\n        /* \"#utility.yul\":4431:4464   */\n      and\n        /* \"#utility.yul\":4423:4464   */\n      swap1\n      pop\n        /* \"#utility.yul\":4519:4523   */\n      0x20\n        /* \"#utility.yul\":4513:4517   */\n      dup2\n        /* \"#utility.yul\":4509:4524   */\n      add\n        /* \"#utility.yul\":4501:4524   */\n      swap1\n      pop\n        /* \"#utility.yul\":4266:4531   */\n      swap2\n      swap1\n      pop\n      jump\t// out\n        /* \"#utility.yul\":4537:4842   */\n    tag_56:\n      0x00\n        /* \"#utility.yul\":4596:4616   */\n      tag_156\n        /* \"#utility.yul\":4614:4615   */\n      dup3\n        /* \"#utility.yul\":4596:4616   */\n      tag_136\n      jump\t// in\n    tag_156:\n        /* \"#utility.yul\":4591:4616   */\n      swap2\n      pop\n        /* \"#utility.yul\":4630:4650   */\n      tag_157\n        /* \"#utility.yul\":4648:4649   */\n      dup4\n        /* \"#utility.yul\":4630:4650   */\n      tag_136\n      jump\t// in\n    tag_157:\n        /* \"#utility.yul\":4625:4650   */\n      swap3\n      pop\n        /* \"#utility.yul\":4784:4785   */\n      dup3\n        /* \"#utility.yul\":4716:4782   */\n      0xffffffffffffffffffffffffffffffffffffffffffffffffffffffffffffffff\n        /* \"#utility.yul\":4712:4786   */\n      sub\n        /* \"#utility.yul\":4709:4710   */\n      dup3\n        /* \"#utility.yul\":4706:4787   */\n      gt\n        /* \"#utility.yul\":4703:4705   */\n      iszero\n      tag_158\n      jumpi\n        /* \"#utility.yul\":4790:4808   */\n      tag_159\n      tag_160\n      jump\t// in\n    tag_159:\n        /* \"#utility.yul\":4703:4705   */\n    tag_158:\n        /* \"#utility.yul\":4834:4835   */\n      dup3\n        /* \"#utility.yul\":4831:4832   */\n      dup3\n        /* \"#utility.yul\":4827:4836   */\n      add\n        /* \"#utility.yul\":4820:4836   */\n      swap1\n      pop\n        /* \"#utility.yul\":4581:4842   */\n      swap3\n      swap2\n      pop\n      pop\n      jump\t// out\n        /* \"#utility.yul\":4848:5033   */\n    tag_77:\n      0x00\n        /* \"#utility.yul\":4905:4925   */\n      tag_162\n        /* \"#utility.yul\":4923:4924   */\n      dup3\n        /* \"#utility.yul\":4905:4925   */\n      tag_136\n      jump\t// in\n    tag_162:\n        /* \"#utility.yul\":4900:4925   */\n      swap2\n      pop\n        /* \"#utility.yul\":4939:4959   */\n      tag_163\n        /* \"#utility.yul\":4957:4958   */\n      dup4\n        /* \"#utility.yul\":4939:4959   */\n      tag_136\n      jump\t// in\n    tag_163:\n        /* \"#utility.yul\":4934:4959   */\n      swap3\n      pop\n        /* \"#utility.yul\":4978:4979   */\n      dup3\n        /* \"#utility.yul\":4968:4970   */\n      tag_164\n      jumpi\n        /* \"#utility.yul\":4983:5001   */\n      tag_165\n      tag_166\n      jump\t// in\n    tag_165:\n        /* \"#utility.yul\":4968:4970   */\n    tag_164:\n        /* \"#utility.yul\":5025:5026   */\n      dup3\n        /* \"#utility.yul\":5022:5023   */\n      dup3\n        /* \"#utility.yul\":5018:5027   */\n      div\n        /* \"#utility.yul\":5013:5027   */\n      swap1\n      pop\n        /* \"#utility.yul\":4890:5033   */\n      swap3\n      swap2\n      pop\n      pop\n      jump\t// out\n        /* \"#utility.yul\":5039:5387   */\n    tag_75:\n      0x00\n        /* \"#utility.yul\":5102:5122   */\n      tag_168\n        /* \"#utility.yul\":5120:5121   */\n      dup3\n        /* \"#utility.yul\":5102:5122   */\n      tag_136\n      jump\t// in\n    tag_168:\n        /* \"#utility.yul\":5097:5122   */\n      swap2\n      pop\n        /* \"#utility.yul\":5136:5156   */\n      tag_169\n        /* \"#utility.yul\":5154:5155   */\n      dup4\n        /* \"#utility.yul\":5136:5156   */\n      tag_136\n      jump\t// in\n    tag_169:\n        /* \"#utility.yul\":5131:5156   */\n      swap3\n      pop\n        /* \"#utility.yul\":5324:5325   */\n      dup2\n        /* \"#utility.yul\":5256:5322   */\n      0xffffffffffffffffffffffffffffffffffffffffffffffffffffffffffffffff\n        /* \"#utility.yul\":5252:5326   */\n      div\n        /* \"#utility.yul\":5249:5250   */\n      dup4\n        /* \"#utility.yul\":5246:5327   */\n      gt\n        /* \"#utility.yul\":5241:5242   */\n      dup3\n        /* \"#utility.yul\":5234:5243   */\n      iszero\n        /* \"#utility.yul\":5227:5244   */\n      iszero\n        /* \"#utility.yul\":5223:5328   */\n      and\n        /* \"#utility.yul\":5220:5222   */\n      iszero\n      tag_170\n      jumpi\n        /* \"#utility.yul\":5331:5349   */\n      tag_171\n      tag_160\n      jump\t// in\n    tag_171:\n        /* \"#utility.yul\":5220:5222   */\n    tag_170:\n        /* \"#utility.yul\":5379:5380   */\n      dup3\n        /* \"#utility.yul\":5376:5377   */\n      dup3\n        /* \"#utility.yul\":5372:5381   */\n      mul\n        /* \"#utility.yul\":5361:5381   */\n      swap1\n      pop\n        /* \"#utility.yul\":5087:5387   */\n      swap3\n      swap2\n      pop\n      pop\n      jump\t// out\n        /* \"#utility.yul\":5393:5584   */\n    tag_51:\n      0x00\n        /* \"#utility.yul\":5453:5473   */\n      tag_173\n        /* \"#utility.yul\":5471:5472   */\n      dup3\n        /* \"#utility.yul\":5453:5473   */\n      tag_136\n      jump\t// in\n    tag_173:\n        /* \"#utility.yul\":5448:5473   */\n      swap2\n      pop\n        /* \"#utility.yul\":5487:5507   */\n      tag_174\n        /* \"#utility.yul\":5505:5506   */\n      dup4\n        /* \"#utility.yul\":5487:5507   */\n      tag_136\n      jump\t// in\n    tag_174:\n        /* \"#utility.yul\":5482:5507   */\n      swap3\n      pop\n        /* \"#utility.yul\":5526:5527   */\n      dup3\n        /* \"#utility.yul\":5523:5524   */\n      dup3\n        /* \"#utility.yul\":5520:5528   */\n      lt\n        /* \"#utility.yul\":5517:5519   */\n      iszero\n      tag_175\n      jumpi\n        /* \"#utility.yul\":5531:5549   */\n      tag_176\n      tag_160\n      jump\t// in\n    tag_176:\n        /* \"#utility.yul\":5517:5519   */\n    tag_175:\n        /* \"#utility.yul\":5576:5577   */\n      dup3\n        /* \"#utility.yul\":5573:5574   */\n      dup3\n        /* \"#utility.yul\":5569:5578   */\n      sub\n        /* \"#utility.yul\":5561:5578   */\n      swap1\n      pop\n        /* \"#utility.yul\":5438:5584   */\n      swap3\n      swap2\n      pop\n      pop\n      jump\t// out\n        /* \"#utility.yul\":5590:5686   */\n    tag_132:\n      0x00\n        /* \"#utility.yul\":5656:5680   */\n      tag_178\n        /* \"#utility.yul\":5674:5679   */\n      dup3\n        /* \"#utility.yul\":5656:5680   */\n      tag_179\n      jump\t// in\n    tag_178:\n        /* \"#utility.yul\":5645:5680   */\n      swap1\n      pop\n        /* \"#utility.yul\":5635:5686   */\n      swap2\n      swap1\n      pop\n      jump\t// out\n        /* \"#utility.yul\":5692:5782   */\n    tag_180:\n      0x00\n        /* \"#utility.yul\":5769:5774   */\n      dup2\n        /* \"#utility.yul\":5762:5775   */\n      iszero\n        /* \"#utility.yul\":5755:5776   */\n      iszero\n        /* \"#utility.yul\":5744:5776   */\n      swap1\n      pop\n        /* \"#utility.yul\":5734:5782   */\n      swap2\n      swap1\n      pop\n      jump\t// out\n        /* \"#utility.yul\":5788:5914   */\n    tag_179:\n      0x00\n        /* \"#utility.yul\":5865:5907   */\n      0xffffffffffffffffffffffffffffffffffffffff\n        /* \"#utility.yul\":5858:5863   */\n      dup3\n        /* \"#utility.yul\":5854:5908   */\n      and\n        /* \"#utility.yul\":5843:5908   */\n      swap1\n      pop\n        /* \"#utility.yul\":5833:5914   */\n      swap2\n      swap1\n      pop\n      jump\t// out\n        /* \"#utility.yul\":5920:5997   */\n    tag_136:\n      0x00\n        /* \"#utility.yul\":5986:5991   */\n      dup2\n        /* \"#utility.yul\":5975:5991   */\n      swap1\n      pop\n        /* \"#utility.yul\":5965:5997   */\n      swap2\n      swap1\n      pop\n      jump\t// out\n        /* \"#utility.yul\":6003:6157   */\n    tag_99:\n        /* \"#utility.yul\":6087:6093   */\n      dup3\n        /* \"#utility.yul\":6082:6085   */\n      dup2\n        /* \"#utility.yul\":6077:6080   */\n      dup4\n        /* \"#utility.yul\":6064:6094   */\n      calldatacopy\n        /* \"#utility.yul\":6149:6150   */\n      0x00\n        /* \"#utility.yul\":6140:6146   */\n      dup4\n        /* \"#utility.yul\":6135:6138   */\n      dup4\n        /* \"#utility.yul\":6131:6147   */\n      add\n        /* \"#utility.yul\":6124:6151   */\n      mstore\n        /* \"#utility.yul\":6054:6157   */\n      pop\n      pop\n      pop\n      jump\t// out\n        /* \"#utility.yul\":6163:6483   */\n    tag_80:\n      0x00\n        /* \"#utility.yul\":6244:6245   */\n      0x02\n        /* \"#utility.yul\":6238:6242   */\n      dup3\n        /* \"#utility.yul\":6234:6246   */\n      div\n        /* \"#utility.yul\":6224:6246   */\n      swap1\n      pop\n        /* \"#utility.yul\":6291:6292   */\n      0x01\n        /* \"#utility.yul\":6285:6289   */\n      dup3\n        /* \"#utility.yul\":6281:6293   */\n      and\n        /* \"#utility.yul\":6312:6330   */\n      dup1\n        /* \"#utility.yul\":6302:6304   */\n      tag_186\n      jumpi\n        /* \"#utility.yul\":6368:6372   */\n      0x7f\n        /* \"#utility.yul\":6360:6366   */\n      dup3\n        /* \"#utility.yul\":6356:6373   */\n      and\n        /* \"#utility.yul\":6346:6373   */\n      swap2\n      pop\n        /* \"#utility.yul\":6302:6304   */\n    tag_186:\n        /* \"#utility.yul\":6430:6432   */\n      0x20\n        /* \"#utility.yul\":6422:6428   */\n      dup3\n        /* \"#utility.yul\":6419:6433   */\n      lt\n        /* \"#utility.yul\":6399:6417   */\n      dup2\n        /* \"#utility.yul\":6396:6434   */\n      eq\n        /* \"#utility.yul\":6393:6395   */\n      iszero\n      tag_187\n      jumpi\n        /* \"#utility.yul\":6449:6467   */\n      tag_188\n      tag_189\n      jump\t// in\n    tag_188:\n        /* \"#utility.yul\":6393:6395   */\n    tag_187:\n        /* \"#utility.yul\":6214:6483   */\n      pop\n      swap2\n      swap1\n      pop\n      jump\t// out\n        /* \"#utility.yul\":6489:6722   */\n    tag_61:\n      0x00\n        /* \"#utility.yul\":6551:6575   */\n      tag_191\n        /* \"#utility.yul\":6569:6574   */\n      dup3\n        /* \"#utility.yul\":6551:6575   */\n      tag_136\n      jump\t// in\n    tag_191:\n        /* \"#utility.yul\":6542:6575   */\n      swap2\n      pop\n        /* \"#utility.yul\":6597:6663   */\n      0xffffffffffffffffffffffffffffffffffffffffffffffffffffffffffffffff\n        /* \"#utility.yul\":6590:6595   */\n      dup3\n        /* \"#utility.yul\":6587:6664   */\n      eq\n        /* \"#utility.yul\":6584:6586   */\n      iszero\n      tag_192\n      jumpi\n        /* \"#utility.yul\":6667:6685   */\n      tag_193\n      tag_160\n      jump\t// in\n    tag_193:\n        /* \"#utility.yul\":6584:6586   */\n    tag_192:\n        /* \"#utility.yul\":6714:6715   */\n      0x01\n        /* \"#utility.yul\":6707:6712   */\n      dup3\n        /* \"#utility.yul\":6703:6716   */\n      add\n        /* \"#utility.yul\":6696:6716   */\n      swap1\n      pop\n        /* \"#utility.yul\":6532:6722   */\n      swap2\n      swap1\n      pop\n      jump\t// out\n        /* \"#utility.yul\":6728:6908   */\n    tag_160:\n        /* \"#utility.yul\":6776:6853   */\n      0x4e487b7100000000000000000000000000000000000000000000000000000000\n        /* \"#utility.yul\":6773:6774   */\n      0x00\n        /* \"#utility.yul\":6766:6854   */\n      mstore\n        /* \"#utility.yul\":6873:6877   */\n      0x11\n        /* \"#utility.yul\":6870:6871   */\n      0x04\n        /* \"#utility.yul\":6863:6878   */\n      mstore\n        /* \"#utility.yul\":6897:6901   */\n      0x24\n        /* \"#utility.yul\":6894:6895   */\n      0x00\n        /* \"#utility.yul\":6887:6902   */\n      revert\n        /* \"#utility.yul\":6914:7094   */\n    tag_166:\n        /* \"#utility.yul\":6962:7039   */\n      0x4e487b7100000000000000000000000000000000000000000000000000000000\n        /* \"#utility.yul\":6959:6960   */\n      0x00\n        /* \"#utility.yul\":6952:7040   */\n      mstore\n        /* \"#utility.yul\":7059:7063   */\n      0x12\n        /* \"#utility.yul\":7056:7057   */\n      0x04\n        /* \"#utility.yul\":7049:7064   */\n      mstore\n        /* \"#utility.yul\":7083:7087   */\n      0x24\n        /* \"#utility.yul\":7080:7081   */\n      0x00\n        /* \"#utility.yul\":7073:7088   */\n      revert\n        /* \"#utility.yul\":7100:7280   */\n    tag_189:\n        /* \"#utility.yul\":7148:7225   */\n      0x4e487b7100000000000000000000000000000000000000000000000000000000\n        /* \"#utility.yul\":7145:7146   */\n      0x00\n        /* \"#utility.yul\":7138:7226   */\n      mstore\n        /* \"#utility.yul\":7245:7249   */\n      0x22\n        /* \"#utility.yul\":7242:7243   */\n      0x04\n        /* \"#utility.yul\":7235:7250   */\n      mstore\n        /* \"#utility.yul\":7269:7273   */\n      0x24\n        /* \"#utility.yul\":7266:7267   */\n      0x00\n        /* \"#utility.yul\":7259:7274   */\n      revert\n        /* \"#utility.yul\":7286:7466   */\n    tag_151:\n        /* \"#utility.yul\":7334:7411   */\n      0x4e487b7100000000000000000000000000000000000000000000000000000000\n        /* \"#utility.yul\":7331:7332   */\n      0x00\n        /* \"#utility.yul\":7324:7412   */\n      mstore\n        /* \"#utility.yul\":7431:7435   */\n      0x41\n        /* \"#utility.yul\":7428:7429   */\n      0x04\n        /* \"#utility.yul\":7421:7436   */\n      mstore\n        /* \"#utility.yul\":7455:7459   */\n      0x24\n        /* \"#utility.yul\":7452:7453   */\n      0x00\n        /* \"#utility.yul\":7445:7460   */\n      revert\n        /* \"#utility.yul\":7472:7594   */\n    tag_103:\n        /* \"#utility.yul\":7545:7569   */\n      tag_199\n        /* \"#utility.yul\":7563:7568   */\n      dup2\n        /* \"#utility.yul\":7545:7569   */\n      tag_132\n      jump\t// in\n    tag_199:\n        /* \"#utility.yul\":7538:7543   */\n      dup2\n        /* \"#utility.yul\":7535:7570   */\n      eq\n        /* \"#utility.yul\":7525:7527   */\n      tag_200\n      jumpi\n        /* \"#utility.yul\":7584:7585   */\n      0x00\n        /* \"#utility.yul\":7581:7582   */\n      dup1\n        /* \"#utility.yul\":7574:7586   */\n      revert\n        /* \"#utility.yul\":7525:7527   */\n    tag_200:\n        /* \"#utility.yul\":7515:7594   */\n      pop\n      jump\t// out\n        /* \"#utility.yul\":7600:7716   */\n    tag_107:\n        /* \"#utility.yul\":7670:7691   */\n      tag_202\n        /* \"#utility.yul\":7685:7690   */\n      dup2\n        /* \"#utility.yul\":7670:7691   */\n      tag_180\n      jump\t// in\n    tag_202:\n        /* \"#utility.yul\":7663:7668   */\n      dup2\n        /* \"#utility.yul\":7660:7692   */\n      eq\n        /* \"#utility.yul\":7650:7652   */\n      tag_203\n      jumpi\n        /* \"#utility.yul\":7706:7707   */\n      0x00\n        /* \"#utility.yul\":7703:7704   */\n      dup1\n        /* \"#utility.yul\":7696:7708   */\n      revert\n        /* \"#utility.yul\":7650:7652   */\n    tag_203:\n        /* \"#utility.yul\":7640:7716   */\n      pop\n      jump\t// out\n        /* \"#utility.yul\":7722:7844   */\n    tag_115:\n        /* \"#utility.yul\":7795:7819   */\n      tag_205\n        /* \"#utility.yul\":7813:7818   */\n      dup2\n        /* \"#utility.yul\":7795:7819   */\n      tag_136\n      jump\t// in\n    tag_205:\n        /* \"#utility.yul\":7788:7793   */\n      dup2\n        /* \"#utility.yul\":7785:7820   */\n      eq\n        /* \"#utility.yul\":7775:7777   */\n      tag_206\n      jumpi\n        /* \"#utility.yul\":7834:7835   */\n      0x00\n        /* \"#utility.yul\":7831:7832   */\n      dup1\n        /* \"#utility.yul\":7824:7836   */\n      revert\n        /* \"#utility.yul\":7775:7777   */\n    tag_206:\n        /* \"#utility.yul\":7765:7844   */\n      pop\n      jump\t// out\n\n    auxdata: 0xa26469706673582212206ed8a43fd71ad369274768ebd30f975ba52bcf4bd59bd79a43c7d23e0fdd655064736f6c63430008000033\n}\n","bytecode":{"linkReferences":{},"object":"60806040523480156200001157600080fd5b5060405162000e9f38038062000e9f8339818101604052810190620000379190620000cc565b806000806101000a81548173ffffffffffffffffffffffffffffffffffffffff021916908373ffffffffffffffffffffffffffffffffffffffff16021790555082600181905550816004819055506000600381905550600060058190555050505062000194565b600081519050620000af8162000160565b92915050565b600081519050620000c6816200017a565b92915050565b600080600060608486031215620000e257600080fd5b6000620000f286828701620000b5565b93505060206200010586828701620000b5565b925050604062000118868287016200009e565b9150509250925092565b60006200012f8262000136565b9050919050565b600073ffffffffffffffffffffffffffffffffffffffff82169050919050565b6000819050919050565b6200016b8162000122565b81146200017757600080fd5b50565b620001858162000156565b81146200019157600080fd5b50565b610cfb80620001a46000396000f3fe60806040526004361061007b5760003560e01c80638a9cfd551161004e5780638a9cfd551461012f578063aaffadf314610158578063d7bb99ba14610183578063fea21ce51461018d5761007b565b80632d8f1adc146100805780633fad1834146100b0578063481c6a75146100db578063767e0b9c14610106575b600080fd5b34801561008c57600080fd5b506100956101b6565b6040516100a79695949392919061091b565b60405180910390f35b3480156100bc57600080fd5b506100c5610201565b6040516100d29190610900565b60405180910390f35b3480156100e757600080fd5b506100f061020b565b6040516100fd91906108e5565b60405180910390f35b34801561011257600080fd5b5061012d6004803603810190610128919061088b565b61022f565b005b34801561013b57600080fd5b50610156600480360381019061015191906107fb565b610371565b005b34801561016457600080fd5b5061016d6104cd565b60405161017a9190610900565b60405180910390f35b61018b6104d3565b005b34801561019957600080fd5b506101b460048036038101906101af9190610862565b6105a3565b005b6000806000806000806003546004546001544760055460008054906101000a900473ffffffffffffffffffffffffffffffffffffffff16955095509550955095509550909192939495565b6000600354905090565b60008054906101000a900473ffffffffffffffffffffffffffffffffffffffff1681565b6000600660006001856102429190610abe565b815260200190815260200160002090508060050160009054906101000a900460ff161561026e57600080fd5b60008160060160003373ffffffffffffffffffffffffffffffffffffffff1673ffffffffffffffffffffffffffffffffffffffff16815260200190815260200160002054146102bc57600080fd5b816103255760018160040160008282546102d691906109dd565b9250508190555060028160060160003373ffffffffffffffffffffffffffffffffffffffff1673ffffffffffffffffffffffffffffffffffffffff168152602001908152602001600020819055505b60018160060160003373ffffffffffffffffffffffffffffffffffffffff1673ffffffffffffffffffffffffffffffffffffffff16815260200190815260200160002081905550505050565b60008054906101000a900473ffffffffffffffffffffffffffffffffffffffff1673ffffffffffffffffffffffffffffffffffffffff163373ffffffffffffffffffffffffffffffffffffffff16146103c957600080fd5b600060066000600360008154809291906103e290610b7b565b91905055815260200190815260200160002090508381600201908051906020019061040e9291906106b1565b50828160000181905550818160010160006101000a81548173ffffffffffffffffffffffffffffffffffffffff021916908373ffffffffffffffffffffffffffffffffffffffff160217905550600354816003018190555060008160050160006101000a81548160ff0219169083151502179055506000816004018190555060008160050160016101000a81548160ff02191690831515021790555060008160050160026101000a81548160ff02191690831515021790555050505050565b60015481565b6001543410156104e257600080fd5b6000600260003373ffffffffffffffffffffffffffffffffffffffff1673ffffffffffffffffffffffffffffffffffffffff1681526020019081526020016000206000015414156105485760016005600082825461054091906109dd565b925050819055505b34600260003373ffffffffffffffffffffffffffffffffffffffff1673ffffffffffffffffffffffffffffffffffffffff168152602001908152602001600020600001600082825461059a91906109dd565b92505081905550565b60008054906101000a900473ffffffffffffffffffffffffffffffffffffffff1673ffffffffffffffffffffffffffffffffffffffff163373ffffffffffffffffffffffffffffffffffffffff16146105fb57600080fd5b60006006600060018461060e9190610abe565b815260200190815260200160002090508060050160009054906101000a900460ff161561063a57600080fd5b6000600554905060008260040154905060008260648361065a9190610a64565b6106649190610a33565b905060018460050160006101000a81548160ff02191690831515021790555060045481106106aa5760018460050160016101000a81548160ff0219169083151502179055505b5050505050565b8280546106bd90610b49565b90600052602060002090601f0160209004810192826106df5760008555610726565b82601f106106f857805160ff1916838001178555610726565b82800160010185558215610726579182015b8281111561072557825182559160200191906001019061070a565b5b5090506107339190610737565b5090565b5b80821115610750576000816000905550600101610738565b5090565b6000610767610762846109ad565b61097c565b90508281526020810184848401111561077f57600080fd5b61078a848285610b3a565b509392505050565b6000813590506107a181610c80565b92915050565b6000813590506107b681610c97565b92915050565b600082601f8301126107cd57600080fd5b81356107dd848260208601610754565b91505092915050565b6000813590506107f581610cae565b92915050565b60008060006060848603121561081057600080fd5b600084013567ffffffffffffffff81111561082a57600080fd5b610836868287016107bc565b9350506020610847868287016107e6565b925050604061085886828701610792565b9150509250925092565b60006020828403121561087457600080fd5b6000610882848285016107e6565b91505092915050565b6000806040838503121561089e57600080fd5b60006108ac858286016107e6565b92505060206108bd858286016107a7565b9150509250929050565b6108d081610af2565b82525050565b6108df81610b30565b82525050565b60006020820190506108fa60008301846108c7565b92915050565b600060208201905061091560008301846108d6565b92915050565b600060c08201905061093060008301896108d6565b61093d60208301886108d6565b61094a60408301876108d6565b61095760608301866108d6565b61096460808301856108d6565b61097160a08301846108c7565b979650505050505050565b6000604051905081810181811067ffffffffffffffff821117156109a3576109a2610c51565b5b8060405250919050565b600067ffffffffffffffff8211156109c8576109c7610c51565b5b601f19601f8301169050602081019050919050565b60006109e882610b30565b91506109f383610b30565b9250827fffffffffffffffffffffffffffffffffffffffffffffffffffffffffffffffff03821115610a2857610a27610bc4565b5b828201905092915050565b6000610a3e82610b30565b9150610a4983610b30565b925082610a5957610a58610bf3565b5b828204905092915050565b6000610a6f82610b30565b9150610a7a83610b30565b9250817fffffffffffffffffffffffffffffffffffffffffffffffffffffffffffffffff0483118215151615610ab357610ab2610bc4565b5b828202905092915050565b6000610ac982610b30565b9150610ad483610b30565b925082821015610ae757610ae6610bc4565b5b828203905092915050565b6000610afd82610b10565b9050919050565b60008115159050919050565b600073ffffffffffffffffffffffffffffffffffffffff82169050919050565b6000819050919050565b82818337600083830152505050565b60006002820490506001821680610b6157607f821691505b60208210811415610b7557610b74610c22565b5b50919050565b6000610b8682610b30565b91507fffffffffffffffffffffffffffffffffffffffffffffffffffffffffffffffff821415610bb957610bb8610bc4565b5b600182019050919050565b7f4e487b7100000000000000000000000000000000000000000000000000000000600052601160045260246000fd5b7f4e487b7100000000000000000000000000000000000000000000000000000000600052601260045260246000fd5b7f4e487b7100000000000000000000000000000000000000000000000000000000600052602260045260246000fd5b7f4e487b7100000000000000000000000000000000000000000000000000000000600052604160045260246000fd5b610c8981610af2565b8114610c9457600080fd5b50565b610ca081610b04565b8114610cab57600080fd5b50565b610cb781610b30565b8114610cc257600080fd5b5056fea26469706673582212206ed8a43fd71ad369274768ebd30f975ba52bcf4bd59bd79a43c7d23e0fdd655064736f6c63430008000033","opcodes":"PUSH1 0x80 PUSH1 0x40 MSTORE CALLVALUE DUP1 ISZERO PUSH3 0x11 JUMPI PUSH1 0x0 DUP1 REVERT JUMPDEST POP PUSH1 0x40 MLOAD PUSH3 0xE9F CODESIZE SUB DUP1 PUSH3 0xE9F DUP4 CODECOPY DUP2 DUP2 ADD PUSH1 0x40 MSTORE DUP2 ADD SWAP1 PUSH3 0x37 SWAP2 SWAP1 PUSH3 0xCC JUMP JUMPDEST DUP1 PUSH1 0x0 DUP1 PUSH2 0x100 EXP DUP2 SLOAD DUP2 PUSH20 0xFFFFFFFFFFFFFFFFFFFFFFFFFFFFFFFFFFFFFFFF MUL NOT AND SWAP1 DUP4 PUSH20 0xFFFFFFFFFFFFFFFFFFFFFFFFFFFFFFFFFFFFFFFF AND MUL OR SWAP1 SSTORE POP DUP3 PUSH1 0x1 DUP2 SWAP1 SSTORE POP DUP2 PUSH1 0x4 DUP2 SWAP1 SSTORE POP PUSH1 0x0 PUSH1 0x3 DUP2 SWAP1 SSTORE POP PUSH1 0x0 PUSH1 0x5 DUP2 SWAP1 SSTORE POP POP POP POP PUSH3 0x194 JUMP JUMPDEST PUSH1 0x0 DUP2 MLOAD SWAP1 POP PUSH3 0xAF DUP2 PUSH3 0x160 JUMP JUMPDEST SWAP3 SWAP2 POP POP JUMP JUMPDEST PUSH1 0x0 DUP2 MLOAD SWAP1 POP PUSH3 0xC6 DUP2 PUSH3 0x17A JUMP JUMPDEST SWAP3 SWAP2 POP POP JUMP JUMPDEST PUSH1 0x0 DUP1 PUSH1 0x0 PUSH1 0x60 DUP5 DUP7 SUB SLT ISZERO PUSH3 0xE2 JUMPI PUSH1 0x0 DUP1 REVERT JUMPDEST PUSH1 0x0 PUSH3 0xF2 DUP7 DUP3 DUP8 ADD PUSH3 0xB5 JUMP JUMPDEST SWAP4 POP POP PUSH1 0x20 PUSH3 0x105 DUP7 DUP3 DUP8 ADD PUSH3 0xB5 JUMP JUMPDEST SWAP3 POP POP PUSH1 0x40 PUSH3 0x118 DUP7 DUP3 DUP8 ADD PUSH3 0x9E JUMP JUMPDEST SWAP2 POP POP SWAP3 POP SWAP3 POP SWAP3 JUMP JUMPDEST PUSH1 0x0 PUSH3 0x12F DUP3 PUSH3 0x136 JUMP JUMPDEST SWAP1 POP SWAP2 SWAP1 POP JUMP JUMPDEST PUSH1 0x0 PUSH20 0xFFFFFFFFFFFFFFFFFFFFFFFFFFFFFFFFFFFFFFFF DUP3 AND SWAP1 POP SWAP2 SWAP1 POP JUMP JUMPDEST PUSH1 0x0 DUP2 SWAP1 POP SWAP2 SWAP1 POP JUMP JUMPDEST PUSH3 0x16B DUP2 PUSH3 0x122 JUMP JUMPDEST DUP2 EQ PUSH3 0x177 JUMPI PUSH1 0x0 DUP1 REVERT JUMPDEST POP JUMP JUMPDEST PUSH3 0x185 DUP2 PUSH3 0x156 JUMP JUMPDEST DUP2 EQ PUSH3 0x191 JUMPI PUSH1 0x0 DUP1 REVERT JUMPDEST POP JUMP JUMPDEST PUSH2 0xCFB DUP1 PUSH3 0x1A4 PUSH1 0x0 CODECOPY PUSH1 0x0 RETURN INVALID PUSH1 0x80 PUSH1 0x40 MSTORE PUSH1 0x4 CALLDATASIZE LT PUSH2 0x7B JUMPI PUSH1 0x0 CALLDATALOAD PUSH1 0xE0 SHR DUP1 PUSH4 0x8A9CFD55 GT PUSH2 0x4E JUMPI DUP1 PUSH4 0x8A9CFD55 EQ PUSH2 0x12F JUMPI DUP1 PUSH4 0xAAFFADF3 EQ PUSH2 0x158 JUMPI DUP1 PUSH4 0xD7BB99BA EQ PUSH2 0x183 JUMPI DUP1 PUSH4 0xFEA21CE5 EQ PUSH2 0x18D JUMPI PUSH2 0x7B JUMP JUMPDEST DUP1 PUSH4 0x2D8F1ADC EQ PUSH2 0x80 JUMPI DUP1 PUSH4 0x3FAD1834 EQ PUSH2 0xB0 JUMPI DUP1 PUSH4 0x481C6A75 EQ PUSH2 0xDB JUMPI DUP1 PUSH4 0x767E0B9C EQ PUSH2 0x106 JUMPI JUMPDEST PUSH1 0x0 DUP1 REVERT JUMPDEST CALLVALUE DUP1 ISZERO PUSH2 0x8C JUMPI PUSH1 0x0 DUP1 REVERT JUMPDEST POP PUSH2 0x95 PUSH2 0x1B6 JUMP JUMPDEST PUSH1 0x40 MLOAD PUSH2 0xA7 SWAP7 SWAP6 SWAP5 SWAP4 SWAP3 SWAP2 SWAP1 PUSH2 0x91B JUMP JUMPDEST PUSH1 0x40 MLOAD DUP1 SWAP2 SUB SWAP1 RETURN JUMPDEST CALLVALUE DUP1 ISZERO PUSH2 0xBC JUMPI PUSH1 0x0 DUP1 REVERT JUMPDEST POP PUSH2 0xC5 PUSH2 0x201 JUMP JUMPDEST PUSH1 0x40 MLOAD PUSH2 0xD2 SWAP2 SWAP1 PUSH2 0x900 JUMP JUMPDEST PUSH1 0x40 MLOAD DUP1 SWAP2 SUB SWAP1 RETURN JUMPDEST CALLVALUE DUP1 ISZERO PUSH2 0xE7 JUMPI PUSH1 0x0 DUP1 REVERT JUMPDEST POP PUSH2 0xF0 PUSH2 0x20B JUMP JUMPDEST PUSH1 0x40 MLOAD PUSH2 0xFD SWAP2 SWAP1 PUSH2 0x8E5 JUMP JUMPDEST PUSH1 0x40 MLOAD DUP1 SWAP2 SUB SWAP1 RETURN JUMPDEST CALLVALUE DUP1 ISZERO PUSH2 0x112 JUMPI PUSH1 0x0 DUP1 REVERT JUMPDEST POP PUSH2 0x12D PUSH1 0x4 DUP1 CALLDATASIZE SUB DUP2 ADD SWAP1 PUSH2 0x128 SWAP2 SWAP1 PUSH2 0x88B JUMP JUMPDEST PUSH2 0x22F JUMP JUMPDEST STOP JUMPDEST CALLVALUE DUP1 ISZERO PUSH2 0x13B JUMPI PUSH1 0x0 DUP1 REVERT JUMPDEST POP PUSH2 0x156 PUSH1 0x4 DUP1 CALLDATASIZE SUB DUP2 ADD SWAP1 PUSH2 0x151 SWAP2 SWAP1 PUSH2 0x7FB JUMP JUMPDEST PUSH2 0x371 JUMP JUMPDEST STOP JUMPDEST CALLVALUE DUP1 ISZERO PUSH2 0x164 JUMPI PUSH1 0x0 DUP1 REVERT JUMPDEST POP PUSH2 0x16D PUSH2 0x4CD JUMP JUMPDEST PUSH1 0x40 MLOAD PUSH2 0x17A SWAP2 SWAP1 PUSH2 0x900 JUMP JUMPDEST PUSH1 0x40 MLOAD DUP1 SWAP2 SUB SWAP1 RETURN JUMPDEST PUSH2 0x18B PUSH2 0x4D3 JUMP JUMPDEST STOP JUMPDEST CALLVALUE DUP1 ISZERO PUSH2 0x199 JUMPI PUSH1 0x0 DUP1 REVERT JUMPDEST POP PUSH2 0x1B4 PUSH1 0x4 DUP1 CALLDATASIZE SUB DUP2 ADD SWAP1 PUSH2 0x1AF SWAP2 SWAP1 PUSH2 0x862 JUMP JUMPDEST PUSH2 0x5A3 JUMP JUMPDEST STOP JUMPDEST PUSH1 0x0 DUP1 PUSH1 0x0 DUP1 PUSH1 0x0 DUP1 PUSH1 0x3 SLOAD PUSH1 0x4 SLOAD PUSH1 0x1 SLOAD SELFBALANCE PUSH1 0x5 SLOAD PUSH1 0x0 DUP1 SLOAD SWAP1 PUSH2 0x100 EXP SWAP1 DIV PUSH20 0xFFFFFFFFFFFFFFFFFFFFFFFFFFFFFFFFFFFFFFFF AND SWAP6 POP SWAP6 POP SWAP6 POP SWAP6 POP SWAP6 POP SWAP6 POP SWAP1 SWAP2 SWAP3 SWAP4 SWAP5 SWAP6 JUMP JUMPDEST PUSH1 0x0 PUSH1 0x3 SLOAD SWAP1 POP SWAP1 JUMP JUMPDEST PUSH1 0x0 DUP1 SLOAD SWAP1 PUSH2 0x100 EXP SWAP1 DIV PUSH20 0xFFFFFFFFFFFFFFFFFFFFFFFFFFFFFFFFFFFFFFFF AND DUP2 JUMP JUMPDEST PUSH1 0x0 PUSH1 0x6 PUSH1 0x0 PUSH1 0x1 DUP6 PUSH2 0x242 SWAP2 SWAP1 PUSH2 0xABE JUMP JUMPDEST DUP2 MSTORE PUSH1 0x20 ADD SWAP1 DUP2 MSTORE PUSH1 0x20 ADD PUSH1 0x0 KECCAK256 SWAP1 POP DUP1 PUSH1 0x5 ADD PUSH1 0x0 SWAP1 SLOAD SWAP1 PUSH2 0x100 EXP SWAP1 DIV PUSH1 0xFF AND ISZERO PUSH2 0x26E JUMPI PUSH1 0x0 DUP1 REVERT JUMPDEST PUSH1 0x0 DUP2 PUSH1 0x6 ADD PUSH1 0x0 CALLER PUSH20 0xFFFFFFFFFFFFFFFFFFFFFFFFFFFFFFFFFFFFFFFF AND PUSH20 0xFFFFFFFFFFFFFFFFFFFFFFFFFFFFFFFFFFFFFFFF AND DUP2 MSTORE PUSH1 0x20 ADD SWAP1 DUP2 MSTORE PUSH1 0x20 ADD PUSH1 0x0 KECCAK256 SLOAD EQ PUSH2 0x2BC JUMPI PUSH1 0x0 DUP1 REVERT JUMPDEST DUP2 PUSH2 0x325 JUMPI PUSH1 0x1 DUP2 PUSH1 0x4 ADD PUSH1 0x0 DUP3 DUP3 SLOAD PUSH2 0x2D6 SWAP2 SWAP1 PUSH2 0x9DD JUMP JUMPDEST SWAP3 POP POP DUP2 SWAP1 SSTORE POP PUSH1 0x2 DUP2 PUSH1 0x6 ADD PUSH1 0x0 CALLER PUSH20 0xFFFFFFFFFFFFFFFFFFFFFFFFFFFFFFFFFFFFFFFF AND PUSH20 0xFFFFFFFFFFFFFFFFFFFFFFFFFFFFFFFFFFFFFFFF AND DUP2 MSTORE PUSH1 0x20 ADD SWAP1 DUP2 MSTORE PUSH1 0x20 ADD PUSH1 0x0 KECCAK256 DUP2 SWAP1 SSTORE POP JUMPDEST PUSH1 0x1 DUP2 PUSH1 0x6 ADD PUSH1 0x0 CALLER PUSH20 0xFFFFFFFFFFFFFFFFFFFFFFFFFFFFFFFFFFFFFFFF AND PUSH20 0xFFFFFFFFFFFFFFFFFFFFFFFFFFFFFFFFFFFFFFFF AND DUP2 MSTORE PUSH1 0x20 ADD SWAP1 DUP2 MSTORE PUSH1 0x20 ADD PUSH1 0x0 KECCAK256 DUP2 SWAP1 SSTORE POP POP POP POP JUMP JUMPDEST PUSH1 0x0 DUP1 SLOAD SWAP1 PUSH2 0x100 EXP SWAP1 DIV PUSH20 0xFFFFFFFFFFFFFFFFFFFFFFFFFFFFFFFFFFFFFFFF AND PUSH20 0xFFFFFFFFFFFFFFFFFFFFFFFFFFFFFFFFFFFFFFFF AND CALLER PUSH20 0xFFFFFFFFFFFFFFFFFFFFFFFFFFFFFFFFFFFFFFFF AND EQ PUSH2 0x3C9 JUMPI PUSH1 0x0 DUP1 REVERT JUMPDEST PUSH1 0x0 PUSH1 0x6 PUSH1 0x0 PUSH1 0x3 PUSH1 0x0 DUP2 SLOAD DUP1 SWAP3 SWAP2 SWAP1 PUSH2 0x3E2 SWAP1 PUSH2 0xB7B JUMP JUMPDEST SWAP2 SWAP1 POP SSTORE DUP2 MSTORE PUSH1 0x20 ADD SWAP1 DUP2 MSTORE PUSH1 0x20 ADD PUSH1 0x0 KECCAK256 SWAP1 POP DUP4 DUP2 PUSH1 0x2 ADD SWAP1 DUP1 MLOAD SWAP1 PUSH1 0x20 ADD SWAP1 PUSH2 0x40E SWAP3 SWAP2 SWAP1 PUSH2 0x6B1 JUMP JUMPDEST POP DUP3 DUP2 PUSH1 0x0 ADD DUP2 SWAP1 SSTORE POP DUP2 DUP2 PUSH1 0x1 ADD PUSH1 0x0 PUSH2 0x100 EXP DUP2 SLOAD DUP2 PUSH20 0xFFFFFFFFFFFFFFFFFFFFFFFFFFFFFFFFFFFFFFFF MUL NOT AND SWAP1 DUP4 PUSH20 0xFFFFFFFFFFFFFFFFFFFFFFFFFFFFFFFFFFFFFFFF AND MUL OR SWAP1 SSTORE POP PUSH1 0x3 SLOAD DUP2 PUSH1 0x3 ADD DUP2 SWAP1 SSTORE POP PUSH1 0x0 DUP2 PUSH1 0x5 ADD PUSH1 0x0 PUSH2 0x100 EXP DUP2 SLOAD DUP2 PUSH1 0xFF MUL NOT AND SWAP1 DUP4 ISZERO ISZERO MUL OR SWAP1 SSTORE POP PUSH1 0x0 DUP2 PUSH1 0x4 ADD DUP2 SWAP1 SSTORE POP PUSH1 0x0 DUP2 PUSH1 0x5 ADD PUSH1 0x1 PUSH2 0x100 EXP DUP2 SLOAD DUP2 PUSH1 0xFF MUL NOT AND SWAP1 DUP4 ISZERO ISZERO MUL OR SWAP1 SSTORE POP PUSH1 0x0 DUP2 PUSH1 0x5 ADD PUSH1 0x2 PUSH2 0x100 EXP DUP2 SLOAD DUP2 PUSH1 0xFF MUL NOT AND SWAP1 DUP4 ISZERO ISZERO MUL OR SWAP1 SSTORE POP POP POP POP POP JUMP JUMPDEST PUSH1 0x1 SLOAD DUP2 JUMP JUMPDEST PUSH1 0x1 SLOAD CALLVALUE LT ISZERO PUSH2 0x4E2 JUMPI PUSH1 0x0 DUP1 REVERT JUMPDEST PUSH1 0x0 PUSH1 0x2 PUSH1 0x0 CALLER PUSH20 0xFFFFFFFFFFFFFFFFFFFFFFFFFFFFFFFFFFFFFFFF AND PUSH20 0xFFFFFFFFFFFFFFFFFFFFFFFFFFFFFFFFFFFFFFFF AND DUP2 MSTORE PUSH1 0x20 ADD SWAP1 DUP2 MSTORE PUSH1 0x20 ADD PUSH1 0x0 KECCAK256 PUSH1 0x0 ADD SLOAD EQ ISZERO PUSH2 0x548 JUMPI PUSH1 0x1 PUSH1 0x5 PUSH1 0x0 DUP3 DUP3 SLOAD PUSH2 0x540 SWAP2 SWAP1 PUSH2 0x9DD JUMP JUMPDEST SWAP3 POP POP DUP2 SWAP1 SSTORE POP JUMPDEST CALLVALUE PUSH1 0x2 PUSH1 0x0 CALLER PUSH20 0xFFFFFFFFFFFFFFFFFFFFFFFFFFFFFFFFFFFFFFFF AND PUSH20 0xFFFFFFFFFFFFFFFFFFFFFFFFFFFFFFFFFFFFFFFF AND DUP2 MSTORE PUSH1 0x20 ADD SWAP1 DUP2 MSTORE PUSH1 0x20 ADD PUSH1 0x0 KECCAK256 PUSH1 0x0 ADD PUSH1 0x0 DUP3 DUP3 SLOAD PUSH2 0x59A SWAP2 SWAP1 PUSH2 0x9DD JUMP JUMPDEST SWAP3 POP POP DUP2 SWAP1 SSTORE POP JUMP JUMPDEST PUSH1 0x0 DUP1 SLOAD SWAP1 PUSH2 0x100 EXP SWAP1 DIV PUSH20 0xFFFFFFFFFFFFFFFFFFFFFFFFFFFFFFFFFFFFFFFF AND PUSH20 0xFFFFFFFFFFFFFFFFFFFFFFFFFFFFFFFFFFFFFFFF AND CALLER PUSH20 0xFFFFFFFFFFFFFFFFFFFFFFFFFFFFFFFFFFFFFFFF AND EQ PUSH2 0x5FB JUMPI PUSH1 0x0 DUP1 REVERT JUMPDEST PUSH1 0x0 PUSH1 0x6 PUSH1 0x0 PUSH1 0x1 DUP5 PUSH2 0x60E SWAP2 SWAP1 PUSH2 0xABE JUMP JUMPDEST DUP2 MSTORE PUSH1 0x20 ADD SWAP1 DUP2 MSTORE PUSH1 0x20 ADD PUSH1 0x0 KECCAK256 SWAP1 POP DUP1 PUSH1 0x5 ADD PUSH1 0x0 SWAP1 SLOAD SWAP1 PUSH2 0x100 EXP SWAP1 DIV PUSH1 0xFF AND ISZERO PUSH2 0x63A JUMPI PUSH1 0x0 DUP1 REVERT JUMPDEST PUSH1 0x0 PUSH1 0x5 SLOAD SWAP1 POP PUSH1 0x0 DUP3 PUSH1 0x4 ADD SLOAD SWAP1 POP PUSH1 0x0 DUP3 PUSH1 0x64 DUP4 PUSH2 0x65A SWAP2 SWAP1 PUSH2 0xA64 JUMP JUMPDEST PUSH2 0x664 SWAP2 SWAP1 PUSH2 0xA33 JUMP JUMPDEST SWAP1 POP PUSH1 0x1 DUP5 PUSH1 0x5 ADD PUSH1 0x0 PUSH2 0x100 EXP DUP2 SLOAD DUP2 PUSH1 0xFF MUL NOT AND SWAP1 DUP4 ISZERO ISZERO MUL OR SWAP1 SSTORE POP PUSH1 0x4 SLOAD DUP2 LT PUSH2 0x6AA JUMPI PUSH1 0x1 DUP5 PUSH1 0x5 ADD PUSH1 0x1 PUSH2 0x100 EXP DUP2 SLOAD DUP2 PUSH1 0xFF MUL NOT AND SWAP1 DUP4 ISZERO ISZERO MUL OR SWAP1 SSTORE POP JUMPDEST POP POP POP POP POP JUMP JUMPDEST DUP3 DUP1 SLOAD PUSH2 0x6BD SWAP1 PUSH2 0xB49 JUMP JUMPDEST SWAP1 PUSH1 0x0 MSTORE PUSH1 0x20 PUSH1 0x0 KECCAK256 SWAP1 PUSH1 0x1F ADD PUSH1 0x20 SWAP1 DIV DUP2 ADD SWAP3 DUP3 PUSH2 0x6DF JUMPI PUSH1 0x0 DUP6 SSTORE PUSH2 0x726 JUMP JUMPDEST DUP3 PUSH1 0x1F LT PUSH2 0x6F8 JUMPI DUP1 MLOAD PUSH1 0xFF NOT AND DUP4 DUP1 ADD OR DUP6 SSTORE PUSH2 0x726 JUMP JUMPDEST DUP3 DUP1 ADD PUSH1 0x1 ADD DUP6 SSTORE DUP3 ISZERO PUSH2 0x726 JUMPI SWAP2 DUP3 ADD JUMPDEST DUP3 DUP2 GT ISZERO PUSH2 0x725 JUMPI DUP3 MLOAD DUP3 SSTORE SWAP2 PUSH1 0x20 ADD SWAP2 SWAP1 PUSH1 0x1 ADD SWAP1 PUSH2 0x70A JUMP JUMPDEST JUMPDEST POP SWAP1 POP PUSH2 0x733 SWAP2 SWAP1 PUSH2 0x737 JUMP JUMPDEST POP SWAP1 JUMP JUMPDEST JUMPDEST DUP1 DUP3 GT ISZERO PUSH2 0x750 JUMPI PUSH1 0x0 DUP2 PUSH1 0x0 SWAP1 SSTORE POP PUSH1 0x1 ADD PUSH2 0x738 JUMP JUMPDEST POP SWAP1 JUMP JUMPDEST PUSH1 0x0 PUSH2 0x767 PUSH2 0x762 DUP5 PUSH2 0x9AD JUMP JUMPDEST PUSH2 0x97C JUMP JUMPDEST SWAP1 POP DUP3 DUP2 MSTORE PUSH1 0x20 DUP2 ADD DUP5 DUP5 DUP5 ADD GT ISZERO PUSH2 0x77F JUMPI PUSH1 0x0 DUP1 REVERT JUMPDEST PUSH2 0x78A DUP5 DUP3 DUP6 PUSH2 0xB3A JUMP JUMPDEST POP SWAP4 SWAP3 POP POP POP JUMP JUMPDEST PUSH1 0x0 DUP2 CALLDATALOAD SWAP1 POP PUSH2 0x7A1 DUP2 PUSH2 0xC80 JUMP JUMPDEST SWAP3 SWAP2 POP POP JUMP JUMPDEST PUSH1 0x0 DUP2 CALLDATALOAD SWAP1 POP PUSH2 0x7B6 DUP2 PUSH2 0xC97 JUMP JUMPDEST SWAP3 SWAP2 POP POP JUMP JUMPDEST PUSH1 0x0 DUP3 PUSH1 0x1F DUP4 ADD SLT PUSH2 0x7CD JUMPI PUSH1 0x0 DUP1 REVERT JUMPDEST DUP2 CALLDATALOAD PUSH2 0x7DD DUP5 DUP3 PUSH1 0x20 DUP7 ADD PUSH2 0x754 JUMP JUMPDEST SWAP2 POP POP SWAP3 SWAP2 POP POP JUMP JUMPDEST PUSH1 0x0 DUP2 CALLDATALOAD SWAP1 POP PUSH2 0x7F5 DUP2 PUSH2 0xCAE JUMP JUMPDEST SWAP3 SWAP2 POP POP JUMP JUMPDEST PUSH1 0x0 DUP1 PUSH1 0x0 PUSH1 0x60 DUP5 DUP7 SUB SLT ISZERO PUSH2 0x810 JUMPI PUSH1 0x0 DUP1 REVERT JUMPDEST PUSH1 0x0 DUP5 ADD CALLDATALOAD PUSH8 0xFFFFFFFFFFFFFFFF DUP2 GT ISZERO PUSH2 0x82A JUMPI PUSH1 0x0 DUP1 REVERT JUMPDEST PUSH2 0x836 DUP7 DUP3 DUP8 ADD PUSH2 0x7BC JUMP JUMPDEST SWAP4 POP POP PUSH1 0x20 PUSH2 0x847 DUP7 DUP3 DUP8 ADD PUSH2 0x7E6 JUMP JUMPDEST SWAP3 POP POP PUSH1 0x40 PUSH2 0x858 DUP7 DUP3 DUP8 ADD PUSH2 0x792 JUMP JUMPDEST SWAP2 POP POP SWAP3 POP SWAP3 POP SWAP3 JUMP JUMPDEST PUSH1 0x0 PUSH1 0x20 DUP3 DUP5 SUB SLT ISZERO PUSH2 0x874 JUMPI PUSH1 0x0 DUP1 REVERT JUMPDEST PUSH1 0x0 PUSH2 0x882 DUP5 DUP3 DUP6 ADD PUSH2 0x7E6 JUMP JUMPDEST SWAP2 POP POP SWAP3 SWAP2 POP POP JUMP JUMPDEST PUSH1 0x0 DUP1 PUSH1 0x40 DUP4 DUP6 SUB SLT ISZERO PUSH2 0x89E JUMPI PUSH1 0x0 DUP1 REVERT JUMPDEST PUSH1 0x0 PUSH2 0x8AC DUP6 DUP3 DUP7 ADD PUSH2 0x7E6 JUMP JUMPDEST SWAP3 POP POP PUSH1 0x20 PUSH2 0x8BD DUP6 DUP3 DUP7 ADD PUSH2 0x7A7 JUMP JUMPDEST SWAP2 POP POP SWAP3 POP SWAP3 SWAP1 POP JUMP JUMPDEST PUSH2 0x8D0 DUP2 PUSH2 0xAF2 JUMP JUMPDEST DUP3 MSTORE POP POP JUMP JUMPDEST PUSH2 0x8DF DUP2 PUSH2 0xB30 JUMP JUMPDEST DUP3 MSTORE POP POP JUMP JUMPDEST PUSH1 0x0 PUSH1 0x20 DUP3 ADD SWAP1 POP PUSH2 0x8FA PUSH1 0x0 DUP4 ADD DUP5 PUSH2 0x8C7 JUMP JUMPDEST SWAP3 SWAP2 POP POP JUMP JUMPDEST PUSH1 0x0 PUSH1 0x20 DUP3 ADD SWAP1 POP PUSH2 0x915 PUSH1 0x0 DUP4 ADD DUP5 PUSH2 0x8D6 JUMP JUMPDEST SWAP3 SWAP2 POP POP JUMP JUMPDEST PUSH1 0x0 PUSH1 0xC0 DUP3 ADD SWAP1 POP PUSH2 0x930 PUSH1 0x0 DUP4 ADD DUP10 PUSH2 0x8D6 JUMP JUMPDEST PUSH2 0x93D PUSH1 0x20 DUP4 ADD DUP9 PUSH2 0x8D6 JUMP JUMPDEST PUSH2 0x94A PUSH1 0x40 DUP4 ADD DUP8 PUSH2 0x8D6 JUMP JUMPDEST PUSH2 0x957 PUSH1 0x60 DUP4 ADD DUP7 PUSH2 0x8D6 JUMP JUMPDEST PUSH2 0x964 PUSH1 0x80 DUP4 ADD DUP6 PUSH2 0x8D6 JUMP JUMPDEST PUSH2 0x971 PUSH1 0xA0 DUP4 ADD DUP5 PUSH2 0x8C7 JUMP JUMPDEST SWAP8 SWAP7 POP POP POP POP POP POP POP JUMP JUMPDEST PUSH1 0x0 PUSH1 0x40 MLOAD SWAP1 POP DUP2 DUP2 ADD DUP2 DUP2 LT PUSH8 0xFFFFFFFFFFFFFFFF DUP3 GT OR ISZERO PUSH2 0x9A3 JUMPI PUSH2 0x9A2 PUSH2 0xC51 JUMP JUMPDEST JUMPDEST DUP1 PUSH1 0x40 MSTORE POP SWAP2 SWAP1 POP JUMP JUMPDEST PUSH1 0x0 PUSH8 0xFFFFFFFFFFFFFFFF DUP3 GT ISZERO PUSH2 0x9C8 JUMPI PUSH2 0x9C7 PUSH2 0xC51 JUMP JUMPDEST JUMPDEST PUSH1 0x1F NOT PUSH1 0x1F DUP4 ADD AND SWAP1 POP PUSH1 0x20 DUP2 ADD SWAP1 POP SWAP2 SWAP1 POP JUMP JUMPDEST PUSH1 0x0 PUSH2 0x9E8 DUP3 PUSH2 0xB30 JUMP JUMPDEST SWAP2 POP PUSH2 0x9F3 DUP4 PUSH2 0xB30 JUMP JUMPDEST SWAP3 POP DUP3 PUSH32 0xFFFFFFFFFFFFFFFFFFFFFFFFFFFFFFFFFFFFFFFFFFFFFFFFFFFFFFFFFFFFFFFF SUB DUP3 GT ISZERO PUSH2 0xA28 JUMPI PUSH2 0xA27 PUSH2 0xBC4 JUMP JUMPDEST JUMPDEST DUP3 DUP3 ADD SWAP1 POP SWAP3 SWAP2 POP POP JUMP JUMPDEST PUSH1 0x0 PUSH2 0xA3E DUP3 PUSH2 0xB30 JUMP JUMPDEST SWAP2 POP PUSH2 0xA49 DUP4 PUSH2 0xB30 JUMP JUMPDEST SWAP3 POP DUP3 PUSH2 0xA59 JUMPI PUSH2 0xA58 PUSH2 0xBF3 JUMP JUMPDEST JUMPDEST DUP3 DUP3 DIV SWAP1 POP SWAP3 SWAP2 POP POP JUMP JUMPDEST PUSH1 0x0 PUSH2 0xA6F DUP3 PUSH2 0xB30 JUMP JUMPDEST SWAP2 POP PUSH2 0xA7A DUP4 PUSH2 0xB30 JUMP JUMPDEST SWAP3 POP DUP2 PUSH32 0xFFFFFFFFFFFFFFFFFFFFFFFFFFFFFFFFFFFFFFFFFFFFFFFFFFFFFFFFFFFFFFFF DIV DUP4 GT DUP3 ISZERO ISZERO AND ISZERO PUSH2 0xAB3 JUMPI PUSH2 0xAB2 PUSH2 0xBC4 JUMP JUMPDEST JUMPDEST DUP3 DUP3 MUL SWAP1 POP SWAP3 SWAP2 POP POP JUMP JUMPDEST PUSH1 0x0 PUSH2 0xAC9 DUP3 PUSH2 0xB30 JUMP JUMPDEST SWAP2 POP PUSH2 0xAD4 DUP4 PUSH2 0xB30 JUMP JUMPDEST SWAP3 POP DUP3 DUP3 LT ISZERO PUSH2 0xAE7 JUMPI PUSH2 0xAE6 PUSH2 0xBC4 JUMP JUMPDEST JUMPDEST DUP3 DUP3 SUB SWAP1 POP SWAP3 SWAP2 POP POP JUMP JUMPDEST PUSH1 0x0 PUSH2 0xAFD DUP3 PUSH2 0xB10 JUMP JUMPDEST SWAP1 POP SWAP2 SWAP1 POP JUMP JUMPDEST PUSH1 0x0 DUP2 ISZERO ISZERO SWAP1 POP SWAP2 SWAP1 POP JUMP JUMPDEST PUSH1 0x0 PUSH20 0xFFFFFFFFFFFFFFFFFFFFFFFFFFFFFFFFFFFFFFFF DUP3 AND SWAP1 POP SWAP2 SWAP1 POP JUMP JUMPDEST PUSH1 0x0 DUP2 SWAP1 POP SWAP2 SWAP1 POP JUMP JUMPDEST DUP3 DUP2 DUP4 CALLDATACOPY PUSH1 0x0 DUP4 DUP4 ADD MSTORE POP POP POP JUMP JUMPDEST PUSH1 0x0 PUSH1 0x2 DUP3 DIV SWAP1 POP PUSH1 0x1 DUP3 AND DUP1 PUSH2 0xB61 JUMPI PUSH1 0x7F DUP3 AND SWAP2 POP JUMPDEST PUSH1 0x20 DUP3 LT DUP2 EQ ISZERO PUSH2 0xB75 JUMPI PUSH2 0xB74 PUSH2 0xC22 JUMP JUMPDEST JUMPDEST POP SWAP2 SWAP1 POP JUMP JUMPDEST PUSH1 0x0 PUSH2 0xB86 DUP3 PUSH2 0xB30 JUMP JUMPDEST SWAP2 POP PUSH32 0xFFFFFFFFFFFFFFFFFFFFFFFFFFFFFFFFFFFFFFFFFFFFFFFFFFFFFFFFFFFFFFFF DUP3 EQ ISZERO PUSH2 0xBB9 JUMPI PUSH2 0xBB8 PUSH2 0xBC4 JUMP JUMPDEST JUMPDEST PUSH1 0x1 DUP3 ADD SWAP1 POP SWAP2 SWAP1 POP JUMP JUMPDEST PUSH32 0x4E487B7100000000000000000000000000000000000000000000000000000000 PUSH1 0x0 MSTORE PUSH1 0x11 PUSH1 0x4 MSTORE PUSH1 0x24 PUSH1 0x0 REVERT JUMPDEST PUSH32 0x4E487B7100000000000000000000000000000000000000000000000000000000 PUSH1 0x0 MSTORE PUSH1 0x12 PUSH1 0x4 MSTORE PUSH1 0x24 PUSH1 0x0 REVERT JUMPDEST PUSH32 0x4E487B7100000000000000000000000000000000000000000000000000000000 PUSH1 0x0 MSTORE PUSH1 0x22 PUSH1 0x4 MSTORE PUSH1 0x24 PUSH1 0x0 REVERT JUMPDEST PUSH32 0x4E487B7100000000000000000000000000000000000000000000000000000000 PUSH1 0x0 MSTORE PUSH1 0x41 PUSH1 0x4 MSTORE PUSH1 0x24 PUSH1 0x0 REVERT JUMPDEST PUSH2 0xC89 DUP2 PUSH2 0xAF2 JUMP JUMPDEST DUP2 EQ PUSH2 0xC94 JUMPI PUSH1 0x0 DUP1 REVERT JUMPDEST POP JUMP JUMPDEST PUSH2 0xCA0 DUP2 PUSH2 0xB04 JUMP JUMPDEST DUP2 EQ PUSH2 0xCAB JUMPI PUSH1 0x0 DUP1 REVERT JUMPDEST POP JUMP JUMPDEST PUSH2 0xCB7 DUP2 PUSH2 0xB30 JUMP JUMPDEST DUP2 EQ PUSH2 0xCC2 JUMPI PUSH1 0x0 DUP1 REVERT JUMPDEST POP JUMP INVALID LOG2 PUSH5 0x6970667358 0x22 SLT KECCAK256 PUSH15 0xD8A43FD71AD369274768EBD30F975B 0xA5 0x2B 0xCF 0x4B 0xD5 SWAP12 0xD7 SWAP11 NUMBER 0xC7 0xD2 RETURNDATACOPY 0xF 0xDD PUSH6 0x5064736F6C63 NUMBER STOP ADDMOD STOP STOP CALLER "},"gasEstimates":{"creation":{"codeDepositCost":"664600","executionCost":"infinite","totalCost":"infinite"},"external":{"approveRequest(uint256,bool)":"infinite","checkApproval(uint256)":"infinite","contribute()":"infinite","createRequest(string,uint256,address)":"infinite","getRequestCount()":"1160","manager()":"1256","minContribution()":"1151","returnStats()":"infinite"}},"methodIdentifiers":{"approveRequest(uint256,bool)":"767e0b9c","checkApproval(uint256)":"fea21ce5","contribute()":"d7bb99ba","createRequest(string,uint256,address)":"8a9cfd55","getRequestCount()":"3fad1834","manager()":"481c6a75","minContribution()":"aaffadf3","returnStats()":"2d8f1adc"}},"storageLayout":{"storage":[{"astId":55,"contract":"campaign.sol:campaign","label":"manager","offset":0,"slot":"0","type":"t_address"},{"astId":57,"contract":"campaign.sol:campaign","label":"minContribution","offset":0,"slot":"1","type":"t_uint256"},{"astId":62,"contract":"campaign.sol:campaign","label":"approvers","offset":0,"slot":"2","type":"t_mapping(t_address,t_struct(approver)76_storage)"},{"astId":64,"contract":"campaign.sol:campaign","label":"reqNumber","offset":0,"slot":"3","type":"t_uint256"},{"astId":66,"contract":"campaign.sol:campaign","label":"approveThreshlod","offset":0,"slot":"4","type":"t_uint256"},{"astId":68,"contract":"campaign.sol:campaign","label":"numberOfApprovers","offset":0,"slot":"5","type":"t_uint256"},{"astId":73,"contract":"campaign.sol:campaign","label":"requests","offset":0,"slot":"6","type":"t_mapping(t_uint256,t_struct(request)97_storage)"}],"types":{"t_address":{"encoding":"inplace","label":"address","numberOfBytes":"20"},"t_bool":{"encoding":"inplace","label":"bool","numberOfBytes":"1"},"t_mapping(t_address,t_struct(approver)76_storage)":{"encoding":"mapping","key":"t_address","label":"mapping(address => struct campaign.approver)","numberOfBytes":"32","value":"t_struct(approver)76_storage"},"t_mapping(t_address,t_uint256)":{"encoding":"mapping","key":"t_address","label":"mapping(address => uint256)","numberOfBytes":"32","value":"t_uint256"},"t_mapping(t_uint256,t_struct(request)97_storage)":{"encoding":"mapping","key":"t_uint256","label":"mapping(uint256 => struct campaign.request)","numberOfBytes":"32","value":"t_struct(request)97_storage"},"t_string_storage":{"encoding":"bytes","label":"string","numberOfBytes":"32"},"t_struct(approver)76_storage":{"encoding":"inplace","label":"struct campaign.approver","members":[{"astId":75,"contract":"campaign.sol:campaign","label":"stakeValue","offset":0,"slot":"0","type":"t_uint256"}],"numberOfBytes":"32"},"t_struct(request)97_storage":{"encoding":"inplace","label":"struct campaign.request","members":[{"astId":78,"contract":"campaign.sol:campaign","label":"value","offset":0,"slot":"0","type":"t_uint256"},{"astId":80,"contract":"campaign.sol:campaign","label":"recipient","offset":0,"slot":"1","type":"t_address"},{"astId":82,"contract":"campaign.sol:campaign","label":"description","offset":0,"slot":"2","type":"t_string_storage"},{"astId":84,"contract":"campaign.sol:campaign","label":"index","offset":0,"slot":"3","type":"t_uint256"},{"astId":86,"contract":"campaign.sol:campaign","label":"denials","offset":0,"slot":"4","type":"t_uint256"},{"astId":88,"contract":"campaign.sol:campaign","label":"isProcessed","offset":0,"slot":"5","type":"t_bool"},{"astId":90,"contract":"campaign.sol:campaign","label":"approved","offset":1,"slot":"5","type":"t_bool"},{"astId":92,"contract":"campaign.sol:campaign","label":"isTransferred","offset":2,"slot":"5","type":"t_bool"},{"astId":96,"contract":"campaign.sol:campaign","label":"state","offset":0,"slot":"6","type":"t_mapping(t_address,t_uint256)"}],"numberOfBytes":"224"},"t_uint256":{"encoding":"inplace","label":"uint256","numberOfBytes":"32"}}},"userdoc":{"kind":"user","methods":{},"version":1}}