{"abi":[{"inputs":[],"stateMutability":"nonpayable","type":"constructor"},{"inputs":[{"internalType":"uint256","name":"min_val","type":"uint256"},{"internalType":"uint256","name":"threshold","type":"uint256"}],"name":"createCampaign","outputs":[],"stateMutability":"nonpayable","type":"function"},{"inputs":[{"internalType":"uint256","name":"","type":"uint256"}],"name":"deployedCampaigns","outputs":[{"internalType":"contract campaign","name":"","type":"address"}],"stateMutability":"view","type":"function"},{"inputs":[],"name":"getDeployedCampaigns","outputs":[{"internalType":"contract campaign[]","name":"","type":"address[]"}],"stateMutability":"view","type":"function"},{"inputs":[],"name":"manager","outputs":[{"internalType":"address","name":"","type":"address"}],"stateMutability":"view","type":"function"}],"devdoc":{"kind":"dev","methods":{},"version":1},"evm":{"assembly":"    /* \"campaign.sol\":120:632  contract factory{\r... */\n  mstore(0x40, 0x80)\n    /* \"campaign.sol\":214:266  constructor(){\r... */\n  callvalue\n  dup1\n  iszero\n  tag_1\n  jumpi\n  0x00\n  dup1\n  revert\ntag_1:\n  pop\n    /* \"campaign.sol\":248:258  msg.sender */\n  caller\n    /* \"campaign.sol\":238:245  manager */\n  0x00\n  dup1\n    /* \"campaign.sol\":238:258  manager = msg.sender */\n  0x0100\n  exp\n  dup2\n  sload\n  dup2\n  0xffffffffffffffffffffffffffffffffffffffff\n  mul\n  not\n  and\n  swap1\n  dup4\n  0xffffffffffffffffffffffffffffffffffffffff\n  and\n  mul\n  or\n  swap1\n  sstore\n  pop\n    /* \"campaign.sol\":120:632  contract factory{\r... */\n  dataSize(sub_0)\n  dup1\n  dataOffset(sub_0)\n  0x00\n  codecopy\n  0x00\n  return\nstop\n\nsub_0: assembly {\n        /* \"campaign.sol\":120:632  contract factory{\r... */\n      mstore(0x40, 0x80)\n      callvalue\n      dup1\n      iszero\n      tag_1\n      jumpi\n      0x00\n      dup1\n      revert\n    tag_1:\n      pop\n      jumpi(tag_2, lt(calldatasize, 0x04))\n      shr(0xe0, calldataload(0x00))\n      dup1\n      0x22502268\n      eq\n      tag_3\n      jumpi\n      dup1\n      0x339d50a5\n      eq\n      tag_4\n      jumpi\n      dup1\n      0x481c6a75\n      eq\n      tag_5\n      jumpi\n      dup1\n      0x4acb9d4f\n      eq\n      tag_6\n      jumpi\n    tag_2:\n      0x00\n      dup1\n      revert\n        /* \"campaign.sol\":272:509  function createCampaign(uint min_val, uint threshold) public{\r... */\n    tag_3:\n      tag_7\n      0x04\n      dup1\n      calldatasize\n      sub\n      dup2\n      add\n      swap1\n      tag_8\n      swap2\n      swap1\n      tag_9\n      jump\t// in\n    tag_8:\n      tag_10\n      jump\t// in\n    tag_7:\n      stop\n        /* \"campaign.sol\":172:207  campaign[] public deployedCampaigns */\n    tag_4:\n      tag_11\n      0x04\n      dup1\n      calldatasize\n      sub\n      dup2\n      add\n      swap1\n      tag_12\n      swap2\n      swap1\n      tag_13\n      jump\t// in\n    tag_12:\n      tag_14\n      jump\t// in\n    tag_11:\n      mload(0x40)\n      tag_15\n      swap2\n      swap1\n      tag_16\n      jump\t// in\n    tag_15:\n      mload(0x40)\n      dup1\n      swap2\n      sub\n      swap1\n      return\n        /* \"campaign.sol\":143:165  address public manager */\n    tag_5:\n      tag_17\n      tag_18\n      jump\t// in\n    tag_17:\n      mload(0x40)\n      tag_19\n      swap2\n      swap1\n      tag_20\n      jump\t// in\n    tag_19:\n      mload(0x40)\n      dup1\n      swap2\n      sub\n      swap1\n      return\n        /* \"campaign.sol\":515:629  function getDeployedCampaigns() public view returns(campaign[] memory) {\r... */\n    tag_6:\n      tag_21\n      tag_22\n      jump\t// in\n    tag_21:\n      mload(0x40)\n      tag_23\n      swap2\n      swap1\n      tag_24\n      jump\t// in\n    tag_23:\n      mload(0x40)\n      dup1\n      swap2\n      sub\n      swap1\n      return\n        /* \"campaign.sol\":272:509  function createCampaign(uint min_val, uint threshold) public{\r... */\n    tag_10:\n        /* \"campaign.sol\":387:407  campaign newCampaign */\n      0x00\n        /* \"campaign.sol\":423:430  min_val */\n      dup3\n        /* \"campaign.sol\":432:441  threshold */\n      dup3\n        /* \"campaign.sol\":443:453  msg.sender */\n      caller\n        /* \"campaign.sol\":410:454  new campaign(min_val, threshold, msg.sender) */\n      mload(0x40)\n      tag_26\n      swap1\n      tag_27\n      jump\t// in\n    tag_26:\n      tag_28\n      swap4\n      swap3\n      swap2\n      swap1\n      tag_29\n      jump\t// in\n    tag_28:\n      mload(0x40)\n      dup1\n      swap2\n      sub\n      swap1\n      0x00\n      create\n      dup1\n      iszero\n      dup1\n      iszero\n      tag_30\n      jumpi\n      returndatasize\n      0x00\n      dup1\n      returndatacopy\n      revert(0x00, returndatasize)\n    tag_30:\n      pop\n        /* \"campaign.sol\":387:454  campaign newCampaign = new campaign(min_val, threshold, msg.sender) */\n      swap1\n      pop\n        /* \"campaign.sol\":465:482  deployedCampaigns */\n      0x01\n        /* \"campaign.sol\":488:499  newCampaign */\n      dup2\n        /* \"campaign.sol\":465:500  deployedCampaigns.push(newCampaign) */\n      swap1\n      dup1\n      0x01\n      dup2\n      sload\n      add\n      dup1\n      dup3\n      sstore\n      dup1\n      swap2\n      pop\n      pop\n      0x01\n      swap1\n      sub\n      swap1\n      0x00\n      mstore\n      keccak256(0x00, 0x20)\n      add\n      0x00\n      swap1\n      swap2\n      swap1\n      swap2\n      swap1\n      swap2\n      0x0100\n      exp\n      dup2\n      sload\n      dup2\n      0xffffffffffffffffffffffffffffffffffffffff\n      mul\n      not\n      and\n      swap1\n      dup4\n      0xffffffffffffffffffffffffffffffffffffffff\n      and\n      mul\n      or\n      swap1\n      sstore\n      pop\n        /* \"campaign.sol\":272:509  function createCampaign(uint min_val, uint threshold) public{\r... */\n      pop\n      pop\n      pop\n      jump\t// out\n        /* \"campaign.sol\":172:207  campaign[] public deployedCampaigns */\n    tag_14:\n      0x01\n      dup2\n      dup2\n      sload\n      dup2\n      lt\n      tag_32\n      jumpi\n      0x00\n      dup1\n      revert\n    tag_32:\n      swap1\n      0x00\n      mstore\n      keccak256(0x00, 0x20)\n      add\n      0x00\n      swap2\n      pop\n      sload\n      swap1\n      0x0100\n      exp\n      swap1\n      div\n      0xffffffffffffffffffffffffffffffffffffffff\n      and\n      dup2\n      jump\t// out\n        /* \"campaign.sol\":143:165  address public manager */\n    tag_18:\n      0x00\n      dup1\n      sload\n      swap1\n      0x0100\n      exp\n      swap1\n      div\n      0xffffffffffffffffffffffffffffffffffffffff\n      and\n      dup2\n      jump\t// out\n        /* \"campaign.sol\":515:629  function getDeployedCampaigns() public view returns(campaign[] memory) {\r... */\n    tag_22:\n        /* \"campaign.sol\":567:584  campaign[] memory */\n      0x60\n        /* \"campaign.sol\":604:621  deployedCampaigns */\n      0x01\n        /* \"campaign.sol\":597:621  return deployedCampaigns */\n      dup1\n      sload\n      dup1\n      0x20\n      mul\n      0x20\n      add\n      mload(0x40)\n      swap1\n      dup2\n      add\n      0x40\n      mstore\n      dup1\n      swap3\n      swap2\n      swap1\n      dup2\n      dup2\n      mstore\n      0x20\n      add\n      dup3\n      dup1\n      sload\n      dup1\n      iszero\n      tag_35\n      jumpi\n      0x20\n      mul\n      dup3\n      add\n      swap2\n      swap1\n      0x00\n      mstore\n      keccak256(0x00, 0x20)\n      swap1\n    tag_36:\n      dup2\n      0x00\n      swap1\n      sload\n      swap1\n      0x0100\n      exp\n      swap1\n      div\n      0xffffffffffffffffffffffffffffffffffffffff\n      and\n      0xffffffffffffffffffffffffffffffffffffffff\n      and\n      dup2\n      mstore\n      0x20\n      add\n      swap1\n      0x01\n      add\n      swap1\n      dup1\n      dup4\n      gt\n      tag_36\n      jumpi\n    tag_35:\n      pop\n      pop\n      pop\n      pop\n      pop\n      swap1\n      pop\n        /* \"campaign.sol\":515:629  function getDeployedCampaigns() public view returns(campaign[] memory) {\r... */\n      swap1\n      jump\t// out\n    tag_27:\n      dataSize(sub_0)\n      dup1\n      dataOffset(sub_0)\n      dup4\n      codecopy\n      add\n      swap1\n      jump\t// out\n        /* \"#utility.yul\":7:146   */\n    tag_38:\n      0x00\n        /* \"#utility.yul\":91:97   */\n      dup2\n        /* \"#utility.yul\":78:98   */\n      calldataload\n        /* \"#utility.yul\":69:98   */\n      swap1\n      pop\n        /* \"#utility.yul\":107:140   */\n      tag_40\n        /* \"#utility.yul\":134:139   */\n      dup2\n        /* \"#utility.yul\":107:140   */\n      tag_41\n      jump\t// in\n    tag_40:\n        /* \"#utility.yul\":59:146   */\n      swap3\n      swap2\n      pop\n      pop\n      jump\t// out\n        /* \"#utility.yul\":152:414   */\n    tag_13:\n      0x00\n        /* \"#utility.yul\":260:262   */\n      0x20\n        /* \"#utility.yul\":248:257   */\n      dup3\n        /* \"#utility.yul\":239:246   */\n      dup5\n        /* \"#utility.yul\":235:258   */\n      sub\n        /* \"#utility.yul\":231:263   */\n      slt\n        /* \"#utility.yul\":228:230   */\n      iszero\n      tag_43\n      jumpi\n        /* \"#utility.yul\":276:277   */\n      0x00\n        /* \"#utility.yul\":273:274   */\n      dup1\n        /* \"#utility.yul\":266:278   */\n      revert\n        /* \"#utility.yul\":228:230   */\n    tag_43:\n        /* \"#utility.yul\":319:320   */\n      0x00\n        /* \"#utility.yul\":344:397   */\n      tag_44\n        /* \"#utility.yul\":389:396   */\n      dup5\n        /* \"#utility.yul\":380:386   */\n      dup3\n        /* \"#utility.yul\":369:378   */\n      dup6\n        /* \"#utility.yul\":365:387   */\n      add\n        /* \"#utility.yul\":344:397   */\n      tag_38\n      jump\t// in\n    tag_44:\n        /* \"#utility.yul\":334:397   */\n      swap2\n      pop\n        /* \"#utility.yul\":290:407   */\n      pop\n        /* \"#utility.yul\":218:414   */\n      swap3\n      swap2\n      pop\n      pop\n      jump\t// out\n        /* \"#utility.yul\":420:827   */\n    tag_9:\n      0x00\n      dup1\n        /* \"#utility.yul\":545:547   */\n      0x40\n        /* \"#utility.yul\":533:542   */\n      dup4\n        /* \"#utility.yul\":524:531   */\n      dup6\n        /* \"#utility.yul\":520:543   */\n      sub\n        /* \"#utility.yul\":516:548   */\n      slt\n        /* \"#utility.yul\":513:515   */\n      iszero\n      tag_46\n      jumpi\n        /* \"#utility.yul\":561:562   */\n      0x00\n        /* \"#utility.yul\":558:559   */\n      dup1\n        /* \"#utility.yul\":551:563   */\n      revert\n        /* \"#utility.yul\":513:515   */\n    tag_46:\n        /* \"#utility.yul\":604:605   */\n      0x00\n        /* \"#utility.yul\":629:682   */\n      tag_47\n        /* \"#utility.yul\":674:681   */\n      dup6\n        /* \"#utility.yul\":665:671   */\n      dup3\n        /* \"#utility.yul\":654:663   */\n      dup7\n        /* \"#utility.yul\":650:672   */\n      add\n        /* \"#utility.yul\":629:682   */\n      tag_38\n      jump\t// in\n    tag_47:\n        /* \"#utility.yul\":619:682   */\n      swap3\n      pop\n        /* \"#utility.yul\":575:692   */\n      pop\n        /* \"#utility.yul\":731:733   */\n      0x20\n        /* \"#utility.yul\":757:810   */\n      tag_48\n        /* \"#utility.yul\":802:809   */\n      dup6\n        /* \"#utility.yul\":793:799   */\n      dup3\n        /* \"#utility.yul\":782:791   */\n      dup7\n        /* \"#utility.yul\":778:800   */\n      add\n        /* \"#utility.yul\":757:810   */\n      tag_38\n      jump\t// in\n    tag_48:\n        /* \"#utility.yul\":747:810   */\n      swap2\n      pop\n        /* \"#utility.yul\":702:820   */\n      pop\n        /* \"#utility.yul\":503:827   */\n      swap3\n      pop\n      swap3\n      swap1\n      pop\n      jump\t// out\n        /* \"#utility.yul\":833:1044   */\n    tag_49:\n      0x00\n        /* \"#utility.yul\":939:1001   */\n      tag_51\n        /* \"#utility.yul\":997:1000   */\n      dup4\n        /* \"#utility.yul\":989:995   */\n      dup4\n        /* \"#utility.yul\":939:1001   */\n      tag_52\n      jump\t// in\n    tag_51:\n        /* \"#utility.yul\":1033:1037   */\n      0x20\n        /* \"#utility.yul\":1028:1031   */\n      dup4\n        /* \"#utility.yul\":1024:1038   */\n      add\n        /* \"#utility.yul\":1010:1038   */\n      swap1\n      pop\n        /* \"#utility.yul\":929:1044   */\n      swap3\n      swap2\n      pop\n      pop\n      jump\t// out\n        /* \"#utility.yul\":1050:1168   */\n    tag_53:\n        /* \"#utility.yul\":1137:1161   */\n      tag_55\n        /* \"#utility.yul\":1155:1160   */\n      dup2\n        /* \"#utility.yul\":1137:1161   */\n      tag_56\n      jump\t// in\n    tag_55:\n        /* \"#utility.yul\":1132:1135   */\n      dup3\n        /* \"#utility.yul\":1125:1162   */\n      mstore\n        /* \"#utility.yul\":1115:1168   */\n      pop\n      pop\n      jump\t// out\n        /* \"#utility.yul\":1214:2026   */\n    tag_57:\n      0x00\n        /* \"#utility.yul\":1378:1448   */\n      tag_59\n        /* \"#utility.yul\":1442:1447   */\n      dup3\n        /* \"#utility.yul\":1378:1448   */\n      tag_60\n      jump\t// in\n    tag_59:\n        /* \"#utility.yul\":1464:1550   */\n      tag_61\n        /* \"#utility.yul\":1543:1549   */\n      dup2\n        /* \"#utility.yul\":1538:1541   */\n      dup6\n        /* \"#utility.yul\":1464:1550   */\n      tag_62\n      jump\t// in\n    tag_61:\n        /* \"#utility.yul\":1457:1550   */\n      swap4\n      pop\n        /* \"#utility.yul\":1574:1646   */\n      tag_63\n        /* \"#utility.yul\":1640:1645   */\n      dup4\n        /* \"#utility.yul\":1574:1646   */\n      tag_64\n      jump\t// in\n    tag_63:\n        /* \"#utility.yul\":1669:1676   */\n      dup1\n        /* \"#utility.yul\":1700:1701   */\n      0x00\n        /* \"#utility.yul\":1685:2001   */\n    tag_65:\n        /* \"#utility.yul\":1710:1716   */\n      dup4\n        /* \"#utility.yul\":1707:1708   */\n      dup2\n        /* \"#utility.yul\":1704:1717   */\n      lt\n        /* \"#utility.yul\":1685:2001   */\n      iszero\n      tag_67\n      jumpi\n        /* \"#utility.yul\":1786:1792   */\n      dup2\n        /* \"#utility.yul\":1780:1793   */\n      mload\n        /* \"#utility.yul\":1813:1892   */\n      tag_68\n        /* \"#utility.yul\":1888:1891   */\n      dup9\n        /* \"#utility.yul\":1873:1886   */\n      dup3\n        /* \"#utility.yul\":1813:1892   */\n      tag_49\n      jump\t// in\n    tag_68:\n        /* \"#utility.yul\":1806:1892   */\n      swap8\n      pop\n        /* \"#utility.yul\":1915:1991   */\n      tag_69\n        /* \"#utility.yul\":1984:1990   */\n      dup4\n        /* \"#utility.yul\":1915:1991   */\n      tag_70\n      jump\t// in\n    tag_69:\n        /* \"#utility.yul\":1905:1991   */\n      swap3\n      pop\n        /* \"#utility.yul\":1745:2001   */\n      pop\n        /* \"#utility.yul\":1732:1733   */\n      0x01\n        /* \"#utility.yul\":1729:1730   */\n      dup2\n        /* \"#utility.yul\":1725:1734   */\n      add\n        /* \"#utility.yul\":1720:1734   */\n      swap1\n      pop\n        /* \"#utility.yul\":1685:2001   */\n      jump(tag_65)\n    tag_67:\n        /* \"#utility.yul\":1689:1703   */\n      pop\n        /* \"#utility.yul\":2017:2020   */\n      dup6\n        /* \"#utility.yul\":2010:2020   */\n      swap4\n      pop\n        /* \"#utility.yul\":1354:2026   */\n      pop\n      pop\n      pop\n      swap3\n      swap2\n      pop\n      pop\n      jump\t// out\n        /* \"#utility.yul\":2032:2185   */\n    tag_52:\n        /* \"#utility.yul\":2125:2178   */\n      tag_72\n        /* \"#utility.yul\":2172:2177   */\n      dup2\n        /* \"#utility.yul\":2125:2178   */\n      tag_73\n      jump\t// in\n    tag_72:\n        /* \"#utility.yul\":2120:2123   */\n      dup3\n        /* \"#utility.yul\":2113:2179   */\n      mstore\n        /* \"#utility.yul\":2103:2185   */\n      pop\n      pop\n      jump\t// out\n        /* \"#utility.yul\":2191:2354   */\n    tag_74:\n        /* \"#utility.yul\":2294:2347   */\n      tag_76\n        /* \"#utility.yul\":2341:2346   */\n      dup2\n        /* \"#utility.yul\":2294:2347   */\n      tag_73\n      jump\t// in\n    tag_76:\n        /* \"#utility.yul\":2289:2292   */\n      dup3\n        /* \"#utility.yul\":2282:2348   */\n      mstore\n        /* \"#utility.yul\":2272:2354   */\n      pop\n      pop\n      jump\t// out\n        /* \"#utility.yul\":2360:2478   */\n    tag_77:\n        /* \"#utility.yul\":2447:2471   */\n      tag_79\n        /* \"#utility.yul\":2465:2470   */\n      dup2\n        /* \"#utility.yul\":2447:2471   */\n      tag_80\n      jump\t// in\n    tag_79:\n        /* \"#utility.yul\":2442:2445   */\n      dup3\n        /* \"#utility.yul\":2435:2472   */\n      mstore\n        /* \"#utility.yul\":2425:2478   */\n      pop\n      pop\n      jump\t// out\n        /* \"#utility.yul\":2484:2706   */\n    tag_20:\n      0x00\n        /* \"#utility.yul\":2615:2617   */\n      0x20\n        /* \"#utility.yul\":2604:2613   */\n      dup3\n        /* \"#utility.yul\":2600:2618   */\n      add\n        /* \"#utility.yul\":2592:2618   */\n      swap1\n      pop\n        /* \"#utility.yul\":2628:2699   */\n      tag_82\n        /* \"#utility.yul\":2696:2697   */\n      0x00\n        /* \"#utility.yul\":2685:2694   */\n      dup4\n        /* \"#utility.yul\":2681:2698   */\n      add\n        /* \"#utility.yul\":2672:2678   */\n      dup5\n        /* \"#utility.yul\":2628:2699   */\n      tag_53\n      jump\t// in\n    tag_82:\n        /* \"#utility.yul\":2582:2706   */\n      swap3\n      swap2\n      pop\n      pop\n      jump\t// out\n        /* \"#utility.yul\":2712:3117   */\n    tag_24:\n      0x00\n        /* \"#utility.yul\":2909:2911   */\n      0x20\n        /* \"#utility.yul\":2898:2907   */\n      dup3\n        /* \"#utility.yul\":2894:2912   */\n      add\n        /* \"#utility.yul\":2886:2912   */\n      swap1\n      pop\n        /* \"#utility.yul\":2958:2967   */\n      dup2\n        /* \"#utility.yul\":2952:2956   */\n      dup2\n        /* \"#utility.yul\":2948:2968   */\n      sub\n        /* \"#utility.yul\":2944:2945   */\n      0x00\n        /* \"#utility.yul\":2933:2942   */\n      dup4\n        /* \"#utility.yul\":2929:2946   */\n      add\n        /* \"#utility.yul\":2922:2969   */\n      mstore\n        /* \"#utility.yul\":2986:3110   */\n      tag_84\n        /* \"#utility.yul\":3105:3109   */\n      dup2\n        /* \"#utility.yul\":3096:3102   */\n      dup5\n        /* \"#utility.yul\":2986:3110   */\n      tag_57\n      jump\t// in\n    tag_84:\n        /* \"#utility.yul\":2978:3110   */\n      swap1\n      pop\n        /* \"#utility.yul\":2876:3117   */\n      swap3\n      swap2\n      pop\n      pop\n      jump\t// out\n        /* \"#utility.yul\":3123:3377   */\n    tag_16:\n      0x00\n        /* \"#utility.yul\":3270:3272   */\n      0x20\n        /* \"#utility.yul\":3259:3268   */\n      dup3\n        /* \"#utility.yul\":3255:3273   */\n      add\n        /* \"#utility.yul\":3247:3273   */\n      swap1\n      pop\n        /* \"#utility.yul\":3283:3370   */\n      tag_86\n        /* \"#utility.yul\":3367:3368   */\n      0x00\n        /* \"#utility.yul\":3356:3365   */\n      dup4\n        /* \"#utility.yul\":3352:3369   */\n      add\n        /* \"#utility.yul\":3343:3349   */\n      dup5\n        /* \"#utility.yul\":3283:3370   */\n      tag_74\n      jump\t// in\n    tag_86:\n        /* \"#utility.yul\":3237:3377   */\n      swap3\n      swap2\n      pop\n      pop\n      jump\t// out\n        /* \"#utility.yul\":3383:3825   */\n    tag_29:\n      0x00\n        /* \"#utility.yul\":3570:3572   */\n      0x60\n        /* \"#utility.yul\":3559:3568   */\n      dup3\n        /* \"#utility.yul\":3555:3573   */\n      add\n        /* \"#utility.yul\":3547:3573   */\n      swap1\n      pop\n        /* \"#utility.yul\":3583:3654   */\n      tag_88\n        /* \"#utility.yul\":3651:3652   */\n      0x00\n        /* \"#utility.yul\":3640:3649   */\n      dup4\n        /* \"#utility.yul\":3636:3653   */\n      add\n        /* \"#utility.yul\":3627:3633   */\n      dup7\n        /* \"#utility.yul\":3583:3654   */\n      tag_77\n      jump\t// in\n    tag_88:\n        /* \"#utility.yul\":3664:3736   */\n      tag_89\n        /* \"#utility.yul\":3732:3734   */\n      0x20\n        /* \"#utility.yul\":3721:3730   */\n      dup4\n        /* \"#utility.yul\":3717:3735   */\n      add\n        /* \"#utility.yul\":3708:3714   */\n      dup6\n        /* \"#utility.yul\":3664:3736   */\n      tag_77\n      jump\t// in\n    tag_89:\n        /* \"#utility.yul\":3746:3818   */\n      tag_90\n        /* \"#utility.yul\":3814:3816   */\n      0x40\n        /* \"#utility.yul\":3803:3812   */\n      dup4\n        /* \"#utility.yul\":3799:3817   */\n      add\n        /* \"#utility.yul\":3790:3796   */\n      dup5\n        /* \"#utility.yul\":3746:3818   */\n      tag_53\n      jump\t// in\n    tag_90:\n        /* \"#utility.yul\":3537:3825   */\n      swap5\n      swap4\n      pop\n      pop\n      pop\n      pop\n      jump\t// out\n        /* \"#utility.yul\":3831:3979   */\n    tag_64:\n      0x00\n        /* \"#utility.yul\":3937:3940   */\n      dup2\n        /* \"#utility.yul\":3929:3940   */\n      swap1\n      pop\n        /* \"#utility.yul\":3967:3971   */\n      0x20\n        /* \"#utility.yul\":3962:3965   */\n      dup3\n        /* \"#utility.yul\":3958:3972   */\n      add\n        /* \"#utility.yul\":3950:3972   */\n      swap1\n      pop\n        /* \"#utility.yul\":3919:3979   */\n      swap2\n      swap1\n      pop\n      jump\t// out\n        /* \"#utility.yul\":3985:4115   */\n    tag_60:\n      0x00\n        /* \"#utility.yul\":4102:4107   */\n      dup2\n        /* \"#utility.yul\":4096:4108   */\n      mload\n        /* \"#utility.yul\":4086:4108   */\n      swap1\n      pop\n        /* \"#utility.yul\":4075:4115   */\n      swap2\n      swap1\n      pop\n      jump\t// out\n        /* \"#utility.yul\":4121:4250   */\n    tag_70:\n      0x00\n        /* \"#utility.yul\":4239:4243   */\n      0x20\n        /* \"#utility.yul\":4234:4237   */\n      dup3\n        /* \"#utility.yul\":4230:4244   */\n      add\n        /* \"#utility.yul\":4222:4244   */\n      swap1\n      pop\n        /* \"#utility.yul\":4212:4250   */\n      swap2\n      swap1\n      pop\n      jump\t// out\n        /* \"#utility.yul\":4256:4440   */\n    tag_62:\n      0x00\n        /* \"#utility.yul\":4389:4395   */\n      dup3\n        /* \"#utility.yul\":4384:4387   */\n      dup3\n        /* \"#utility.yul\":4377:4396   */\n      mstore\n        /* \"#utility.yul\":4429:4433   */\n      0x20\n        /* \"#utility.yul\":4424:4427   */\n      dup3\n        /* \"#utility.yul\":4420:4434   */\n      add\n        /* \"#utility.yul\":4405:4434   */\n      swap1\n      pop\n        /* \"#utility.yul\":4367:4440   */\n      swap3\n      swap2\n      pop\n      pop\n      jump\t// out\n        /* \"#utility.yul\":4446:4542   */\n    tag_56:\n      0x00\n        /* \"#utility.yul\":4512:4536   */\n      tag_96\n        /* \"#utility.yul\":4530:4535   */\n      dup3\n        /* \"#utility.yul\":4512:4536   */\n      tag_97\n      jump\t// in\n    tag_96:\n        /* \"#utility.yul\":4501:4536   */\n      swap1\n      pop\n        /* \"#utility.yul\":4491:4542   */\n      swap2\n      swap1\n      pop\n      jump\t// out\n        /* \"#utility.yul\":4548:4674   */\n    tag_97:\n      0x00\n        /* \"#utility.yul\":4625:4667   */\n      0xffffffffffffffffffffffffffffffffffffffff\n        /* \"#utility.yul\":4618:4623   */\n      dup3\n        /* \"#utility.yul\":4614:4668   */\n      and\n        /* \"#utility.yul\":4603:4668   */\n      swap1\n      pop\n        /* \"#utility.yul\":4593:4674   */\n      swap2\n      swap1\n      pop\n      jump\t// out\n        /* \"#utility.yul\":4680:4757   */\n    tag_80:\n      0x00\n        /* \"#utility.yul\":4746:4751   */\n      dup2\n        /* \"#utility.yul\":4735:4751   */\n      swap1\n      pop\n        /* \"#utility.yul\":4725:4757   */\n      swap2\n      swap1\n      pop\n      jump\t// out\n        /* \"#utility.yul\":4763:4921   */\n    tag_73:\n      0x00\n        /* \"#utility.yul\":4862:4915   */\n      tag_101\n        /* \"#utility.yul\":4909:4914   */\n      dup3\n        /* \"#utility.yul\":4862:4915   */\n      tag_102\n      jump\t// in\n    tag_101:\n        /* \"#utility.yul\":4849:4915   */\n      swap1\n      pop\n        /* \"#utility.yul\":4839:4921   */\n      swap2\n      swap1\n      pop\n      jump\t// out\n        /* \"#utility.yul\":4927:5056   */\n    tag_102:\n      0x00\n        /* \"#utility.yul\":5026:5050   */\n      tag_104\n        /* \"#utility.yul\":5044:5049   */\n      dup3\n        /* \"#utility.yul\":5026:5050   */\n      tag_97\n      jump\t// in\n    tag_104:\n        /* \"#utility.yul\":5013:5050   */\n      swap1\n      pop\n        /* \"#utility.yul\":5003:5056   */\n      swap2\n      swap1\n      pop\n      jump\t// out\n        /* \"#utility.yul\":5062:5184   */\n    tag_41:\n        /* \"#utility.yul\":5135:5159   */\n      tag_106\n        /* \"#utility.yul\":5153:5158   */\n      dup2\n        /* \"#utility.yul\":5135:5159   */\n      tag_80\n      jump\t// in\n    tag_106:\n        /* \"#utility.yul\":5128:5133   */\n      dup2\n        /* \"#utility.yul\":5125:5160   */\n      eq\n        /* \"#utility.yul\":5115:5117   */\n      tag_107\n      jumpi\n        /* \"#utility.yul\":5174:5175   */\n      0x00\n        /* \"#utility.yul\":5171:5172   */\n      dup1\n        /* \"#utility.yul\":5164:5176   */\n      revert\n        /* \"#utility.yul\":5115:5117   */\n    tag_107:\n        /* \"#utility.yul\":5105:5184   */\n      pop\n      jump\t// out\n    stop\n\n    sub_0: assembly {\n            /* \"campaign.sol\":634:4121  contract campaign{\r... */\n          mstore(0x40, 0x80)\n            /* \"campaign.sol\":1470:1695  constructor(uint min_val,uint threshold, address creator) {\r... */\n          callvalue\n          dup1\n          iszero\n          tag_1\n          jumpi\n          0x00\n          dup1\n          revert\n        tag_1:\n          pop\n          mload(0x40)\n          sub(codesize, bytecodeSize)\n          dup1\n          bytecodeSize\n          dup4\n          codecopy\n          dup2\n          dup2\n          add\n          0x40\n          mstore\n          dup2\n          add\n          swap1\n          tag_2\n          swap2\n          swap1\n          tag_3\n          jump\t// in\n        tag_2:\n            /* \"campaign.sol\":1549:1556  creator */\n          dup1\n            /* \"campaign.sol\":1539:1546  manager */\n          0x00\n          dup1\n            /* \"campaign.sol\":1539:1556  manager = creator */\n          0x0100\n          exp\n          dup2\n          sload\n          dup2\n          0xffffffffffffffffffffffffffffffffffffffff\n          mul\n          not\n          and\n          swap1\n          dup4\n          0xffffffffffffffffffffffffffffffffffffffff\n          and\n          mul\n          or\n          swap1\n          sstore\n          pop\n            /* \"campaign.sol\":1585:1592  min_val */\n          dup3\n            /* \"campaign.sol\":1567:1582  minContribution */\n          0x01\n            /* \"campaign.sol\":1567:1592  minContribution = min_val */\n          dup2\n          swap1\n          sstore\n          pop\n            /* \"campaign.sol\":1622:1631  threshold */\n          dup2\n            /* \"campaign.sol\":1603:1619  approveThreshlod */\n          0x04\n            /* \"campaign.sol\":1603:1631  approveThreshlod = threshold */\n          dup2\n          swap1\n          sstore\n          pop\n            /* \"campaign.sol\":1654:1655  0 */\n          0x00\n            /* \"campaign.sol\":1642:1651  reqNumber */\n          0x03\n            /* \"campaign.sol\":1642:1655  reqNumber = 0 */\n          dup2\n          swap1\n          sstore\n          pop\n            /* \"campaign.sol\":1686:1687  0 */\n          0x00\n            /* \"campaign.sol\":1666:1683  numberOfApprovers */\n          0x05\n            /* \"campaign.sol\":1666:1687  numberOfApprovers = 0 */\n          dup2\n          swap1\n          sstore\n          pop\n            /* \"campaign.sol\":1470:1695  constructor(uint min_val,uint threshold, address creator) {\r... */\n          pop\n          pop\n          pop\n            /* \"campaign.sol\":634:4121  contract campaign{\r... */\n          jump(tag_6)\n            /* \"#utility.yul\":7:150   */\n        tag_8:\n          0x00\n            /* \"#utility.yul\":95:101   */\n          dup2\n            /* \"#utility.yul\":89:102   */\n          mload\n            /* \"#utility.yul\":80:102   */\n          swap1\n          pop\n            /* \"#utility.yul\":111:144   */\n          tag_10\n            /* \"#utility.yul\":138:143   */\n          dup2\n            /* \"#utility.yul\":111:144   */\n          tag_11\n          jump\t// in\n        tag_10:\n            /* \"#utility.yul\":70:150   */\n          swap3\n          swap2\n          pop\n          pop\n          jump\t// out\n            /* \"#utility.yul\":156:299   */\n        tag_12:\n          0x00\n            /* \"#utility.yul\":244:250   */\n          dup2\n            /* \"#utility.yul\":238:251   */\n          mload\n            /* \"#utility.yul\":229:251   */\n          swap1\n          pop\n            /* \"#utility.yul\":260:293   */\n          tag_14\n            /* \"#utility.yul\":287:292   */\n          dup2\n            /* \"#utility.yul\":260:293   */\n          tag_15\n          jump\t// in\n        tag_14:\n            /* \"#utility.yul\":219:299   */\n          swap3\n          swap2\n          pop\n          pop\n          jump\t// out\n            /* \"#utility.yul\":305:901   */\n        tag_3:\n          0x00\n          dup1\n          0x00\n            /* \"#utility.yul\":458:460   */\n          0x60\n            /* \"#utility.yul\":446:455   */\n          dup5\n            /* \"#utility.yul\":437:444   */\n          dup7\n            /* \"#utility.yul\":433:456   */\n          sub\n            /* \"#utility.yul\":429:461   */\n          slt\n            /* \"#utility.yul\":426:428   */\n          iszero\n          tag_17\n          jumpi\n            /* \"#utility.yul\":474:475   */\n          0x00\n            /* \"#utility.yul\":471:472   */\n          dup1\n            /* \"#utility.yul\":464:476   */\n          revert\n            /* \"#utility.yul\":426:428   */\n        tag_17:\n            /* \"#utility.yul\":517:518   */\n          0x00\n            /* \"#utility.yul\":542:606   */\n          tag_18\n            /* \"#utility.yul\":598:605   */\n          dup7\n            /* \"#utility.yul\":589:595   */\n          dup3\n            /* \"#utility.yul\":578:587   */\n          dup8\n            /* \"#utility.yul\":574:596   */\n          add\n            /* \"#utility.yul\":542:606   */\n          tag_12\n          jump\t// in\n        tag_18:\n            /* \"#utility.yul\":532:606   */\n          swap4\n          pop\n            /* \"#utility.yul\":488:616   */\n          pop\n            /* \"#utility.yul\":655:657   */\n          0x20\n            /* \"#utility.yul\":681:745   */\n          tag_19\n            /* \"#utility.yul\":737:744   */\n          dup7\n            /* \"#utility.yul\":728:734   */\n          dup3\n            /* \"#utility.yul\":717:726   */\n          dup8\n            /* \"#utility.yul\":713:735   */\n          add\n            /* \"#utility.yul\":681:745   */\n          tag_12\n          jump\t// in\n        tag_19:\n            /* \"#utility.yul\":671:745   */\n          swap3\n          pop\n            /* \"#utility.yul\":626:755   */\n          pop\n            /* \"#utility.yul\":794:796   */\n          0x40\n            /* \"#utility.yul\":820:884   */\n          tag_20\n            /* \"#utility.yul\":876:883   */\n          dup7\n            /* \"#utility.yul\":867:873   */\n          dup3\n            /* \"#utility.yul\":856:865   */\n          dup8\n            /* \"#utility.yul\":852:874   */\n          add\n            /* \"#utility.yul\":820:884   */\n          tag_8\n          jump\t// in\n        tag_20:\n            /* \"#utility.yul\":810:884   */\n          swap2\n          pop\n            /* \"#utility.yul\":765:894   */\n          pop\n            /* \"#utility.yul\":416:901   */\n          swap3\n          pop\n          swap3\n          pop\n          swap3\n          jump\t// out\n            /* \"#utility.yul\":907:1003   */\n        tag_21:\n          0x00\n            /* \"#utility.yul\":973:997   */\n          tag_23\n            /* \"#utility.yul\":991:996   */\n          dup3\n            /* \"#utility.yul\":973:997   */\n          tag_24\n          jump\t// in\n        tag_23:\n            /* \"#utility.yul\":962:997   */\n          swap1\n          pop\n            /* \"#utility.yul\":952:1003   */\n          swap2\n          swap1\n          pop\n          jump\t// out\n            /* \"#utility.yul\":1009:1135   */\n        tag_24:\n          0x00\n            /* \"#utility.yul\":1086:1128   */\n          0xffffffffffffffffffffffffffffffffffffffff\n            /* \"#utility.yul\":1079:1084   */\n          dup3\n            /* \"#utility.yul\":1075:1129   */\n          and\n            /* \"#utility.yul\":1064:1129   */\n          swap1\n          pop\n            /* \"#utility.yul\":1054:1135   */\n          swap2\n          swap1\n          pop\n          jump\t// out\n            /* \"#utility.yul\":1141:1218   */\n        tag_26:\n          0x00\n            /* \"#utility.yul\":1207:1212   */\n          dup2\n            /* \"#utility.yul\":1196:1212   */\n          swap1\n          pop\n            /* \"#utility.yul\":1186:1218   */\n          swap2\n          swap1\n          pop\n          jump\t// out\n            /* \"#utility.yul\":1224:1346   */\n        tag_11:\n            /* \"#utility.yul\":1297:1321   */\n          tag_29\n            /* \"#utility.yul\":1315:1320   */\n          dup2\n            /* \"#utility.yul\":1297:1321   */\n          tag_21\n          jump\t// in\n        tag_29:\n            /* \"#utility.yul\":1290:1295   */\n          dup2\n            /* \"#utility.yul\":1287:1322   */\n          eq\n            /* \"#utility.yul\":1277:1279   */\n          tag_30\n          jumpi\n            /* \"#utility.yul\":1336:1337   */\n          0x00\n            /* \"#utility.yul\":1333:1334   */\n          dup1\n            /* \"#utility.yul\":1326:1338   */\n          revert\n            /* \"#utility.yul\":1277:1279   */\n        tag_30:\n            /* \"#utility.yul\":1267:1346   */\n          pop\n          jump\t// out\n            /* \"#utility.yul\":1352:1474   */\n        tag_15:\n            /* \"#utility.yul\":1425:1449   */\n          tag_32\n            /* \"#utility.yul\":1443:1448   */\n          dup2\n            /* \"#utility.yul\":1425:1449   */\n          tag_26\n          jump\t// in\n        tag_32:\n            /* \"#utility.yul\":1418:1423   */\n          dup2\n            /* \"#utility.yul\":1415:1450   */\n          eq\n            /* \"#utility.yul\":1405:1407   */\n          tag_33\n          jumpi\n            /* \"#utility.yul\":1464:1465   */\n          0x00\n            /* \"#utility.yul\":1461:1462   */\n          dup1\n            /* \"#utility.yul\":1454:1466   */\n          revert\n            /* \"#utility.yul\":1405:1407   */\n        tag_33:\n            /* \"#utility.yul\":1395:1474   */\n          pop\n          jump\t// out\n            /* \"campaign.sol\":634:4121  contract campaign{\r... */\n        tag_6:\n          dataSize(sub_0)\n          dup1\n          dataOffset(sub_0)\n          0x00\n          codecopy\n          0x00\n          return\n        stop\n\n        sub_0: assembly {\n                /* \"campaign.sol\":634:4121  contract campaign{\r... */\n              mstore(0x40, 0x80)\n              jumpi(tag_1, lt(calldatasize, 0x04))\n              shr(0xe0, calldataload(0x00))\n              dup1\n              0x8a9cfd55\n              gt\n              tag_10\n              jumpi\n              dup1\n              0x8a9cfd55\n              eq\n              tag_6\n              jumpi\n              dup1\n              0xaaffadf3\n              eq\n              tag_7\n              jumpi\n              dup1\n              0xd7bb99ba\n              eq\n              tag_8\n              jumpi\n              dup1\n              0xfea21ce5\n              eq\n              tag_9\n              jumpi\n              jump(tag_1)\n            tag_10:\n              dup1\n              0x2d8f1adc\n              eq\n              tag_2\n              jumpi\n              dup1\n              0x3fad1834\n              eq\n              tag_3\n              jumpi\n              dup1\n              0x481c6a75\n              eq\n              tag_4\n              jumpi\n              dup1\n              0x767e0b9c\n              eq\n              tag_5\n              jumpi\n            tag_1:\n              0x00\n              dup1\n              revert\n                /* \"campaign.sol\":3810:4018  function returnStats() public view returns(uint,uint,uint,uint,uint,address){\r... */\n            tag_2:\n              callvalue\n              dup1\n              iszero\n              tag_11\n              jumpi\n              0x00\n              dup1\n              revert\n            tag_11:\n              pop\n              tag_12\n              tag_13\n              jump\t// in\n            tag_12:\n              mload(0x40)\n              tag_14\n              swap7\n              swap6\n              swap5\n              swap4\n              swap3\n              swap2\n              swap1\n              tag_15\n              jump\t// in\n            tag_14:\n              mload(0x40)\n              dup1\n              swap2\n              sub\n              swap1\n              return\n                /* \"campaign.sol\":4024:4112  function getRequestCount() public view returns (uint){\r... */\n            tag_3:\n              callvalue\n              dup1\n              iszero\n              tag_16\n              jumpi\n              0x00\n              dup1\n              revert\n            tag_16:\n              pop\n              tag_17\n              tag_18\n              jump\t// in\n            tag_17:\n              mload(0x40)\n              tag_19\n              swap2\n              swap1\n              tag_20\n              jump\t// in\n            tag_19:\n              mload(0x40)\n              dup1\n              swap2\n              sub\n              swap1\n              return\n                /* \"campaign.sol\":664:686  address public manager */\n            tag_4:\n              callvalue\n              dup1\n              iszero\n              tag_21\n              jumpi\n              0x00\n              dup1\n              revert\n            tag_21:\n              pop\n              tag_22\n              tag_23\n              jump\t// in\n            tag_22:\n              mload(0x40)\n              tag_24\n              swap2\n              swap1\n              tag_25\n              jump\t// in\n            tag_24:\n              mload(0x40)\n              dup1\n              swap2\n              sub\n              swap1\n              return\n                /* \"campaign.sol\":2382:3028  function approveRequest(uint req_number, bool isApproved) public{\r... */\n            tag_5:\n              callvalue\n              dup1\n              iszero\n              tag_26\n              jumpi\n              0x00\n              dup1\n              revert\n            tag_26:\n              pop\n              tag_27\n              0x04\n              dup1\n              calldatasize\n              sub\n              dup2\n              add\n              swap1\n              tag_28\n              swap2\n              swap1\n              tag_29\n              jump\t// in\n            tag_28:\n              tag_30\n              jump\t// in\n            tag_27:\n              stop\n                /* \"campaign.sol\":1898:2376  function createRequest(string memory description , uint value, address recipient) public restricted{\r... */\n            tag_6:\n              callvalue\n              dup1\n              iszero\n              tag_31\n              jumpi\n              0x00\n              dup1\n              revert\n            tag_31:\n              pop\n              tag_32\n              0x04\n              dup1\n              calldatasize\n              sub\n              dup2\n              add\n              swap1\n              tag_33\n              swap2\n              swap1\n              tag_34\n              jump\t// in\n            tag_33:\n              tag_35\n              jump\t// in\n            tag_32:\n              stop\n                /* \"campaign.sol\":693:720  uint public minContribution */\n            tag_7:\n              callvalue\n              dup1\n              iszero\n              tag_36\n              jumpi\n              0x00\n              dup1\n              revert\n            tag_36:\n              pop\n              tag_37\n              tag_38\n              jump\t// in\n            tag_37:\n              mload(0x40)\n              tag_39\n              swap2\n              swap1\n              tag_20\n              jump\t// in\n            tag_39:\n              mload(0x40)\n              dup1\n              swap2\n              sub\n              swap1\n              return\n                /* \"campaign.sol\":1707:1885  function contribute() public payable{\r... */\n            tag_8:\n              tag_40\n              tag_41\n              jump\t// in\n            tag_40:\n              stop\n                /* \"campaign.sol\":3034:3741  function checkApproval(uint req_number) public restricted{\r... */\n            tag_9:\n              callvalue\n              dup1\n              iszero\n              tag_42\n              jumpi\n              0x00\n              dup1\n              revert\n            tag_42:\n              pop\n              tag_43\n              0x04\n              dup1\n              calldatasize\n              sub\n              dup2\n              add\n              swap1\n              tag_44\n              swap2\n              swap1\n              tag_45\n              jump\t// in\n            tag_44:\n              tag_46\n              jump\t// in\n            tag_43:\n              stop\n                /* \"campaign.sol\":3810:4018  function returnStats() public view returns(uint,uint,uint,uint,uint,address){\r... */\n            tag_13:\n                /* \"campaign.sol\":3853:3857  uint */\n              0x00\n                /* \"campaign.sol\":3858:3862  uint */\n              dup1\n                /* \"campaign.sol\":3863:3867  uint */\n              0x00\n                /* \"campaign.sol\":3868:3872  uint */\n              dup1\n                /* \"campaign.sol\":3873:3877  uint */\n              0x00\n                /* \"campaign.sol\":3878:3885  address */\n              dup1\n                /* \"campaign.sol\":3906:3915  reqNumber */\n              sload(0x03)\n                /* \"campaign.sol\":3917:3933  approveThreshlod */\n              sload(0x04)\n                /* \"campaign.sol\":3935:3950  minContribution */\n              sload(0x01)\n                /* \"campaign.sol\":3951:3972  address(this).balance */\n              selfbalance\n                /* \"campaign.sol\":3973:3990  numberOfApprovers */\n              sload(0x05)\n                /* \"campaign.sol\":3992:3999  manager */\n              0x00\n              dup1\n              sload\n              swap1\n              0x0100\n              exp\n              swap1\n              div\n              0xffffffffffffffffffffffffffffffffffffffff\n              and\n                /* \"campaign.sol\":3899:4000  return(reqNumber, approveThreshlod, minContribution,address(this).balance,numberOfApprovers, manager) */\n              swap6\n              pop\n              swap6\n              pop\n              swap6\n              pop\n              swap6\n              pop\n              swap6\n              pop\n              swap6\n              pop\n                /* \"campaign.sol\":3810:4018  function returnStats() public view returns(uint,uint,uint,uint,uint,address){\r... */\n              swap1\n              swap2\n              swap3\n              swap4\n              swap5\n              swap6\n              jump\t// out\n                /* \"campaign.sol\":4024:4112  function getRequestCount() public view returns (uint){\r... */\n            tag_18:\n                /* \"campaign.sol\":4072:4076  uint */\n              0x00\n                /* \"campaign.sol\":4095:4104  reqNumber */\n              sload(0x03)\n                /* \"campaign.sol\":4088:4104  return reqNumber */\n              swap1\n              pop\n                /* \"campaign.sol\":4024:4112  function getRequestCount() public view returns (uint){\r... */\n              swap1\n              jump\t// out\n                /* \"campaign.sol\":664:686  address public manager */\n            tag_23:\n              0x00\n              dup1\n              sload\n              swap1\n              0x0100\n              exp\n              swap1\n              div\n              0xffffffffffffffffffffffffffffffffffffffff\n              and\n              dup2\n              jump\t// out\n                /* \"campaign.sol\":2382:3028  function approveRequest(uint req_number, bool isApproved) public{\r... */\n            tag_30:\n                /* \"campaign.sol\":2642:2661  request storage req */\n              0x00\n                /* \"campaign.sol\":2664:2672  requests */\n              0x06\n                /* \"campaign.sol\":2664:2686  requests[req_number-1] */\n              0x00\n                /* \"campaign.sol\":2684:2685  1 */\n              0x01\n                /* \"campaign.sol\":2673:2683  req_number */\n              dup6\n                /* \"campaign.sol\":2673:2685  req_number-1 */\n              tag_50\n              swap2\n              swap1\n              tag_51\n              jump\t// in\n            tag_50:\n                /* \"campaign.sol\":2664:2686  requests[req_number-1] */\n              dup2\n              mstore\n              0x20\n              add\n              swap1\n              dup2\n              mstore\n              0x20\n              add\n              0x00\n              keccak256\n                /* \"campaign.sol\":2642:2686  request storage req = requests[req_number-1] */\n              swap1\n              pop\n                /* \"campaign.sol\":2706:2709  req */\n              dup1\n                /* \"campaign.sol\":2706:2721  req.isProcessed */\n              0x05\n              add\n              0x00\n              swap1\n              sload\n              swap1\n              0x0100\n              exp\n              swap1\n              div\n              0xff\n              and\n                /* \"campaign.sol\":2705:2721  !req.isProcessed */\n              iszero\n                /* \"campaign.sol\":2697:2722  require(!req.isProcessed) */\n              tag_52\n              jumpi\n              0x00\n              dup1\n              revert\n            tag_52:\n                /* \"campaign.sol\":2767:2768  0 */\n              0x00\n                /* \"campaign.sol\":2742:2745  req */\n              dup2\n                /* \"campaign.sol\":2742:2751  req.state */\n              0x06\n              add\n                /* \"campaign.sol\":2742:2763  req.state[msg.sender] */\n              0x00\n                /* \"campaign.sol\":2752:2762  msg.sender */\n              caller\n                /* \"campaign.sol\":2742:2763  req.state[msg.sender] */\n              0xffffffffffffffffffffffffffffffffffffffff\n              and\n              0xffffffffffffffffffffffffffffffffffffffff\n              and\n              dup2\n              mstore\n              0x20\n              add\n              swap1\n              dup2\n              mstore\n              0x20\n              add\n              0x00\n              keccak256\n              sload\n                /* \"campaign.sol\":2742:2768  req.state[msg.sender] == 0 */\n              eq\n                /* \"campaign.sol\":2733:2770  require((req.state[msg.sender] == 0)) */\n              tag_53\n              jumpi\n              0x00\n              dup1\n              revert\n            tag_53:\n                /* \"campaign.sol\":2893:2903  isApproved */\n              dup2\n                /* \"campaign.sol\":2889:2985  if(!isApproved){\r... */\n              tag_54\n              jumpi\n                /* \"campaign.sol\":2932:2933  1 */\n              0x01\n                /* \"campaign.sol\":2919:2922  req */\n              dup2\n                /* \"campaign.sol\":2919:2930  req.denials */\n              0x04\n              add\n              0x00\n                /* \"campaign.sol\":2919:2933  req.denials+=1 */\n              dup3\n              dup3\n              sload\n              tag_55\n              swap2\n              swap1\n              tag_56\n              jump\t// in\n            tag_55:\n              swap3\n              pop\n              pop\n              dup2\n              swap1\n              sstore\n              pop\n                /* \"campaign.sol\":2972:2973  2 */\n              0x02\n                /* \"campaign.sol\":2948:2951  req */\n              dup2\n                /* \"campaign.sol\":2948:2957  req.state */\n              0x06\n              add\n                /* \"campaign.sol\":2948:2969  req.state[msg.sender] */\n              0x00\n                /* \"campaign.sol\":2958:2968  msg.sender */\n              caller\n                /* \"campaign.sol\":2948:2969  req.state[msg.sender] */\n              0xffffffffffffffffffffffffffffffffffffffff\n              and\n              0xffffffffffffffffffffffffffffffffffffffff\n              and\n              dup2\n              mstore\n              0x20\n              add\n              swap1\n              dup2\n              mstore\n              0x20\n              add\n              0x00\n              keccak256\n                /* \"campaign.sol\":2948:2973  req.state[msg.sender] = 2 */\n              dup2\n              swap1\n              sstore\n              pop\n                /* \"campaign.sol\":2889:2985  if(!isApproved){\r... */\n            tag_54:\n                /* \"campaign.sol\":3019:3020  1 */\n              0x01\n                /* \"campaign.sol\":2995:2998  req */\n              dup2\n                /* \"campaign.sol\":2995:3004  req.state */\n              0x06\n              add\n                /* \"campaign.sol\":2995:3016  req.state[msg.sender] */\n              0x00\n                /* \"campaign.sol\":3005:3015  msg.sender */\n              caller\n                /* \"campaign.sol\":2995:3016  req.state[msg.sender] */\n              0xffffffffffffffffffffffffffffffffffffffff\n              and\n              0xffffffffffffffffffffffffffffffffffffffff\n              and\n              dup2\n              mstore\n              0x20\n              add\n              swap1\n              dup2\n              mstore\n              0x20\n              add\n              0x00\n              keccak256\n                /* \"campaign.sol\":2995:3020  req.state[msg.sender] = 1 */\n              dup2\n              swap1\n              sstore\n              pop\n                /* \"campaign.sol\":2382:3028  function approveRequest(uint req_number, bool isApproved) public{\r... */\n              pop\n              pop\n              pop\n              jump\t// out\n                /* \"campaign.sol\":1898:2376  function createRequest(string memory description , uint value, address recipient) public restricted{\r... */\n            tag_35:\n                /* \"campaign.sol\":1430:1437  manager */\n              0x00\n              dup1\n              sload\n              swap1\n              0x0100\n              exp\n              swap1\n              div\n              0xffffffffffffffffffffffffffffffffffffffff\n              and\n                /* \"campaign.sol\":1416:1437  msg.sender == manager */\n              0xffffffffffffffffffffffffffffffffffffffff\n              and\n                /* \"campaign.sol\":1416:1426  msg.sender */\n              caller\n                /* \"campaign.sol\":1416:1437  msg.sender == manager */\n              0xffffffffffffffffffffffffffffffffffffffff\n              and\n              eq\n                /* \"campaign.sol\":1408:1438  require(msg.sender == manager) */\n              tag_58\n              jumpi\n              0x00\n              dup1\n              revert\n            tag_58:\n                /* \"campaign.sol\":2008:2017  reqNumber */\n              0x03\n              0x00\n                /* \"campaign.sol\":2008:2019  reqNumber++ */\n              dup2\n              sload\n              dup1\n              swap3\n              swap2\n              swap1\n              tag_60\n              swap1\n              tag_61\n              jump\t// in\n            tag_60:\n              swap2\n              swap1\n              pop\n              sstore\n              pop\n                /* \"campaign.sol\":2052:2071  request storage req */\n              0x00\n                /* \"campaign.sol\":2074:2082  requests */\n              0x06\n                /* \"campaign.sol\":2074:2095  requests[reqNumber++] */\n              0x00\n                /* \"campaign.sol\":2083:2092  reqNumber */\n              0x03\n              0x00\n                /* \"campaign.sol\":2083:2094  reqNumber++ */\n              dup2\n              sload\n              dup1\n              swap3\n              swap2\n              swap1\n              tag_62\n              swap1\n              tag_61\n              jump\t// in\n            tag_62:\n              swap2\n              swap1\n              pop\n              sstore\n                /* \"campaign.sol\":2074:2095  requests[reqNumber++] */\n              dup2\n              mstore\n              0x20\n              add\n              swap1\n              dup2\n              mstore\n              0x20\n              add\n              0x00\n              keccak256\n                /* \"campaign.sol\":2052:2095  request storage req = requests[reqNumber++] */\n              swap1\n              pop\n                /* \"campaign.sol\":2124:2135  description */\n              dup4\n                /* \"campaign.sol\":2106:2109  req */\n              dup2\n                /* \"campaign.sol\":2106:2121  req.description */\n              0x02\n              add\n                /* \"campaign.sol\":2106:2135  req.description = description */\n              swap1\n              dup1\n              mload\n              swap1\n              0x20\n              add\n              swap1\n              tag_63\n              swap3\n              swap2\n              swap1\n              tag_64\n              jump\t// in\n            tag_63:\n              pop\n                /* \"campaign.sol\":2158:2163  value */\n              dup3\n                /* \"campaign.sol\":2146:2149  req */\n              dup2\n                /* \"campaign.sol\":2146:2155  req.value */\n              0x00\n              add\n                /* \"campaign.sol\":2146:2163  req.value = value */\n              dup2\n              swap1\n              sstore\n              pop\n                /* \"campaign.sol\":2190:2199  recipient */\n              dup2\n                /* \"campaign.sol\":2174:2177  req */\n              dup2\n                /* \"campaign.sol\":2174:2187  req.recipient */\n              0x01\n              add\n              0x00\n                /* \"campaign.sol\":2174:2199  req.recipient = recipient */\n              0x0100\n              exp\n              dup2\n              sload\n              dup2\n              0xffffffffffffffffffffffffffffffffffffffff\n              mul\n              not\n              and\n              swap1\n              dup4\n              0xffffffffffffffffffffffffffffffffffffffff\n              and\n              mul\n              or\n              swap1\n              sstore\n              pop\n                /* \"campaign.sol\":2222:2231  reqNumber */\n              sload(0x03)\n                /* \"campaign.sol\":2210:2213  req */\n              dup2\n                /* \"campaign.sol\":2210:2219  req.index */\n              0x03\n              add\n                /* \"campaign.sol\":2210:2231  req.index = reqNumber */\n              dup2\n              swap1\n              sstore\n              pop\n                /* \"campaign.sol\":2260:2265  false */\n              0x00\n                /* \"campaign.sol\":2242:2245  req */\n              dup2\n                /* \"campaign.sol\":2242:2257  req.isProcessed */\n              0x05\n              add\n              0x00\n                /* \"campaign.sol\":2242:2265  req.isProcessed = false */\n              0x0100\n              exp\n              dup2\n              sload\n              dup2\n              0xff\n              mul\n              not\n              and\n              swap1\n              dup4\n              iszero\n              iszero\n              mul\n              or\n              swap1\n              sstore\n              pop\n                /* \"campaign.sol\":2290:2291  0 */\n              0x00\n                /* \"campaign.sol\":2276:2279  req */\n              dup2\n                /* \"campaign.sol\":2276:2287  req.denials */\n              0x04\n              add\n                /* \"campaign.sol\":2276:2291  req.denials = 0 */\n              dup2\n              swap1\n              sstore\n              pop\n                /* \"campaign.sol\":2317:2322  false */\n              0x00\n                /* \"campaign.sol\":2302:2305  req */\n              dup2\n                /* \"campaign.sol\":2302:2314  req.approved */\n              0x05\n              add\n              0x01\n                /* \"campaign.sol\":2302:2322  req.approved = false */\n              0x0100\n              exp\n              dup2\n              sload\n              dup2\n              0xff\n              mul\n              not\n              and\n              swap1\n              dup4\n              iszero\n              iszero\n              mul\n              or\n              swap1\n              sstore\n              pop\n                /* \"campaign.sol\":2353:2358  false */\n              0x00\n                /* \"campaign.sol\":2333:2336  req */\n              dup2\n                /* \"campaign.sol\":2333:2350  req.isTransferred */\n              0x05\n              add\n              0x02\n                /* \"campaign.sol\":2333:2358  req.isTransferred = false */\n              0x0100\n              exp\n              dup2\n              sload\n              dup2\n              0xff\n              mul\n              not\n              and\n              swap1\n              dup4\n              iszero\n              iszero\n              mul\n              or\n              swap1\n              sstore\n              pop\n                /* \"campaign.sol\":1449:1450  _ */\n              pop\n                /* \"campaign.sol\":1898:2376  function createRequest(string memory description , uint value, address recipient) public restricted{\r... */\n              pop\n              pop\n              pop\n              jump\t// out\n                /* \"campaign.sol\":693:720  uint public minContribution */\n            tag_38:\n              sload(0x01)\n              dup2\n              jump\t// out\n                /* \"campaign.sol\":1707:1885  function contribute() public payable{\r... */\n            tag_41:\n                /* \"campaign.sol\":1775:1790  minContribution */\n              sload(0x01)\n                /* \"campaign.sol\":1762:1771  msg.value */\n              callvalue\n                /* \"campaign.sol\":1762:1790  msg.value >= minContribution */\n              lt\n              iszero\n                /* \"campaign.sol\":1754:1791  require(msg.value >= minContribution) */\n              tag_66\n              jumpi\n              0x00\n              dup1\n              revert\n            tag_66:\n                /* \"campaign.sol\":1837:1846  msg.value */\n              callvalue\n                /* \"campaign.sol\":1802:1811  approvers */\n              0x02\n                /* \"campaign.sol\":1802:1823  approvers[msg.sender] */\n              0x00\n                /* \"campaign.sol\":1812:1822  msg.sender */\n              caller\n                /* \"campaign.sol\":1802:1823  approvers[msg.sender] */\n              0xffffffffffffffffffffffffffffffffffffffff\n              and\n              0xffffffffffffffffffffffffffffffffffffffff\n              and\n              dup2\n              mstore\n              0x20\n              add\n              swap1\n              dup2\n              mstore\n              0x20\n              add\n              0x00\n              keccak256\n                /* \"campaign.sol\":1802:1834  approvers[msg.sender].stakeValue */\n              0x00\n              add\n                /* \"campaign.sol\":1802:1846  approvers[msg.sender].stakeValue = msg.value */\n              dup2\n              swap1\n              sstore\n              pop\n                /* \"campaign.sol\":1876:1877  1 */\n              0x01\n                /* \"campaign.sol\":1857:1874  numberOfApprovers */\n              0x05\n              0x00\n                /* \"campaign.sol\":1857:1877  numberOfApprovers+=1 */\n              dup3\n              dup3\n              sload\n              tag_67\n              swap2\n              swap1\n              tag_56\n              jump\t// in\n            tag_67:\n              swap3\n              pop\n              pop\n              dup2\n              swap1\n              sstore\n              pop\n                /* \"campaign.sol\":1707:1885  function contribute() public payable{\r... */\n              jump\t// out\n                /* \"campaign.sol\":3034:3741  function checkApproval(uint req_number) public restricted{\r... */\n            tag_46:\n                /* \"campaign.sol\":1430:1437  manager */\n              0x00\n              dup1\n              sload\n              swap1\n              0x0100\n              exp\n              swap1\n              div\n              0xffffffffffffffffffffffffffffffffffffffff\n              and\n                /* \"campaign.sol\":1416:1437  msg.sender == manager */\n              0xffffffffffffffffffffffffffffffffffffffff\n              and\n                /* \"campaign.sol\":1416:1426  msg.sender */\n              caller\n                /* \"campaign.sol\":1416:1437  msg.sender == manager */\n              0xffffffffffffffffffffffffffffffffffffffff\n              and\n              eq\n                /* \"campaign.sol\":1408:1438  require(msg.sender == manager) */\n              tag_69\n              jumpi\n              0x00\n              dup1\n              revert\n            tag_69:\n                /* \"campaign.sol\":3316:3335  request storage req */\n              0x00\n                /* \"campaign.sol\":3338:3346  requests */\n              0x06\n                /* \"campaign.sol\":3338:3362  requests[req_number - 1] */\n              0x00\n                /* \"campaign.sol\":3360:3361  1 */\n              0x01\n                /* \"campaign.sol\":3347:3357  req_number */\n              dup5\n                /* \"campaign.sol\":3347:3361  req_number - 1 */\n              tag_71\n              swap2\n              swap1\n              tag_51\n              jump\t// in\n            tag_71:\n                /* \"campaign.sol\":3338:3362  requests[req_number - 1] */\n              dup2\n              mstore\n              0x20\n              add\n              swap1\n              dup2\n              mstore\n              0x20\n              add\n              0x00\n              keccak256\n                /* \"campaign.sol\":3316:3362  request storage req = requests[req_number - 1] */\n              swap1\n              pop\n                /* \"campaign.sol\":3424:3427  req */\n              dup1\n                /* \"campaign.sol\":3424:3439  req.isProcessed */\n              0x05\n              add\n              0x00\n              swap1\n              sload\n              swap1\n              0x0100\n              exp\n              swap1\n              div\n              0xff\n              and\n                /* \"campaign.sol\":3423:3439  !req.isProcessed */\n              iszero\n                /* \"campaign.sol\":3415:3440  require(!req.isProcessed) */\n              tag_72\n              jumpi\n              0x00\n              dup1\n              revert\n            tag_72:\n                /* \"campaign.sol\":3451:3461  uint total */\n              0x00\n                /* \"campaign.sol\":3464:3481  numberOfApprovers */\n              sload(0x05)\n                /* \"campaign.sol\":3451:3481  uint total = numberOfApprovers */\n              swap1\n              pop\n                /* \"campaign.sol\":3492:3503  uint denied */\n              0x00\n                /* \"campaign.sol\":3506:3509  req */\n              dup3\n                /* \"campaign.sol\":3506:3517  req.denials */\n              0x04\n              add\n              sload\n                /* \"campaign.sol\":3492:3517  uint denied = req.denials */\n              swap1\n              pop\n                /* \"campaign.sol\":3528:3543  uint percentage */\n              0x00\n                /* \"campaign.sol\":3559:3564  total */\n              dup3\n                /* \"campaign.sol\":3554:3557  100 */\n              0x64\n                /* \"campaign.sol\":3547:3553  denied */\n              dup4\n                /* \"campaign.sol\":3547:3557  denied*100 */\n              tag_73\n              swap2\n              swap1\n              tag_74\n              jump\t// in\n            tag_73:\n                /* \"campaign.sol\":3546:3564  (denied*100)/total */\n              tag_75\n              swap2\n              swap1\n              tag_76\n              jump\t// in\n            tag_75:\n                /* \"campaign.sol\":3528:3564  uint percentage = (denied*100)/total */\n              swap1\n              pop\n                /* \"campaign.sol\":3593:3597  true */\n              0x01\n                /* \"campaign.sol\":3575:3578  req */\n              dup5\n                /* \"campaign.sol\":3575:3590  req.isProcessed */\n              0x05\n              add\n              0x00\n                /* \"campaign.sol\":3575:3597  req.isProcessed = true */\n              0x0100\n              exp\n              dup2\n              sload\n              dup2\n              0xff\n              mul\n              not\n              and\n              swap1\n              dup4\n              iszero\n              iszero\n              mul\n              or\n              swap1\n              sstore\n              pop\n                /* \"campaign.sol\":3625:3641  approveThreshlod */\n              sload(0x04)\n                /* \"campaign.sol\":3611:3621  percentage */\n              dup2\n                /* \"campaign.sol\":3611:3641  percentage >= approveThreshlod */\n              lt\n                /* \"campaign.sol\":3608:3688  if(percentage >= approveThreshlod){\r... */\n              tag_77\n              jumpi\n                /* \"campaign.sol\":3672:3676  true */\n              0x01\n                /* \"campaign.sol\":3657:3660  req */\n              dup5\n                /* \"campaign.sol\":3657:3669  req.approved */\n              0x05\n              add\n              0x01\n                /* \"campaign.sol\":3657:3676  req.approved = true */\n              0x0100\n              exp\n              dup2\n              sload\n              dup2\n              0xff\n              mul\n              not\n              and\n              swap1\n              dup4\n              iszero\n              iszero\n              mul\n              or\n              swap1\n              sstore\n              pop\n                /* \"campaign.sol\":3608:3688  if(percentage >= approveThreshlod){\r... */\n            tag_77:\n                /* \"campaign.sol\":1449:1450  _ */\n              pop\n              pop\n              pop\n              pop\n                /* \"campaign.sol\":3034:3741  function checkApproval(uint req_number) public restricted{\r... */\n              pop\n              jump\t// out\n            tag_64:\n              dup3\n              dup1\n              sload\n              tag_78\n              swap1\n              tag_79\n              jump\t// in\n            tag_78:\n              swap1\n              0x00\n              mstore\n              keccak256(0x00, 0x20)\n              swap1\n              0x1f\n              add\n              0x20\n              swap1\n              div\n              dup2\n              add\n              swap3\n              dup3\n              tag_81\n              jumpi\n              0x00\n              dup6\n              sstore\n              jump(tag_80)\n            tag_81:\n              dup3\n              0x1f\n              lt\n              tag_82\n              jumpi\n              dup1\n              mload\n              not(0xff)\n              and\n              dup4\n              dup1\n              add\n              or\n              dup6\n              sstore\n              jump(tag_80)\n            tag_82:\n              dup3\n              dup1\n              add\n              0x01\n              add\n              dup6\n              sstore\n              dup3\n              iszero\n              tag_80\n              jumpi\n              swap2\n              dup3\n              add\n            tag_83:\n              dup3\n              dup2\n              gt\n              iszero\n              tag_84\n              jumpi\n              dup3\n              mload\n              dup3\n              sstore\n              swap2\n              0x20\n              add\n              swap2\n              swap1\n              0x01\n              add\n              swap1\n              jump(tag_83)\n            tag_84:\n            tag_80:\n              pop\n              swap1\n              pop\n              tag_85\n              swap2\n              swap1\n              tag_86\n              jump\t// in\n            tag_85:\n              pop\n              swap1\n              jump\t// out\n            tag_86:\n            tag_87:\n              dup1\n              dup3\n              gt\n              iszero\n              tag_88\n              jumpi\n              0x00\n              dup2\n              0x00\n              swap1\n              sstore\n              pop\n              0x01\n              add\n              jump(tag_87)\n            tag_88:\n              pop\n              swap1\n              jump\t// out\n                /* \"#utility.yul\":7:351   */\n            tag_90:\n              0x00\n                /* \"#utility.yul\":110:175   */\n              tag_92\n                /* \"#utility.yul\":125:174   */\n              tag_93\n                /* \"#utility.yul\":167:173   */\n              dup5\n                /* \"#utility.yul\":125:174   */\n              tag_94\n              jump\t// in\n            tag_93:\n                /* \"#utility.yul\":110:175   */\n              tag_95\n              jump\t// in\n            tag_92:\n                /* \"#utility.yul\":101:175   */\n              swap1\n              pop\n                /* \"#utility.yul\":198:204   */\n              dup3\n                /* \"#utility.yul\":191:196   */\n              dup2\n                /* \"#utility.yul\":184:205   */\n              mstore\n                /* \"#utility.yul\":236:240   */\n              0x20\n                /* \"#utility.yul\":229:234   */\n              dup2\n                /* \"#utility.yul\":225:241   */\n              add\n                /* \"#utility.yul\":274:277   */\n              dup5\n                /* \"#utility.yul\":265:271   */\n              dup5\n                /* \"#utility.yul\":260:263   */\n              dup5\n                /* \"#utility.yul\":256:272   */\n              add\n                /* \"#utility.yul\":253:278   */\n              gt\n                /* \"#utility.yul\":250:252   */\n              iszero\n              tag_96\n              jumpi\n                /* \"#utility.yul\":291:292   */\n              0x00\n                /* \"#utility.yul\":288:289   */\n              dup1\n                /* \"#utility.yul\":281:293   */\n              revert\n                /* \"#utility.yul\":250:252   */\n            tag_96:\n                /* \"#utility.yul\":304:345   */\n              tag_97\n                /* \"#utility.yul\":338:344   */\n              dup5\n                /* \"#utility.yul\":333:336   */\n              dup3\n                /* \"#utility.yul\":328:331   */\n              dup6\n                /* \"#utility.yul\":304:345   */\n              tag_98\n              jump\t// in\n            tag_97:\n                /* \"#utility.yul\":91:351   */\n              pop\n              swap4\n              swap3\n              pop\n              pop\n              pop\n              jump\t// out\n                /* \"#utility.yul\":357:496   */\n            tag_99:\n              0x00\n                /* \"#utility.yul\":441:447   */\n              dup2\n                /* \"#utility.yul\":428:448   */\n              calldataload\n                /* \"#utility.yul\":419:448   */\n              swap1\n              pop\n                /* \"#utility.yul\":457:490   */\n              tag_101\n                /* \"#utility.yul\":484:489   */\n              dup2\n                /* \"#utility.yul\":457:490   */\n              tag_102\n              jump\t// in\n            tag_101:\n                /* \"#utility.yul\":409:496   */\n              swap3\n              swap2\n              pop\n              pop\n              jump\t// out\n                /* \"#utility.yul\":502:635   */\n            tag_103:\n              0x00\n                /* \"#utility.yul\":583:589   */\n              dup2\n                /* \"#utility.yul\":570:590   */\n              calldataload\n                /* \"#utility.yul\":561:590   */\n              swap1\n              pop\n                /* \"#utility.yul\":599:629   */\n              tag_105\n                /* \"#utility.yul\":623:628   */\n              dup2\n                /* \"#utility.yul\":599:629   */\n              tag_106\n              jump\t// in\n            tag_105:\n                /* \"#utility.yul\":551:635   */\n              swap3\n              swap2\n              pop\n              pop\n              jump\t// out\n                /* \"#utility.yul\":655:928   */\n            tag_107:\n              0x00\n                /* \"#utility.yul\":760:763   */\n              dup3\n                /* \"#utility.yul\":753:757   */\n              0x1f\n                /* \"#utility.yul\":745:751   */\n              dup4\n                /* \"#utility.yul\":741:758   */\n              add\n                /* \"#utility.yul\":737:764   */\n              slt\n                /* \"#utility.yul\":727:729   */\n              tag_109\n              jumpi\n                /* \"#utility.yul\":778:779   */\n              0x00\n                /* \"#utility.yul\":775:776   */\n              dup1\n                /* \"#utility.yul\":768:780   */\n              revert\n                /* \"#utility.yul\":727:729   */\n            tag_109:\n                /* \"#utility.yul\":818:824   */\n              dup2\n                /* \"#utility.yul\":805:825   */\n              calldataload\n                /* \"#utility.yul\":843:922   */\n              tag_110\n                /* \"#utility.yul\":918:921   */\n              dup5\n                /* \"#utility.yul\":910:916   */\n              dup3\n                /* \"#utility.yul\":903:907   */\n              0x20\n                /* \"#utility.yul\":895:901   */\n              dup7\n                /* \"#utility.yul\":891:908   */\n              add\n                /* \"#utility.yul\":843:922   */\n              tag_90\n              jump\t// in\n            tag_110:\n                /* \"#utility.yul\":834:922   */\n              swap2\n              pop\n                /* \"#utility.yul\":717:928   */\n              pop\n              swap3\n              swap2\n              pop\n              pop\n              jump\t// out\n                /* \"#utility.yul\":934:1073   */\n            tag_111:\n              0x00\n                /* \"#utility.yul\":1018:1024   */\n              dup2\n                /* \"#utility.yul\":1005:1025   */\n              calldataload\n                /* \"#utility.yul\":996:1025   */\n              swap1\n              pop\n                /* \"#utility.yul\":1034:1067   */\n              tag_113\n                /* \"#utility.yul\":1061:1066   */\n              dup2\n                /* \"#utility.yul\":1034:1067   */\n              tag_114\n              jump\t// in\n            tag_113:\n                /* \"#utility.yul\":986:1073   */\n              swap3\n              swap2\n              pop\n              pop\n              jump\t// out\n                /* \"#utility.yul\":1079:1744   */\n            tag_34:\n              0x00\n              dup1\n              0x00\n                /* \"#utility.yul\":1231:1233   */\n              0x60\n                /* \"#utility.yul\":1219:1228   */\n              dup5\n                /* \"#utility.yul\":1210:1217   */\n              dup7\n                /* \"#utility.yul\":1206:1229   */\n              sub\n                /* \"#utility.yul\":1202:1234   */\n              slt\n                /* \"#utility.yul\":1199:1201   */\n              iszero\n              tag_116\n              jumpi\n                /* \"#utility.yul\":1247:1248   */\n              0x00\n                /* \"#utility.yul\":1244:1245   */\n              dup1\n                /* \"#utility.yul\":1237:1249   */\n              revert\n                /* \"#utility.yul\":1199:1201   */\n            tag_116:\n                /* \"#utility.yul\":1318:1319   */\n              0x00\n                /* \"#utility.yul\":1307:1316   */\n              dup5\n                /* \"#utility.yul\":1303:1320   */\n              add\n                /* \"#utility.yul\":1290:1321   */\n              calldataload\n                /* \"#utility.yul\":1348:1366   */\n              0xffffffffffffffff\n                /* \"#utility.yul\":1340:1346   */\n              dup2\n                /* \"#utility.yul\":1337:1367   */\n              gt\n                /* \"#utility.yul\":1334:1336   */\n              iszero\n              tag_117\n              jumpi\n                /* \"#utility.yul\":1380:1381   */\n              0x00\n                /* \"#utility.yul\":1377:1378   */\n              dup1\n                /* \"#utility.yul\":1370:1382   */\n              revert\n                /* \"#utility.yul\":1334:1336   */\n            tag_117:\n                /* \"#utility.yul\":1408:1471   */\n              tag_118\n                /* \"#utility.yul\":1463:1470   */\n              dup7\n                /* \"#utility.yul\":1454:1460   */\n              dup3\n                /* \"#utility.yul\":1443:1452   */\n              dup8\n                /* \"#utility.yul\":1439:1461   */\n              add\n                /* \"#utility.yul\":1408:1471   */\n              tag_107\n              jump\t// in\n            tag_118:\n                /* \"#utility.yul\":1398:1471   */\n              swap4\n              pop\n                /* \"#utility.yul\":1261:1481   */\n              pop\n                /* \"#utility.yul\":1520:1522   */\n              0x20\n                /* \"#utility.yul\":1546:1599   */\n              tag_119\n                /* \"#utility.yul\":1591:1598   */\n              dup7\n                /* \"#utility.yul\":1582:1588   */\n              dup3\n                /* \"#utility.yul\":1571:1580   */\n              dup8\n                /* \"#utility.yul\":1567:1589   */\n              add\n                /* \"#utility.yul\":1546:1599   */\n              tag_111\n              jump\t// in\n            tag_119:\n                /* \"#utility.yul\":1536:1599   */\n              swap3\n              pop\n                /* \"#utility.yul\":1491:1609   */\n              pop\n                /* \"#utility.yul\":1648:1650   */\n              0x40\n                /* \"#utility.yul\":1674:1727   */\n              tag_120\n                /* \"#utility.yul\":1719:1726   */\n              dup7\n                /* \"#utility.yul\":1710:1716   */\n              dup3\n                /* \"#utility.yul\":1699:1708   */\n              dup8\n                /* \"#utility.yul\":1695:1717   */\n              add\n                /* \"#utility.yul\":1674:1727   */\n              tag_99\n              jump\t// in\n            tag_120:\n                /* \"#utility.yul\":1664:1727   */\n              swap2\n              pop\n                /* \"#utility.yul\":1619:1737   */\n              pop\n                /* \"#utility.yul\":1189:1744   */\n              swap3\n              pop\n              swap3\n              pop\n              swap3\n              jump\t// out\n                /* \"#utility.yul\":1750:2012   */\n            tag_45:\n              0x00\n                /* \"#utility.yul\":1858:1860   */\n              0x20\n                /* \"#utility.yul\":1846:1855   */\n              dup3\n                /* \"#utility.yul\":1837:1844   */\n              dup5\n                /* \"#utility.yul\":1833:1856   */\n              sub\n                /* \"#utility.yul\":1829:1861   */\n              slt\n                /* \"#utility.yul\":1826:1828   */\n              iszero\n              tag_122\n              jumpi\n                /* \"#utility.yul\":1874:1875   */\n              0x00\n                /* \"#utility.yul\":1871:1872   */\n              dup1\n                /* \"#utility.yul\":1864:1876   */\n              revert\n                /* \"#utility.yul\":1826:1828   */\n            tag_122:\n                /* \"#utility.yul\":1917:1918   */\n              0x00\n                /* \"#utility.yul\":1942:1995   */\n              tag_123\n                /* \"#utility.yul\":1987:1994   */\n              dup5\n                /* \"#utility.yul\":1978:1984   */\n              dup3\n                /* \"#utility.yul\":1967:1976   */\n              dup6\n                /* \"#utility.yul\":1963:1985   */\n              add\n                /* \"#utility.yul\":1942:1995   */\n              tag_111\n              jump\t// in\n            tag_123:\n                /* \"#utility.yul\":1932:1995   */\n              swap2\n              pop\n                /* \"#utility.yul\":1888:2005   */\n              pop\n                /* \"#utility.yul\":1816:2012   */\n              swap3\n              swap2\n              pop\n              pop\n              jump\t// out\n                /* \"#utility.yul\":2018:2419   */\n            tag_29:\n              0x00\n              dup1\n                /* \"#utility.yul\":2140:2142   */\n              0x40\n                /* \"#utility.yul\":2128:2137   */\n              dup4\n                /* \"#utility.yul\":2119:2126   */\n              dup6\n                /* \"#utility.yul\":2115:2138   */\n              sub\n                /* \"#utility.yul\":2111:2143   */\n              slt\n                /* \"#utility.yul\":2108:2110   */\n              iszero\n              tag_125\n              jumpi\n                /* \"#utility.yul\":2156:2157   */\n              0x00\n                /* \"#utility.yul\":2153:2154   */\n              dup1\n                /* \"#utility.yul\":2146:2158   */\n              revert\n                /* \"#utility.yul\":2108:2110   */\n            tag_125:\n                /* \"#utility.yul\":2199:2200   */\n              0x00\n                /* \"#utility.yul\":2224:2277   */\n              tag_126\n                /* \"#utility.yul\":2269:2276   */\n              dup6\n                /* \"#utility.yul\":2260:2266   */\n              dup3\n                /* \"#utility.yul\":2249:2258   */\n              dup7\n                /* \"#utility.yul\":2245:2267   */\n              add\n                /* \"#utility.yul\":2224:2277   */\n              tag_111\n              jump\t// in\n            tag_126:\n                /* \"#utility.yul\":2214:2277   */\n              swap3\n              pop\n                /* \"#utility.yul\":2170:2287   */\n              pop\n                /* \"#utility.yul\":2326:2328   */\n              0x20\n                /* \"#utility.yul\":2352:2402   */\n              tag_127\n                /* \"#utility.yul\":2394:2401   */\n              dup6\n                /* \"#utility.yul\":2385:2391   */\n              dup3\n                /* \"#utility.yul\":2374:2383   */\n              dup7\n                /* \"#utility.yul\":2370:2392   */\n              add\n                /* \"#utility.yul\":2352:2402   */\n              tag_103\n              jump\t// in\n            tag_127:\n                /* \"#utility.yul\":2342:2402   */\n              swap2\n              pop\n                /* \"#utility.yul\":2297:2412   */\n              pop\n                /* \"#utility.yul\":2098:2419   */\n              swap3\n              pop\n              swap3\n              swap1\n              pop\n              jump\t// out\n                /* \"#utility.yul\":2425:2543   */\n            tag_128:\n                /* \"#utility.yul\":2512:2536   */\n              tag_130\n                /* \"#utility.yul\":2530:2535   */\n              dup2\n                /* \"#utility.yul\":2512:2536   */\n              tag_131\n              jump\t// in\n            tag_130:\n                /* \"#utility.yul\":2507:2510   */\n              dup3\n                /* \"#utility.yul\":2500:2537   */\n              mstore\n                /* \"#utility.yul\":2490:2543   */\n              pop\n              pop\n              jump\t// out\n                /* \"#utility.yul\":2549:2667   */\n            tag_132:\n                /* \"#utility.yul\":2636:2660   */\n              tag_134\n                /* \"#utility.yul\":2654:2659   */\n              dup2\n                /* \"#utility.yul\":2636:2660   */\n              tag_135\n              jump\t// in\n            tag_134:\n                /* \"#utility.yul\":2631:2634   */\n              dup3\n                /* \"#utility.yul\":2624:2661   */\n              mstore\n                /* \"#utility.yul\":2614:2667   */\n              pop\n              pop\n              jump\t// out\n                /* \"#utility.yul\":2673:2895   */\n            tag_25:\n              0x00\n                /* \"#utility.yul\":2804:2806   */\n              0x20\n                /* \"#utility.yul\":2793:2802   */\n              dup3\n                /* \"#utility.yul\":2789:2807   */\n              add\n                /* \"#utility.yul\":2781:2807   */\n              swap1\n              pop\n                /* \"#utility.yul\":2817:2888   */\n              tag_137\n                /* \"#utility.yul\":2885:2886   */\n              0x00\n                /* \"#utility.yul\":2874:2883   */\n              dup4\n                /* \"#utility.yul\":2870:2887   */\n              add\n                /* \"#utility.yul\":2861:2867   */\n              dup5\n                /* \"#utility.yul\":2817:2888   */\n              tag_128\n              jump\t// in\n            tag_137:\n                /* \"#utility.yul\":2771:2895   */\n              swap3\n              swap2\n              pop\n              pop\n              jump\t// out\n                /* \"#utility.yul\":2901:3123   */\n            tag_20:\n              0x00\n                /* \"#utility.yul\":3032:3034   */\n              0x20\n                /* \"#utility.yul\":3021:3030   */\n              dup3\n                /* \"#utility.yul\":3017:3035   */\n              add\n                /* \"#utility.yul\":3009:3035   */\n              swap1\n              pop\n                /* \"#utility.yul\":3045:3116   */\n              tag_139\n                /* \"#utility.yul\":3113:3114   */\n              0x00\n                /* \"#utility.yul\":3102:3111   */\n              dup4\n                /* \"#utility.yul\":3098:3115   */\n              add\n                /* \"#utility.yul\":3089:3095   */\n              dup5\n                /* \"#utility.yul\":3045:3116   */\n              tag_132\n              jump\t// in\n            tag_139:\n                /* \"#utility.yul\":2999:3123   */\n              swap3\n              swap2\n              pop\n              pop\n              jump\t// out\n                /* \"#utility.yul\":3129:3904   */\n            tag_15:\n              0x00\n                /* \"#utility.yul\":3400:3403   */\n              0xc0\n                /* \"#utility.yul\":3389:3398   */\n              dup3\n                /* \"#utility.yul\":3385:3404   */\n              add\n                /* \"#utility.yul\":3377:3404   */\n              swap1\n              pop\n                /* \"#utility.yul\":3414:3485   */\n              tag_141\n                /* \"#utility.yul\":3482:3483   */\n              0x00\n                /* \"#utility.yul\":3471:3480   */\n              dup4\n                /* \"#utility.yul\":3467:3484   */\n              add\n                /* \"#utility.yul\":3458:3464   */\n              dup10\n                /* \"#utility.yul\":3414:3485   */\n              tag_132\n              jump\t// in\n            tag_141:\n                /* \"#utility.yul\":3495:3567   */\n              tag_142\n                /* \"#utility.yul\":3563:3565   */\n              0x20\n                /* \"#utility.yul\":3552:3561   */\n              dup4\n                /* \"#utility.yul\":3548:3566   */\n              add\n                /* \"#utility.yul\":3539:3545   */\n              dup9\n                /* \"#utility.yul\":3495:3567   */\n              tag_132\n              jump\t// in\n            tag_142:\n                /* \"#utility.yul\":3577:3649   */\n              tag_143\n                /* \"#utility.yul\":3645:3647   */\n              0x40\n                /* \"#utility.yul\":3634:3643   */\n              dup4\n                /* \"#utility.yul\":3630:3648   */\n              add\n                /* \"#utility.yul\":3621:3627   */\n              dup8\n                /* \"#utility.yul\":3577:3649   */\n              tag_132\n              jump\t// in\n            tag_143:\n                /* \"#utility.yul\":3659:3731   */\n              tag_144\n                /* \"#utility.yul\":3727:3729   */\n              0x60\n                /* \"#utility.yul\":3716:3725   */\n              dup4\n                /* \"#utility.yul\":3712:3730   */\n              add\n                /* \"#utility.yul\":3703:3709   */\n              dup7\n                /* \"#utility.yul\":3659:3731   */\n              tag_132\n              jump\t// in\n            tag_144:\n                /* \"#utility.yul\":3741:3814   */\n              tag_145\n                /* \"#utility.yul\":3809:3812   */\n              0x80\n                /* \"#utility.yul\":3798:3807   */\n              dup4\n                /* \"#utility.yul\":3794:3813   */\n              add\n                /* \"#utility.yul\":3785:3791   */\n              dup6\n                /* \"#utility.yul\":3741:3814   */\n              tag_132\n              jump\t// in\n            tag_145:\n                /* \"#utility.yul\":3824:3897   */\n              tag_146\n                /* \"#utility.yul\":3892:3895   */\n              0xa0\n                /* \"#utility.yul\":3881:3890   */\n              dup4\n                /* \"#utility.yul\":3877:3896   */\n              add\n                /* \"#utility.yul\":3868:3874   */\n              dup5\n                /* \"#utility.yul\":3824:3897   */\n              tag_128\n              jump\t// in\n            tag_146:\n                /* \"#utility.yul\":3367:3904   */\n              swap8\n              swap7\n              pop\n              pop\n              pop\n              pop\n              pop\n              pop\n              pop\n              jump\t// out\n                /* \"#utility.yul\":3910:4193   */\n            tag_95:\n              0x00\n                /* \"#utility.yul\":3976:3978   */\n              0x40\n                /* \"#utility.yul\":3970:3979   */\n              mload\n                /* \"#utility.yul\":3960:3979   */\n              swap1\n              pop\n                /* \"#utility.yul\":4018:4022   */\n              dup2\n                /* \"#utility.yul\":4010:4016   */\n              dup2\n                /* \"#utility.yul\":4006:4023   */\n              add\n                /* \"#utility.yul\":4125:4131   */\n              dup2\n                /* \"#utility.yul\":4113:4123   */\n              dup2\n                /* \"#utility.yul\":4110:4132   */\n              lt\n                /* \"#utility.yul\":4089:4107   */\n              0xffffffffffffffff\n                /* \"#utility.yul\":4077:4087   */\n              dup3\n                /* \"#utility.yul\":4074:4108   */\n              gt\n                /* \"#utility.yul\":4071:4133   */\n              or\n                /* \"#utility.yul\":4068:4070   */\n              iszero\n              tag_148\n              jumpi\n                /* \"#utility.yul\":4136:4154   */\n              tag_149\n              tag_150\n              jump\t// in\n            tag_149:\n                /* \"#utility.yul\":4068:4070   */\n            tag_148:\n                /* \"#utility.yul\":4176:4186   */\n              dup1\n                /* \"#utility.yul\":4172:4174   */\n              0x40\n                /* \"#utility.yul\":4165:4187   */\n              mstore\n                /* \"#utility.yul\":3950:4193   */\n              pop\n              swap2\n              swap1\n              pop\n              jump\t// out\n                /* \"#utility.yul\":4199:4531   */\n            tag_94:\n              0x00\n                /* \"#utility.yul\":4351:4369   */\n              0xffffffffffffffff\n                /* \"#utility.yul\":4343:4349   */\n              dup3\n                /* \"#utility.yul\":4340:4370   */\n              gt\n                /* \"#utility.yul\":4337:4339   */\n              iszero\n              tag_152\n              jumpi\n                /* \"#utility.yul\":4373:4391   */\n              tag_153\n              tag_150\n              jump\t// in\n            tag_153:\n                /* \"#utility.yul\":4337:4339   */\n            tag_152:\n                /* \"#utility.yul\":4458:4462   */\n              0x1f\n                /* \"#utility.yul\":4454:4463   */\n              not\n                /* \"#utility.yul\":4447:4451   */\n              0x1f\n                /* \"#utility.yul\":4439:4445   */\n              dup4\n                /* \"#utility.yul\":4435:4452   */\n              add\n                /* \"#utility.yul\":4431:4464   */\n              and\n                /* \"#utility.yul\":4423:4464   */\n              swap1\n              pop\n                /* \"#utility.yul\":4519:4523   */\n              0x20\n                /* \"#utility.yul\":4513:4517   */\n              dup2\n                /* \"#utility.yul\":4509:4524   */\n              add\n                /* \"#utility.yul\":4501:4524   */\n              swap1\n              pop\n                /* \"#utility.yul\":4266:4531   */\n              swap2\n              swap1\n              pop\n              jump\t// out\n                /* \"#utility.yul\":4537:4842   */\n            tag_56:\n              0x00\n                /* \"#utility.yul\":4596:4616   */\n              tag_155\n                /* \"#utility.yul\":4614:4615   */\n              dup3\n                /* \"#utility.yul\":4596:4616   */\n              tag_135\n              jump\t// in\n            tag_155:\n                /* \"#utility.yul\":4591:4616   */\n              swap2\n              pop\n                /* \"#utility.yul\":4630:4650   */\n              tag_156\n                /* \"#utility.yul\":4648:4649   */\n              dup4\n                /* \"#utility.yul\":4630:4650   */\n              tag_135\n              jump\t// in\n            tag_156:\n                /* \"#utility.yul\":4625:4650   */\n              swap3\n              pop\n                /* \"#utility.yul\":4784:4785   */\n              dup3\n                /* \"#utility.yul\":4716:4782   */\n              0xffffffffffffffffffffffffffffffffffffffffffffffffffffffffffffffff\n                /* \"#utility.yul\":4712:4786   */\n              sub\n                /* \"#utility.yul\":4709:4710   */\n              dup3\n                /* \"#utility.yul\":4706:4787   */\n              gt\n                /* \"#utility.yul\":4703:4705   */\n              iszero\n              tag_157\n              jumpi\n                /* \"#utility.yul\":4790:4808   */\n              tag_158\n              tag_159\n              jump\t// in\n            tag_158:\n                /* \"#utility.yul\":4703:4705   */\n            tag_157:\n                /* \"#utility.yul\":4834:4835   */\n              dup3\n                /* \"#utility.yul\":4831:4832   */\n              dup3\n                /* \"#utility.yul\":4827:4836   */\n              add\n                /* \"#utility.yul\":4820:4836   */\n              swap1\n              pop\n                /* \"#utility.yul\":4581:4842   */\n              swap3\n              swap2\n              pop\n              pop\n              jump\t// out\n                /* \"#utility.yul\":4848:5033   */\n            tag_76:\n              0x00\n                /* \"#utility.yul\":4905:4925   */\n              tag_161\n                /* \"#utility.yul\":4923:4924   */\n              dup3\n                /* \"#utility.yul\":4905:4925   */\n              tag_135\n              jump\t// in\n            tag_161:\n                /* \"#utility.yul\":4900:4925   */\n              swap2\n              pop\n                /* \"#utility.yul\":4939:4959   */\n              tag_162\n                /* \"#utility.yul\":4957:4958   */\n              dup4\n                /* \"#utility.yul\":4939:4959   */\n              tag_135\n              jump\t// in\n            tag_162:\n                /* \"#utility.yul\":4934:4959   */\n              swap3\n              pop\n                /* \"#utility.yul\":4978:4979   */\n              dup3\n                /* \"#utility.yul\":4968:4970   */\n              tag_163\n              jumpi\n                /* \"#utility.yul\":4983:5001   */\n              tag_164\n              tag_165\n              jump\t// in\n            tag_164:\n                /* \"#utility.yul\":4968:4970   */\n            tag_163:\n                /* \"#utility.yul\":5025:5026   */\n              dup3\n                /* \"#utility.yul\":5022:5023   */\n              dup3\n                /* \"#utility.yul\":5018:5027   */\n              div\n                /* \"#utility.yul\":5013:5027   */\n              swap1\n              pop\n                /* \"#utility.yul\":4890:5033   */\n              swap3\n              swap2\n              pop\n              pop\n              jump\t// out\n                /* \"#utility.yul\":5039:5387   */\n            tag_74:\n              0x00\n                /* \"#utility.yul\":5102:5122   */\n              tag_167\n                /* \"#utility.yul\":5120:5121   */\n              dup3\n                /* \"#utility.yul\":5102:5122   */\n              tag_135\n              jump\t// in\n            tag_167:\n                /* \"#utility.yul\":5097:5122   */\n              swap2\n              pop\n                /* \"#utility.yul\":5136:5156   */\n              tag_168\n                /* \"#utility.yul\":5154:5155   */\n              dup4\n                /* \"#utility.yul\":5136:5156   */\n              tag_135\n              jump\t// in\n            tag_168:\n                /* \"#utility.yul\":5131:5156   */\n              swap3\n              pop\n                /* \"#utility.yul\":5324:5325   */\n              dup2\n                /* \"#utility.yul\":5256:5322   */\n              0xffffffffffffffffffffffffffffffffffffffffffffffffffffffffffffffff\n                /* \"#utility.yul\":5252:5326   */\n              div\n                /* \"#utility.yul\":5249:5250   */\n              dup4\n                /* \"#utility.yul\":5246:5327   */\n              gt\n                /* \"#utility.yul\":5241:5242   */\n              dup3\n                /* \"#utility.yul\":5234:5243   */\n              iszero\n                /* \"#utility.yul\":5227:5244   */\n              iszero\n                /* \"#utility.yul\":5223:5328   */\n              and\n                /* \"#utility.yul\":5220:5222   */\n              iszero\n              tag_169\n              jumpi\n                /* \"#utility.yul\":5331:5349   */\n              tag_170\n              tag_159\n              jump\t// in\n            tag_170:\n                /* \"#utility.yul\":5220:5222   */\n            tag_169:\n                /* \"#utility.yul\":5379:5380   */\n              dup3\n                /* \"#utility.yul\":5376:5377   */\n              dup3\n                /* \"#utility.yul\":5372:5381   */\n              mul\n                /* \"#utility.yul\":5361:5381   */\n              swap1\n              pop\n                /* \"#utility.yul\":5087:5387   */\n              swap3\n              swap2\n              pop\n              pop\n              jump\t// out\n                /* \"#utility.yul\":5393:5584   */\n            tag_51:\n              0x00\n                /* \"#utility.yul\":5453:5473   */\n              tag_172\n                /* \"#utility.yul\":5471:5472   */\n              dup3\n                /* \"#utility.yul\":5453:5473   */\n              tag_135\n              jump\t// in\n            tag_172:\n                /* \"#utility.yul\":5448:5473   */\n              swap2\n              pop\n                /* \"#utility.yul\":5487:5507   */\n              tag_173\n                /* \"#utility.yul\":5505:5506   */\n              dup4\n                /* \"#utility.yul\":5487:5507   */\n              tag_135\n              jump\t// in\n            tag_173:\n                /* \"#utility.yul\":5482:5507   */\n              swap3\n              pop\n                /* \"#utility.yul\":5526:5527   */\n              dup3\n                /* \"#utility.yul\":5523:5524   */\n              dup3\n                /* \"#utility.yul\":5520:5528   */\n              lt\n                /* \"#utility.yul\":5517:5519   */\n              iszero\n              tag_174\n              jumpi\n                /* \"#utility.yul\":5531:5549   */\n              tag_175\n              tag_159\n              jump\t// in\n            tag_175:\n                /* \"#utility.yul\":5517:5519   */\n            tag_174:\n                /* \"#utility.yul\":5576:5577   */\n              dup3\n                /* \"#utility.yul\":5573:5574   */\n              dup3\n                /* \"#utility.yul\":5569:5578   */\n              sub\n                /* \"#utility.yul\":5561:5578   */\n              swap1\n              pop\n                /* \"#utility.yul\":5438:5584   */\n              swap3\n              swap2\n              pop\n              pop\n              jump\t// out\n                /* \"#utility.yul\":5590:5686   */\n            tag_131:\n              0x00\n                /* \"#utility.yul\":5656:5680   */\n              tag_177\n                /* \"#utility.yul\":5674:5679   */\n              dup3\n                /* \"#utility.yul\":5656:5680   */\n              tag_178\n              jump\t// in\n            tag_177:\n                /* \"#utility.yul\":5645:5680   */\n              swap1\n              pop\n                /* \"#utility.yul\":5635:5686   */\n              swap2\n              swap1\n              pop\n              jump\t// out\n                /* \"#utility.yul\":5692:5782   */\n            tag_179:\n              0x00\n                /* \"#utility.yul\":5769:5774   */\n              dup2\n                /* \"#utility.yul\":5762:5775   */\n              iszero\n                /* \"#utility.yul\":5755:5776   */\n              iszero\n                /* \"#utility.yul\":5744:5776   */\n              swap1\n              pop\n                /* \"#utility.yul\":5734:5782   */\n              swap2\n              swap1\n              pop\n              jump\t// out\n                /* \"#utility.yul\":5788:5914   */\n            tag_178:\n              0x00\n                /* \"#utility.yul\":5865:5907   */\n              0xffffffffffffffffffffffffffffffffffffffff\n                /* \"#utility.yul\":5858:5863   */\n              dup3\n                /* \"#utility.yul\":5854:5908   */\n              and\n                /* \"#utility.yul\":5843:5908   */\n              swap1\n              pop\n                /* \"#utility.yul\":5833:5914   */\n              swap2\n              swap1\n              pop\n              jump\t// out\n                /* \"#utility.yul\":5920:5997   */\n            tag_135:\n              0x00\n                /* \"#utility.yul\":5986:5991   */\n              dup2\n                /* \"#utility.yul\":5975:5991   */\n              swap1\n              pop\n                /* \"#utility.yul\":5965:5997   */\n              swap2\n              swap1\n              pop\n              jump\t// out\n                /* \"#utility.yul\":6003:6157   */\n            tag_98:\n                /* \"#utility.yul\":6087:6093   */\n              dup3\n                /* \"#utility.yul\":6082:6085   */\n              dup2\n                /* \"#utility.yul\":6077:6080   */\n              dup4\n                /* \"#utility.yul\":6064:6094   */\n              calldatacopy\n                /* \"#utility.yul\":6149:6150   */\n              0x00\n                /* \"#utility.yul\":6140:6146   */\n              dup4\n                /* \"#utility.yul\":6135:6138   */\n              dup4\n                /* \"#utility.yul\":6131:6147   */\n              add\n                /* \"#utility.yul\":6124:6151   */\n              mstore\n                /* \"#utility.yul\":6054:6157   */\n              pop\n              pop\n              pop\n              jump\t// out\n                /* \"#utility.yul\":6163:6483   */\n            tag_79:\n              0x00\n                /* \"#utility.yul\":6244:6245   */\n              0x02\n                /* \"#utility.yul\":6238:6242   */\n              dup3\n                /* \"#utility.yul\":6234:6246   */\n              div\n                /* \"#utility.yul\":6224:6246   */\n              swap1\n              pop\n                /* \"#utility.yul\":6291:6292   */\n              0x01\n                /* \"#utility.yul\":6285:6289   */\n              dup3\n                /* \"#utility.yul\":6281:6293   */\n              and\n                /* \"#utility.yul\":6312:6330   */\n              dup1\n                /* \"#utility.yul\":6302:6304   */\n              tag_185\n              jumpi\n                /* \"#utility.yul\":6368:6372   */\n              0x7f\n                /* \"#utility.yul\":6360:6366   */\n              dup3\n                /* \"#utility.yul\":6356:6373   */\n              and\n                /* \"#utility.yul\":6346:6373   */\n              swap2\n              pop\n                /* \"#utility.yul\":6302:6304   */\n            tag_185:\n                /* \"#utility.yul\":6430:6432   */\n              0x20\n                /* \"#utility.yul\":6422:6428   */\n              dup3\n                /* \"#utility.yul\":6419:6433   */\n              lt\n                /* \"#utility.yul\":6399:6417   */\n              dup2\n                /* \"#utility.yul\":6396:6434   */\n              eq\n                /* \"#utility.yul\":6393:6395   */\n              iszero\n              tag_186\n              jumpi\n                /* \"#utility.yul\":6449:6467   */\n              tag_187\n              tag_188\n              jump\t// in\n            tag_187:\n                /* \"#utility.yul\":6393:6395   */\n            tag_186:\n                /* \"#utility.yul\":6214:6483   */\n              pop\n              swap2\n              swap1\n              pop\n              jump\t// out\n                /* \"#utility.yul\":6489:6722   */\n            tag_61:\n              0x00\n                /* \"#utility.yul\":6551:6575   */\n              tag_190\n                /* \"#utility.yul\":6569:6574   */\n              dup3\n                /* \"#utility.yul\":6551:6575   */\n              tag_135\n              jump\t// in\n            tag_190:\n                /* \"#utility.yul\":6542:6575   */\n              swap2\n              pop\n                /* \"#utility.yul\":6597:6663   */\n              0xffffffffffffffffffffffffffffffffffffffffffffffffffffffffffffffff\n                /* \"#utility.yul\":6590:6595   */\n              dup3\n                /* \"#utility.yul\":6587:6664   */\n              eq\n                /* \"#utility.yul\":6584:6586   */\n              iszero\n              tag_191\n              jumpi\n                /* \"#utility.yul\":6667:6685   */\n              tag_192\n              tag_159\n              jump\t// in\n            tag_192:\n                /* \"#utility.yul\":6584:6586   */\n            tag_191:\n                /* \"#utility.yul\":6714:6715   */\n              0x01\n                /* \"#utility.yul\":6707:6712   */\n              dup3\n                /* \"#utility.yul\":6703:6716   */\n              add\n                /* \"#utility.yul\":6696:6716   */\n              swap1\n              pop\n                /* \"#utility.yul\":6532:6722   */\n              swap2\n              swap1\n              pop\n              jump\t// out\n                /* \"#utility.yul\":6728:6908   */\n            tag_159:\n                /* \"#utility.yul\":6776:6853   */\n              0x4e487b7100000000000000000000000000000000000000000000000000000000\n                /* \"#utility.yul\":6773:6774   */\n              0x00\n                /* \"#utility.yul\":6766:6854   */\n              mstore\n                /* \"#utility.yul\":6873:6877   */\n              0x11\n                /* \"#utility.yul\":6870:6871   */\n              0x04\n                /* \"#utility.yul\":6863:6878   */\n              mstore\n                /* \"#utility.yul\":6897:6901   */\n              0x24\n                /* \"#utility.yul\":6894:6895   */\n              0x00\n                /* \"#utility.yul\":6887:6902   */\n              revert\n                /* \"#utility.yul\":6914:7094   */\n            tag_165:\n                /* \"#utility.yul\":6962:7039   */\n              0x4e487b7100000000000000000000000000000000000000000000000000000000\n                /* \"#utility.yul\":6959:6960   */\n              0x00\n                /* \"#utility.yul\":6952:7040   */\n              mstore\n                /* \"#utility.yul\":7059:7063   */\n              0x12\n                /* \"#utility.yul\":7056:7057   */\n              0x04\n                /* \"#utility.yul\":7049:7064   */\n              mstore\n                /* \"#utility.yul\":7083:7087   */\n              0x24\n                /* \"#utility.yul\":7080:7081   */\n              0x00\n                /* \"#utility.yul\":7073:7088   */\n              revert\n                /* \"#utility.yul\":7100:7280   */\n            tag_188:\n                /* \"#utility.yul\":7148:7225   */\n              0x4e487b7100000000000000000000000000000000000000000000000000000000\n                /* \"#utility.yul\":7145:7146   */\n              0x00\n                /* \"#utility.yul\":7138:7226   */\n              mstore\n                /* \"#utility.yul\":7245:7249   */\n              0x22\n                /* \"#utility.yul\":7242:7243   */\n              0x04\n                /* \"#utility.yul\":7235:7250   */\n              mstore\n                /* \"#utility.yul\":7269:7273   */\n              0x24\n                /* \"#utility.yul\":7266:7267   */\n              0x00\n                /* \"#utility.yul\":7259:7274   */\n              revert\n                /* \"#utility.yul\":7286:7466   */\n            tag_150:\n                /* \"#utility.yul\":7334:7411   */\n              0x4e487b7100000000000000000000000000000000000000000000000000000000\n                /* \"#utility.yul\":7331:7332   */\n              0x00\n                /* \"#utility.yul\":7324:7412   */\n              mstore\n                /* \"#utility.yul\":7431:7435   */\n              0x41\n                /* \"#utility.yul\":7428:7429   */\n              0x04\n                /* \"#utility.yul\":7421:7436   */\n              mstore\n                /* \"#utility.yul\":7455:7459   */\n              0x24\n                /* \"#utility.yul\":7452:7453   */\n              0x00\n                /* \"#utility.yul\":7445:7460   */\n              revert\n                /* \"#utility.yul\":7472:7594   */\n            tag_102:\n                /* \"#utility.yul\":7545:7569   */\n              tag_198\n                /* \"#utility.yul\":7563:7568   */\n              dup2\n                /* \"#utility.yul\":7545:7569   */\n              tag_131\n              jump\t// in\n            tag_198:\n                /* \"#utility.yul\":7538:7543   */\n              dup2\n                /* \"#utility.yul\":7535:7570   */\n              eq\n                /* \"#utility.yul\":7525:7527   */\n              tag_199\n              jumpi\n                /* \"#utility.yul\":7584:7585   */\n              0x00\n                /* \"#utility.yul\":7581:7582   */\n              dup1\n                /* \"#utility.yul\":7574:7586   */\n              revert\n                /* \"#utility.yul\":7525:7527   */\n            tag_199:\n                /* \"#utility.yul\":7515:7594   */\n              pop\n              jump\t// out\n                /* \"#utility.yul\":7600:7716   */\n            tag_106:\n                /* \"#utility.yul\":7670:7691   */\n              tag_201\n                /* \"#utility.yul\":7685:7690   */\n              dup2\n                /* \"#utility.yul\":7670:7691   */\n              tag_179\n              jump\t// in\n            tag_201:\n                /* \"#utility.yul\":7663:7668   */\n              dup2\n                /* \"#utility.yul\":7660:7692   */\n              eq\n                /* \"#utility.yul\":7650:7652   */\n              tag_202\n              jumpi\n                /* \"#utility.yul\":7706:7707   */\n              0x00\n                /* \"#utility.yul\":7703:7704   */\n              dup1\n                /* \"#utility.yul\":7696:7708   */\n              revert\n                /* \"#utility.yul\":7650:7652   */\n            tag_202:\n                /* \"#utility.yul\":7640:7716   */\n              pop\n              jump\t// out\n                /* \"#utility.yul\":7722:7844   */\n            tag_114:\n                /* \"#utility.yul\":7795:7819   */\n              tag_204\n                /* \"#utility.yul\":7813:7818   */\n              dup2\n                /* \"#utility.yul\":7795:7819   */\n              tag_135\n              jump\t// in\n            tag_204:\n                /* \"#utility.yul\":7788:7793   */\n              dup2\n                /* \"#utility.yul\":7785:7820   */\n              eq\n                /* \"#utility.yul\":7775:7777   */\n              tag_205\n              jumpi\n                /* \"#utility.yul\":7834:7835   */\n              0x00\n                /* \"#utility.yul\":7831:7832   */\n              dup1\n                /* \"#utility.yul\":7824:7836   */\n              revert\n                /* \"#utility.yul\":7775:7777   */\n            tag_205:\n                /* \"#utility.yul\":7765:7844   */\n              pop\n              jump\t// out\n\n            auxdata: 0xa2646970667358221220d45a1c138f5720f9f0549d100daf735e6a3454b66aec93de7ddfee5006453dae64736f6c63430008000033\n        }\n    }\n\n    auxdata: 0xa2646970667358221220eb6938ecfcf4f488274bd5773bbf7b7c7394537bdb9fa42e680c5912cc23f00964736f6c63430008000033\n}\n","bytecode":{"linkReferences":{},"object":"608060405234801561001057600080fd5b50336000806101000a81548173ffffffffffffffffffffffffffffffffffffffff021916908373ffffffffffffffffffffffffffffffffffffffff160217905550611375806100606000396000f3fe608060405234801561001057600080fd5b506004361061004c5760003560e01c80632250226814610051578063339d50a51461006d578063481c6a751461009d5780634acb9d4f146100bb575b600080fd5b61006b600480360381019061006691906102b9565b6100d9565b005b61008760048036038101906100829190610290565b61017d565b60405161009491906103e4565b60405180910390f35b6100a56101bc565b6040516100b291906103a7565b60405180910390f35b6100c36101e0565b6040516100d091906103c2565b60405180910390f35b60008282336040516100ea9061026e565b6100f6939291906103ff565b604051809103906000f080158015610112573d6000803e3d6000fd5b5090506001819080600181540180825580915050600190039060005260206000200160009091909190916101000a81548173ffffffffffffffffffffffffffffffffffffffff021916908373ffffffffffffffffffffffffffffffffffffffff160217905550505050565b6001818154811061018d57600080fd5b906000526020600020016000915054906101000a900473ffffffffffffffffffffffffffffffffffffffff1681565b60008054906101000a900473ffffffffffffffffffffffffffffffffffffffff1681565b6060600180548060200260200160405190810160405280929190818152602001828054801561026457602002820191906000526020600020905b8160009054906101000a900473ffffffffffffffffffffffffffffffffffffffff1673ffffffffffffffffffffffffffffffffffffffff168152602001906001019080831161021a575b5050505050905090565b610e59806104e783390190565b60008135905061028a816104cf565b92915050565b6000602082840312156102a257600080fd5b60006102b08482850161027b565b91505092915050565b600080604083850312156102cc57600080fd5b60006102da8582860161027b565b92505060206102eb8582860161027b565b9150509250929050565b6000610301838361037a565b60208301905092915050565b6103168161046f565b82525050565b600061032782610446565b610331818561045e565b935061033c83610436565b8060005b8381101561036d57815161035488826102f5565b975061035f83610451565b925050600181019050610340565b5085935050505092915050565b610383816104ab565b82525050565b610392816104ab565b82525050565b6103a1816104a1565b82525050565b60006020820190506103bc600083018461030d565b92915050565b600060208201905081810360008301526103dc818461031c565b905092915050565b60006020820190506103f96000830184610389565b92915050565b60006060820190506104146000830186610398565b6104216020830185610398565b61042e604083018461030d565b949350505050565b6000819050602082019050919050565b600081519050919050565b6000602082019050919050565b600082825260208201905092915050565b600061047a82610481565b9050919050565b600073ffffffffffffffffffffffffffffffffffffffff82169050919050565b6000819050919050565b60006104b6826104bd565b9050919050565b60006104c882610481565b9050919050565b6104d8816104a1565b81146104e357600080fd5b5056fe60806040523480156200001157600080fd5b5060405162000e5938038062000e598339818101604052810190620000379190620000cc565b806000806101000a81548173ffffffffffffffffffffffffffffffffffffffff021916908373ffffffffffffffffffffffffffffffffffffffff16021790555082600181905550816004819055506000600381905550600060058190555050505062000194565b600081519050620000af8162000160565b92915050565b600081519050620000c6816200017a565b92915050565b600080600060608486031215620000e257600080fd5b6000620000f286828701620000b5565b93505060206200010586828701620000b5565b925050604062000118868287016200009e565b9150509250925092565b60006200012f8262000136565b9050919050565b600073ffffffffffffffffffffffffffffffffffffffff82169050919050565b6000819050919050565b6200016b8162000122565b81146200017757600080fd5b50565b620001858162000156565b81146200019157600080fd5b50565b610cb580620001a46000396000f3fe60806040526004361061007b5760003560e01c80638a9cfd551161004e5780638a9cfd551461012f578063aaffadf314610158578063d7bb99ba14610183578063fea21ce51461018d5761007b565b80632d8f1adc146100805780633fad1834146100b0578063481c6a75146100db578063767e0b9c14610106575b600080fd5b34801561008c57600080fd5b506100956101b6565b6040516100a7969594939291906108d5565b60405180910390f35b3480156100bc57600080fd5b506100c5610201565b6040516100d291906108ba565b60405180910390f35b3480156100e757600080fd5b506100f061020b565b6040516100fd919061089f565b60405180910390f35b34801561011257600080fd5b5061012d60048036038101906101289190610845565b61022f565b005b34801561013b57600080fd5b50610156600480360381019061015191906107b5565b610371565b005b34801561016457600080fd5b5061016d6104e5565b60405161017a91906108ba565b60405180910390f35b61018b6104eb565b005b34801561019957600080fd5b506101b460048036038101906101af919061081c565b61055d565b005b6000806000806000806003546004546001544760055460008054906101000a900473ffffffffffffffffffffffffffffffffffffffff16955095509550955095509550909192939495565b6000600354905090565b60008054906101000a900473ffffffffffffffffffffffffffffffffffffffff1681565b6000600660006001856102429190610a78565b815260200190815260200160002090508060050160009054906101000a900460ff161561026e57600080fd5b60008160060160003373ffffffffffffffffffffffffffffffffffffffff1673ffffffffffffffffffffffffffffffffffffffff16815260200190815260200160002054146102bc57600080fd5b816103255760018160040160008282546102d69190610997565b9250508190555060028160060160003373ffffffffffffffffffffffffffffffffffffffff1673ffffffffffffffffffffffffffffffffffffffff168152602001908152602001600020819055505b60018160060160003373ffffffffffffffffffffffffffffffffffffffff1673ffffffffffffffffffffffffffffffffffffffff16815260200190815260200160002081905550505050565b60008054906101000a900473ffffffffffffffffffffffffffffffffffffffff1673ffffffffffffffffffffffffffffffffffffffff163373ffffffffffffffffffffffffffffffffffffffff16146103c957600080fd5b600360008154809291906103dc90610b35565b9190505550600060066000600360008154809291906103fa90610b35565b91905055815260200190815260200160002090508381600201908051906020019061042692919061066b565b50828160000181905550818160010160006101000a81548173ffffffffffffffffffffffffffffffffffffffff021916908373ffffffffffffffffffffffffffffffffffffffff160217905550600354816003018190555060008160050160006101000a81548160ff0219169083151502179055506000816004018190555060008160050160016101000a81548160ff02191690831515021790555060008160050160026101000a81548160ff02191690831515021790555050505050565b60015481565b6001543410156104fa57600080fd5b34600260003373ffffffffffffffffffffffffffffffffffffffff1673ffffffffffffffffffffffffffffffffffffffff168152602001908152602001600020600001819055506001600560008282546105549190610997565b92505081905550565b60008054906101000a900473ffffffffffffffffffffffffffffffffffffffff1673ffffffffffffffffffffffffffffffffffffffff163373ffffffffffffffffffffffffffffffffffffffff16146105b557600080fd5b6000600660006001846105c89190610a78565b815260200190815260200160002090508060050160009054906101000a900460ff16156105f457600080fd5b600060055490506000826004015490506000826064836106149190610a1e565b61061e91906109ed565b905060018460050160006101000a81548160ff02191690831515021790555060045481106106645760018460050160016101000a81548160ff0219169083151502179055505b5050505050565b82805461067790610b03565b90600052602060002090601f01602090048101928261069957600085556106e0565b82601f106106b257805160ff19168380011785556106e0565b828001600101855582156106e0579182015b828111156106df5782518255916020019190600101906106c4565b5b5090506106ed91906106f1565b5090565b5b8082111561070a5760008160009055506001016106f2565b5090565b600061072161071c84610967565b610936565b90508281526020810184848401111561073957600080fd5b610744848285610af4565b509392505050565b60008135905061075b81610c3a565b92915050565b60008135905061077081610c51565b92915050565b600082601f83011261078757600080fd5b813561079784826020860161070e565b91505092915050565b6000813590506107af81610c68565b92915050565b6000806000606084860312156107ca57600080fd5b600084013567ffffffffffffffff8111156107e457600080fd5b6107f086828701610776565b9350506020610801868287016107a0565b92505060406108128682870161074c565b9150509250925092565b60006020828403121561082e57600080fd5b600061083c848285016107a0565b91505092915050565b6000806040838503121561085857600080fd5b6000610866858286016107a0565b925050602061087785828601610761565b9150509250929050565b61088a81610aac565b82525050565b61089981610aea565b82525050565b60006020820190506108b46000830184610881565b92915050565b60006020820190506108cf6000830184610890565b92915050565b600060c0820190506108ea6000830189610890565b6108f76020830188610890565b6109046040830187610890565b6109116060830186610890565b61091e6080830185610890565b61092b60a0830184610881565b979650505050505050565b6000604051905081810181811067ffffffffffffffff8211171561095d5761095c610c0b565b5b8060405250919050565b600067ffffffffffffffff82111561098257610981610c0b565b5b601f19601f8301169050602081019050919050565b60006109a282610aea565b91506109ad83610aea565b9250827fffffffffffffffffffffffffffffffffffffffffffffffffffffffffffffffff038211156109e2576109e1610b7e565b5b828201905092915050565b60006109f882610aea565b9150610a0383610aea565b925082610a1357610a12610bad565b5b828204905092915050565b6000610a2982610aea565b9150610a3483610aea565b9250817fffffffffffffffffffffffffffffffffffffffffffffffffffffffffffffffff0483118215151615610a6d57610a6c610b7e565b5b828202905092915050565b6000610a8382610aea565b9150610a8e83610aea565b925082821015610aa157610aa0610b7e565b5b828203905092915050565b6000610ab782610aca565b9050919050565b60008115159050919050565b600073ffffffffffffffffffffffffffffffffffffffff82169050919050565b6000819050919050565b82818337600083830152505050565b60006002820490506001821680610b1b57607f821691505b60208210811415610b2f57610b2e610bdc565b5b50919050565b6000610b4082610aea565b91507fffffffffffffffffffffffffffffffffffffffffffffffffffffffffffffffff821415610b7357610b72610b7e565b5b600182019050919050565b7f4e487b7100000000000000000000000000000000000000000000000000000000600052601160045260246000fd5b7f4e487b7100000000000000000000000000000000000000000000000000000000600052601260045260246000fd5b7f4e487b7100000000000000000000000000000000000000000000000000000000600052602260045260246000fd5b7f4e487b7100000000000000000000000000000000000000000000000000000000600052604160045260246000fd5b610c4381610aac565b8114610c4e57600080fd5b50565b610c5a81610abe565b8114610c6557600080fd5b50565b610c7181610aea565b8114610c7c57600080fd5b5056fea2646970667358221220d45a1c138f5720f9f0549d100daf735e6a3454b66aec93de7ddfee5006453dae64736f6c63430008000033a2646970667358221220eb6938ecfcf4f488274bd5773bbf7b7c7394537bdb9fa42e680c5912cc23f00964736f6c63430008000033","opcodes":"PUSH1 0x80 PUSH1 0x40 MSTORE CALLVALUE DUP1 ISZERO PUSH2 0x10 JUMPI PUSH1 0x0 DUP1 REVERT JUMPDEST POP CALLER PUSH1 0x0 DUP1 PUSH2 0x100 EXP DUP2 SLOAD DUP2 PUSH20 0xFFFFFFFFFFFFFFFFFFFFFFFFFFFFFFFFFFFFFFFF MUL NOT AND SWAP1 DUP4 PUSH20 0xFFFFFFFFFFFFFFFFFFFFFFFFFFFFFFFFFFFFFFFF AND MUL OR SWAP1 SSTORE POP PUSH2 0x1375 DUP1 PUSH2 0x60 PUSH1 0x0 CODECOPY PUSH1 0x0 RETURN INVALID PUSH1 0x80 PUSH1 0x40 MSTORE CALLVALUE DUP1 ISZERO PUSH2 0x10 JUMPI PUSH1 0x0 DUP1 REVERT JUMPDEST POP PUSH1 0x4 CALLDATASIZE LT PUSH2 0x4C JUMPI PUSH1 0x0 CALLDATALOAD PUSH1 0xE0 SHR DUP1 PUSH4 0x22502268 EQ PUSH2 0x51 JUMPI DUP1 PUSH4 0x339D50A5 EQ PUSH2 0x6D JUMPI DUP1 PUSH4 0x481C6A75 EQ PUSH2 0x9D JUMPI DUP1 PUSH4 0x4ACB9D4F EQ PUSH2 0xBB JUMPI JUMPDEST PUSH1 0x0 DUP1 REVERT JUMPDEST PUSH2 0x6B PUSH1 0x4 DUP1 CALLDATASIZE SUB DUP2 ADD SWAP1 PUSH2 0x66 SWAP2 SWAP1 PUSH2 0x2B9 JUMP JUMPDEST PUSH2 0xD9 JUMP JUMPDEST STOP JUMPDEST PUSH2 0x87 PUSH1 0x4 DUP1 CALLDATASIZE SUB DUP2 ADD SWAP1 PUSH2 0x82 SWAP2 SWAP1 PUSH2 0x290 JUMP JUMPDEST PUSH2 0x17D JUMP JUMPDEST PUSH1 0x40 MLOAD PUSH2 0x94 SWAP2 SWAP1 PUSH2 0x3E4 JUMP JUMPDEST PUSH1 0x40 MLOAD DUP1 SWAP2 SUB SWAP1 RETURN JUMPDEST PUSH2 0xA5 PUSH2 0x1BC JUMP JUMPDEST PUSH1 0x40 MLOAD PUSH2 0xB2 SWAP2 SWAP1 PUSH2 0x3A7 JUMP JUMPDEST PUSH1 0x40 MLOAD DUP1 SWAP2 SUB SWAP1 RETURN JUMPDEST PUSH2 0xC3 PUSH2 0x1E0 JUMP JUMPDEST PUSH1 0x40 MLOAD PUSH2 0xD0 SWAP2 SWAP1 PUSH2 0x3C2 JUMP JUMPDEST PUSH1 0x40 MLOAD DUP1 SWAP2 SUB SWAP1 RETURN JUMPDEST PUSH1 0x0 DUP3 DUP3 CALLER PUSH1 0x40 MLOAD PUSH2 0xEA SWAP1 PUSH2 0x26E JUMP JUMPDEST PUSH2 0xF6 SWAP4 SWAP3 SWAP2 SWAP1 PUSH2 0x3FF JUMP JUMPDEST PUSH1 0x40 MLOAD DUP1 SWAP2 SUB SWAP1 PUSH1 0x0 CREATE DUP1 ISZERO DUP1 ISZERO PUSH2 0x112 JUMPI RETURNDATASIZE PUSH1 0x0 DUP1 RETURNDATACOPY RETURNDATASIZE PUSH1 0x0 REVERT JUMPDEST POP SWAP1 POP PUSH1 0x1 DUP2 SWAP1 DUP1 PUSH1 0x1 DUP2 SLOAD ADD DUP1 DUP3 SSTORE DUP1 SWAP2 POP POP PUSH1 0x1 SWAP1 SUB SWAP1 PUSH1 0x0 MSTORE PUSH1 0x20 PUSH1 0x0 KECCAK256 ADD PUSH1 0x0 SWAP1 SWAP2 SWAP1 SWAP2 SWAP1 SWAP2 PUSH2 0x100 EXP DUP2 SLOAD DUP2 PUSH20 0xFFFFFFFFFFFFFFFFFFFFFFFFFFFFFFFFFFFFFFFF MUL NOT AND SWAP1 DUP4 PUSH20 0xFFFFFFFFFFFFFFFFFFFFFFFFFFFFFFFFFFFFFFFF AND MUL OR SWAP1 SSTORE POP POP POP POP JUMP JUMPDEST PUSH1 0x1 DUP2 DUP2 SLOAD DUP2 LT PUSH2 0x18D JUMPI PUSH1 0x0 DUP1 REVERT JUMPDEST SWAP1 PUSH1 0x0 MSTORE PUSH1 0x20 PUSH1 0x0 KECCAK256 ADD PUSH1 0x0 SWAP2 POP SLOAD SWAP1 PUSH2 0x100 EXP SWAP1 DIV PUSH20 0xFFFFFFFFFFFFFFFFFFFFFFFFFFFFFFFFFFFFFFFF AND DUP2 JUMP JUMPDEST PUSH1 0x0 DUP1 SLOAD SWAP1 PUSH2 0x100 EXP SWAP1 DIV PUSH20 0xFFFFFFFFFFFFFFFFFFFFFFFFFFFFFFFFFFFFFFFF AND DUP2 JUMP JUMPDEST PUSH1 0x60 PUSH1 0x1 DUP1 SLOAD DUP1 PUSH1 0x20 MUL PUSH1 0x20 ADD PUSH1 0x40 MLOAD SWAP1 DUP2 ADD PUSH1 0x40 MSTORE DUP1 SWAP3 SWAP2 SWAP1 DUP2 DUP2 MSTORE PUSH1 0x20 ADD DUP3 DUP1 SLOAD DUP1 ISZERO PUSH2 0x264 JUMPI PUSH1 0x20 MUL DUP3 ADD SWAP2 SWAP1 PUSH1 0x0 MSTORE PUSH1 0x20 PUSH1 0x0 KECCAK256 SWAP1 JUMPDEST DUP2 PUSH1 0x0 SWAP1 SLOAD SWAP1 PUSH2 0x100 EXP SWAP1 DIV PUSH20 0xFFFFFFFFFFFFFFFFFFFFFFFFFFFFFFFFFFFFFFFF AND PUSH20 0xFFFFFFFFFFFFFFFFFFFFFFFFFFFFFFFFFFFFFFFF AND DUP2 MSTORE PUSH1 0x20 ADD SWAP1 PUSH1 0x1 ADD SWAP1 DUP1 DUP4 GT PUSH2 0x21A JUMPI JUMPDEST POP POP POP POP POP SWAP1 POP SWAP1 JUMP JUMPDEST PUSH2 0xE59 DUP1 PUSH2 0x4E7 DUP4 CODECOPY ADD SWAP1 JUMP JUMPDEST PUSH1 0x0 DUP2 CALLDATALOAD SWAP1 POP PUSH2 0x28A DUP2 PUSH2 0x4CF JUMP JUMPDEST SWAP3 SWAP2 POP POP JUMP JUMPDEST PUSH1 0x0 PUSH1 0x20 DUP3 DUP5 SUB SLT ISZERO PUSH2 0x2A2 JUMPI PUSH1 0x0 DUP1 REVERT JUMPDEST PUSH1 0x0 PUSH2 0x2B0 DUP5 DUP3 DUP6 ADD PUSH2 0x27B JUMP JUMPDEST SWAP2 POP POP SWAP3 SWAP2 POP POP JUMP JUMPDEST PUSH1 0x0 DUP1 PUSH1 0x40 DUP4 DUP6 SUB SLT ISZERO PUSH2 0x2CC JUMPI PUSH1 0x0 DUP1 REVERT JUMPDEST PUSH1 0x0 PUSH2 0x2DA DUP6 DUP3 DUP7 ADD PUSH2 0x27B JUMP JUMPDEST SWAP3 POP POP PUSH1 0x20 PUSH2 0x2EB DUP6 DUP3 DUP7 ADD PUSH2 0x27B JUMP JUMPDEST SWAP2 POP POP SWAP3 POP SWAP3 SWAP1 POP JUMP JUMPDEST PUSH1 0x0 PUSH2 0x301 DUP4 DUP4 PUSH2 0x37A JUMP JUMPDEST PUSH1 0x20 DUP4 ADD SWAP1 POP SWAP3 SWAP2 POP POP JUMP JUMPDEST PUSH2 0x316 DUP2 PUSH2 0x46F JUMP JUMPDEST DUP3 MSTORE POP POP JUMP JUMPDEST PUSH1 0x0 PUSH2 0x327 DUP3 PUSH2 0x446 JUMP JUMPDEST PUSH2 0x331 DUP2 DUP6 PUSH2 0x45E JUMP JUMPDEST SWAP4 POP PUSH2 0x33C DUP4 PUSH2 0x436 JUMP JUMPDEST DUP1 PUSH1 0x0 JUMPDEST DUP4 DUP2 LT ISZERO PUSH2 0x36D JUMPI DUP2 MLOAD PUSH2 0x354 DUP9 DUP3 PUSH2 0x2F5 JUMP JUMPDEST SWAP8 POP PUSH2 0x35F DUP4 PUSH2 0x451 JUMP JUMPDEST SWAP3 POP POP PUSH1 0x1 DUP2 ADD SWAP1 POP PUSH2 0x340 JUMP JUMPDEST POP DUP6 SWAP4 POP POP POP POP SWAP3 SWAP2 POP POP JUMP JUMPDEST PUSH2 0x383 DUP2 PUSH2 0x4AB JUMP JUMPDEST DUP3 MSTORE POP POP JUMP JUMPDEST PUSH2 0x392 DUP2 PUSH2 0x4AB JUMP JUMPDEST DUP3 MSTORE POP POP JUMP JUMPDEST PUSH2 0x3A1 DUP2 PUSH2 0x4A1 JUMP JUMPDEST DUP3 MSTORE POP POP JUMP JUMPDEST PUSH1 0x0 PUSH1 0x20 DUP3 ADD SWAP1 POP PUSH2 0x3BC PUSH1 0x0 DUP4 ADD DUP5 PUSH2 0x30D JUMP JUMPDEST SWAP3 SWAP2 POP POP JUMP JUMPDEST PUSH1 0x0 PUSH1 0x20 DUP3 ADD SWAP1 POP DUP2 DUP2 SUB PUSH1 0x0 DUP4 ADD MSTORE PUSH2 0x3DC DUP2 DUP5 PUSH2 0x31C JUMP JUMPDEST SWAP1 POP SWAP3 SWAP2 POP POP JUMP JUMPDEST PUSH1 0x0 PUSH1 0x20 DUP3 ADD SWAP1 POP PUSH2 0x3F9 PUSH1 0x0 DUP4 ADD DUP5 PUSH2 0x389 JUMP JUMPDEST SWAP3 SWAP2 POP POP JUMP JUMPDEST PUSH1 0x0 PUSH1 0x60 DUP3 ADD SWAP1 POP PUSH2 0x414 PUSH1 0x0 DUP4 ADD DUP7 PUSH2 0x398 JUMP JUMPDEST PUSH2 0x421 PUSH1 0x20 DUP4 ADD DUP6 PUSH2 0x398 JUMP JUMPDEST PUSH2 0x42E PUSH1 0x40 DUP4 ADD DUP5 PUSH2 0x30D JUMP JUMPDEST SWAP5 SWAP4 POP POP POP POP JUMP JUMPDEST PUSH1 0x0 DUP2 SWAP1 POP PUSH1 0x20 DUP3 ADD SWAP1 POP SWAP2 SWAP1 POP JUMP JUMPDEST PUSH1 0x0 DUP2 MLOAD SWAP1 POP SWAP2 SWAP1 POP JUMP JUMPDEST PUSH1 0x0 PUSH1 0x20 DUP3 ADD SWAP1 POP SWAP2 SWAP1 POP JUMP JUMPDEST PUSH1 0x0 DUP3 DUP3 MSTORE PUSH1 0x20 DUP3 ADD SWAP1 POP SWAP3 SWAP2 POP POP JUMP JUMPDEST PUSH1 0x0 PUSH2 0x47A DUP3 PUSH2 0x481 JUMP JUMPDEST SWAP1 POP SWAP2 SWAP1 POP JUMP JUMPDEST PUSH1 0x0 PUSH20 0xFFFFFFFFFFFFFFFFFFFFFFFFFFFFFFFFFFFFFFFF DUP3 AND SWAP1 POP SWAP2 SWAP1 POP JUMP JUMPDEST PUSH1 0x0 DUP2 SWAP1 POP SWAP2 SWAP1 POP JUMP JUMPDEST PUSH1 0x0 PUSH2 0x4B6 DUP3 PUSH2 0x4BD JUMP JUMPDEST SWAP1 POP SWAP2 SWAP1 POP JUMP JUMPDEST PUSH1 0x0 PUSH2 0x4C8 DUP3 PUSH2 0x481 JUMP JUMPDEST SWAP1 POP SWAP2 SWAP1 POP JUMP JUMPDEST PUSH2 0x4D8 DUP2 PUSH2 0x4A1 JUMP JUMPDEST DUP2 EQ PUSH2 0x4E3 JUMPI PUSH1 0x0 DUP1 REVERT JUMPDEST POP JUMP INVALID PUSH1 0x80 PUSH1 0x40 MSTORE CALLVALUE DUP1 ISZERO PUSH3 0x11 JUMPI PUSH1 0x0 DUP1 REVERT JUMPDEST POP PUSH1 0x40 MLOAD PUSH3 0xE59 CODESIZE SUB DUP1 PUSH3 0xE59 DUP4 CODECOPY DUP2 DUP2 ADD PUSH1 0x40 MSTORE DUP2 ADD SWAP1 PUSH3 0x37 SWAP2 SWAP1 PUSH3 0xCC JUMP JUMPDEST DUP1 PUSH1 0x0 DUP1 PUSH2 0x100 EXP DUP2 SLOAD DUP2 PUSH20 0xFFFFFFFFFFFFFFFFFFFFFFFFFFFFFFFFFFFFFFFF MUL NOT AND SWAP1 DUP4 PUSH20 0xFFFFFFFFFFFFFFFFFFFFFFFFFFFFFFFFFFFFFFFF AND MUL OR SWAP1 SSTORE POP DUP3 PUSH1 0x1 DUP2 SWAP1 SSTORE POP DUP2 PUSH1 0x4 DUP2 SWAP1 SSTORE POP PUSH1 0x0 PUSH1 0x3 DUP2 SWAP1 SSTORE POP PUSH1 0x0 PUSH1 0x5 DUP2 SWAP1 SSTORE POP POP POP POP PUSH3 0x194 JUMP JUMPDEST PUSH1 0x0 DUP2 MLOAD SWAP1 POP PUSH3 0xAF DUP2 PUSH3 0x160 JUMP JUMPDEST SWAP3 SWAP2 POP POP JUMP JUMPDEST PUSH1 0x0 DUP2 MLOAD SWAP1 POP PUSH3 0xC6 DUP2 PUSH3 0x17A JUMP JUMPDEST SWAP3 SWAP2 POP POP JUMP JUMPDEST PUSH1 0x0 DUP1 PUSH1 0x0 PUSH1 0x60 DUP5 DUP7 SUB SLT ISZERO PUSH3 0xE2 JUMPI PUSH1 0x0 DUP1 REVERT JUMPDEST PUSH1 0x0 PUSH3 0xF2 DUP7 DUP3 DUP8 ADD PUSH3 0xB5 JUMP JUMPDEST SWAP4 POP POP PUSH1 0x20 PUSH3 0x105 DUP7 DUP3 DUP8 ADD PUSH3 0xB5 JUMP JUMPDEST SWAP3 POP POP PUSH1 0x40 PUSH3 0x118 DUP7 DUP3 DUP8 ADD PUSH3 0x9E JUMP JUMPDEST SWAP2 POP POP SWAP3 POP SWAP3 POP SWAP3 JUMP JUMPDEST PUSH1 0x0 PUSH3 0x12F DUP3 PUSH3 0x136 JUMP JUMPDEST SWAP1 POP SWAP2 SWAP1 POP JUMP JUMPDEST PUSH1 0x0 PUSH20 0xFFFFFFFFFFFFFFFFFFFFFFFFFFFFFFFFFFFFFFFF DUP3 AND SWAP1 POP SWAP2 SWAP1 POP JUMP JUMPDEST PUSH1 0x0 DUP2 SWAP1 POP SWAP2 SWAP1 POP JUMP JUMPDEST PUSH3 0x16B DUP2 PUSH3 0x122 JUMP JUMPDEST DUP2 EQ PUSH3 0x177 JUMPI PUSH1 0x0 DUP1 REVERT JUMPDEST POP JUMP JUMPDEST PUSH3 0x185 DUP2 PUSH3 0x156 JUMP JUMPDEST DUP2 EQ PUSH3 0x191 JUMPI PUSH1 0x0 DUP1 REVERT JUMPDEST POP JUMP JUMPDEST PUSH2 0xCB5 DUP1 PUSH3 0x1A4 PUSH1 0x0 CODECOPY PUSH1 0x0 RETURN INVALID PUSH1 0x80 PUSH1 0x40 MSTORE PUSH1 0x4 CALLDATASIZE LT PUSH2 0x7B JUMPI PUSH1 0x0 CALLDATALOAD PUSH1 0xE0 SHR DUP1 PUSH4 0x8A9CFD55 GT PUSH2 0x4E JUMPI DUP1 PUSH4 0x8A9CFD55 EQ PUSH2 0x12F JUMPI DUP1 PUSH4 0xAAFFADF3 EQ PUSH2 0x158 JUMPI DUP1 PUSH4 0xD7BB99BA EQ PUSH2 0x183 JUMPI DUP1 PUSH4 0xFEA21CE5 EQ PUSH2 0x18D JUMPI PUSH2 0x7B JUMP JUMPDEST DUP1 PUSH4 0x2D8F1ADC EQ PUSH2 0x80 JUMPI DUP1 PUSH4 0x3FAD1834 EQ PUSH2 0xB0 JUMPI DUP1 PUSH4 0x481C6A75 EQ PUSH2 0xDB JUMPI DUP1 PUSH4 0x767E0B9C EQ PUSH2 0x106 JUMPI JUMPDEST PUSH1 0x0 DUP1 REVERT JUMPDEST CALLVALUE DUP1 ISZERO PUSH2 0x8C JUMPI PUSH1 0x0 DUP1 REVERT JUMPDEST POP PUSH2 0x95 PUSH2 0x1B6 JUMP JUMPDEST PUSH1 0x40 MLOAD PUSH2 0xA7 SWAP7 SWAP6 SWAP5 SWAP4 SWAP3 SWAP2 SWAP1 PUSH2 0x8D5 JUMP JUMPDEST PUSH1 0x40 MLOAD DUP1 SWAP2 SUB SWAP1 RETURN JUMPDEST CALLVALUE DUP1 ISZERO PUSH2 0xBC JUMPI PUSH1 0x0 DUP1 REVERT JUMPDEST POP PUSH2 0xC5 PUSH2 0x201 JUMP JUMPDEST PUSH1 0x40 MLOAD PUSH2 0xD2 SWAP2 SWAP1 PUSH2 0x8BA JUMP JUMPDEST PUSH1 0x40 MLOAD DUP1 SWAP2 SUB SWAP1 RETURN JUMPDEST CALLVALUE DUP1 ISZERO PUSH2 0xE7 JUMPI PUSH1 0x0 DUP1 REVERT JUMPDEST POP PUSH2 0xF0 PUSH2 0x20B JUMP JUMPDEST PUSH1 0x40 MLOAD PUSH2 0xFD SWAP2 SWAP1 PUSH2 0x89F JUMP JUMPDEST PUSH1 0x40 MLOAD DUP1 SWAP2 SUB SWAP1 RETURN JUMPDEST CALLVALUE DUP1 ISZERO PUSH2 0x112 JUMPI PUSH1 0x0 DUP1 REVERT JUMPDEST POP PUSH2 0x12D PUSH1 0x4 DUP1 CALLDATASIZE SUB DUP2 ADD SWAP1 PUSH2 0x128 SWAP2 SWAP1 PUSH2 0x845 JUMP JUMPDEST PUSH2 0x22F JUMP JUMPDEST STOP JUMPDEST CALLVALUE DUP1 ISZERO PUSH2 0x13B JUMPI PUSH1 0x0 DUP1 REVERT JUMPDEST POP PUSH2 0x156 PUSH1 0x4 DUP1 CALLDATASIZE SUB DUP2 ADD SWAP1 PUSH2 0x151 SWAP2 SWAP1 PUSH2 0x7B5 JUMP JUMPDEST PUSH2 0x371 JUMP JUMPDEST STOP JUMPDEST CALLVALUE DUP1 ISZERO PUSH2 0x164 JUMPI PUSH1 0x0 DUP1 REVERT JUMPDEST POP PUSH2 0x16D PUSH2 0x4E5 JUMP JUMPDEST PUSH1 0x40 MLOAD PUSH2 0x17A SWAP2 SWAP1 PUSH2 0x8BA JUMP JUMPDEST PUSH1 0x40 MLOAD DUP1 SWAP2 SUB SWAP1 RETURN JUMPDEST PUSH2 0x18B PUSH2 0x4EB JUMP JUMPDEST STOP JUMPDEST CALLVALUE DUP1 ISZERO PUSH2 0x199 JUMPI PUSH1 0x0 DUP1 REVERT JUMPDEST POP PUSH2 0x1B4 PUSH1 0x4 DUP1 CALLDATASIZE SUB DUP2 ADD SWAP1 PUSH2 0x1AF SWAP2 SWAP1 PUSH2 0x81C JUMP JUMPDEST PUSH2 0x55D JUMP JUMPDEST STOP JUMPDEST PUSH1 0x0 DUP1 PUSH1 0x0 DUP1 PUSH1 0x0 DUP1 PUSH1 0x3 SLOAD PUSH1 0x4 SLOAD PUSH1 0x1 SLOAD SELFBALANCE PUSH1 0x5 SLOAD PUSH1 0x0 DUP1 SLOAD SWAP1 PUSH2 0x100 EXP SWAP1 DIV PUSH20 0xFFFFFFFFFFFFFFFFFFFFFFFFFFFFFFFFFFFFFFFF AND SWAP6 POP SWAP6 POP SWAP6 POP SWAP6 POP SWAP6 POP SWAP6 POP SWAP1 SWAP2 SWAP3 SWAP4 SWAP5 SWAP6 JUMP JUMPDEST PUSH1 0x0 PUSH1 0x3 SLOAD SWAP1 POP SWAP1 JUMP JUMPDEST PUSH1 0x0 DUP1 SLOAD SWAP1 PUSH2 0x100 EXP SWAP1 DIV PUSH20 0xFFFFFFFFFFFFFFFFFFFFFFFFFFFFFFFFFFFFFFFF AND DUP2 JUMP JUMPDEST PUSH1 0x0 PUSH1 0x6 PUSH1 0x0 PUSH1 0x1 DUP6 PUSH2 0x242 SWAP2 SWAP1 PUSH2 0xA78 JUMP JUMPDEST DUP2 MSTORE PUSH1 0x20 ADD SWAP1 DUP2 MSTORE PUSH1 0x20 ADD PUSH1 0x0 KECCAK256 SWAP1 POP DUP1 PUSH1 0x5 ADD PUSH1 0x0 SWAP1 SLOAD SWAP1 PUSH2 0x100 EXP SWAP1 DIV PUSH1 0xFF AND ISZERO PUSH2 0x26E JUMPI PUSH1 0x0 DUP1 REVERT JUMPDEST PUSH1 0x0 DUP2 PUSH1 0x6 ADD PUSH1 0x0 CALLER PUSH20 0xFFFFFFFFFFFFFFFFFFFFFFFFFFFFFFFFFFFFFFFF AND PUSH20 0xFFFFFFFFFFFFFFFFFFFFFFFFFFFFFFFFFFFFFFFF AND DUP2 MSTORE PUSH1 0x20 ADD SWAP1 DUP2 MSTORE PUSH1 0x20 ADD PUSH1 0x0 KECCAK256 SLOAD EQ PUSH2 0x2BC JUMPI PUSH1 0x0 DUP1 REVERT JUMPDEST DUP2 PUSH2 0x325 JUMPI PUSH1 0x1 DUP2 PUSH1 0x4 ADD PUSH1 0x0 DUP3 DUP3 SLOAD PUSH2 0x2D6 SWAP2 SWAP1 PUSH2 0x997 JUMP JUMPDEST SWAP3 POP POP DUP2 SWAP1 SSTORE POP PUSH1 0x2 DUP2 PUSH1 0x6 ADD PUSH1 0x0 CALLER PUSH20 0xFFFFFFFFFFFFFFFFFFFFFFFFFFFFFFFFFFFFFFFF AND PUSH20 0xFFFFFFFFFFFFFFFFFFFFFFFFFFFFFFFFFFFFFFFF AND DUP2 MSTORE PUSH1 0x20 ADD SWAP1 DUP2 MSTORE PUSH1 0x20 ADD PUSH1 0x0 KECCAK256 DUP2 SWAP1 SSTORE POP JUMPDEST PUSH1 0x1 DUP2 PUSH1 0x6 ADD PUSH1 0x0 CALLER PUSH20 0xFFFFFFFFFFFFFFFFFFFFFFFFFFFFFFFFFFFFFFFF AND PUSH20 0xFFFFFFFFFFFFFFFFFFFFFFFFFFFFFFFFFFFFFFFF AND DUP2 MSTORE PUSH1 0x20 ADD SWAP1 DUP2 MSTORE PUSH1 0x20 ADD PUSH1 0x0 KECCAK256 DUP2 SWAP1 SSTORE POP POP POP POP JUMP JUMPDEST PUSH1 0x0 DUP1 SLOAD SWAP1 PUSH2 0x100 EXP SWAP1 DIV PUSH20 0xFFFFFFFFFFFFFFFFFFFFFFFFFFFFFFFFFFFFFFFF AND PUSH20 0xFFFFFFFFFFFFFFFFFFFFFFFFFFFFFFFFFFFFFFFF AND CALLER PUSH20 0xFFFFFFFFFFFFFFFFFFFFFFFFFFFFFFFFFFFFFFFF AND EQ PUSH2 0x3C9 JUMPI PUSH1 0x0 DUP1 REVERT JUMPDEST PUSH1 0x3 PUSH1 0x0 DUP2 SLOAD DUP1 SWAP3 SWAP2 SWAP1 PUSH2 0x3DC SWAP1 PUSH2 0xB35 JUMP JUMPDEST SWAP2 SWAP1 POP SSTORE POP PUSH1 0x0 PUSH1 0x6 PUSH1 0x0 PUSH1 0x3 PUSH1 0x0 DUP2 SLOAD DUP1 SWAP3 SWAP2 SWAP1 PUSH2 0x3FA SWAP1 PUSH2 0xB35 JUMP JUMPDEST SWAP2 SWAP1 POP SSTORE DUP2 MSTORE PUSH1 0x20 ADD SWAP1 DUP2 MSTORE PUSH1 0x20 ADD PUSH1 0x0 KECCAK256 SWAP1 POP DUP4 DUP2 PUSH1 0x2 ADD SWAP1 DUP1 MLOAD SWAP1 PUSH1 0x20 ADD SWAP1 PUSH2 0x426 SWAP3 SWAP2 SWAP1 PUSH2 0x66B JUMP JUMPDEST POP DUP3 DUP2 PUSH1 0x0 ADD DUP2 SWAP1 SSTORE POP DUP2 DUP2 PUSH1 0x1 ADD PUSH1 0x0 PUSH2 0x100 EXP DUP2 SLOAD DUP2 PUSH20 0xFFFFFFFFFFFFFFFFFFFFFFFFFFFFFFFFFFFFFFFF MUL NOT AND SWAP1 DUP4 PUSH20 0xFFFFFFFFFFFFFFFFFFFFFFFFFFFFFFFFFFFFFFFF AND MUL OR SWAP1 SSTORE POP PUSH1 0x3 SLOAD DUP2 PUSH1 0x3 ADD DUP2 SWAP1 SSTORE POP PUSH1 0x0 DUP2 PUSH1 0x5 ADD PUSH1 0x0 PUSH2 0x100 EXP DUP2 SLOAD DUP2 PUSH1 0xFF MUL NOT AND SWAP1 DUP4 ISZERO ISZERO MUL OR SWAP1 SSTORE POP PUSH1 0x0 DUP2 PUSH1 0x4 ADD DUP2 SWAP1 SSTORE POP PUSH1 0x0 DUP2 PUSH1 0x5 ADD PUSH1 0x1 PUSH2 0x100 EXP DUP2 SLOAD DUP2 PUSH1 0xFF MUL NOT AND SWAP1 DUP4 ISZERO ISZERO MUL OR SWAP1 SSTORE POP PUSH1 0x0 DUP2 PUSH1 0x5 ADD PUSH1 0x2 PUSH2 0x100 EXP DUP2 SLOAD DUP2 PUSH1 0xFF MUL NOT AND SWAP1 DUP4 ISZERO ISZERO MUL OR SWAP1 SSTORE POP POP POP POP POP JUMP JUMPDEST PUSH1 0x1 SLOAD DUP2 JUMP JUMPDEST PUSH1 0x1 SLOAD CALLVALUE LT ISZERO PUSH2 0x4FA JUMPI PUSH1 0x0 DUP1 REVERT JUMPDEST CALLVALUE PUSH1 0x2 PUSH1 0x0 CALLER PUSH20 0xFFFFFFFFFFFFFFFFFFFFFFFFFFFFFFFFFFFFFFFF AND PUSH20 0xFFFFFFFFFFFFFFFFFFFFFFFFFFFFFFFFFFFFFFFF AND DUP2 MSTORE PUSH1 0x20 ADD SWAP1 DUP2 MSTORE PUSH1 0x20 ADD PUSH1 0x0 KECCAK256 PUSH1 0x0 ADD DUP2 SWAP1 SSTORE POP PUSH1 0x1 PUSH1 0x5 PUSH1 0x0 DUP3 DUP3 SLOAD PUSH2 0x554 SWAP2 SWAP1 PUSH2 0x997 JUMP JUMPDEST SWAP3 POP POP DUP2 SWAP1 SSTORE POP JUMP JUMPDEST PUSH1 0x0 DUP1 SLOAD SWAP1 PUSH2 0x100 EXP SWAP1 DIV PUSH20 0xFFFFFFFFFFFFFFFFFFFFFFFFFFFFFFFFFFFFFFFF AND PUSH20 0xFFFFFFFFFFFFFFFFFFFFFFFFFFFFFFFFFFFFFFFF AND CALLER PUSH20 0xFFFFFFFFFFFFFFFFFFFFFFFFFFFFFFFFFFFFFFFF AND EQ PUSH2 0x5B5 JUMPI PUSH1 0x0 DUP1 REVERT JUMPDEST PUSH1 0x0 PUSH1 0x6 PUSH1 0x0 PUSH1 0x1 DUP5 PUSH2 0x5C8 SWAP2 SWAP1 PUSH2 0xA78 JUMP JUMPDEST DUP2 MSTORE PUSH1 0x20 ADD SWAP1 DUP2 MSTORE PUSH1 0x20 ADD PUSH1 0x0 KECCAK256 SWAP1 POP DUP1 PUSH1 0x5 ADD PUSH1 0x0 SWAP1 SLOAD SWAP1 PUSH2 0x100 EXP SWAP1 DIV PUSH1 0xFF AND ISZERO PUSH2 0x5F4 JUMPI PUSH1 0x0 DUP1 REVERT JUMPDEST PUSH1 0x0 PUSH1 0x5 SLOAD SWAP1 POP PUSH1 0x0 DUP3 PUSH1 0x4 ADD SLOAD SWAP1 POP PUSH1 0x0 DUP3 PUSH1 0x64 DUP4 PUSH2 0x614 SWAP2 SWAP1 PUSH2 0xA1E JUMP JUMPDEST PUSH2 0x61E SWAP2 SWAP1 PUSH2 0x9ED JUMP JUMPDEST SWAP1 POP PUSH1 0x1 DUP5 PUSH1 0x5 ADD PUSH1 0x0 PUSH2 0x100 EXP DUP2 SLOAD DUP2 PUSH1 0xFF MUL NOT AND SWAP1 DUP4 ISZERO ISZERO MUL OR SWAP1 SSTORE POP PUSH1 0x4 SLOAD DUP2 LT PUSH2 0x664 JUMPI PUSH1 0x1 DUP5 PUSH1 0x5 ADD PUSH1 0x1 PUSH2 0x100 EXP DUP2 SLOAD DUP2 PUSH1 0xFF MUL NOT AND SWAP1 DUP4 ISZERO ISZERO MUL OR SWAP1 SSTORE POP JUMPDEST POP POP POP POP POP JUMP JUMPDEST DUP3 DUP1 SLOAD PUSH2 0x677 SWAP1 PUSH2 0xB03 JUMP JUMPDEST SWAP1 PUSH1 0x0 MSTORE PUSH1 0x20 PUSH1 0x0 KECCAK256 SWAP1 PUSH1 0x1F ADD PUSH1 0x20 SWAP1 DIV DUP2 ADD SWAP3 DUP3 PUSH2 0x699 JUMPI PUSH1 0x0 DUP6 SSTORE PUSH2 0x6E0 JUMP JUMPDEST DUP3 PUSH1 0x1F LT PUSH2 0x6B2 JUMPI DUP1 MLOAD PUSH1 0xFF NOT AND DUP4 DUP1 ADD OR DUP6 SSTORE PUSH2 0x6E0 JUMP JUMPDEST DUP3 DUP1 ADD PUSH1 0x1 ADD DUP6 SSTORE DUP3 ISZERO PUSH2 0x6E0 JUMPI SWAP2 DUP3 ADD JUMPDEST DUP3 DUP2 GT ISZERO PUSH2 0x6DF JUMPI DUP3 MLOAD DUP3 SSTORE SWAP2 PUSH1 0x20 ADD SWAP2 SWAP1 PUSH1 0x1 ADD SWAP1 PUSH2 0x6C4 JUMP JUMPDEST JUMPDEST POP SWAP1 POP PUSH2 0x6ED SWAP2 SWAP1 PUSH2 0x6F1 JUMP JUMPDEST POP SWAP1 JUMP JUMPDEST JUMPDEST DUP1 DUP3 GT ISZERO PUSH2 0x70A JUMPI PUSH1 0x0 DUP2 PUSH1 0x0 SWAP1 SSTORE POP PUSH1 0x1 ADD PUSH2 0x6F2 JUMP JUMPDEST POP SWAP1 JUMP JUMPDEST PUSH1 0x0 PUSH2 0x721 PUSH2 0x71C DUP5 PUSH2 0x967 JUMP JUMPDEST PUSH2 0x936 JUMP JUMPDEST SWAP1 POP DUP3 DUP2 MSTORE PUSH1 0x20 DUP2 ADD DUP5 DUP5 DUP5 ADD GT ISZERO PUSH2 0x739 JUMPI PUSH1 0x0 DUP1 REVERT JUMPDEST PUSH2 0x744 DUP5 DUP3 DUP6 PUSH2 0xAF4 JUMP JUMPDEST POP SWAP4 SWAP3 POP POP POP JUMP JUMPDEST PUSH1 0x0 DUP2 CALLDATALOAD SWAP1 POP PUSH2 0x75B DUP2 PUSH2 0xC3A JUMP JUMPDEST SWAP3 SWAP2 POP POP JUMP JUMPDEST PUSH1 0x0 DUP2 CALLDATALOAD SWAP1 POP PUSH2 0x770 DUP2 PUSH2 0xC51 JUMP JUMPDEST SWAP3 SWAP2 POP POP JUMP JUMPDEST PUSH1 0x0 DUP3 PUSH1 0x1F DUP4 ADD SLT PUSH2 0x787 JUMPI PUSH1 0x0 DUP1 REVERT JUMPDEST DUP2 CALLDATALOAD PUSH2 0x797 DUP5 DUP3 PUSH1 0x20 DUP7 ADD PUSH2 0x70E JUMP JUMPDEST SWAP2 POP POP SWAP3 SWAP2 POP POP JUMP JUMPDEST PUSH1 0x0 DUP2 CALLDATALOAD SWAP1 POP PUSH2 0x7AF DUP2 PUSH2 0xC68 JUMP JUMPDEST SWAP3 SWAP2 POP POP JUMP JUMPDEST PUSH1 0x0 DUP1 PUSH1 0x0 PUSH1 0x60 DUP5 DUP7 SUB SLT ISZERO PUSH2 0x7CA JUMPI PUSH1 0x0 DUP1 REVERT JUMPDEST PUSH1 0x0 DUP5 ADD CALLDATALOAD PUSH8 0xFFFFFFFFFFFFFFFF DUP2 GT ISZERO PUSH2 0x7E4 JUMPI PUSH1 0x0 DUP1 REVERT JUMPDEST PUSH2 0x7F0 DUP7 DUP3 DUP8 ADD PUSH2 0x776 JUMP JUMPDEST SWAP4 POP POP PUSH1 0x20 PUSH2 0x801 DUP7 DUP3 DUP8 ADD PUSH2 0x7A0 JUMP JUMPDEST SWAP3 POP POP PUSH1 0x40 PUSH2 0x812 DUP7 DUP3 DUP8 ADD PUSH2 0x74C JUMP JUMPDEST SWAP2 POP POP SWAP3 POP SWAP3 POP SWAP3 JUMP JUMPDEST PUSH1 0x0 PUSH1 0x20 DUP3 DUP5 SUB SLT ISZERO PUSH2 0x82E JUMPI PUSH1 0x0 DUP1 REVERT JUMPDEST PUSH1 0x0 PUSH2 0x83C DUP5 DUP3 DUP6 ADD PUSH2 0x7A0 JUMP JUMPDEST SWAP2 POP POP SWAP3 SWAP2 POP POP JUMP JUMPDEST PUSH1 0x0 DUP1 PUSH1 0x40 DUP4 DUP6 SUB SLT ISZERO PUSH2 0x858 JUMPI PUSH1 0x0 DUP1 REVERT JUMPDEST PUSH1 0x0 PUSH2 0x866 DUP6 DUP3 DUP7 ADD PUSH2 0x7A0 JUMP JUMPDEST SWAP3 POP POP PUSH1 0x20 PUSH2 0x877 DUP6 DUP3 DUP7 ADD PUSH2 0x761 JUMP JUMPDEST SWAP2 POP POP SWAP3 POP SWAP3 SWAP1 POP JUMP JUMPDEST PUSH2 0x88A DUP2 PUSH2 0xAAC JUMP JUMPDEST DUP3 MSTORE POP POP JUMP JUMPDEST PUSH2 0x899 DUP2 PUSH2 0xAEA JUMP JUMPDEST DUP3 MSTORE POP POP JUMP JUMPDEST PUSH1 0x0 PUSH1 0x20 DUP3 ADD SWAP1 POP PUSH2 0x8B4 PUSH1 0x0 DUP4 ADD DUP5 PUSH2 0x881 JUMP JUMPDEST SWAP3 SWAP2 POP POP JUMP JUMPDEST PUSH1 0x0 PUSH1 0x20 DUP3 ADD SWAP1 POP PUSH2 0x8CF PUSH1 0x0 DUP4 ADD DUP5 PUSH2 0x890 JUMP JUMPDEST SWAP3 SWAP2 POP POP JUMP JUMPDEST PUSH1 0x0 PUSH1 0xC0 DUP3 ADD SWAP1 POP PUSH2 0x8EA PUSH1 0x0 DUP4 ADD DUP10 PUSH2 0x890 JUMP JUMPDEST PUSH2 0x8F7 PUSH1 0x20 DUP4 ADD DUP9 PUSH2 0x890 JUMP JUMPDEST PUSH2 0x904 PUSH1 0x40 DUP4 ADD DUP8 PUSH2 0x890 JUMP JUMPDEST PUSH2 0x911 PUSH1 0x60 DUP4 ADD DUP7 PUSH2 0x890 JUMP JUMPDEST PUSH2 0x91E PUSH1 0x80 DUP4 ADD DUP6 PUSH2 0x890 JUMP JUMPDEST PUSH2 0x92B PUSH1 0xA0 DUP4 ADD DUP5 PUSH2 0x881 JUMP JUMPDEST SWAP8 SWAP7 POP POP POP POP POP POP POP JUMP JUMPDEST PUSH1 0x0 PUSH1 0x40 MLOAD SWAP1 POP DUP2 DUP2 ADD DUP2 DUP2 LT PUSH8 0xFFFFFFFFFFFFFFFF DUP3 GT OR ISZERO PUSH2 0x95D JUMPI PUSH2 0x95C PUSH2 0xC0B JUMP JUMPDEST JUMPDEST DUP1 PUSH1 0x40 MSTORE POP SWAP2 SWAP1 POP JUMP JUMPDEST PUSH1 0x0 PUSH8 0xFFFFFFFFFFFFFFFF DUP3 GT ISZERO PUSH2 0x982 JUMPI PUSH2 0x981 PUSH2 0xC0B JUMP JUMPDEST JUMPDEST PUSH1 0x1F NOT PUSH1 0x1F DUP4 ADD AND SWAP1 POP PUSH1 0x20 DUP2 ADD SWAP1 POP SWAP2 SWAP1 POP JUMP JUMPDEST PUSH1 0x0 PUSH2 0x9A2 DUP3 PUSH2 0xAEA JUMP JUMPDEST SWAP2 POP PUSH2 0x9AD DUP4 PUSH2 0xAEA JUMP JUMPDEST SWAP3 POP DUP3 PUSH32 0xFFFFFFFFFFFFFFFFFFFFFFFFFFFFFFFFFFFFFFFFFFFFFFFFFFFFFFFFFFFFFFFF SUB DUP3 GT ISZERO PUSH2 0x9E2 JUMPI PUSH2 0x9E1 PUSH2 0xB7E JUMP JUMPDEST JUMPDEST DUP3 DUP3 ADD SWAP1 POP SWAP3 SWAP2 POP POP JUMP JUMPDEST PUSH1 0x0 PUSH2 0x9F8 DUP3 PUSH2 0xAEA JUMP JUMPDEST SWAP2 POP PUSH2 0xA03 DUP4 PUSH2 0xAEA JUMP JUMPDEST SWAP3 POP DUP3 PUSH2 0xA13 JUMPI PUSH2 0xA12 PUSH2 0xBAD JUMP JUMPDEST JUMPDEST DUP3 DUP3 DIV SWAP1 POP SWAP3 SWAP2 POP POP JUMP JUMPDEST PUSH1 0x0 PUSH2 0xA29 DUP3 PUSH2 0xAEA JUMP JUMPDEST SWAP2 POP PUSH2 0xA34 DUP4 PUSH2 0xAEA JUMP JUMPDEST SWAP3 POP DUP2 PUSH32 0xFFFFFFFFFFFFFFFFFFFFFFFFFFFFFFFFFFFFFFFFFFFFFFFFFFFFFFFFFFFFFFFF DIV DUP4 GT DUP3 ISZERO ISZERO AND ISZERO PUSH2 0xA6D JUMPI PUSH2 0xA6C PUSH2 0xB7E JUMP JUMPDEST JUMPDEST DUP3 DUP3 MUL SWAP1 POP SWAP3 SWAP2 POP POP JUMP JUMPDEST PUSH1 0x0 PUSH2 0xA83 DUP3 PUSH2 0xAEA JUMP JUMPDEST SWAP2 POP PUSH2 0xA8E DUP4 PUSH2 0xAEA JUMP JUMPDEST SWAP3 POP DUP3 DUP3 LT ISZERO PUSH2 0xAA1 JUMPI PUSH2 0xAA0 PUSH2 0xB7E JUMP JUMPDEST JUMPDEST DUP3 DUP3 SUB SWAP1 POP SWAP3 SWAP2 POP POP JUMP JUMPDEST PUSH1 0x0 PUSH2 0xAB7 DUP3 PUSH2 0xACA JUMP JUMPDEST SWAP1 POP SWAP2 SWAP1 POP JUMP JUMPDEST PUSH1 0x0 DUP2 ISZERO ISZERO SWAP1 POP SWAP2 SWAP1 POP JUMP JUMPDEST PUSH1 0x0 PUSH20 0xFFFFFFFFFFFFFFFFFFFFFFFFFFFFFFFFFFFFFFFF DUP3 AND SWAP1 POP SWAP2 SWAP1 POP JUMP JUMPDEST PUSH1 0x0 DUP2 SWAP1 POP SWAP2 SWAP1 POP JUMP JUMPDEST DUP3 DUP2 DUP4 CALLDATACOPY PUSH1 0x0 DUP4 DUP4 ADD MSTORE POP POP POP JUMP JUMPDEST PUSH1 0x0 PUSH1 0x2 DUP3 DIV SWAP1 POP PUSH1 0x1 DUP3 AND DUP1 PUSH2 0xB1B JUMPI PUSH1 0x7F DUP3 AND SWAP2 POP JUMPDEST PUSH1 0x20 DUP3 LT DUP2 EQ ISZERO PUSH2 0xB2F JUMPI PUSH2 0xB2E PUSH2 0xBDC JUMP JUMPDEST JUMPDEST POP SWAP2 SWAP1 POP JUMP JUMPDEST PUSH1 0x0 PUSH2 0xB40 DUP3 PUSH2 0xAEA JUMP JUMPDEST SWAP2 POP PUSH32 0xFFFFFFFFFFFFFFFFFFFFFFFFFFFFFFFFFFFFFFFFFFFFFFFFFFFFFFFFFFFFFFFF DUP3 EQ ISZERO PUSH2 0xB73 JUMPI PUSH2 0xB72 PUSH2 0xB7E JUMP JUMPDEST JUMPDEST PUSH1 0x1 DUP3 ADD SWAP1 POP SWAP2 SWAP1 POP JUMP JUMPDEST PUSH32 0x4E487B7100000000000000000000000000000000000000000000000000000000 PUSH1 0x0 MSTORE PUSH1 0x11 PUSH1 0x4 MSTORE PUSH1 0x24 PUSH1 0x0 REVERT JUMPDEST PUSH32 0x4E487B7100000000000000000000000000000000000000000000000000000000 PUSH1 0x0 MSTORE PUSH1 0x12 PUSH1 0x4 MSTORE PUSH1 0x24 PUSH1 0x0 REVERT JUMPDEST PUSH32 0x4E487B7100000000000000000000000000000000000000000000000000000000 PUSH1 0x0 MSTORE PUSH1 0x22 PUSH1 0x4 MSTORE PUSH1 0x24 PUSH1 0x0 REVERT JUMPDEST PUSH32 0x4E487B7100000000000000000000000000000000000000000000000000000000 PUSH1 0x0 MSTORE PUSH1 0x41 PUSH1 0x4 MSTORE PUSH1 0x24 PUSH1 0x0 REVERT JUMPDEST PUSH2 0xC43 DUP2 PUSH2 0xAAC JUMP JUMPDEST DUP2 EQ PUSH2 0xC4E JUMPI PUSH1 0x0 DUP1 REVERT JUMPDEST POP JUMP JUMPDEST PUSH2 0xC5A DUP2 PUSH2 0xABE JUMP JUMPDEST DUP2 EQ PUSH2 0xC65 JUMPI PUSH1 0x0 DUP1 REVERT JUMPDEST POP JUMP JUMPDEST PUSH2 0xC71 DUP2 PUSH2 0xAEA JUMP JUMPDEST DUP2 EQ PUSH2 0xC7C JUMPI PUSH1 0x0 DUP1 REVERT JUMPDEST POP JUMP INVALID LOG2 PUSH5 0x6970667358 0x22 SLT KECCAK256 0xD4 GAS SHR SGT DUP16 JUMPI KECCAK256 0xF9 CREATE SLOAD SWAP14 LT 0xD 0xAF PUSH20 0x5E6A3454B66AEC93DE7DDFEE5006453DAE64736F PUSH13 0x63430008000033A26469706673 PC 0x22 SLT KECCAK256 0xEB PUSH10 0x38ECFCF4F488274BD577 EXTCODESIZE 0xBF PUSH28 0x7C7394537BDB9FA42E680C5912CC23F00964736F6C63430008000033 "},"gasEstimates":{"creation":{"codeDepositCost":"996200","executionCost":"21900","totalCost":"1018100"},"external":{"createCampaign(uint256,uint256)":"infinite","deployedCampaigns(uint256)":"2399","getDeployedCampaigns()":"infinite","manager()":"1233"}},"methodIdentifiers":{"createCampaign(uint256,uint256)":"22502268","deployedCampaigns(uint256)":"339d50a5","getDeployedCampaigns()":"4acb9d4f","manager()":"481c6a75"}},"storageLayout":{"storage":[{"astId":3,"contract":"campaign.sol:factory","label":"manager","offset":0,"slot":"0","type":"t_address"},{"astId":7,"contract":"campaign.sol:factory","label":"deployedCampaigns","offset":0,"slot":"1","type":"t_array(t_contract(campaign)390)dyn_storage"}],"types":{"t_address":{"encoding":"inplace","label":"address","numberOfBytes":"20"},"t_array(t_contract(campaign)390)dyn_storage":{"base":"t_contract(campaign)390","encoding":"dynamic_array","label":"contract campaign[]","numberOfBytes":"32"},"t_contract(campaign)390":{"encoding":"inplace","label":"contract campaign","numberOfBytes":"20"}}},"userdoc":{"kind":"user","methods":{},"version":1}}