{"abi":[{"inputs":[],"stateMutability":"nonpayable","type":"constructor"},{"inputs":[{"internalType":"uint256","name":"min_val","type":"uint256"},{"internalType":"uint256","name":"threshold","type":"uint256"}],"name":"createCampaign","outputs":[],"stateMutability":"nonpayable","type":"function"},{"inputs":[{"internalType":"uint256","name":"","type":"uint256"}],"name":"deployedCampaigns","outputs":[{"internalType":"contract campaign","name":"","type":"address"}],"stateMutability":"view","type":"function"},{"inputs":[],"name":"getDeployedCampaigns","outputs":[{"internalType":"contract campaign[]","name":"","type":"address[]"}],"stateMutability":"view","type":"function"},{"inputs":[],"name":"manager","outputs":[{"internalType":"address","name":"","type":"address"}],"stateMutability":"view","type":"function"}],"devdoc":{"kind":"dev","methods":{},"version":1},"evm":{"assembly":"    /* \"campaign.sol\":155:667  contract factory{\r... */\n  mstore(0x40, 0x80)\n    /* \"campaign.sol\":249:301  constructor(){\r... */\n  callvalue\n  dup1\n  iszero\n  tag_1\n  jumpi\n  0x00\n  dup1\n  revert\ntag_1:\n  pop\n    /* \"campaign.sol\":283:293  msg.sender */\n  caller\n    /* \"campaign.sol\":273:280  manager */\n  0x00\n  dup1\n    /* \"campaign.sol\":273:293  manager = msg.sender */\n  0x0100\n  exp\n  dup2\n  sload\n  dup2\n  0xffffffffffffffffffffffffffffffffffffffff\n  mul\n  not\n  and\n  swap1\n  dup4\n  0xffffffffffffffffffffffffffffffffffffffff\n  and\n  mul\n  or\n  swap1\n  sstore\n  pop\n    /* \"campaign.sol\":155:667  contract factory{\r... */\n  dataSize(sub_0)\n  dup1\n  dataOffset(sub_0)\n  0x00\n  codecopy\n  0x00\n  return\nstop\n\nsub_0: assembly {\n        /* \"campaign.sol\":155:667  contract factory{\r... */\n      mstore(0x40, 0x80)\n      callvalue\n      dup1\n      iszero\n      tag_1\n      jumpi\n      0x00\n      dup1\n      revert\n    tag_1:\n      pop\n      jumpi(tag_2, lt(calldatasize, 0x04))\n      shr(0xe0, calldataload(0x00))\n      dup1\n      0x22502268\n      eq\n      tag_3\n      jumpi\n      dup1\n      0x339d50a5\n      eq\n      tag_4\n      jumpi\n      dup1\n      0x481c6a75\n      eq\n      tag_5\n      jumpi\n      dup1\n      0x4acb9d4f\n      eq\n      tag_6\n      jumpi\n    tag_2:\n      0x00\n      dup1\n      revert\n        /* \"campaign.sol\":307:544  function createCampaign(uint min_val, uint threshold) public{\r... */\n    tag_3:\n      tag_7\n      0x04\n      dup1\n      calldatasize\n      sub\n      dup2\n      add\n      swap1\n      tag_8\n      swap2\n      swap1\n      tag_9\n      jump\t// in\n    tag_8:\n      tag_10\n      jump\t// in\n    tag_7:\n      stop\n        /* \"campaign.sol\":207:242  campaign[] public deployedCampaigns */\n    tag_4:\n      tag_11\n      0x04\n      dup1\n      calldatasize\n      sub\n      dup2\n      add\n      swap1\n      tag_12\n      swap2\n      swap1\n      tag_13\n      jump\t// in\n    tag_12:\n      tag_14\n      jump\t// in\n    tag_11:\n      mload(0x40)\n      tag_15\n      swap2\n      swap1\n      tag_16\n      jump\t// in\n    tag_15:\n      mload(0x40)\n      dup1\n      swap2\n      sub\n      swap1\n      return\n        /* \"campaign.sol\":178:200  address public manager */\n    tag_5:\n      tag_17\n      tag_18\n      jump\t// in\n    tag_17:\n      mload(0x40)\n      tag_19\n      swap2\n      swap1\n      tag_20\n      jump\t// in\n    tag_19:\n      mload(0x40)\n      dup1\n      swap2\n      sub\n      swap1\n      return\n        /* \"campaign.sol\":550:664  function getDeployedCampaigns() public view returns(campaign[] memory) {\r... */\n    tag_6:\n      tag_21\n      tag_22\n      jump\t// in\n    tag_21:\n      mload(0x40)\n      tag_23\n      swap2\n      swap1\n      tag_24\n      jump\t// in\n    tag_23:\n      mload(0x40)\n      dup1\n      swap2\n      sub\n      swap1\n      return\n        /* \"campaign.sol\":307:544  function createCampaign(uint min_val, uint threshold) public{\r... */\n    tag_10:\n        /* \"campaign.sol\":422:442  campaign newCampaign */\n      0x00\n        /* \"campaign.sol\":458:465  min_val */\n      dup3\n        /* \"campaign.sol\":467:476  threshold */\n      dup3\n        /* \"campaign.sol\":478:488  msg.sender */\n      caller\n        /* \"campaign.sol\":445:489  new campaign(min_val, threshold, msg.sender) */\n      mload(0x40)\n      tag_26\n      swap1\n      tag_27\n      jump\t// in\n    tag_26:\n      tag_28\n      swap4\n      swap3\n      swap2\n      swap1\n      tag_29\n      jump\t// in\n    tag_28:\n      mload(0x40)\n      dup1\n      swap2\n      sub\n      swap1\n      0x00\n      create\n      dup1\n      iszero\n      dup1\n      iszero\n      tag_30\n      jumpi\n      returndatasize\n      0x00\n      dup1\n      returndatacopy\n      revert(0x00, returndatasize)\n    tag_30:\n      pop\n        /* \"campaign.sol\":422:489  campaign newCampaign = new campaign(min_val, threshold, msg.sender) */\n      swap1\n      pop\n        /* \"campaign.sol\":500:517  deployedCampaigns */\n      0x01\n        /* \"campaign.sol\":523:534  newCampaign */\n      dup2\n        /* \"campaign.sol\":500:535  deployedCampaigns.push(newCampaign) */\n      swap1\n      dup1\n      0x01\n      dup2\n      sload\n      add\n      dup1\n      dup3\n      sstore\n      dup1\n      swap2\n      pop\n      pop\n      0x01\n      swap1\n      sub\n      swap1\n      0x00\n      mstore\n      keccak256(0x00, 0x20)\n      add\n      0x00\n      swap1\n      swap2\n      swap1\n      swap2\n      swap1\n      swap2\n      0x0100\n      exp\n      dup2\n      sload\n      dup2\n      0xffffffffffffffffffffffffffffffffffffffff\n      mul\n      not\n      and\n      swap1\n      dup4\n      0xffffffffffffffffffffffffffffffffffffffff\n      and\n      mul\n      or\n      swap1\n      sstore\n      pop\n        /* \"campaign.sol\":307:544  function createCampaign(uint min_val, uint threshold) public{\r... */\n      pop\n      pop\n      pop\n      jump\t// out\n        /* \"campaign.sol\":207:242  campaign[] public deployedCampaigns */\n    tag_14:\n      0x01\n      dup2\n      dup2\n      sload\n      dup2\n      lt\n      tag_32\n      jumpi\n      0x00\n      dup1\n      revert\n    tag_32:\n      swap1\n      0x00\n      mstore\n      keccak256(0x00, 0x20)\n      add\n      0x00\n      swap2\n      pop\n      sload\n      swap1\n      0x0100\n      exp\n      swap1\n      div\n      0xffffffffffffffffffffffffffffffffffffffff\n      and\n      dup2\n      jump\t// out\n        /* \"campaign.sol\":178:200  address public manager */\n    tag_18:\n      0x00\n      dup1\n      sload\n      swap1\n      0x0100\n      exp\n      swap1\n      div\n      0xffffffffffffffffffffffffffffffffffffffff\n      and\n      dup2\n      jump\t// out\n        /* \"campaign.sol\":550:664  function getDeployedCampaigns() public view returns(campaign[] memory) {\r... */\n    tag_22:\n        /* \"campaign.sol\":602:619  campaign[] memory */\n      0x60\n        /* \"campaign.sol\":639:656  deployedCampaigns */\n      0x01\n        /* \"campaign.sol\":632:656  return deployedCampaigns */\n      dup1\n      sload\n      dup1\n      0x20\n      mul\n      0x20\n      add\n      mload(0x40)\n      swap1\n      dup2\n      add\n      0x40\n      mstore\n      dup1\n      swap3\n      swap2\n      swap1\n      dup2\n      dup2\n      mstore\n      0x20\n      add\n      dup3\n      dup1\n      sload\n      dup1\n      iszero\n      tag_35\n      jumpi\n      0x20\n      mul\n      dup3\n      add\n      swap2\n      swap1\n      0x00\n      mstore\n      keccak256(0x00, 0x20)\n      swap1\n    tag_36:\n      dup2\n      0x00\n      swap1\n      sload\n      swap1\n      0x0100\n      exp\n      swap1\n      div\n      0xffffffffffffffffffffffffffffffffffffffff\n      and\n      0xffffffffffffffffffffffffffffffffffffffff\n      and\n      dup2\n      mstore\n      0x20\n      add\n      swap1\n      0x01\n      add\n      swap1\n      dup1\n      dup4\n      gt\n      tag_36\n      jumpi\n    tag_35:\n      pop\n      pop\n      pop\n      pop\n      pop\n      swap1\n      pop\n        /* \"campaign.sol\":550:664  function getDeployedCampaigns() public view returns(campaign[] memory) {\r... */\n      swap1\n      jump\t// out\n    tag_27:\n      dataSize(sub_0)\n      dup1\n      dataOffset(sub_0)\n      dup4\n      codecopy\n      add\n      swap1\n      jump\t// out\n        /* \"#utility.yul\":7:146   */\n    tag_38:\n      0x00\n        /* \"#utility.yul\":91:97   */\n      dup2\n        /* \"#utility.yul\":78:98   */\n      calldataload\n        /* \"#utility.yul\":69:98   */\n      swap1\n      pop\n        /* \"#utility.yul\":107:140   */\n      tag_40\n        /* \"#utility.yul\":134:139   */\n      dup2\n        /* \"#utility.yul\":107:140   */\n      tag_41\n      jump\t// in\n    tag_40:\n        /* \"#utility.yul\":59:146   */\n      swap3\n      swap2\n      pop\n      pop\n      jump\t// out\n        /* \"#utility.yul\":152:414   */\n    tag_13:\n      0x00\n        /* \"#utility.yul\":260:262   */\n      0x20\n        /* \"#utility.yul\":248:257   */\n      dup3\n        /* \"#utility.yul\":239:246   */\n      dup5\n        /* \"#utility.yul\":235:258   */\n      sub\n        /* \"#utility.yul\":231:263   */\n      slt\n        /* \"#utility.yul\":228:230   */\n      iszero\n      tag_43\n      jumpi\n        /* \"#utility.yul\":276:277   */\n      0x00\n        /* \"#utility.yul\":273:274   */\n      dup1\n        /* \"#utility.yul\":266:278   */\n      revert\n        /* \"#utility.yul\":228:230   */\n    tag_43:\n        /* \"#utility.yul\":319:320   */\n      0x00\n        /* \"#utility.yul\":344:397   */\n      tag_44\n        /* \"#utility.yul\":389:396   */\n      dup5\n        /* \"#utility.yul\":380:386   */\n      dup3\n        /* \"#utility.yul\":369:378   */\n      dup6\n        /* \"#utility.yul\":365:387   */\n      add\n        /* \"#utility.yul\":344:397   */\n      tag_38\n      jump\t// in\n    tag_44:\n        /* \"#utility.yul\":334:397   */\n      swap2\n      pop\n        /* \"#utility.yul\":290:407   */\n      pop\n        /* \"#utility.yul\":218:414   */\n      swap3\n      swap2\n      pop\n      pop\n      jump\t// out\n        /* \"#utility.yul\":420:827   */\n    tag_9:\n      0x00\n      dup1\n        /* \"#utility.yul\":545:547   */\n      0x40\n        /* \"#utility.yul\":533:542   */\n      dup4\n        /* \"#utility.yul\":524:531   */\n      dup6\n        /* \"#utility.yul\":520:543   */\n      sub\n        /* \"#utility.yul\":516:548   */\n      slt\n        /* \"#utility.yul\":513:515   */\n      iszero\n      tag_46\n      jumpi\n        /* \"#utility.yul\":561:562   */\n      0x00\n        /* \"#utility.yul\":558:559   */\n      dup1\n        /* \"#utility.yul\":551:563   */\n      revert\n        /* \"#utility.yul\":513:515   */\n    tag_46:\n        /* \"#utility.yul\":604:605   */\n      0x00\n        /* \"#utility.yul\":629:682   */\n      tag_47\n        /* \"#utility.yul\":674:681   */\n      dup6\n        /* \"#utility.yul\":665:671   */\n      dup3\n        /* \"#utility.yul\":654:663   */\n      dup7\n        /* \"#utility.yul\":650:672   */\n      add\n        /* \"#utility.yul\":629:682   */\n      tag_38\n      jump\t// in\n    tag_47:\n        /* \"#utility.yul\":619:682   */\n      swap3\n      pop\n        /* \"#utility.yul\":575:692   */\n      pop\n        /* \"#utility.yul\":731:733   */\n      0x20\n        /* \"#utility.yul\":757:810   */\n      tag_48\n        /* \"#utility.yul\":802:809   */\n      dup6\n        /* \"#utility.yul\":793:799   */\n      dup3\n        /* \"#utility.yul\":782:791   */\n      dup7\n        /* \"#utility.yul\":778:800   */\n      add\n        /* \"#utility.yul\":757:810   */\n      tag_38\n      jump\t// in\n    tag_48:\n        /* \"#utility.yul\":747:810   */\n      swap2\n      pop\n        /* \"#utility.yul\":702:820   */\n      pop\n        /* \"#utility.yul\":503:827   */\n      swap3\n      pop\n      swap3\n      swap1\n      pop\n      jump\t// out\n        /* \"#utility.yul\":833:1044   */\n    tag_49:\n      0x00\n        /* \"#utility.yul\":939:1001   */\n      tag_51\n        /* \"#utility.yul\":997:1000   */\n      dup4\n        /* \"#utility.yul\":989:995   */\n      dup4\n        /* \"#utility.yul\":939:1001   */\n      tag_52\n      jump\t// in\n    tag_51:\n        /* \"#utility.yul\":1033:1037   */\n      0x20\n        /* \"#utility.yul\":1028:1031   */\n      dup4\n        /* \"#utility.yul\":1024:1038   */\n      add\n        /* \"#utility.yul\":1010:1038   */\n      swap1\n      pop\n        /* \"#utility.yul\":929:1044   */\n      swap3\n      swap2\n      pop\n      pop\n      jump\t// out\n        /* \"#utility.yul\":1050:1168   */\n    tag_53:\n        /* \"#utility.yul\":1137:1161   */\n      tag_55\n        /* \"#utility.yul\":1155:1160   */\n      dup2\n        /* \"#utility.yul\":1137:1161   */\n      tag_56\n      jump\t// in\n    tag_55:\n        /* \"#utility.yul\":1132:1135   */\n      dup3\n        /* \"#utility.yul\":1125:1162   */\n      mstore\n        /* \"#utility.yul\":1115:1168   */\n      pop\n      pop\n      jump\t// out\n        /* \"#utility.yul\":1214:2026   */\n    tag_57:\n      0x00\n        /* \"#utility.yul\":1378:1448   */\n      tag_59\n        /* \"#utility.yul\":1442:1447   */\n      dup3\n        /* \"#utility.yul\":1378:1448   */\n      tag_60\n      jump\t// in\n    tag_59:\n        /* \"#utility.yul\":1464:1550   */\n      tag_61\n        /* \"#utility.yul\":1543:1549   */\n      dup2\n        /* \"#utility.yul\":1538:1541   */\n      dup6\n        /* \"#utility.yul\":1464:1550   */\n      tag_62\n      jump\t// in\n    tag_61:\n        /* \"#utility.yul\":1457:1550   */\n      swap4\n      pop\n        /* \"#utility.yul\":1574:1646   */\n      tag_63\n        /* \"#utility.yul\":1640:1645   */\n      dup4\n        /* \"#utility.yul\":1574:1646   */\n      tag_64\n      jump\t// in\n    tag_63:\n        /* \"#utility.yul\":1669:1676   */\n      dup1\n        /* \"#utility.yul\":1700:1701   */\n      0x00\n        /* \"#utility.yul\":1685:2001   */\n    tag_65:\n        /* \"#utility.yul\":1710:1716   */\n      dup4\n        /* \"#utility.yul\":1707:1708   */\n      dup2\n        /* \"#utility.yul\":1704:1717   */\n      lt\n        /* \"#utility.yul\":1685:2001   */\n      iszero\n      tag_67\n      jumpi\n        /* \"#utility.yul\":1786:1792   */\n      dup2\n        /* \"#utility.yul\":1780:1793   */\n      mload\n        /* \"#utility.yul\":1813:1892   */\n      tag_68\n        /* \"#utility.yul\":1888:1891   */\n      dup9\n        /* \"#utility.yul\":1873:1886   */\n      dup3\n        /* \"#utility.yul\":1813:1892   */\n      tag_49\n      jump\t// in\n    tag_68:\n        /* \"#utility.yul\":1806:1892   */\n      swap8\n      pop\n        /* \"#utility.yul\":1915:1991   */\n      tag_69\n        /* \"#utility.yul\":1984:1990   */\n      dup4\n        /* \"#utility.yul\":1915:1991   */\n      tag_70\n      jump\t// in\n    tag_69:\n        /* \"#utility.yul\":1905:1991   */\n      swap3\n      pop\n        /* \"#utility.yul\":1745:2001   */\n      pop\n        /* \"#utility.yul\":1732:1733   */\n      0x01\n        /* \"#utility.yul\":1729:1730   */\n      dup2\n        /* \"#utility.yul\":1725:1734   */\n      add\n        /* \"#utility.yul\":1720:1734   */\n      swap1\n      pop\n        /* \"#utility.yul\":1685:2001   */\n      jump(tag_65)\n    tag_67:\n        /* \"#utility.yul\":1689:1703   */\n      pop\n        /* \"#utility.yul\":2017:2020   */\n      dup6\n        /* \"#utility.yul\":2010:2020   */\n      swap4\n      pop\n        /* \"#utility.yul\":1354:2026   */\n      pop\n      pop\n      pop\n      swap3\n      swap2\n      pop\n      pop\n      jump\t// out\n        /* \"#utility.yul\":2032:2185   */\n    tag_52:\n        /* \"#utility.yul\":2125:2178   */\n      tag_72\n        /* \"#utility.yul\":2172:2177   */\n      dup2\n        /* \"#utility.yul\":2125:2178   */\n      tag_73\n      jump\t// in\n    tag_72:\n        /* \"#utility.yul\":2120:2123   */\n      dup3\n        /* \"#utility.yul\":2113:2179   */\n      mstore\n        /* \"#utility.yul\":2103:2185   */\n      pop\n      pop\n      jump\t// out\n        /* \"#utility.yul\":2191:2354   */\n    tag_74:\n        /* \"#utility.yul\":2294:2347   */\n      tag_76\n        /* \"#utility.yul\":2341:2346   */\n      dup2\n        /* \"#utility.yul\":2294:2347   */\n      tag_73\n      jump\t// in\n    tag_76:\n        /* \"#utility.yul\":2289:2292   */\n      dup3\n        /* \"#utility.yul\":2282:2348   */\n      mstore\n        /* \"#utility.yul\":2272:2354   */\n      pop\n      pop\n      jump\t// out\n        /* \"#utility.yul\":2360:2478   */\n    tag_77:\n        /* \"#utility.yul\":2447:2471   */\n      tag_79\n        /* \"#utility.yul\":2465:2470   */\n      dup2\n        /* \"#utility.yul\":2447:2471   */\n      tag_80\n      jump\t// in\n    tag_79:\n        /* \"#utility.yul\":2442:2445   */\n      dup3\n        /* \"#utility.yul\":2435:2472   */\n      mstore\n        /* \"#utility.yul\":2425:2478   */\n      pop\n      pop\n      jump\t// out\n        /* \"#utility.yul\":2484:2706   */\n    tag_20:\n      0x00\n        /* \"#utility.yul\":2615:2617   */\n      0x20\n        /* \"#utility.yul\":2604:2613   */\n      dup3\n        /* \"#utility.yul\":2600:2618   */\n      add\n        /* \"#utility.yul\":2592:2618   */\n      swap1\n      pop\n        /* \"#utility.yul\":2628:2699   */\n      tag_82\n        /* \"#utility.yul\":2696:2697   */\n      0x00\n        /* \"#utility.yul\":2685:2694   */\n      dup4\n        /* \"#utility.yul\":2681:2698   */\n      add\n        /* \"#utility.yul\":2672:2678   */\n      dup5\n        /* \"#utility.yul\":2628:2699   */\n      tag_53\n      jump\t// in\n    tag_82:\n        /* \"#utility.yul\":2582:2706   */\n      swap3\n      swap2\n      pop\n      pop\n      jump\t// out\n        /* \"#utility.yul\":2712:3117   */\n    tag_24:\n      0x00\n        /* \"#utility.yul\":2909:2911   */\n      0x20\n        /* \"#utility.yul\":2898:2907   */\n      dup3\n        /* \"#utility.yul\":2894:2912   */\n      add\n        /* \"#utility.yul\":2886:2912   */\n      swap1\n      pop\n        /* \"#utility.yul\":2958:2967   */\n      dup2\n        /* \"#utility.yul\":2952:2956   */\n      dup2\n        /* \"#utility.yul\":2948:2968   */\n      sub\n        /* \"#utility.yul\":2944:2945   */\n      0x00\n        /* \"#utility.yul\":2933:2942   */\n      dup4\n        /* \"#utility.yul\":2929:2946   */\n      add\n        /* \"#utility.yul\":2922:2969   */\n      mstore\n        /* \"#utility.yul\":2986:3110   */\n      tag_84\n        /* \"#utility.yul\":3105:3109   */\n      dup2\n        /* \"#utility.yul\":3096:3102   */\n      dup5\n        /* \"#utility.yul\":2986:3110   */\n      tag_57\n      jump\t// in\n    tag_84:\n        /* \"#utility.yul\":2978:3110   */\n      swap1\n      pop\n        /* \"#utility.yul\":2876:3117   */\n      swap3\n      swap2\n      pop\n      pop\n      jump\t// out\n        /* \"#utility.yul\":3123:3377   */\n    tag_16:\n      0x00\n        /* \"#utility.yul\":3270:3272   */\n      0x20\n        /* \"#utility.yul\":3259:3268   */\n      dup3\n        /* \"#utility.yul\":3255:3273   */\n      add\n        /* \"#utility.yul\":3247:3273   */\n      swap1\n      pop\n        /* \"#utility.yul\":3283:3370   */\n      tag_86\n        /* \"#utility.yul\":3367:3368   */\n      0x00\n        /* \"#utility.yul\":3356:3365   */\n      dup4\n        /* \"#utility.yul\":3352:3369   */\n      add\n        /* \"#utility.yul\":3343:3349   */\n      dup5\n        /* \"#utility.yul\":3283:3370   */\n      tag_74\n      jump\t// in\n    tag_86:\n        /* \"#utility.yul\":3237:3377   */\n      swap3\n      swap2\n      pop\n      pop\n      jump\t// out\n        /* \"#utility.yul\":3383:3825   */\n    tag_29:\n      0x00\n        /* \"#utility.yul\":3570:3572   */\n      0x60\n        /* \"#utility.yul\":3559:3568   */\n      dup3\n        /* \"#utility.yul\":3555:3573   */\n      add\n        /* \"#utility.yul\":3547:3573   */\n      swap1\n      pop\n        /* \"#utility.yul\":3583:3654   */\n      tag_88\n        /* \"#utility.yul\":3651:3652   */\n      0x00\n        /* \"#utility.yul\":3640:3649   */\n      dup4\n        /* \"#utility.yul\":3636:3653   */\n      add\n        /* \"#utility.yul\":3627:3633   */\n      dup7\n        /* \"#utility.yul\":3583:3654   */\n      tag_77\n      jump\t// in\n    tag_88:\n        /* \"#utility.yul\":3664:3736   */\n      tag_89\n        /* \"#utility.yul\":3732:3734   */\n      0x20\n        /* \"#utility.yul\":3721:3730   */\n      dup4\n        /* \"#utility.yul\":3717:3735   */\n      add\n        /* \"#utility.yul\":3708:3714   */\n      dup6\n        /* \"#utility.yul\":3664:3736   */\n      tag_77\n      jump\t// in\n    tag_89:\n        /* \"#utility.yul\":3746:3818   */\n      tag_90\n        /* \"#utility.yul\":3814:3816   */\n      0x40\n        /* \"#utility.yul\":3803:3812   */\n      dup4\n        /* \"#utility.yul\":3799:3817   */\n      add\n        /* \"#utility.yul\":3790:3796   */\n      dup5\n        /* \"#utility.yul\":3746:3818   */\n      tag_53\n      jump\t// in\n    tag_90:\n        /* \"#utility.yul\":3537:3825   */\n      swap5\n      swap4\n      pop\n      pop\n      pop\n      pop\n      jump\t// out\n        /* \"#utility.yul\":3831:3979   */\n    tag_64:\n      0x00\n        /* \"#utility.yul\":3937:3940   */\n      dup2\n        /* \"#utility.yul\":3929:3940   */\n      swap1\n      pop\n        /* \"#utility.yul\":3967:3971   */\n      0x20\n        /* \"#utility.yul\":3962:3965   */\n      dup3\n        /* \"#utility.yul\":3958:3972   */\n      add\n        /* \"#utility.yul\":3950:3972   */\n      swap1\n      pop\n        /* \"#utility.yul\":3919:3979   */\n      swap2\n      swap1\n      pop\n      jump\t// out\n        /* \"#utility.yul\":3985:4115   */\n    tag_60:\n      0x00\n        /* \"#utility.yul\":4102:4107   */\n      dup2\n        /* \"#utility.yul\":4096:4108   */\n      mload\n        /* \"#utility.yul\":4086:4108   */\n      swap1\n      pop\n        /* \"#utility.yul\":4075:4115   */\n      swap2\n      swap1\n      pop\n      jump\t// out\n        /* \"#utility.yul\":4121:4250   */\n    tag_70:\n      0x00\n        /* \"#utility.yul\":4239:4243   */\n      0x20\n        /* \"#utility.yul\":4234:4237   */\n      dup3\n        /* \"#utility.yul\":4230:4244   */\n      add\n        /* \"#utility.yul\":4222:4244   */\n      swap1\n      pop\n        /* \"#utility.yul\":4212:4250   */\n      swap2\n      swap1\n      pop\n      jump\t// out\n        /* \"#utility.yul\":4256:4440   */\n    tag_62:\n      0x00\n        /* \"#utility.yul\":4389:4395   */\n      dup3\n        /* \"#utility.yul\":4384:4387   */\n      dup3\n        /* \"#utility.yul\":4377:4396   */\n      mstore\n        /* \"#utility.yul\":4429:4433   */\n      0x20\n        /* \"#utility.yul\":4424:4427   */\n      dup3\n        /* \"#utility.yul\":4420:4434   */\n      add\n        /* \"#utility.yul\":4405:4434   */\n      swap1\n      pop\n        /* \"#utility.yul\":4367:4440   */\n      swap3\n      swap2\n      pop\n      pop\n      jump\t// out\n        /* \"#utility.yul\":4446:4542   */\n    tag_56:\n      0x00\n        /* \"#utility.yul\":4512:4536   */\n      tag_96\n        /* \"#utility.yul\":4530:4535   */\n      dup3\n        /* \"#utility.yul\":4512:4536   */\n      tag_97\n      jump\t// in\n    tag_96:\n        /* \"#utility.yul\":4501:4536   */\n      swap1\n      pop\n        /* \"#utility.yul\":4491:4542   */\n      swap2\n      swap1\n      pop\n      jump\t// out\n        /* \"#utility.yul\":4548:4674   */\n    tag_97:\n      0x00\n        /* \"#utility.yul\":4625:4667   */\n      0xffffffffffffffffffffffffffffffffffffffff\n        /* \"#utility.yul\":4618:4623   */\n      dup3\n        /* \"#utility.yul\":4614:4668   */\n      and\n        /* \"#utility.yul\":4603:4668   */\n      swap1\n      pop\n        /* \"#utility.yul\":4593:4674   */\n      swap2\n      swap1\n      pop\n      jump\t// out\n        /* \"#utility.yul\":4680:4757   */\n    tag_80:\n      0x00\n        /* \"#utility.yul\":4746:4751   */\n      dup2\n        /* \"#utility.yul\":4735:4751   */\n      swap1\n      pop\n        /* \"#utility.yul\":4725:4757   */\n      swap2\n      swap1\n      pop\n      jump\t// out\n        /* \"#utility.yul\":4763:4921   */\n    tag_73:\n      0x00\n        /* \"#utility.yul\":4862:4915   */\n      tag_101\n        /* \"#utility.yul\":4909:4914   */\n      dup3\n        /* \"#utility.yul\":4862:4915   */\n      tag_102\n      jump\t// in\n    tag_101:\n        /* \"#utility.yul\":4849:4915   */\n      swap1\n      pop\n        /* \"#utility.yul\":4839:4921   */\n      swap2\n      swap1\n      pop\n      jump\t// out\n        /* \"#utility.yul\":4927:5056   */\n    tag_102:\n      0x00\n        /* \"#utility.yul\":5026:5050   */\n      tag_104\n        /* \"#utility.yul\":5044:5049   */\n      dup3\n        /* \"#utility.yul\":5026:5050   */\n      tag_97\n      jump\t// in\n    tag_104:\n        /* \"#utility.yul\":5013:5050   */\n      swap1\n      pop\n        /* \"#utility.yul\":5003:5056   */\n      swap2\n      swap1\n      pop\n      jump\t// out\n        /* \"#utility.yul\":5062:5184   */\n    tag_41:\n        /* \"#utility.yul\":5135:5159   */\n      tag_106\n        /* \"#utility.yul\":5153:5158   */\n      dup2\n        /* \"#utility.yul\":5135:5159   */\n      tag_80\n      jump\t// in\n    tag_106:\n        /* \"#utility.yul\":5128:5133   */\n      dup2\n        /* \"#utility.yul\":5125:5160   */\n      eq\n        /* \"#utility.yul\":5115:5117   */\n      tag_107\n      jumpi\n        /* \"#utility.yul\":5174:5175   */\n      0x00\n        /* \"#utility.yul\":5171:5172   */\n      dup1\n        /* \"#utility.yul\":5164:5176   */\n      revert\n        /* \"#utility.yul\":5115:5117   */\n    tag_107:\n        /* \"#utility.yul\":5105:5184   */\n      pop\n      jump\t// out\n    stop\n\n    sub_0: assembly {\n            /* \"campaign.sol\":669:4429  contract campaign{\r... */\n          mstore(0x40, 0x80)\n            /* \"campaign.sol\":1484:1709  constructor(uint min_val,uint threshold, address creator) {\r... */\n          callvalue\n          dup1\n          iszero\n          tag_1\n          jumpi\n          0x00\n          dup1\n          revert\n        tag_1:\n          pop\n          mload(0x40)\n          sub(codesize, bytecodeSize)\n          dup1\n          bytecodeSize\n          dup4\n          codecopy\n          dup2\n          dup2\n          add\n          0x40\n          mstore\n          dup2\n          add\n          swap1\n          tag_2\n          swap2\n          swap1\n          tag_3\n          jump\t// in\n        tag_2:\n            /* \"campaign.sol\":1563:1570  creator */\n          dup1\n            /* \"campaign.sol\":1553:1560  manager */\n          0x00\n          dup1\n            /* \"campaign.sol\":1553:1570  manager = creator */\n          0x0100\n          exp\n          dup2\n          sload\n          dup2\n          0xffffffffffffffffffffffffffffffffffffffff\n          mul\n          not\n          and\n          swap1\n          dup4\n          0xffffffffffffffffffffffffffffffffffffffff\n          and\n          mul\n          or\n          swap1\n          sstore\n          pop\n            /* \"campaign.sol\":1599:1606  min_val */\n          dup3\n            /* \"campaign.sol\":1581:1596  minContribution */\n          0x01\n            /* \"campaign.sol\":1581:1606  minContribution = min_val */\n          dup2\n          swap1\n          sstore\n          pop\n            /* \"campaign.sol\":1636:1645  threshold */\n          dup2\n            /* \"campaign.sol\":1617:1633  approveThreshlod */\n          0x04\n            /* \"campaign.sol\":1617:1645  approveThreshlod = threshold */\n          dup2\n          swap1\n          sstore\n          pop\n            /* \"campaign.sol\":1668:1669  0 */\n          0x00\n            /* \"campaign.sol\":1656:1665  reqNumber */\n          0x03\n            /* \"campaign.sol\":1656:1669  reqNumber = 0 */\n          dup2\n          swap1\n          sstore\n          pop\n            /* \"campaign.sol\":1700:1701  0 */\n          0x00\n            /* \"campaign.sol\":1680:1697  numberOfApprovers */\n          0x05\n            /* \"campaign.sol\":1680:1701  numberOfApprovers = 0 */\n          dup2\n          swap1\n          sstore\n          pop\n            /* \"campaign.sol\":1484:1709  constructor(uint min_val,uint threshold, address creator) {\r... */\n          pop\n          pop\n          pop\n            /* \"campaign.sol\":669:4429  contract campaign{\r... */\n          jump(tag_6)\n            /* \"#utility.yul\":7:150   */\n        tag_8:\n          0x00\n            /* \"#utility.yul\":95:101   */\n          dup2\n            /* \"#utility.yul\":89:102   */\n          mload\n            /* \"#utility.yul\":80:102   */\n          swap1\n          pop\n            /* \"#utility.yul\":111:144   */\n          tag_10\n            /* \"#utility.yul\":138:143   */\n          dup2\n            /* \"#utility.yul\":111:144   */\n          tag_11\n          jump\t// in\n        tag_10:\n            /* \"#utility.yul\":70:150   */\n          swap3\n          swap2\n          pop\n          pop\n          jump\t// out\n            /* \"#utility.yul\":156:299   */\n        tag_12:\n          0x00\n            /* \"#utility.yul\":244:250   */\n          dup2\n            /* \"#utility.yul\":238:251   */\n          mload\n            /* \"#utility.yul\":229:251   */\n          swap1\n          pop\n            /* \"#utility.yul\":260:293   */\n          tag_14\n            /* \"#utility.yul\":287:292   */\n          dup2\n            /* \"#utility.yul\":260:293   */\n          tag_15\n          jump\t// in\n        tag_14:\n            /* \"#utility.yul\":219:299   */\n          swap3\n          swap2\n          pop\n          pop\n          jump\t// out\n            /* \"#utility.yul\":305:901   */\n        tag_3:\n          0x00\n          dup1\n          0x00\n            /* \"#utility.yul\":458:460   */\n          0x60\n            /* \"#utility.yul\":446:455   */\n          dup5\n            /* \"#utility.yul\":437:444   */\n          dup7\n            /* \"#utility.yul\":433:456   */\n          sub\n            /* \"#utility.yul\":429:461   */\n          slt\n            /* \"#utility.yul\":426:428   */\n          iszero\n          tag_17\n          jumpi\n            /* \"#utility.yul\":474:475   */\n          0x00\n            /* \"#utility.yul\":471:472   */\n          dup1\n            /* \"#utility.yul\":464:476   */\n          revert\n            /* \"#utility.yul\":426:428   */\n        tag_17:\n            /* \"#utility.yul\":517:518   */\n          0x00\n            /* \"#utility.yul\":542:606   */\n          tag_18\n            /* \"#utility.yul\":598:605   */\n          dup7\n            /* \"#utility.yul\":589:595   */\n          dup3\n            /* \"#utility.yul\":578:587   */\n          dup8\n            /* \"#utility.yul\":574:596   */\n          add\n            /* \"#utility.yul\":542:606   */\n          tag_12\n          jump\t// in\n        tag_18:\n            /* \"#utility.yul\":532:606   */\n          swap4\n          pop\n            /* \"#utility.yul\":488:616   */\n          pop\n            /* \"#utility.yul\":655:657   */\n          0x20\n            /* \"#utility.yul\":681:745   */\n          tag_19\n            /* \"#utility.yul\":737:744   */\n          dup7\n            /* \"#utility.yul\":728:734   */\n          dup3\n            /* \"#utility.yul\":717:726   */\n          dup8\n            /* \"#utility.yul\":713:735   */\n          add\n            /* \"#utility.yul\":681:745   */\n          tag_12\n          jump\t// in\n        tag_19:\n            /* \"#utility.yul\":671:745   */\n          swap3\n          pop\n            /* \"#utility.yul\":626:755   */\n          pop\n            /* \"#utility.yul\":794:796   */\n          0x40\n            /* \"#utility.yul\":820:884   */\n          tag_20\n            /* \"#utility.yul\":876:883   */\n          dup7\n            /* \"#utility.yul\":867:873   */\n          dup3\n            /* \"#utility.yul\":856:865   */\n          dup8\n            /* \"#utility.yul\":852:874   */\n          add\n            /* \"#utility.yul\":820:884   */\n          tag_8\n          jump\t// in\n        tag_20:\n            /* \"#utility.yul\":810:884   */\n          swap2\n          pop\n            /* \"#utility.yul\":765:894   */\n          pop\n            /* \"#utility.yul\":416:901   */\n          swap3\n          pop\n          swap3\n          pop\n          swap3\n          jump\t// out\n            /* \"#utility.yul\":907:1003   */\n        tag_21:\n          0x00\n            /* \"#utility.yul\":973:997   */\n          tag_23\n            /* \"#utility.yul\":991:996   */\n          dup3\n            /* \"#utility.yul\":973:997   */\n          tag_24\n          jump\t// in\n        tag_23:\n            /* \"#utility.yul\":962:997   */\n          swap1\n          pop\n            /* \"#utility.yul\":952:1003   */\n          swap2\n          swap1\n          pop\n          jump\t// out\n            /* \"#utility.yul\":1009:1135   */\n        tag_24:\n          0x00\n            /* \"#utility.yul\":1086:1128   */\n          0xffffffffffffffffffffffffffffffffffffffff\n            /* \"#utility.yul\":1079:1084   */\n          dup3\n            /* \"#utility.yul\":1075:1129   */\n          and\n            /* \"#utility.yul\":1064:1129   */\n          swap1\n          pop\n            /* \"#utility.yul\":1054:1135   */\n          swap2\n          swap1\n          pop\n          jump\t// out\n            /* \"#utility.yul\":1141:1218   */\n        tag_26:\n          0x00\n            /* \"#utility.yul\":1207:1212   */\n          dup2\n            /* \"#utility.yul\":1196:1212   */\n          swap1\n          pop\n            /* \"#utility.yul\":1186:1218   */\n          swap2\n          swap1\n          pop\n          jump\t// out\n            /* \"#utility.yul\":1224:1346   */\n        tag_11:\n            /* \"#utility.yul\":1297:1321   */\n          tag_29\n            /* \"#utility.yul\":1315:1320   */\n          dup2\n            /* \"#utility.yul\":1297:1321   */\n          tag_21\n          jump\t// in\n        tag_29:\n            /* \"#utility.yul\":1290:1295   */\n          dup2\n            /* \"#utility.yul\":1287:1322   */\n          eq\n            /* \"#utility.yul\":1277:1279   */\n          tag_30\n          jumpi\n            /* \"#utility.yul\":1336:1337   */\n          0x00\n            /* \"#utility.yul\":1333:1334   */\n          dup1\n            /* \"#utility.yul\":1326:1338   */\n          revert\n            /* \"#utility.yul\":1277:1279   */\n        tag_30:\n            /* \"#utility.yul\":1267:1346   */\n          pop\n          jump\t// out\n            /* \"#utility.yul\":1352:1474   */\n        tag_15:\n            /* \"#utility.yul\":1425:1449   */\n          tag_32\n            /* \"#utility.yul\":1443:1448   */\n          dup2\n            /* \"#utility.yul\":1425:1449   */\n          tag_26\n          jump\t// in\n        tag_32:\n            /* \"#utility.yul\":1418:1423   */\n          dup2\n            /* \"#utility.yul\":1415:1450   */\n          eq\n            /* \"#utility.yul\":1405:1407   */\n          tag_33\n          jumpi\n            /* \"#utility.yul\":1464:1465   */\n          0x00\n            /* \"#utility.yul\":1461:1462   */\n          dup1\n            /* \"#utility.yul\":1454:1466   */\n          revert\n            /* \"#utility.yul\":1405:1407   */\n        tag_33:\n            /* \"#utility.yul\":1395:1474   */\n          pop\n          jump\t// out\n            /* \"campaign.sol\":669:4429  contract campaign{\r... */\n        tag_6:\n          dataSize(sub_0)\n          dup1\n          dataOffset(sub_0)\n          0x00\n          codecopy\n          0x00\n          return\n        stop\n\n        sub_0: assembly {\n                /* \"campaign.sol\":669:4429  contract campaign{\r... */\n              mstore(0x40, 0x80)\n              jumpi(tag_1, lt(calldatasize, 0x04))\n              shr(0xe0, calldataload(0x00))\n              dup1\n              0x81d12c58\n              gt\n              tag_11\n              jumpi\n              dup1\n              0x81d12c58\n              eq\n              tag_6\n              jumpi\n              dup1\n              0x8a9cfd55\n              eq\n              tag_7\n              jumpi\n              dup1\n              0xc58343ef\n              eq\n              tag_8\n              jumpi\n              dup1\n              0xd7bb99ba\n              eq\n              tag_9\n              jumpi\n              dup1\n              0xfea21ce5\n              eq\n              tag_10\n              jumpi\n              jump(tag_1)\n            tag_11:\n              dup1\n              0x2d8f1adc\n              eq\n              tag_2\n              jumpi\n              dup1\n              0x3fad1834\n              eq\n              tag_3\n              jumpi\n              dup1\n              0x481c6a75\n              eq\n              tag_4\n              jumpi\n              dup1\n              0x767e0b9c\n              eq\n              tag_5\n              jumpi\n            tag_1:\n              0x00\n              dup1\n              revert\n                /* \"campaign.sol\":4000:4208  function returnStats() public view returns(uint,uint,uint,uint,uint,address){\r... */\n            tag_2:\n              callvalue\n              dup1\n              iszero\n              tag_12\n              jumpi\n              0x00\n              dup1\n              revert\n            tag_12:\n              pop\n              tag_13\n              tag_14\n              jump\t// in\n            tag_13:\n              mload(0x40)\n              tag_15\n              swap7\n              swap6\n              swap5\n              swap4\n              swap3\n              swap2\n              swap1\n              tag_16\n              jump\t// in\n            tag_15:\n              mload(0x40)\n              dup1\n              swap2\n              sub\n              swap1\n              return\n                /* \"campaign.sol\":4214:4302  function getRequestCount() public view returns (uint){\r... */\n            tag_3:\n              callvalue\n              dup1\n              iszero\n              tag_17\n              jumpi\n              0x00\n              dup1\n              revert\n            tag_17:\n              pop\n              tag_18\n              tag_19\n              jump\t// in\n            tag_18:\n              mload(0x40)\n              tag_20\n              swap2\n              swap1\n              tag_21\n              jump\t// in\n            tag_20:\n              mload(0x40)\n              dup1\n              swap2\n              sub\n              swap1\n              return\n                /* \"campaign.sol\":699:721  address public manager */\n            tag_4:\n              callvalue\n              dup1\n              iszero\n              tag_22\n              jumpi\n              0x00\n              dup1\n              revert\n            tag_22:\n              pop\n              tag_23\n              tag_24\n              jump\t// in\n            tag_23:\n              mload(0x40)\n              tag_25\n              swap2\n              swap1\n              tag_26\n              jump\t// in\n            tag_25:\n              mload(0x40)\n              dup1\n              swap2\n              sub\n              swap1\n              return\n                /* \"campaign.sol\":2563:3218  function approveRequest(uint req_number, bool isApproved) public{\r... */\n            tag_5:\n              callvalue\n              dup1\n              iszero\n              tag_27\n              jumpi\n              0x00\n              dup1\n              revert\n            tag_27:\n              pop\n              tag_28\n              0x04\n              dup1\n              calldatasize\n              sub\n              dup2\n              add\n              swap1\n              tag_29\n              swap2\n              swap1\n              tag_30\n              jump\t// in\n            tag_29:\n              tag_31\n              jump\t// in\n            tag_28:\n              stop\n                /* \"campaign.sol\":884:910  request [] public requests */\n            tag_6:\n              callvalue\n              dup1\n              iszero\n              tag_32\n              jumpi\n              0x00\n              dup1\n              revert\n            tag_32:\n              pop\n              tag_33\n              0x04\n              dup1\n              calldatasize\n              sub\n              dup2\n              add\n              swap1\n              tag_34\n              swap2\n              swap1\n              tag_35\n              jump\t// in\n            tag_34:\n              tag_36\n              jump\t// in\n            tag_33:\n              mload(0x40)\n              tag_37\n              swap9\n              swap8\n              swap7\n              swap6\n              swap5\n              swap4\n              swap3\n              swap2\n              swap1\n              tag_38\n              jump\t// in\n            tag_37:\n              mload(0x40)\n              dup1\n              swap2\n              sub\n              swap1\n              return\n                /* \"campaign.sol\":2074:2557  function createRequest(string memory description , uint value, address recipient) public restricted{\r... */\n            tag_7:\n              callvalue\n              dup1\n              iszero\n              tag_39\n              jumpi\n              0x00\n              dup1\n              revert\n            tag_39:\n              pop\n              tag_40\n              0x04\n              dup1\n              calldatasize\n              sub\n              dup2\n              add\n              swap1\n              tag_41\n              swap2\n              swap1\n              tag_42\n              jump\t// in\n            tag_41:\n              tag_43\n              jump\t// in\n            tag_40:\n              stop\n                /* \"campaign.sol\":4308:4426  function getRequest(uint req_number) public view returns(request memory){\r... */\n            tag_8:\n              callvalue\n              dup1\n              iszero\n              tag_44\n              jumpi\n              0x00\n              dup1\n              revert\n            tag_44:\n              pop\n              tag_45\n              0x04\n              dup1\n              calldatasize\n              sub\n              dup2\n              add\n              swap1\n              tag_46\n              swap2\n              swap1\n              tag_35\n              jump\t// in\n            tag_46:\n              tag_47\n              jump\t// in\n            tag_45:\n              mload(0x40)\n              tag_48\n              swap2\n              swap1\n              tag_49\n              jump\t// in\n            tag_48:\n              mload(0x40)\n              dup1\n              swap2\n              sub\n              swap1\n              return\n                /* \"campaign.sol\":1721:2061  function contribute() public payable{\r... */\n            tag_9:\n              tag_50\n              tag_51\n              jump\t// in\n            tag_50:\n              stop\n                /* \"campaign.sol\":3224:3931  function checkApproval(uint req_number) public restricted{\r... */\n            tag_10:\n              callvalue\n              dup1\n              iszero\n              tag_52\n              jumpi\n              0x00\n              dup1\n              revert\n            tag_52:\n              pop\n              tag_53\n              0x04\n              dup1\n              calldatasize\n              sub\n              dup2\n              add\n              swap1\n              tag_54\n              swap2\n              swap1\n              tag_35\n              jump\t// in\n            tag_54:\n              tag_55\n              jump\t// in\n            tag_53:\n              stop\n                /* \"campaign.sol\":4000:4208  function returnStats() public view returns(uint,uint,uint,uint,uint,address){\r... */\n            tag_14:\n                /* \"campaign.sol\":4043:4047  uint */\n              0x00\n                /* \"campaign.sol\":4048:4052  uint */\n              dup1\n                /* \"campaign.sol\":4053:4057  uint */\n              0x00\n                /* \"campaign.sol\":4058:4062  uint */\n              dup1\n                /* \"campaign.sol\":4063:4067  uint */\n              0x00\n                /* \"campaign.sol\":4068:4075  address */\n              dup1\n                /* \"campaign.sol\":4096:4105  reqNumber */\n              sload(0x03)\n                /* \"campaign.sol\":4107:4123  approveThreshlod */\n              sload(0x04)\n                /* \"campaign.sol\":4125:4140  minContribution */\n              sload(0x01)\n                /* \"campaign.sol\":4141:4162  address(this).balance */\n              selfbalance\n                /* \"campaign.sol\":4163:4180  numberOfApprovers */\n              sload(0x05)\n                /* \"campaign.sol\":4182:4189  manager */\n              0x00\n              dup1\n              sload\n              swap1\n              0x0100\n              exp\n              swap1\n              div\n              0xffffffffffffffffffffffffffffffffffffffff\n              and\n                /* \"campaign.sol\":4089:4190  return(reqNumber, approveThreshlod, minContribution,address(this).balance,numberOfApprovers, manager) */\n              swap6\n              pop\n              swap6\n              pop\n              swap6\n              pop\n              swap6\n              pop\n              swap6\n              pop\n              swap6\n              pop\n                /* \"campaign.sol\":4000:4208  function returnStats() public view returns(uint,uint,uint,uint,uint,address){\r... */\n              swap1\n              swap2\n              swap3\n              swap4\n              swap5\n              swap6\n              jump\t// out\n                /* \"campaign.sol\":4214:4302  function getRequestCount() public view returns (uint){\r... */\n            tag_19:\n                /* \"campaign.sol\":4262:4266  uint */\n              0x00\n                /* \"campaign.sol\":4285:4294  reqNumber */\n              sload(0x03)\n                /* \"campaign.sol\":4278:4294  return reqNumber */\n              swap1\n              pop\n                /* \"campaign.sol\":4214:4302  function getRequestCount() public view returns (uint){\r... */\n              swap1\n              jump\t// out\n                /* \"campaign.sol\":699:721  address public manager */\n            tag_24:\n              0x00\n              dup1\n              sload\n              swap1\n              0x0100\n              exp\n              swap1\n              div\n              0xffffffffffffffffffffffffffffffffffffffff\n              and\n              dup2\n              jump\t// out\n                /* \"campaign.sol\":2563:3218  function approveRequest(uint req_number, bool isApproved) public{\r... */\n            tag_31:\n                /* \"campaign.sol\":2823:2842  request storage req */\n              0x00\n                /* \"campaign.sol\":2845:2853  requests */\n              0x06\n                /* \"campaign.sol\":2865:2866  1 */\n              0x01\n                /* \"campaign.sol\":2854:2864  req_number */\n              dup5\n                /* \"campaign.sol\":2854:2866  req_number-1 */\n              tag_59\n              swap2\n              swap1\n              tag_60\n              jump\t// in\n            tag_59:\n                /* \"campaign.sol\":2845:2867  requests[req_number-1] */\n              dup2\n              sload\n              dup2\n              lt\n              tag_61\n              jumpi\n              mstore(0x00, 0x4e487b7100000000000000000000000000000000000000000000000000000000)\n              mstore(0x04, 0x32)\n              revert(0x00, 0x24)\n            tag_61:\n              swap1\n              0x00\n              mstore\n              keccak256(0x00, 0x20)\n              swap1\n              0x06\n              mul\n              add\n                /* \"campaign.sol\":2823:2867  request storage req = requests[req_number-1] */\n              swap1\n              pop\n                /* \"campaign.sol\":2887:2890  req */\n              dup1\n                /* \"campaign.sol\":2887:2902  req.isProcessed */\n              0x05\n              add\n              0x00\n              swap1\n              sload\n              swap1\n              0x0100\n              exp\n              swap1\n              div\n              0xff\n              and\n                /* \"campaign.sol\":2886:2902  !req.isProcessed */\n              iszero\n                /* \"campaign.sol\":2878:2903  require(!req.isProcessed) */\n              tag_63\n              jumpi\n              0x00\n              dup1\n              revert\n            tag_63:\n                /* \"campaign.sol\":3077:3087  isApproved */\n              dup2\n                /* \"campaign.sol\":3073:3172  if(!isApproved){\r... */\n              tag_64\n              jumpi\n                /* \"campaign.sol\":3116:3117  1 */\n              0x01\n                /* \"campaign.sol\":3103:3106  req */\n              dup2\n                /* \"campaign.sol\":3103:3114  req.denials */\n              0x04\n              add\n              0x00\n                /* \"campaign.sol\":3103:3117  req.denials+=1 */\n              dup3\n              dup3\n              sload\n              tag_65\n              swap2\n              swap1\n              tag_66\n              jump\t// in\n            tag_65:\n              swap3\n              pop\n              pop\n              dup2\n              swap1\n              sstore\n              pop\n                /* \"campaign.sol\":3073:3172  if(!isApproved){\r... */\n            tag_64:\n                /* \"campaign.sol\":2563:3218  function approveRequest(uint req_number, bool isApproved) public{\r... */\n              pop\n              pop\n              pop\n              jump\t// out\n                /* \"campaign.sol\":884:910  request [] public requests */\n            tag_36:\n              0x06\n              dup2\n              dup2\n              sload\n              dup2\n              lt\n              tag_67\n              jumpi\n              0x00\n              dup1\n              revert\n            tag_67:\n              swap1\n              0x00\n              mstore\n              keccak256(0x00, 0x20)\n              swap1\n              0x06\n              mul\n              add\n              0x00\n              swap2\n              pop\n              swap1\n              pop\n              dup1\n              0x00\n              add\n              sload\n              swap1\n              dup1\n              0x01\n              add\n              0x00\n              swap1\n              sload\n              swap1\n              0x0100\n              exp\n              swap1\n              div\n              0xffffffffffffffffffffffffffffffffffffffff\n              and\n              swap1\n              dup1\n              0x02\n              add\n              dup1\n              sload\n              tag_69\n              swap1\n              tag_70\n              jump\t// in\n            tag_69:\n              dup1\n              0x1f\n              add\n              0x20\n              dup1\n              swap2\n              div\n              mul\n              0x20\n              add\n              mload(0x40)\n              swap1\n              dup2\n              add\n              0x40\n              mstore\n              dup1\n              swap3\n              swap2\n              swap1\n              dup2\n              dup2\n              mstore\n              0x20\n              add\n              dup3\n              dup1\n              sload\n              tag_71\n              swap1\n              tag_70\n              jump\t// in\n            tag_71:\n              dup1\n              iszero\n              tag_72\n              jumpi\n              dup1\n              0x1f\n              lt\n              tag_73\n              jumpi\n              0x0100\n              dup1\n              dup4\n              sload\n              div\n              mul\n              dup4\n              mstore\n              swap2\n              0x20\n              add\n              swap2\n              jump(tag_72)\n            tag_73:\n              dup3\n              add\n              swap2\n              swap1\n              0x00\n              mstore\n              keccak256(0x00, 0x20)\n              swap1\n            tag_74:\n              dup2\n              sload\n              dup2\n              mstore\n              swap1\n              0x01\n              add\n              swap1\n              0x20\n              add\n              dup1\n              dup4\n              gt\n              tag_74\n              jumpi\n              dup3\n              swap1\n              sub\n              0x1f\n              and\n              dup3\n              add\n              swap2\n            tag_72:\n              pop\n              pop\n              pop\n              pop\n              pop\n              swap1\n              dup1\n              0x03\n              add\n              sload\n              swap1\n              dup1\n              0x04\n              add\n              sload\n              swap1\n              dup1\n              0x05\n              add\n              0x00\n              swap1\n              sload\n              swap1\n              0x0100\n              exp\n              swap1\n              div\n              0xff\n              and\n              swap1\n              dup1\n              0x05\n              add\n              0x01\n              swap1\n              sload\n              swap1\n              0x0100\n              exp\n              swap1\n              div\n              0xff\n              and\n              swap1\n              dup1\n              0x05\n              add\n              0x02\n              swap1\n              sload\n              swap1\n              0x0100\n              exp\n              swap1\n              div\n              0xff\n              and\n              swap1\n              pop\n              dup9\n              jump\t// out\n                /* \"campaign.sol\":2074:2557  function createRequest(string memory description , uint value, address recipient) public restricted{\r... */\n            tag_43:\n                /* \"campaign.sol\":1444:1451  manager */\n              0x00\n              dup1\n              sload\n              swap1\n              0x0100\n              exp\n              swap1\n              div\n              0xffffffffffffffffffffffffffffffffffffffff\n              and\n                /* \"campaign.sol\":1430:1451  msg.sender == manager */\n              0xffffffffffffffffffffffffffffffffffffffff\n              and\n                /* \"campaign.sol\":1430:1440  msg.sender */\n              caller\n                /* \"campaign.sol\":1430:1451  msg.sender == manager */\n              0xffffffffffffffffffffffffffffffffffffffff\n              and\n              eq\n                /* \"campaign.sol\":1422:1452  require(msg.sender == manager) */\n              tag_76\n              jumpi\n              0x00\n              dup1\n              revert\n            tag_76:\n                /* \"campaign.sol\":2206:2215  reqNumber */\n              0x03\n              0x00\n                /* \"campaign.sol\":2206:2217  reqNumber++ */\n              dup2\n              sload\n              dup1\n              swap3\n              swap2\n              swap1\n              tag_78\n              swap1\n              tag_79\n              jump\t// in\n            tag_78:\n              swap2\n              swap1\n              pop\n              sstore\n              pop\n                /* \"campaign.sol\":2228:2246  request memory req */\n              tag_80\n              tag_81\n              jump\t// in\n            tag_80:\n                /* \"campaign.sol\":2276:2287  description */\n              dup4\n                /* \"campaign.sol\":2258:2261  req */\n              dup2\n                /* \"campaign.sol\":2258:2273  req.description */\n              0x40\n              add\n                /* \"campaign.sol\":2258:2287  req.description = description */\n              dup2\n              swap1\n              mstore\n              pop\n                /* \"campaign.sol\":2310:2315  value */\n              dup3\n                /* \"campaign.sol\":2298:2301  req */\n              dup2\n                /* \"campaign.sol\":2298:2307  req.value */\n              0x00\n              add\n                /* \"campaign.sol\":2298:2315  req.value = value */\n              dup2\n              dup2\n              mstore\n              pop\n              pop\n                /* \"campaign.sol\":2342:2351  recipient */\n              dup2\n                /* \"campaign.sol\":2326:2329  req */\n              dup2\n                /* \"campaign.sol\":2326:2339  req.recipient */\n              0x20\n              add\n                /* \"campaign.sol\":2326:2351  req.recipient = recipient */\n              swap1\n              0xffffffffffffffffffffffffffffffffffffffff\n              and\n              swap1\n              dup2\n              0xffffffffffffffffffffffffffffffffffffffff\n              and\n              dup2\n              mstore\n              pop\n              pop\n                /* \"campaign.sol\":2374:2383  reqNumber */\n              sload(0x03)\n                /* \"campaign.sol\":2362:2365  req */\n              dup2\n                /* \"campaign.sol\":2362:2371  req.index */\n              0x60\n              add\n                /* \"campaign.sol\":2362:2383  req.index = reqNumber */\n              dup2\n              dup2\n              mstore\n              pop\n              pop\n                /* \"campaign.sol\":2412:2417  false */\n              0x00\n                /* \"campaign.sol\":2394:2397  req */\n              dup2\n                /* \"campaign.sol\":2394:2409  req.isProcessed */\n              0xa0\n              add\n                /* \"campaign.sol\":2394:2417  req.isProcessed = false */\n              swap1\n              iszero\n              iszero\n              swap1\n              dup2\n              iszero\n              iszero\n              dup2\n              mstore\n              pop\n              pop\n                /* \"campaign.sol\":2442:2443  0 */\n              0x00\n                /* \"campaign.sol\":2428:2431  req */\n              dup2\n                /* \"campaign.sol\":2428:2439  req.denials */\n              0x80\n              add\n                /* \"campaign.sol\":2428:2443  req.denials = 0 */\n              dup2\n              dup2\n              mstore\n              pop\n              pop\n                /* \"campaign.sol\":2469:2474  false */\n              0x00\n                /* \"campaign.sol\":2454:2457  req */\n              dup2\n                /* \"campaign.sol\":2454:2466  req.approved */\n              0xc0\n              add\n                /* \"campaign.sol\":2454:2474  req.approved = false */\n              swap1\n              iszero\n              iszero\n              swap1\n              dup2\n              iszero\n              iszero\n              dup2\n              mstore\n              pop\n              pop\n                /* \"campaign.sol\":2505:2510  false */\n              0x00\n                /* \"campaign.sol\":2485:2488  req */\n              dup2\n                /* \"campaign.sol\":2485:2502  req.isTransferred */\n              0xe0\n              add\n                /* \"campaign.sol\":2485:2510  req.isTransferred = false */\n              swap1\n              iszero\n              iszero\n              swap1\n              dup2\n              iszero\n              iszero\n              dup2\n              mstore\n              pop\n              pop\n                /* \"campaign.sol\":2521:2529  requests */\n              0x06\n                /* \"campaign.sol\":2535:2538  req */\n              dup2\n                /* \"campaign.sol\":2521:2539  requests.push(req) */\n              swap1\n              dup1\n              0x01\n              dup2\n              sload\n              add\n              dup1\n              dup3\n              sstore\n              dup1\n              swap2\n              pop\n              pop\n              0x01\n              swap1\n              sub\n              swap1\n              0x00\n              mstore\n              keccak256(0x00, 0x20)\n              swap1\n              0x06\n              mul\n              add\n              0x00\n              swap1\n              swap2\n              swap1\n              swap2\n              swap1\n              swap2\n              pop\n              0x00\n              dup3\n              add\n              mload\n              dup2\n              0x00\n              add\n              sstore\n              0x20\n              dup3\n              add\n              mload\n              dup2\n              0x01\n              add\n              exp(0x0100, 0x00)\n              dup2\n              sload\n              dup2\n              0xffffffffffffffffffffffffffffffffffffffff\n              mul\n              not\n              and\n              swap1\n              dup4\n              0xffffffffffffffffffffffffffffffffffffffff\n              and\n              mul\n              or\n              swap1\n              sstore\n              pop\n              0x40\n              dup3\n              add\n              mload\n              dup2\n              0x02\n              add\n              swap1\n              dup1\n              mload\n              swap1\n              0x20\n              add\n              swap1\n              tag_83\n              swap3\n              swap2\n              swap1\n              tag_84\n              jump\t// in\n            tag_83:\n              pop\n              0x60\n              dup3\n              add\n              mload\n              dup2\n              0x03\n              add\n              sstore\n              0x80\n              dup3\n              add\n              mload\n              dup2\n              0x04\n              add\n              sstore\n              0xa0\n              dup3\n              add\n              mload\n              dup2\n              0x05\n              add\n              exp(0x0100, 0x00)\n              dup2\n              sload\n              dup2\n              0xff\n              mul\n              not\n              and\n              swap1\n              dup4\n              iszero\n              iszero\n              mul\n              or\n              swap1\n              sstore\n              pop\n              0xc0\n              dup3\n              add\n              mload\n              dup2\n              0x05\n              add\n              exp(0x0100, 0x01)\n              dup2\n              sload\n              dup2\n              0xff\n              mul\n              not\n              and\n              swap1\n              dup4\n              iszero\n              iszero\n              mul\n              or\n              swap1\n              sstore\n              pop\n              0xe0\n              dup3\n              add\n              mload\n              dup2\n              0x05\n              add\n              exp(0x0100, 0x02)\n              dup2\n              sload\n              dup2\n              0xff\n              mul\n              not\n              and\n              swap1\n              dup4\n              iszero\n              iszero\n              mul\n              or\n              swap1\n              sstore\n              pop\n              pop\n              pop\n                /* \"campaign.sol\":1463:1464  _ */\n              pop\n                /* \"campaign.sol\":2074:2557  function createRequest(string memory description , uint value, address recipient) public restricted{\r... */\n              pop\n              pop\n              pop\n              jump\t// out\n                /* \"campaign.sol\":4308:4426  function getRequest(uint req_number) public view returns(request memory){\r... */\n            tag_47:\n                /* \"campaign.sol\":4365:4379  request memory */\n              tag_85\n              tag_81\n              jump\t// in\n            tag_85:\n                /* \"campaign.sol\":4398:4406  requests */\n              0x06\n                /* \"campaign.sol\":4407:4417  req_number */\n              dup3\n                /* \"campaign.sol\":4398:4418  requests[req_number] */\n              dup2\n              sload\n              dup2\n              lt\n              tag_87\n              jumpi\n              mstore(0x00, 0x4e487b7100000000000000000000000000000000000000000000000000000000)\n              mstore(0x04, 0x32)\n              revert(0x00, 0x24)\n            tag_87:\n              swap1\n              0x00\n              mstore\n              keccak256(0x00, 0x20)\n              swap1\n              0x06\n              mul\n              add\n                /* \"campaign.sol\":4391:4418  return requests[req_number] */\n              mload(0x40)\n              dup1\n              0x0100\n              add\n              0x40\n              mstore\n              swap1\n              dup2\n              0x00\n              dup3\n              add\n              sload\n              dup2\n              mstore\n              0x20\n              add\n              0x01\n              dup3\n              add\n              0x00\n              swap1\n              sload\n              swap1\n              0x0100\n              exp\n              swap1\n              div\n              0xffffffffffffffffffffffffffffffffffffffff\n              and\n              0xffffffffffffffffffffffffffffffffffffffff\n              and\n              0xffffffffffffffffffffffffffffffffffffffff\n              and\n              dup2\n              mstore\n              0x20\n              add\n              0x02\n              dup3\n              add\n              dup1\n              sload\n              tag_89\n              swap1\n              tag_70\n              jump\t// in\n            tag_89:\n              dup1\n              0x1f\n              add\n              0x20\n              dup1\n              swap2\n              div\n              mul\n              0x20\n              add\n              mload(0x40)\n              swap1\n              dup2\n              add\n              0x40\n              mstore\n              dup1\n              swap3\n              swap2\n              swap1\n              dup2\n              dup2\n              mstore\n              0x20\n              add\n              dup3\n              dup1\n              sload\n              tag_90\n              swap1\n              tag_70\n              jump\t// in\n            tag_90:\n              dup1\n              iszero\n              tag_91\n              jumpi\n              dup1\n              0x1f\n              lt\n              tag_92\n              jumpi\n              0x0100\n              dup1\n              dup4\n              sload\n              div\n              mul\n              dup4\n              mstore\n              swap2\n              0x20\n              add\n              swap2\n              jump(tag_91)\n            tag_92:\n              dup3\n              add\n              swap2\n              swap1\n              0x00\n              mstore\n              keccak256(0x00, 0x20)\n              swap1\n            tag_93:\n              dup2\n              sload\n              dup2\n              mstore\n              swap1\n              0x01\n              add\n              swap1\n              0x20\n              add\n              dup1\n              dup4\n              gt\n              tag_93\n              jumpi\n              dup3\n              swap1\n              sub\n              0x1f\n              and\n              dup3\n              add\n              swap2\n            tag_91:\n              pop\n              pop\n              pop\n              pop\n              pop\n              dup2\n              mstore\n              0x20\n              add\n              0x03\n              dup3\n              add\n              sload\n              dup2\n              mstore\n              0x20\n              add\n              0x04\n              dup3\n              add\n              sload\n              dup2\n              mstore\n              0x20\n              add\n              0x05\n              dup3\n              add\n              0x00\n              swap1\n              sload\n              swap1\n              0x0100\n              exp\n              swap1\n              div\n              0xff\n              and\n              iszero\n              iszero\n              iszero\n              iszero\n              dup2\n              mstore\n              0x20\n              add\n              0x05\n              dup3\n              add\n              0x01\n              swap1\n              sload\n              swap1\n              0x0100\n              exp\n              swap1\n              div\n              0xff\n              and\n              iszero\n              iszero\n              iszero\n              iszero\n              dup2\n              mstore\n              0x20\n              add\n              0x05\n              dup3\n              add\n              0x02\n              swap1\n              sload\n              swap1\n              0x0100\n              exp\n              swap1\n              div\n              0xff\n              and\n              iszero\n              iszero\n              iszero\n              iszero\n              dup2\n              mstore\n              pop\n              pop\n              swap1\n              pop\n                /* \"campaign.sol\":4308:4426  function getRequest(uint req_number) public view returns(request memory){\r... */\n              swap2\n              swap1\n              pop\n              jump\t// out\n                /* \"campaign.sol\":1721:2061  function contribute() public payable{\r... */\n            tag_51:\n                /* \"campaign.sol\":1789:1804  minContribution */\n              sload(0x01)\n                /* \"campaign.sol\":1776:1785  msg.value */\n              callvalue\n                /* \"campaign.sol\":1776:1804  msg.value >= minContribution */\n              lt\n              iszero\n                /* \"campaign.sol\":1768:1805  require(msg.value >= minContribution) */\n              tag_95\n              jumpi\n              0x00\n              dup1\n              revert\n            tag_95:\n                /* \"campaign.sol\":1855:1856  0 */\n              0x00\n                /* \"campaign.sol\":1819:1828  approvers */\n              0x02\n                /* \"campaign.sol\":1819:1840  approvers[msg.sender] */\n              0x00\n                /* \"campaign.sol\":1829:1839  msg.sender */\n              caller\n                /* \"campaign.sol\":1819:1840  approvers[msg.sender] */\n              0xffffffffffffffffffffffffffffffffffffffff\n              and\n              0xffffffffffffffffffffffffffffffffffffffff\n              and\n              dup2\n              mstore\n              0x20\n              add\n              swap1\n              dup2\n              mstore\n              0x20\n              add\n              0x00\n              keccak256\n                /* \"campaign.sol\":1819:1851  approvers[msg.sender].stakeValue */\n              0x00\n              add\n              sload\n                /* \"campaign.sol\":1819:1856  approvers[msg.sender].stakeValue == 0 */\n              eq\n                /* \"campaign.sol\":1816:1900  if(approvers[msg.sender].stakeValue == 0){\r... */\n              iszero\n              tag_96\n              jumpi\n                /* \"campaign.sol\":1887:1888  1 */\n              0x01\n                /* \"campaign.sol\":1868:1885  numberOfApprovers */\n              0x05\n              0x00\n                /* \"campaign.sol\":1868:1888  numberOfApprovers+=1 */\n              dup3\n              dup3\n              sload\n              tag_97\n              swap2\n              swap1\n              tag_66\n              jump\t// in\n            tag_97:\n              swap3\n              pop\n              pop\n              dup2\n              swap1\n              sstore\n              pop\n                /* \"campaign.sol\":1816:1900  if(approvers[msg.sender].stakeValue == 0){\r... */\n            tag_96:\n                /* \"campaign.sol\":1946:1955  msg.value */\n              callvalue\n                /* \"campaign.sol\":1910:1919  approvers */\n              0x02\n                /* \"campaign.sol\":1910:1931  approvers[msg.sender] */\n              0x00\n                /* \"campaign.sol\":1920:1930  msg.sender */\n              caller\n                /* \"campaign.sol\":1910:1931  approvers[msg.sender] */\n              0xffffffffffffffffffffffffffffffffffffffff\n              and\n              0xffffffffffffffffffffffffffffffffffffffff\n              and\n              dup2\n              mstore\n              0x20\n              add\n              swap1\n              dup2\n              mstore\n              0x20\n              add\n              0x00\n              keccak256\n                /* \"campaign.sol\":1910:1942  approvers[msg.sender].stakeValue */\n              0x00\n              add\n              0x00\n                /* \"campaign.sol\":1910:1955  approvers[msg.sender].stakeValue += msg.value */\n              dup3\n              dup3\n              sload\n              tag_98\n              swap2\n              swap1\n              tag_66\n              jump\t// in\n            tag_98:\n              swap3\n              pop\n              pop\n              dup2\n              swap1\n              sstore\n              pop\n                /* \"campaign.sol\":1721:2061  function contribute() public payable{\r... */\n              jump\t// out\n                /* \"campaign.sol\":3224:3931  function checkApproval(uint req_number) public restricted{\r... */\n            tag_55:\n                /* \"campaign.sol\":1444:1451  manager */\n              0x00\n              dup1\n              sload\n              swap1\n              0x0100\n              exp\n              swap1\n              div\n              0xffffffffffffffffffffffffffffffffffffffff\n              and\n                /* \"campaign.sol\":1430:1451  msg.sender == manager */\n              0xffffffffffffffffffffffffffffffffffffffff\n              and\n                /* \"campaign.sol\":1430:1440  msg.sender */\n              caller\n                /* \"campaign.sol\":1430:1451  msg.sender == manager */\n              0xffffffffffffffffffffffffffffffffffffffff\n              and\n              eq\n                /* \"campaign.sol\":1422:1452  require(msg.sender == manager) */\n              tag_100\n              jumpi\n              0x00\n              dup1\n              revert\n            tag_100:\n                /* \"campaign.sol\":3506:3525  request storage req */\n              0x00\n                /* \"campaign.sol\":3528:3536  requests */\n              0x06\n                /* \"campaign.sol\":3550:3551  1 */\n              0x01\n                /* \"campaign.sol\":3537:3547  req_number */\n              dup4\n                /* \"campaign.sol\":3537:3551  req_number - 1 */\n              tag_102\n              swap2\n              swap1\n              tag_60\n              jump\t// in\n            tag_102:\n                /* \"campaign.sol\":3528:3552  requests[req_number - 1] */\n              dup2\n              sload\n              dup2\n              lt\n              tag_103\n              jumpi\n              mstore(0x00, 0x4e487b7100000000000000000000000000000000000000000000000000000000)\n              mstore(0x04, 0x32)\n              revert(0x00, 0x24)\n            tag_103:\n              swap1\n              0x00\n              mstore\n              keccak256(0x00, 0x20)\n              swap1\n              0x06\n              mul\n              add\n                /* \"campaign.sol\":3506:3552  request storage req = requests[req_number - 1] */\n              swap1\n              pop\n                /* \"campaign.sol\":3614:3617  req */\n              dup1\n                /* \"campaign.sol\":3614:3629  req.isProcessed */\n              0x05\n              add\n              0x00\n              swap1\n              sload\n              swap1\n              0x0100\n              exp\n              swap1\n              div\n              0xff\n              and\n                /* \"campaign.sol\":3613:3629  !req.isProcessed */\n              iszero\n                /* \"campaign.sol\":3605:3630  require(!req.isProcessed) */\n              tag_105\n              jumpi\n              0x00\n              dup1\n              revert\n            tag_105:\n                /* \"campaign.sol\":3641:3651  uint total */\n              0x00\n                /* \"campaign.sol\":3654:3671  numberOfApprovers */\n              sload(0x05)\n                /* \"campaign.sol\":3641:3671  uint total = numberOfApprovers */\n              swap1\n              pop\n                /* \"campaign.sol\":3682:3693  uint denied */\n              0x00\n                /* \"campaign.sol\":3696:3699  req */\n              dup3\n                /* \"campaign.sol\":3696:3707  req.denials */\n              0x04\n              add\n              sload\n                /* \"campaign.sol\":3682:3707  uint denied = req.denials */\n              swap1\n              pop\n                /* \"campaign.sol\":3718:3733  uint percentage */\n              0x00\n                /* \"campaign.sol\":3749:3754  total */\n              dup3\n                /* \"campaign.sol\":3744:3747  100 */\n              0x64\n                /* \"campaign.sol\":3737:3743  denied */\n              dup4\n                /* \"campaign.sol\":3737:3747  denied*100 */\n              tag_106\n              swap2\n              swap1\n              tag_107\n              jump\t// in\n            tag_106:\n                /* \"campaign.sol\":3736:3754  (denied*100)/total */\n              tag_108\n              swap2\n              swap1\n              tag_109\n              jump\t// in\n            tag_108:\n                /* \"campaign.sol\":3718:3754  uint percentage = (denied*100)/total */\n              swap1\n              pop\n                /* \"campaign.sol\":3783:3787  true */\n              0x01\n                /* \"campaign.sol\":3765:3768  req */\n              dup5\n                /* \"campaign.sol\":3765:3780  req.isProcessed */\n              0x05\n              add\n              0x00\n                /* \"campaign.sol\":3765:3787  req.isProcessed = true */\n              0x0100\n              exp\n              dup2\n              sload\n              dup2\n              0xff\n              mul\n              not\n              and\n              swap1\n              dup4\n              iszero\n              iszero\n              mul\n              or\n              swap1\n              sstore\n              pop\n                /* \"campaign.sol\":3815:3831  approveThreshlod */\n              sload(0x04)\n                /* \"campaign.sol\":3801:3811  percentage */\n              dup2\n                /* \"campaign.sol\":3801:3831  percentage >= approveThreshlod */\n              lt\n                /* \"campaign.sol\":3798:3878  if(percentage >= approveThreshlod){\r... */\n              tag_110\n              jumpi\n                /* \"campaign.sol\":3862:3866  true */\n              0x01\n                /* \"campaign.sol\":3847:3850  req */\n              dup5\n                /* \"campaign.sol\":3847:3859  req.approved */\n              0x05\n              add\n              0x01\n                /* \"campaign.sol\":3847:3866  req.approved = true */\n              0x0100\n              exp\n              dup2\n              sload\n              dup2\n              0xff\n              mul\n              not\n              and\n              swap1\n              dup4\n              iszero\n              iszero\n              mul\n              or\n              swap1\n              sstore\n              pop\n                /* \"campaign.sol\":3798:3878  if(percentage >= approveThreshlod){\r... */\n            tag_110:\n                /* \"campaign.sol\":1463:1464  _ */\n              pop\n              pop\n              pop\n              pop\n                /* \"campaign.sol\":3224:3931  function checkApproval(uint req_number) public restricted{\r... */\n              pop\n              jump\t// out\n            tag_81:\n              mload(0x40)\n              dup1\n              0x0100\n              add\n              0x40\n              mstore\n              dup1\n              0x00\n              dup2\n              mstore\n              0x20\n              add\n              and(0xffffffffffffffffffffffffffffffffffffffff, 0x00)\n              dup2\n              mstore\n              0x20\n              add\n              0x60\n              dup2\n              mstore\n              0x20\n              add\n              0x00\n              dup2\n              mstore\n              0x20\n              add\n              0x00\n              dup2\n              mstore\n              0x20\n              add\n              iszero(iszero(0x00))\n              dup2\n              mstore\n              0x20\n              add\n              iszero(iszero(0x00))\n              dup2\n              mstore\n              0x20\n              add\n              iszero(iszero(0x00))\n              dup2\n              mstore\n              pop\n              swap1\n              jump\t// out\n            tag_84:\n              dup3\n              dup1\n              sload\n              tag_111\n              swap1\n              tag_70\n              jump\t// in\n            tag_111:\n              swap1\n              0x00\n              mstore\n              keccak256(0x00, 0x20)\n              swap1\n              0x1f\n              add\n              0x20\n              swap1\n              div\n              dup2\n              add\n              swap3\n              dup3\n              tag_113\n              jumpi\n              0x00\n              dup6\n              sstore\n              jump(tag_112)\n            tag_113:\n              dup3\n              0x1f\n              lt\n              tag_114\n              jumpi\n              dup1\n              mload\n              not(0xff)\n              and\n              dup4\n              dup1\n              add\n              or\n              dup6\n              sstore\n              jump(tag_112)\n            tag_114:\n              dup3\n              dup1\n              add\n              0x01\n              add\n              dup6\n              sstore\n              dup3\n              iszero\n              tag_112\n              jumpi\n              swap2\n              dup3\n              add\n            tag_115:\n              dup3\n              dup2\n              gt\n              iszero\n              tag_116\n              jumpi\n              dup3\n              mload\n              dup3\n              sstore\n              swap2\n              0x20\n              add\n              swap2\n              swap1\n              0x01\n              add\n              swap1\n              jump(tag_115)\n            tag_116:\n            tag_112:\n              pop\n              swap1\n              pop\n              tag_117\n              swap2\n              swap1\n              tag_118\n              jump\t// in\n            tag_117:\n              pop\n              swap1\n              jump\t// out\n            tag_118:\n            tag_119:\n              dup1\n              dup3\n              gt\n              iszero\n              tag_120\n              jumpi\n              0x00\n              dup2\n              0x00\n              swap1\n              sstore\n              pop\n              0x01\n              add\n              jump(tag_119)\n            tag_120:\n              pop\n              swap1\n              jump\t// out\n                /* \"#utility.yul\":7:351   */\n            tag_122:\n              0x00\n                /* \"#utility.yul\":110:175   */\n              tag_124\n                /* \"#utility.yul\":125:174   */\n              tag_125\n                /* \"#utility.yul\":167:173   */\n              dup5\n                /* \"#utility.yul\":125:174   */\n              tag_126\n              jump\t// in\n            tag_125:\n                /* \"#utility.yul\":110:175   */\n              tag_127\n              jump\t// in\n            tag_124:\n                /* \"#utility.yul\":101:175   */\n              swap1\n              pop\n                /* \"#utility.yul\":198:204   */\n              dup3\n                /* \"#utility.yul\":191:196   */\n              dup2\n                /* \"#utility.yul\":184:205   */\n              mstore\n                /* \"#utility.yul\":236:240   */\n              0x20\n                /* \"#utility.yul\":229:234   */\n              dup2\n                /* \"#utility.yul\":225:241   */\n              add\n                /* \"#utility.yul\":274:277   */\n              dup5\n                /* \"#utility.yul\":265:271   */\n              dup5\n                /* \"#utility.yul\":260:263   */\n              dup5\n                /* \"#utility.yul\":256:272   */\n              add\n                /* \"#utility.yul\":253:278   */\n              gt\n                /* \"#utility.yul\":250:252   */\n              iszero\n              tag_128\n              jumpi\n                /* \"#utility.yul\":291:292   */\n              0x00\n                /* \"#utility.yul\":288:289   */\n              dup1\n                /* \"#utility.yul\":281:293   */\n              revert\n                /* \"#utility.yul\":250:252   */\n            tag_128:\n                /* \"#utility.yul\":304:345   */\n              tag_129\n                /* \"#utility.yul\":338:344   */\n              dup5\n                /* \"#utility.yul\":333:336   */\n              dup3\n                /* \"#utility.yul\":328:331   */\n              dup6\n                /* \"#utility.yul\":304:345   */\n              tag_130\n              jump\t// in\n            tag_129:\n                /* \"#utility.yul\":91:351   */\n              pop\n              swap4\n              swap3\n              pop\n              pop\n              pop\n              jump\t// out\n                /* \"#utility.yul\":357:496   */\n            tag_131:\n              0x00\n                /* \"#utility.yul\":441:447   */\n              dup2\n                /* \"#utility.yul\":428:448   */\n              calldataload\n                /* \"#utility.yul\":419:448   */\n              swap1\n              pop\n                /* \"#utility.yul\":457:490   */\n              tag_133\n                /* \"#utility.yul\":484:489   */\n              dup2\n                /* \"#utility.yul\":457:490   */\n              tag_134\n              jump\t// in\n            tag_133:\n                /* \"#utility.yul\":409:496   */\n              swap3\n              swap2\n              pop\n              pop\n              jump\t// out\n                /* \"#utility.yul\":502:635   */\n            tag_135:\n              0x00\n                /* \"#utility.yul\":583:589   */\n              dup2\n                /* \"#utility.yul\":570:590   */\n              calldataload\n                /* \"#utility.yul\":561:590   */\n              swap1\n              pop\n                /* \"#utility.yul\":599:629   */\n              tag_137\n                /* \"#utility.yul\":623:628   */\n              dup2\n                /* \"#utility.yul\":599:629   */\n              tag_138\n              jump\t// in\n            tag_137:\n                /* \"#utility.yul\":551:635   */\n              swap3\n              swap2\n              pop\n              pop\n              jump\t// out\n                /* \"#utility.yul\":655:928   */\n            tag_139:\n              0x00\n                /* \"#utility.yul\":760:763   */\n              dup3\n                /* \"#utility.yul\":753:757   */\n              0x1f\n                /* \"#utility.yul\":745:751   */\n              dup4\n                /* \"#utility.yul\":741:758   */\n              add\n                /* \"#utility.yul\":737:764   */\n              slt\n                /* \"#utility.yul\":727:729   */\n              tag_141\n              jumpi\n                /* \"#utility.yul\":778:779   */\n              0x00\n                /* \"#utility.yul\":775:776   */\n              dup1\n                /* \"#utility.yul\":768:780   */\n              revert\n                /* \"#utility.yul\":727:729   */\n            tag_141:\n                /* \"#utility.yul\":818:824   */\n              dup2\n                /* \"#utility.yul\":805:825   */\n              calldataload\n                /* \"#utility.yul\":843:922   */\n              tag_142\n                /* \"#utility.yul\":918:921   */\n              dup5\n                /* \"#utility.yul\":910:916   */\n              dup3\n                /* \"#utility.yul\":903:907   */\n              0x20\n                /* \"#utility.yul\":895:901   */\n              dup7\n                /* \"#utility.yul\":891:908   */\n              add\n                /* \"#utility.yul\":843:922   */\n              tag_122\n              jump\t// in\n            tag_142:\n                /* \"#utility.yul\":834:922   */\n              swap2\n              pop\n                /* \"#utility.yul\":717:928   */\n              pop\n              swap3\n              swap2\n              pop\n              pop\n              jump\t// out\n                /* \"#utility.yul\":934:1073   */\n            tag_143:\n              0x00\n                /* \"#utility.yul\":1018:1024   */\n              dup2\n                /* \"#utility.yul\":1005:1025   */\n              calldataload\n                /* \"#utility.yul\":996:1025   */\n              swap1\n              pop\n                /* \"#utility.yul\":1034:1067   */\n              tag_145\n                /* \"#utility.yul\":1061:1066   */\n              dup2\n                /* \"#utility.yul\":1034:1067   */\n              tag_146\n              jump\t// in\n            tag_145:\n                /* \"#utility.yul\":986:1073   */\n              swap3\n              swap2\n              pop\n              pop\n              jump\t// out\n                /* \"#utility.yul\":1079:1744   */\n            tag_42:\n              0x00\n              dup1\n              0x00\n                /* \"#utility.yul\":1231:1233   */\n              0x60\n                /* \"#utility.yul\":1219:1228   */\n              dup5\n                /* \"#utility.yul\":1210:1217   */\n              dup7\n                /* \"#utility.yul\":1206:1229   */\n              sub\n                /* \"#utility.yul\":1202:1234   */\n              slt\n                /* \"#utility.yul\":1199:1201   */\n              iszero\n              tag_148\n              jumpi\n                /* \"#utility.yul\":1247:1248   */\n              0x00\n                /* \"#utility.yul\":1244:1245   */\n              dup1\n                /* \"#utility.yul\":1237:1249   */\n              revert\n                /* \"#utility.yul\":1199:1201   */\n            tag_148:\n                /* \"#utility.yul\":1318:1319   */\n              0x00\n                /* \"#utility.yul\":1307:1316   */\n              dup5\n                /* \"#utility.yul\":1303:1320   */\n              add\n                /* \"#utility.yul\":1290:1321   */\n              calldataload\n                /* \"#utility.yul\":1348:1366   */\n              0xffffffffffffffff\n                /* \"#utility.yul\":1340:1346   */\n              dup2\n                /* \"#utility.yul\":1337:1367   */\n              gt\n                /* \"#utility.yul\":1334:1336   */\n              iszero\n              tag_149\n              jumpi\n                /* \"#utility.yul\":1380:1381   */\n              0x00\n                /* \"#utility.yul\":1377:1378   */\n              dup1\n                /* \"#utility.yul\":1370:1382   */\n              revert\n                /* \"#utility.yul\":1334:1336   */\n            tag_149:\n                /* \"#utility.yul\":1408:1471   */\n              tag_150\n                /* \"#utility.yul\":1463:1470   */\n              dup7\n                /* \"#utility.yul\":1454:1460   */\n              dup3\n                /* \"#utility.yul\":1443:1452   */\n              dup8\n                /* \"#utility.yul\":1439:1461   */\n              add\n                /* \"#utility.yul\":1408:1471   */\n              tag_139\n              jump\t// in\n            tag_150:\n                /* \"#utility.yul\":1398:1471   */\n              swap4\n              pop\n                /* \"#utility.yul\":1261:1481   */\n              pop\n                /* \"#utility.yul\":1520:1522   */\n              0x20\n                /* \"#utility.yul\":1546:1599   */\n              tag_151\n                /* \"#utility.yul\":1591:1598   */\n              dup7\n                /* \"#utility.yul\":1582:1588   */\n              dup3\n                /* \"#utility.yul\":1571:1580   */\n              dup8\n                /* \"#utility.yul\":1567:1589   */\n              add\n                /* \"#utility.yul\":1546:1599   */\n              tag_143\n              jump\t// in\n            tag_151:\n                /* \"#utility.yul\":1536:1599   */\n              swap3\n              pop\n                /* \"#utility.yul\":1491:1609   */\n              pop\n                /* \"#utility.yul\":1648:1650   */\n              0x40\n                /* \"#utility.yul\":1674:1727   */\n              tag_152\n                /* \"#utility.yul\":1719:1726   */\n              dup7\n                /* \"#utility.yul\":1710:1716   */\n              dup3\n                /* \"#utility.yul\":1699:1708   */\n              dup8\n                /* \"#utility.yul\":1695:1717   */\n              add\n                /* \"#utility.yul\":1674:1727   */\n              tag_131\n              jump\t// in\n            tag_152:\n                /* \"#utility.yul\":1664:1727   */\n              swap2\n              pop\n                /* \"#utility.yul\":1619:1737   */\n              pop\n                /* \"#utility.yul\":1189:1744   */\n              swap3\n              pop\n              swap3\n              pop\n              swap3\n              jump\t// out\n                /* \"#utility.yul\":1750:2012   */\n            tag_35:\n              0x00\n                /* \"#utility.yul\":1858:1860   */\n              0x20\n                /* \"#utility.yul\":1846:1855   */\n              dup3\n                /* \"#utility.yul\":1837:1844   */\n              dup5\n                /* \"#utility.yul\":1833:1856   */\n              sub\n                /* \"#utility.yul\":1829:1861   */\n              slt\n                /* \"#utility.yul\":1826:1828   */\n              iszero\n              tag_154\n              jumpi\n                /* \"#utility.yul\":1874:1875   */\n              0x00\n                /* \"#utility.yul\":1871:1872   */\n              dup1\n                /* \"#utility.yul\":1864:1876   */\n              revert\n                /* \"#utility.yul\":1826:1828   */\n            tag_154:\n                /* \"#utility.yul\":1917:1918   */\n              0x00\n                /* \"#utility.yul\":1942:1995   */\n              tag_155\n                /* \"#utility.yul\":1987:1994   */\n              dup5\n                /* \"#utility.yul\":1978:1984   */\n              dup3\n                /* \"#utility.yul\":1967:1976   */\n              dup6\n                /* \"#utility.yul\":1963:1985   */\n              add\n                /* \"#utility.yul\":1942:1995   */\n              tag_143\n              jump\t// in\n            tag_155:\n                /* \"#utility.yul\":1932:1995   */\n              swap2\n              pop\n                /* \"#utility.yul\":1888:2005   */\n              pop\n                /* \"#utility.yul\":1816:2012   */\n              swap3\n              swap2\n              pop\n              pop\n              jump\t// out\n                /* \"#utility.yul\":2018:2419   */\n            tag_30:\n              0x00\n              dup1\n                /* \"#utility.yul\":2140:2142   */\n              0x40\n                /* \"#utility.yul\":2128:2137   */\n              dup4\n                /* \"#utility.yul\":2119:2126   */\n              dup6\n                /* \"#utility.yul\":2115:2138   */\n              sub\n                /* \"#utility.yul\":2111:2143   */\n              slt\n                /* \"#utility.yul\":2108:2110   */\n              iszero\n              tag_157\n              jumpi\n                /* \"#utility.yul\":2156:2157   */\n              0x00\n                /* \"#utility.yul\":2153:2154   */\n              dup1\n                /* \"#utility.yul\":2146:2158   */\n              revert\n                /* \"#utility.yul\":2108:2110   */\n            tag_157:\n                /* \"#utility.yul\":2199:2200   */\n              0x00\n                /* \"#utility.yul\":2224:2277   */\n              tag_158\n                /* \"#utility.yul\":2269:2276   */\n              dup6\n                /* \"#utility.yul\":2260:2266   */\n              dup3\n                /* \"#utility.yul\":2249:2258   */\n              dup7\n                /* \"#utility.yul\":2245:2267   */\n              add\n                /* \"#utility.yul\":2224:2277   */\n              tag_143\n              jump\t// in\n            tag_158:\n                /* \"#utility.yul\":2214:2277   */\n              swap3\n              pop\n                /* \"#utility.yul\":2170:2287   */\n              pop\n                /* \"#utility.yul\":2326:2328   */\n              0x20\n                /* \"#utility.yul\":2352:2402   */\n              tag_159\n                /* \"#utility.yul\":2394:2401   */\n              dup6\n                /* \"#utility.yul\":2385:2391   */\n              dup3\n                /* \"#utility.yul\":2374:2383   */\n              dup7\n                /* \"#utility.yul\":2370:2392   */\n              add\n                /* \"#utility.yul\":2352:2402   */\n              tag_135\n              jump\t// in\n            tag_159:\n                /* \"#utility.yul\":2342:2402   */\n              swap2\n              pop\n                /* \"#utility.yul\":2297:2412   */\n              pop\n                /* \"#utility.yul\":2098:2419   */\n              swap3\n              pop\n              swap3\n              swap1\n              pop\n              jump\t// out\n                /* \"#utility.yul\":2425:2533   */\n            tag_160:\n                /* \"#utility.yul\":2502:2526   */\n              tag_162\n                /* \"#utility.yul\":2520:2525   */\n              dup2\n                /* \"#utility.yul\":2502:2526   */\n              tag_163\n              jump\t// in\n            tag_162:\n                /* \"#utility.yul\":2497:2500   */\n              dup3\n                /* \"#utility.yul\":2490:2527   */\n              mstore\n                /* \"#utility.yul\":2480:2533   */\n              pop\n              pop\n              jump\t// out\n                /* \"#utility.yul\":2539:2657   */\n            tag_164:\n                /* \"#utility.yul\":2626:2650   */\n              tag_166\n                /* \"#utility.yul\":2644:2649   */\n              dup2\n                /* \"#utility.yul\":2626:2650   */\n              tag_163\n              jump\t// in\n            tag_166:\n                /* \"#utility.yul\":2621:2624   */\n              dup3\n                /* \"#utility.yul\":2614:2651   */\n              mstore\n                /* \"#utility.yul\":2604:2657   */\n              pop\n              pop\n              jump\t// out\n                /* \"#utility.yul\":2663:2762   */\n            tag_167:\n                /* \"#utility.yul\":2734:2755   */\n              tag_169\n                /* \"#utility.yul\":2749:2754   */\n              dup2\n                /* \"#utility.yul\":2734:2755   */\n              tag_170\n              jump\t// in\n            tag_169:\n                /* \"#utility.yul\":2729:2732   */\n              dup3\n                /* \"#utility.yul\":2722:2756   */\n              mstore\n                /* \"#utility.yul\":2712:2762   */\n              pop\n              pop\n              jump\t// out\n                /* \"#utility.yul\":2768:2877   */\n            tag_171:\n                /* \"#utility.yul\":2849:2870   */\n              tag_173\n                /* \"#utility.yul\":2864:2869   */\n              dup2\n                /* \"#utility.yul\":2849:2870   */\n              tag_170\n              jump\t// in\n            tag_173:\n                /* \"#utility.yul\":2844:2847   */\n              dup3\n                /* \"#utility.yul\":2837:2871   */\n              mstore\n                /* \"#utility.yul\":2827:2877   */\n              pop\n              pop\n              jump\t// out\n                /* \"#utility.yul\":2883:3227   */\n            tag_174:\n              0x00\n                /* \"#utility.yul\":2989:3028   */\n              tag_176\n                /* \"#utility.yul\":3022:3027   */\n              dup3\n                /* \"#utility.yul\":2989:3028   */\n              tag_177\n              jump\t// in\n            tag_176:\n                /* \"#utility.yul\":3044:3105   */\n              tag_178\n                /* \"#utility.yul\":3098:3104   */\n              dup2\n                /* \"#utility.yul\":3093:3096   */\n              dup6\n                /* \"#utility.yul\":3044:3105   */\n              tag_179\n              jump\t// in\n            tag_178:\n                /* \"#utility.yul\":3037:3105   */\n              swap4\n              pop\n                /* \"#utility.yul\":3114:3166   */\n              tag_180\n                /* \"#utility.yul\":3159:3165   */\n              dup2\n                /* \"#utility.yul\":3154:3157   */\n              dup6\n                /* \"#utility.yul\":3147:3151   */\n              0x20\n                /* \"#utility.yul\":3140:3145   */\n              dup7\n                /* \"#utility.yul\":3136:3152   */\n              add\n                /* \"#utility.yul\":3114:3166   */\n              tag_181\n              jump\t// in\n            tag_180:\n                /* \"#utility.yul\":3191:3220   */\n              tag_182\n                /* \"#utility.yul\":3213:3219   */\n              dup2\n                /* \"#utility.yul\":3191:3220   */\n              tag_183\n              jump\t// in\n            tag_182:\n                /* \"#utility.yul\":3186:3189   */\n              dup5\n                /* \"#utility.yul\":3182:3221   */\n              add\n                /* \"#utility.yul\":3175:3221   */\n              swap2\n              pop\n                /* \"#utility.yul\":2965:3227   */\n              pop\n              swap3\n              swap2\n              pop\n              pop\n              jump\t// out\n                /* \"#utility.yul\":3233:3597   */\n            tag_184:\n              0x00\n                /* \"#utility.yul\":3349:3388   */\n              tag_186\n                /* \"#utility.yul\":3382:3387   */\n              dup3\n                /* \"#utility.yul\":3349:3388   */\n              tag_177\n              jump\t// in\n            tag_186:\n                /* \"#utility.yul\":3404:3475   */\n              tag_187\n                /* \"#utility.yul\":3468:3474   */\n              dup2\n                /* \"#utility.yul\":3463:3466   */\n              dup6\n                /* \"#utility.yul\":3404:3475   */\n              tag_188\n              jump\t// in\n            tag_187:\n                /* \"#utility.yul\":3397:3475   */\n              swap4\n              pop\n                /* \"#utility.yul\":3484:3536   */\n              tag_189\n                /* \"#utility.yul\":3529:3535   */\n              dup2\n                /* \"#utility.yul\":3524:3527   */\n              dup6\n                /* \"#utility.yul\":3517:3521   */\n              0x20\n                /* \"#utility.yul\":3510:3515   */\n              dup7\n                /* \"#utility.yul\":3506:3522   */\n              add\n                /* \"#utility.yul\":3484:3536   */\n              tag_181\n              jump\t// in\n            tag_189:\n                /* \"#utility.yul\":3561:3590   */\n              tag_190\n                /* \"#utility.yul\":3583:3589   */\n              dup2\n                /* \"#utility.yul\":3561:3590   */\n              tag_183\n              jump\t// in\n            tag_190:\n                /* \"#utility.yul\":3556:3559   */\n              dup5\n                /* \"#utility.yul\":3552:3591   */\n              add\n                /* \"#utility.yul\":3545:3591   */\n              swap2\n              pop\n                /* \"#utility.yul\":3325:3597   */\n              pop\n              swap3\n              swap2\n              pop\n              pop\n              jump\t// out\n                /* \"#utility.yul\":3661:5328   */\n            tag_191:\n              0x00\n                /* \"#utility.yul\":3812:3818   */\n              0x0100\n                /* \"#utility.yul\":3807:3810   */\n              dup4\n                /* \"#utility.yul\":3803:3819   */\n              add\n                /* \"#utility.yul\":3902:3906   */\n              0x00\n                /* \"#utility.yul\":3895:3900   */\n              dup4\n                /* \"#utility.yul\":3891:3907   */\n              add\n                /* \"#utility.yul\":3885:3908   */\n              mload\n                /* \"#utility.yul\":3921:3984   */\n              tag_193\n                /* \"#utility.yul\":3978:3982   */\n              0x00\n                /* \"#utility.yul\":3973:3976   */\n              dup7\n                /* \"#utility.yul\":3969:3983   */\n              add\n                /* \"#utility.yul\":3955:3967   */\n              dup3\n                /* \"#utility.yul\":3921:3984   */\n              tag_194\n              jump\t// in\n            tag_193:\n                /* \"#utility.yul\":3829:3994   */\n              pop\n                /* \"#utility.yul\":4081:4085   */\n              0x20\n                /* \"#utility.yul\":4074:4079   */\n              dup4\n                /* \"#utility.yul\":4070:4086   */\n              add\n                /* \"#utility.yul\":4064:4087   */\n              mload\n                /* \"#utility.yul\":4100:4163   */\n              tag_195\n                /* \"#utility.yul\":4157:4161   */\n              0x20\n                /* \"#utility.yul\":4152:4155   */\n              dup7\n                /* \"#utility.yul\":4148:4162   */\n              add\n                /* \"#utility.yul\":4134:4146   */\n              dup3\n                /* \"#utility.yul\":4100:4163   */\n              tag_160\n              jump\t// in\n            tag_195:\n                /* \"#utility.yul\":4004:4173   */\n              pop\n                /* \"#utility.yul\":4262:4266   */\n              0x40\n                /* \"#utility.yul\":4255:4260   */\n              dup4\n                /* \"#utility.yul\":4251:4267   */\n              add\n                /* \"#utility.yul\":4245:4268   */\n              mload\n                /* \"#utility.yul\":4315:4318   */\n              dup5\n                /* \"#utility.yul\":4309:4313   */\n              dup3\n                /* \"#utility.yul\":4305:4319   */\n              sub\n                /* \"#utility.yul\":4298:4302   */\n              0x40\n                /* \"#utility.yul\":4293:4296   */\n              dup7\n                /* \"#utility.yul\":4289:4303   */\n              add\n                /* \"#utility.yul\":4282:4320   */\n              mstore\n                /* \"#utility.yul\":4341:4414   */\n              tag_196\n                /* \"#utility.yul\":4409:4413   */\n              dup3\n                /* \"#utility.yul\":4395:4407   */\n              dup3\n                /* \"#utility.yul\":4341:4414   */\n              tag_174\n              jump\t// in\n            tag_196:\n                /* \"#utility.yul\":4333:4414   */\n              swap2\n              pop\n                /* \"#utility.yul\":4183:4425   */\n              pop\n                /* \"#utility.yul\":4508:4512   */\n              0x60\n                /* \"#utility.yul\":4501:4506   */\n              dup4\n                /* \"#utility.yul\":4497:4513   */\n              add\n                /* \"#utility.yul\":4491:4514   */\n              mload\n                /* \"#utility.yul\":4527:4590   */\n              tag_197\n                /* \"#utility.yul\":4584:4588   */\n              0x60\n                /* \"#utility.yul\":4579:4582   */\n              dup7\n                /* \"#utility.yul\":4575:4589   */\n              add\n                /* \"#utility.yul\":4561:4573   */\n              dup3\n                /* \"#utility.yul\":4527:4590   */\n              tag_194\n              jump\t// in\n            tag_197:\n                /* \"#utility.yul\":4435:4600   */\n              pop\n                /* \"#utility.yul\":4685:4689   */\n              0x80\n                /* \"#utility.yul\":4678:4683   */\n              dup4\n                /* \"#utility.yul\":4674:4690   */\n              add\n                /* \"#utility.yul\":4668:4691   */\n              mload\n                /* \"#utility.yul\":4704:4767   */\n              tag_198\n                /* \"#utility.yul\":4761:4765   */\n              0x80\n                /* \"#utility.yul\":4756:4759   */\n              dup7\n                /* \"#utility.yul\":4752:4766   */\n              add\n                /* \"#utility.yul\":4738:4750   */\n              dup3\n                /* \"#utility.yul\":4704:4767   */\n              tag_194\n              jump\t// in\n            tag_198:\n                /* \"#utility.yul\":4610:4777   */\n              pop\n                /* \"#utility.yul\":4866:4870   */\n              0xa0\n                /* \"#utility.yul\":4859:4864   */\n              dup4\n                /* \"#utility.yul\":4855:4871   */\n              add\n                /* \"#utility.yul\":4849:4872   */\n              mload\n                /* \"#utility.yul\":4885:4942   */\n              tag_199\n                /* \"#utility.yul\":4936:4940   */\n              0xa0\n                /* \"#utility.yul\":4931:4934   */\n              dup7\n                /* \"#utility.yul\":4927:4941   */\n              add\n                /* \"#utility.yul\":4913:4925   */\n              dup3\n                /* \"#utility.yul\":4885:4942   */\n              tag_167\n              jump\t// in\n            tag_199:\n                /* \"#utility.yul\":4787:4952   */\n              pop\n                /* \"#utility.yul\":5038:5042   */\n              0xc0\n                /* \"#utility.yul\":5031:5036   */\n              dup4\n                /* \"#utility.yul\":5027:5043   */\n              add\n                /* \"#utility.yul\":5021:5044   */\n              mload\n                /* \"#utility.yul\":5057:5114   */\n              tag_200\n                /* \"#utility.yul\":5108:5112   */\n              0xc0\n                /* \"#utility.yul\":5103:5106   */\n              dup7\n                /* \"#utility.yul\":5099:5113   */\n              add\n                /* \"#utility.yul\":5085:5097   */\n              dup3\n                /* \"#utility.yul\":5057:5114   */\n              tag_167\n              jump\t// in\n            tag_200:\n                /* \"#utility.yul\":4962:5124   */\n              pop\n                /* \"#utility.yul\":5215:5219   */\n              0xe0\n                /* \"#utility.yul\":5208:5213   */\n              dup4\n                /* \"#utility.yul\":5204:5220   */\n              add\n                /* \"#utility.yul\":5198:5221   */\n              mload\n                /* \"#utility.yul\":5234:5291   */\n              tag_201\n                /* \"#utility.yul\":5285:5289   */\n              0xe0\n                /* \"#utility.yul\":5280:5283   */\n              dup7\n                /* \"#utility.yul\":5276:5290   */\n              add\n                /* \"#utility.yul\":5262:5274   */\n              dup3\n                /* \"#utility.yul\":5234:5291   */\n              tag_167\n              jump\t// in\n            tag_201:\n                /* \"#utility.yul\":5134:5301   */\n              pop\n                /* \"#utility.yul\":5318:5322   */\n              dup1\n                /* \"#utility.yul\":5311:5322   */\n              swap2\n              pop\n                /* \"#utility.yul\":3781:5328   */\n              pop\n              swap3\n              swap2\n              pop\n              pop\n              jump\t// out\n                /* \"#utility.yul\":5334:5442   */\n            tag_194:\n                /* \"#utility.yul\":5411:5435   */\n              tag_203\n                /* \"#utility.yul\":5429:5434   */\n              dup2\n                /* \"#utility.yul\":5411:5435   */\n              tag_204\n              jump\t// in\n            tag_203:\n                /* \"#utility.yul\":5406:5409   */\n              dup3\n                /* \"#utility.yul\":5399:5436   */\n              mstore\n                /* \"#utility.yul\":5389:5442   */\n              pop\n              pop\n              jump\t// out\n                /* \"#utility.yul\":5448:5566   */\n            tag_205:\n                /* \"#utility.yul\":5535:5559   */\n              tag_207\n                /* \"#utility.yul\":5553:5558   */\n              dup2\n                /* \"#utility.yul\":5535:5559   */\n              tag_204\n              jump\t// in\n            tag_207:\n                /* \"#utility.yul\":5530:5533   */\n              dup3\n                /* \"#utility.yul\":5523:5560   */\n              mstore\n                /* \"#utility.yul\":5513:5566   */\n              pop\n              pop\n              jump\t// out\n                /* \"#utility.yul\":5572:5794   */\n            tag_26:\n              0x00\n                /* \"#utility.yul\":5703:5705   */\n              0x20\n                /* \"#utility.yul\":5692:5701   */\n              dup3\n                /* \"#utility.yul\":5688:5706   */\n              add\n                /* \"#utility.yul\":5680:5706   */\n              swap1\n              pop\n                /* \"#utility.yul\":5716:5787   */\n              tag_209\n                /* \"#utility.yul\":5784:5785   */\n              0x00\n                /* \"#utility.yul\":5773:5782   */\n              dup4\n                /* \"#utility.yul\":5769:5786   */\n              add\n                /* \"#utility.yul\":5760:5766   */\n              dup5\n                /* \"#utility.yul\":5716:5787   */\n              tag_164\n              jump\t// in\n            tag_209:\n                /* \"#utility.yul\":5670:5794   */\n              swap3\n              swap2\n              pop\n              pop\n              jump\t// out\n                /* \"#utility.yul\":5800:6165   */\n            tag_49:\n              0x00\n                /* \"#utility.yul\":5977:5979   */\n              0x20\n                /* \"#utility.yul\":5966:5975   */\n              dup3\n                /* \"#utility.yul\":5962:5980   */\n              add\n                /* \"#utility.yul\":5954:5980   */\n              swap1\n              pop\n                /* \"#utility.yul\":6026:6035   */\n              dup2\n                /* \"#utility.yul\":6020:6024   */\n              dup2\n                /* \"#utility.yul\":6016:6036   */\n              sub\n                /* \"#utility.yul\":6012:6013   */\n              0x00\n                /* \"#utility.yul\":6001:6010   */\n              dup4\n                /* \"#utility.yul\":5997:6014   */\n              add\n                /* \"#utility.yul\":5990:6037   */\n              mstore\n                /* \"#utility.yul\":6054:6158   */\n              tag_211\n                /* \"#utility.yul\":6153:6157   */\n              dup2\n                /* \"#utility.yul\":6144:6150   */\n              dup5\n                /* \"#utility.yul\":6054:6158   */\n              tag_191\n              jump\t// in\n            tag_211:\n                /* \"#utility.yul\":6046:6158   */\n              swap1\n              pop\n                /* \"#utility.yul\":5944:6165   */\n              swap3\n              swap2\n              pop\n              pop\n              jump\t// out\n                /* \"#utility.yul\":6171:6393   */\n            tag_21:\n              0x00\n                /* \"#utility.yul\":6302:6304   */\n              0x20\n                /* \"#utility.yul\":6291:6300   */\n              dup3\n                /* \"#utility.yul\":6287:6305   */\n              add\n                /* \"#utility.yul\":6279:6305   */\n              swap1\n              pop\n                /* \"#utility.yul\":6315:6386   */\n              tag_213\n                /* \"#utility.yul\":6383:6384   */\n              0x00\n                /* \"#utility.yul\":6372:6381   */\n              dup4\n                /* \"#utility.yul\":6368:6385   */\n              add\n                /* \"#utility.yul\":6359:6365   */\n              dup5\n                /* \"#utility.yul\":6315:6386   */\n              tag_205\n              jump\t// in\n            tag_213:\n                /* \"#utility.yul\":6269:6393   */\n              swap3\n              swap2\n              pop\n              pop\n              jump\t// out\n                /* \"#utility.yul\":6399:7451   */\n            tag_38:\n              0x00\n                /* \"#utility.yul\":6728:6731   */\n              0x0100\n                /* \"#utility.yul\":6717:6726   */\n              dup3\n                /* \"#utility.yul\":6713:6732   */\n              add\n                /* \"#utility.yul\":6705:6732   */\n              swap1\n              pop\n                /* \"#utility.yul\":6742:6813   */\n              tag_215\n                /* \"#utility.yul\":6810:6811   */\n              0x00\n                /* \"#utility.yul\":6799:6808   */\n              dup4\n                /* \"#utility.yul\":6795:6812   */\n              add\n                /* \"#utility.yul\":6786:6792   */\n              dup12\n                /* \"#utility.yul\":6742:6813   */\n              tag_205\n              jump\t// in\n            tag_215:\n                /* \"#utility.yul\":6823:6895   */\n              tag_216\n                /* \"#utility.yul\":6891:6893   */\n              0x20\n                /* \"#utility.yul\":6880:6889   */\n              dup4\n                /* \"#utility.yul\":6876:6894   */\n              add\n                /* \"#utility.yul\":6867:6873   */\n              dup11\n                /* \"#utility.yul\":6823:6895   */\n              tag_164\n              jump\t// in\n            tag_216:\n                /* \"#utility.yul\":6942:6951   */\n              dup2\n                /* \"#utility.yul\":6936:6940   */\n              dup2\n                /* \"#utility.yul\":6932:6952   */\n              sub\n                /* \"#utility.yul\":6927:6929   */\n              0x40\n                /* \"#utility.yul\":6916:6925   */\n              dup4\n                /* \"#utility.yul\":6912:6930   */\n              add\n                /* \"#utility.yul\":6905:6953   */\n              mstore\n                /* \"#utility.yul\":6970:7048   */\n              tag_217\n                /* \"#utility.yul\":7043:7047   */\n              dup2\n                /* \"#utility.yul\":7034:7040   */\n              dup10\n                /* \"#utility.yul\":6970:7048   */\n              tag_184\n              jump\t// in\n            tag_217:\n                /* \"#utility.yul\":6962:7048   */\n              swap1\n              pop\n                /* \"#utility.yul\":7058:7130   */\n              tag_218\n                /* \"#utility.yul\":7126:7128   */\n              0x60\n                /* \"#utility.yul\":7115:7124   */\n              dup4\n                /* \"#utility.yul\":7111:7129   */\n              add\n                /* \"#utility.yul\":7102:7108   */\n              dup9\n                /* \"#utility.yul\":7058:7130   */\n              tag_205\n              jump\t// in\n            tag_218:\n                /* \"#utility.yul\":7140:7213   */\n              tag_219\n                /* \"#utility.yul\":7208:7211   */\n              0x80\n                /* \"#utility.yul\":7197:7206   */\n              dup4\n                /* \"#utility.yul\":7193:7212   */\n              add\n                /* \"#utility.yul\":7184:7190   */\n              dup8\n                /* \"#utility.yul\":7140:7213   */\n              tag_205\n              jump\t// in\n            tag_219:\n                /* \"#utility.yul\":7223:7290   */\n              tag_220\n                /* \"#utility.yul\":7285:7288   */\n              0xa0\n                /* \"#utility.yul\":7274:7283   */\n              dup4\n                /* \"#utility.yul\":7270:7289   */\n              add\n                /* \"#utility.yul\":7261:7267   */\n              dup7\n                /* \"#utility.yul\":7223:7290   */\n              tag_171\n              jump\t// in\n            tag_220:\n                /* \"#utility.yul\":7300:7367   */\n              tag_221\n                /* \"#utility.yul\":7362:7365   */\n              0xc0\n                /* \"#utility.yul\":7351:7360   */\n              dup4\n                /* \"#utility.yul\":7347:7366   */\n              add\n                /* \"#utility.yul\":7338:7344   */\n              dup6\n                /* \"#utility.yul\":7300:7367   */\n              tag_171\n              jump\t// in\n            tag_221:\n                /* \"#utility.yul\":7377:7444   */\n              tag_222\n                /* \"#utility.yul\":7439:7442   */\n              0xe0\n                /* \"#utility.yul\":7428:7437   */\n              dup4\n                /* \"#utility.yul\":7424:7443   */\n              add\n                /* \"#utility.yul\":7415:7421   */\n              dup5\n                /* \"#utility.yul\":7377:7444   */\n              tag_171\n              jump\t// in\n            tag_222:\n                /* \"#utility.yul\":6695:7451   */\n              swap10\n              swap9\n              pop\n              pop\n              pop\n              pop\n              pop\n              pop\n              pop\n              pop\n              pop\n              jump\t// out\n                /* \"#utility.yul\":7457:8232   */\n            tag_16:\n              0x00\n                /* \"#utility.yul\":7728:7731   */\n              0xc0\n                /* \"#utility.yul\":7717:7726   */\n              dup3\n                /* \"#utility.yul\":7713:7732   */\n              add\n                /* \"#utility.yul\":7705:7732   */\n              swap1\n              pop\n                /* \"#utility.yul\":7742:7813   */\n              tag_224\n                /* \"#utility.yul\":7810:7811   */\n              0x00\n                /* \"#utility.yul\":7799:7808   */\n              dup4\n                /* \"#utility.yul\":7795:7812   */\n              add\n                /* \"#utility.yul\":7786:7792   */\n              dup10\n                /* \"#utility.yul\":7742:7813   */\n              tag_205\n              jump\t// in\n            tag_224:\n                /* \"#utility.yul\":7823:7895   */\n              tag_225\n                /* \"#utility.yul\":7891:7893   */\n              0x20\n                /* \"#utility.yul\":7880:7889   */\n              dup4\n                /* \"#utility.yul\":7876:7894   */\n              add\n                /* \"#utility.yul\":7867:7873   */\n              dup9\n                /* \"#utility.yul\":7823:7895   */\n              tag_205\n              jump\t// in\n            tag_225:\n                /* \"#utility.yul\":7905:7977   */\n              tag_226\n                /* \"#utility.yul\":7973:7975   */\n              0x40\n                /* \"#utility.yul\":7962:7971   */\n              dup4\n                /* \"#utility.yul\":7958:7976   */\n              add\n                /* \"#utility.yul\":7949:7955   */\n              dup8\n                /* \"#utility.yul\":7905:7977   */\n              tag_205\n              jump\t// in\n            tag_226:\n                /* \"#utility.yul\":7987:8059   */\n              tag_227\n                /* \"#utility.yul\":8055:8057   */\n              0x60\n                /* \"#utility.yul\":8044:8053   */\n              dup4\n                /* \"#utility.yul\":8040:8058   */\n              add\n                /* \"#utility.yul\":8031:8037   */\n              dup7\n                /* \"#utility.yul\":7987:8059   */\n              tag_205\n              jump\t// in\n            tag_227:\n                /* \"#utility.yul\":8069:8142   */\n              tag_228\n                /* \"#utility.yul\":8137:8140   */\n              0x80\n                /* \"#utility.yul\":8126:8135   */\n              dup4\n                /* \"#utility.yul\":8122:8141   */\n              add\n                /* \"#utility.yul\":8113:8119   */\n              dup6\n                /* \"#utility.yul\":8069:8142   */\n              tag_205\n              jump\t// in\n            tag_228:\n                /* \"#utility.yul\":8152:8225   */\n              tag_229\n                /* \"#utility.yul\":8220:8223   */\n              0xa0\n                /* \"#utility.yul\":8209:8218   */\n              dup4\n                /* \"#utility.yul\":8205:8224   */\n              add\n                /* \"#utility.yul\":8196:8202   */\n              dup5\n                /* \"#utility.yul\":8152:8225   */\n              tag_164\n              jump\t// in\n            tag_229:\n                /* \"#utility.yul\":7695:8232   */\n              swap8\n              swap7\n              pop\n              pop\n              pop\n              pop\n              pop\n              pop\n              pop\n              jump\t// out\n                /* \"#utility.yul\":8238:8521   */\n            tag_127:\n              0x00\n                /* \"#utility.yul\":8304:8306   */\n              0x40\n                /* \"#utility.yul\":8298:8307   */\n              mload\n                /* \"#utility.yul\":8288:8307   */\n              swap1\n              pop\n                /* \"#utility.yul\":8346:8350   */\n              dup2\n                /* \"#utility.yul\":8338:8344   */\n              dup2\n                /* \"#utility.yul\":8334:8351   */\n              add\n                /* \"#utility.yul\":8453:8459   */\n              dup2\n                /* \"#utility.yul\":8441:8451   */\n              dup2\n                /* \"#utility.yul\":8438:8460   */\n              lt\n                /* \"#utility.yul\":8417:8435   */\n              0xffffffffffffffff\n                /* \"#utility.yul\":8405:8415   */\n              dup3\n                /* \"#utility.yul\":8402:8436   */\n              gt\n                /* \"#utility.yul\":8399:8461   */\n              or\n                /* \"#utility.yul\":8396:8398   */\n              iszero\n              tag_231\n              jumpi\n                /* \"#utility.yul\":8464:8482   */\n              tag_232\n              tag_233\n              jump\t// in\n            tag_232:\n                /* \"#utility.yul\":8396:8398   */\n            tag_231:\n                /* \"#utility.yul\":8504:8514   */\n              dup1\n                /* \"#utility.yul\":8500:8502   */\n              0x40\n                /* \"#utility.yul\":8493:8515   */\n              mstore\n                /* \"#utility.yul\":8278:8521   */\n              pop\n              swap2\n              swap1\n              pop\n              jump\t// out\n                /* \"#utility.yul\":8527:8859   */\n            tag_126:\n              0x00\n                /* \"#utility.yul\":8679:8697   */\n              0xffffffffffffffff\n                /* \"#utility.yul\":8671:8677   */\n              dup3\n                /* \"#utility.yul\":8668:8698   */\n              gt\n                /* \"#utility.yul\":8665:8667   */\n              iszero\n              tag_235\n              jumpi\n                /* \"#utility.yul\":8701:8719   */\n              tag_236\n              tag_233\n              jump\t// in\n            tag_236:\n                /* \"#utility.yul\":8665:8667   */\n            tag_235:\n                /* \"#utility.yul\":8786:8790   */\n              0x1f\n                /* \"#utility.yul\":8782:8791   */\n              not\n                /* \"#utility.yul\":8775:8779   */\n              0x1f\n                /* \"#utility.yul\":8767:8773   */\n              dup4\n                /* \"#utility.yul\":8763:8780   */\n              add\n                /* \"#utility.yul\":8759:8792   */\n              and\n                /* \"#utility.yul\":8751:8792   */\n              swap1\n              pop\n                /* \"#utility.yul\":8847:8851   */\n              0x20\n                /* \"#utility.yul\":8841:8845   */\n              dup2\n                /* \"#utility.yul\":8837:8852   */\n              add\n                /* \"#utility.yul\":8829:8852   */\n              swap1\n              pop\n                /* \"#utility.yul\":8594:8859   */\n              swap2\n              swap1\n              pop\n              jump\t// out\n                /* \"#utility.yul\":8865:8964   */\n            tag_177:\n              0x00\n                /* \"#utility.yul\":8951:8956   */\n              dup2\n                /* \"#utility.yul\":8945:8957   */\n              mload\n                /* \"#utility.yul\":8935:8957   */\n              swap1\n              pop\n                /* \"#utility.yul\":8924:8964   */\n              swap2\n              swap1\n              pop\n              jump\t// out\n                /* \"#utility.yul\":8970:9129   */\n            tag_179:\n              0x00\n                /* \"#utility.yul\":9078:9084   */\n              dup3\n                /* \"#utility.yul\":9073:9076   */\n              dup3\n                /* \"#utility.yul\":9066:9085   */\n              mstore\n                /* \"#utility.yul\":9118:9122   */\n              0x20\n                /* \"#utility.yul\":9113:9116   */\n              dup3\n                /* \"#utility.yul\":9109:9123   */\n              add\n                /* \"#utility.yul\":9094:9123   */\n              swap1\n              pop\n                /* \"#utility.yul\":9056:9129   */\n              swap3\n              swap2\n              pop\n              pop\n              jump\t// out\n                /* \"#utility.yul\":9135:9304   */\n            tag_188:\n              0x00\n                /* \"#utility.yul\":9253:9259   */\n              dup3\n                /* \"#utility.yul\":9248:9251   */\n              dup3\n                /* \"#utility.yul\":9241:9260   */\n              mstore\n                /* \"#utility.yul\":9293:9297   */\n              0x20\n                /* \"#utility.yul\":9288:9291   */\n              dup3\n                /* \"#utility.yul\":9284:9298   */\n              add\n                /* \"#utility.yul\":9269:9298   */\n              swap1\n              pop\n                /* \"#utility.yul\":9231:9304   */\n              swap3\n              swap2\n              pop\n              pop\n              jump\t// out\n                /* \"#utility.yul\":9310:9615   */\n            tag_66:\n              0x00\n                /* \"#utility.yul\":9369:9389   */\n              tag_241\n                /* \"#utility.yul\":9387:9388   */\n              dup3\n                /* \"#utility.yul\":9369:9389   */\n              tag_204\n              jump\t// in\n            tag_241:\n                /* \"#utility.yul\":9364:9389   */\n              swap2\n              pop\n                /* \"#utility.yul\":9403:9423   */\n              tag_242\n                /* \"#utility.yul\":9421:9422   */\n              dup4\n                /* \"#utility.yul\":9403:9423   */\n              tag_204\n              jump\t// in\n            tag_242:\n                /* \"#utility.yul\":9398:9423   */\n              swap3\n              pop\n                /* \"#utility.yul\":9557:9558   */\n              dup3\n                /* \"#utility.yul\":9489:9555   */\n              0xffffffffffffffffffffffffffffffffffffffffffffffffffffffffffffffff\n                /* \"#utility.yul\":9485:9559   */\n              sub\n                /* \"#utility.yul\":9482:9483   */\n              dup3\n                /* \"#utility.yul\":9479:9560   */\n              gt\n                /* \"#utility.yul\":9476:9478   */\n              iszero\n              tag_243\n              jumpi\n                /* \"#utility.yul\":9563:9581   */\n              tag_244\n              tag_245\n              jump\t// in\n            tag_244:\n                /* \"#utility.yul\":9476:9478   */\n            tag_243:\n                /* \"#utility.yul\":9607:9608   */\n              dup3\n                /* \"#utility.yul\":9604:9605   */\n              dup3\n                /* \"#utility.yul\":9600:9609   */\n              add\n                /* \"#utility.yul\":9593:9609   */\n              swap1\n              pop\n                /* \"#utility.yul\":9354:9615   */\n              swap3\n              swap2\n              pop\n              pop\n              jump\t// out\n                /* \"#utility.yul\":9621:9806   */\n            tag_109:\n              0x00\n                /* \"#utility.yul\":9678:9698   */\n              tag_247\n                /* \"#utility.yul\":9696:9697   */\n              dup3\n                /* \"#utility.yul\":9678:9698   */\n              tag_204\n              jump\t// in\n            tag_247:\n                /* \"#utility.yul\":9673:9698   */\n              swap2\n              pop\n                /* \"#utility.yul\":9712:9732   */\n              tag_248\n                /* \"#utility.yul\":9730:9731   */\n              dup4\n                /* \"#utility.yul\":9712:9732   */\n              tag_204\n              jump\t// in\n            tag_248:\n                /* \"#utility.yul\":9707:9732   */\n              swap3\n              pop\n                /* \"#utility.yul\":9751:9752   */\n              dup3\n                /* \"#utility.yul\":9741:9743   */\n              tag_249\n              jumpi\n                /* \"#utility.yul\":9756:9774   */\n              tag_250\n              tag_251\n              jump\t// in\n            tag_250:\n                /* \"#utility.yul\":9741:9743   */\n            tag_249:\n                /* \"#utility.yul\":9798:9799   */\n              dup3\n                /* \"#utility.yul\":9795:9796   */\n              dup3\n                /* \"#utility.yul\":9791:9800   */\n              div\n                /* \"#utility.yul\":9786:9800   */\n              swap1\n              pop\n                /* \"#utility.yul\":9663:9806   */\n              swap3\n              swap2\n              pop\n              pop\n              jump\t// out\n                /* \"#utility.yul\":9812:10160   */\n            tag_107:\n              0x00\n                /* \"#utility.yul\":9875:9895   */\n              tag_253\n                /* \"#utility.yul\":9893:9894   */\n              dup3\n                /* \"#utility.yul\":9875:9895   */\n              tag_204\n              jump\t// in\n            tag_253:\n                /* \"#utility.yul\":9870:9895   */\n              swap2\n              pop\n                /* \"#utility.yul\":9909:9929   */\n              tag_254\n                /* \"#utility.yul\":9927:9928   */\n              dup4\n                /* \"#utility.yul\":9909:9929   */\n              tag_204\n              jump\t// in\n            tag_254:\n                /* \"#utility.yul\":9904:9929   */\n              swap3\n              pop\n                /* \"#utility.yul\":10097:10098   */\n              dup2\n                /* \"#utility.yul\":10029:10095   */\n              0xffffffffffffffffffffffffffffffffffffffffffffffffffffffffffffffff\n                /* \"#utility.yul\":10025:10099   */\n              div\n                /* \"#utility.yul\":10022:10023   */\n              dup4\n                /* \"#utility.yul\":10019:10100   */\n              gt\n                /* \"#utility.yul\":10014:10015   */\n              dup3\n                /* \"#utility.yul\":10007:10016   */\n              iszero\n                /* \"#utility.yul\":10000:10017   */\n              iszero\n                /* \"#utility.yul\":9996:10101   */\n              and\n                /* \"#utility.yul\":9993:9995   */\n              iszero\n              tag_255\n              jumpi\n                /* \"#utility.yul\":10104:10122   */\n              tag_256\n              tag_245\n              jump\t// in\n            tag_256:\n                /* \"#utility.yul\":9993:9995   */\n            tag_255:\n                /* \"#utility.yul\":10152:10153   */\n              dup3\n                /* \"#utility.yul\":10149:10150   */\n              dup3\n                /* \"#utility.yul\":10145:10154   */\n              mul\n                /* \"#utility.yul\":10134:10154   */\n              swap1\n              pop\n                /* \"#utility.yul\":9860:10160   */\n              swap3\n              swap2\n              pop\n              pop\n              jump\t// out\n                /* \"#utility.yul\":10166:10357   */\n            tag_60:\n              0x00\n                /* \"#utility.yul\":10226:10246   */\n              tag_258\n                /* \"#utility.yul\":10244:10245   */\n              dup3\n                /* \"#utility.yul\":10226:10246   */\n              tag_204\n              jump\t// in\n            tag_258:\n                /* \"#utility.yul\":10221:10246   */\n              swap2\n              pop\n                /* \"#utility.yul\":10260:10280   */\n              tag_259\n                /* \"#utility.yul\":10278:10279   */\n              dup4\n                /* \"#utility.yul\":10260:10280   */\n              tag_204\n              jump\t// in\n            tag_259:\n                /* \"#utility.yul\":10255:10280   */\n              swap3\n              pop\n                /* \"#utility.yul\":10299:10300   */\n              dup3\n                /* \"#utility.yul\":10296:10297   */\n              dup3\n                /* \"#utility.yul\":10293:10301   */\n              lt\n                /* \"#utility.yul\":10290:10292   */\n              iszero\n              tag_260\n              jumpi\n                /* \"#utility.yul\":10304:10322   */\n              tag_261\n              tag_245\n              jump\t// in\n            tag_261:\n                /* \"#utility.yul\":10290:10292   */\n            tag_260:\n                /* \"#utility.yul\":10349:10350   */\n              dup3\n                /* \"#utility.yul\":10346:10347   */\n              dup3\n                /* \"#utility.yul\":10342:10351   */\n              sub\n                /* \"#utility.yul\":10334:10351   */\n              swap1\n              pop\n                /* \"#utility.yul\":10211:10357   */\n              swap3\n              swap2\n              pop\n              pop\n              jump\t// out\n                /* \"#utility.yul\":10363:10459   */\n            tag_163:\n              0x00\n                /* \"#utility.yul\":10429:10453   */\n              tag_263\n                /* \"#utility.yul\":10447:10452   */\n              dup3\n                /* \"#utility.yul\":10429:10453   */\n              tag_264\n              jump\t// in\n            tag_263:\n                /* \"#utility.yul\":10418:10453   */\n              swap1\n              pop\n                /* \"#utility.yul\":10408:10459   */\n              swap2\n              swap1\n              pop\n              jump\t// out\n                /* \"#utility.yul\":10465:10555   */\n            tag_170:\n              0x00\n                /* \"#utility.yul\":10542:10547   */\n              dup2\n                /* \"#utility.yul\":10535:10548   */\n              iszero\n                /* \"#utility.yul\":10528:10549   */\n              iszero\n                /* \"#utility.yul\":10517:10549   */\n              swap1\n              pop\n                /* \"#utility.yul\":10507:10555   */\n              swap2\n              swap1\n              pop\n              jump\t// out\n                /* \"#utility.yul\":10561:10687   */\n            tag_264:\n              0x00\n                /* \"#utility.yul\":10638:10680   */\n              0xffffffffffffffffffffffffffffffffffffffff\n                /* \"#utility.yul\":10631:10636   */\n              dup3\n                /* \"#utility.yul\":10627:10681   */\n              and\n                /* \"#utility.yul\":10616:10681   */\n              swap1\n              pop\n                /* \"#utility.yul\":10606:10687   */\n              swap2\n              swap1\n              pop\n              jump\t// out\n                /* \"#utility.yul\":10693:10770   */\n            tag_204:\n              0x00\n                /* \"#utility.yul\":10759:10764   */\n              dup2\n                /* \"#utility.yul\":10748:10764   */\n              swap1\n              pop\n                /* \"#utility.yul\":10738:10770   */\n              swap2\n              swap1\n              pop\n              jump\t// out\n                /* \"#utility.yul\":10776:10930   */\n            tag_130:\n                /* \"#utility.yul\":10860:10866   */\n              dup3\n                /* \"#utility.yul\":10855:10858   */\n              dup2\n                /* \"#utility.yul\":10850:10853   */\n              dup4\n                /* \"#utility.yul\":10837:10867   */\n              calldatacopy\n                /* \"#utility.yul\":10922:10923   */\n              0x00\n                /* \"#utility.yul\":10913:10919   */\n              dup4\n                /* \"#utility.yul\":10908:10911   */\n              dup4\n                /* \"#utility.yul\":10904:10920   */\n              add\n                /* \"#utility.yul\":10897:10924   */\n              mstore\n                /* \"#utility.yul\":10827:10930   */\n              pop\n              pop\n              pop\n              jump\t// out\n                /* \"#utility.yul\":10936:11243   */\n            tag_181:\n                /* \"#utility.yul\":11004:11005   */\n              0x00\n                /* \"#utility.yul\":11014:11127   */\n            tag_270:\n                /* \"#utility.yul\":11028:11034   */\n              dup4\n                /* \"#utility.yul\":11025:11026   */\n              dup2\n                /* \"#utility.yul\":11022:11035   */\n              lt\n                /* \"#utility.yul\":11014:11127   */\n              iszero\n              tag_272\n              jumpi\n                /* \"#utility.yul\":11113:11114   */\n              dup1\n                /* \"#utility.yul\":11108:11111   */\n              dup3\n                /* \"#utility.yul\":11104:11115   */\n              add\n                /* \"#utility.yul\":11098:11116   */\n              mload\n                /* \"#utility.yul\":11094:11095   */\n              dup2\n                /* \"#utility.yul\":11089:11092   */\n              dup5\n                /* \"#utility.yul\":11085:11096   */\n              add\n                /* \"#utility.yul\":11078:11117   */\n              mstore\n                /* \"#utility.yul\":11050:11052   */\n              0x20\n                /* \"#utility.yul\":11047:11048   */\n              dup2\n                /* \"#utility.yul\":11043:11053   */\n              add\n                /* \"#utility.yul\":11038:11053   */\n              swap1\n              pop\n                /* \"#utility.yul\":11014:11127   */\n              jump(tag_270)\n            tag_272:\n                /* \"#utility.yul\":11145:11151   */\n              dup4\n                /* \"#utility.yul\":11142:11143   */\n              dup2\n                /* \"#utility.yul\":11139:11152   */\n              gt\n                /* \"#utility.yul\":11136:11138   */\n              iszero\n              tag_273\n              jumpi\n                /* \"#utility.yul\":11225:11226   */\n              0x00\n                /* \"#utility.yul\":11216:11222   */\n              dup5\n                /* \"#utility.yul\":11211:11214   */\n              dup5\n                /* \"#utility.yul\":11207:11223   */\n              add\n                /* \"#utility.yul\":11200:11227   */\n              mstore\n                /* \"#utility.yul\":11136:11138   */\n            tag_273:\n                /* \"#utility.yul\":10985:11243   */\n              pop\n              pop\n              pop\n              pop\n              jump\t// out\n                /* \"#utility.yul\":11249:11569   */\n            tag_70:\n              0x00\n                /* \"#utility.yul\":11330:11331   */\n              0x02\n                /* \"#utility.yul\":11324:11328   */\n              dup3\n                /* \"#utility.yul\":11320:11332   */\n              div\n                /* \"#utility.yul\":11310:11332   */\n              swap1\n              pop\n                /* \"#utility.yul\":11377:11378   */\n              0x01\n                /* \"#utility.yul\":11371:11375   */\n              dup3\n                /* \"#utility.yul\":11367:11379   */\n              and\n                /* \"#utility.yul\":11398:11416   */\n              dup1\n                /* \"#utility.yul\":11388:11390   */\n              tag_275\n              jumpi\n                /* \"#utility.yul\":11454:11458   */\n              0x7f\n                /* \"#utility.yul\":11446:11452   */\n              dup3\n                /* \"#utility.yul\":11442:11459   */\n              and\n                /* \"#utility.yul\":11432:11459   */\n              swap2\n              pop\n                /* \"#utility.yul\":11388:11390   */\n            tag_275:\n                /* \"#utility.yul\":11516:11518   */\n              0x20\n                /* \"#utility.yul\":11508:11514   */\n              dup3\n                /* \"#utility.yul\":11505:11519   */\n              lt\n                /* \"#utility.yul\":11485:11503   */\n              dup2\n                /* \"#utility.yul\":11482:11520   */\n              eq\n                /* \"#utility.yul\":11479:11481   */\n              iszero\n              tag_276\n              jumpi\n                /* \"#utility.yul\":11535:11553   */\n              tag_277\n              tag_278\n              jump\t// in\n            tag_277:\n                /* \"#utility.yul\":11479:11481   */\n            tag_276:\n                /* \"#utility.yul\":11300:11569   */\n              pop\n              swap2\n              swap1\n              pop\n              jump\t// out\n                /* \"#utility.yul\":11575:11808   */\n            tag_79:\n              0x00\n                /* \"#utility.yul\":11637:11661   */\n              tag_280\n                /* \"#utility.yul\":11655:11660   */\n              dup3\n                /* \"#utility.yul\":11637:11661   */\n              tag_204\n              jump\t// in\n            tag_280:\n                /* \"#utility.yul\":11628:11661   */\n              swap2\n              pop\n                /* \"#utility.yul\":11683:11749   */\n              0xffffffffffffffffffffffffffffffffffffffffffffffffffffffffffffffff\n                /* \"#utility.yul\":11676:11681   */\n              dup3\n                /* \"#utility.yul\":11673:11750   */\n              eq\n                /* \"#utility.yul\":11670:11672   */\n              iszero\n              tag_281\n              jumpi\n                /* \"#utility.yul\":11753:11771   */\n              tag_282\n              tag_245\n              jump\t// in\n            tag_282:\n                /* \"#utility.yul\":11670:11672   */\n            tag_281:\n                /* \"#utility.yul\":11800:11801   */\n              0x01\n                /* \"#utility.yul\":11793:11798   */\n              dup3\n                /* \"#utility.yul\":11789:11802   */\n              add\n                /* \"#utility.yul\":11782:11802   */\n              swap1\n              pop\n                /* \"#utility.yul\":11618:11808   */\n              swap2\n              swap1\n              pop\n              jump\t// out\n                /* \"#utility.yul\":11814:11994   */\n            tag_245:\n                /* \"#utility.yul\":11862:11939   */\n              0x4e487b7100000000000000000000000000000000000000000000000000000000\n                /* \"#utility.yul\":11859:11860   */\n              0x00\n                /* \"#utility.yul\":11852:11940   */\n              mstore\n                /* \"#utility.yul\":11959:11963   */\n              0x11\n                /* \"#utility.yul\":11956:11957   */\n              0x04\n                /* \"#utility.yul\":11949:11964   */\n              mstore\n                /* \"#utility.yul\":11983:11987   */\n              0x24\n                /* \"#utility.yul\":11980:11981   */\n              0x00\n                /* \"#utility.yul\":11973:11988   */\n              revert\n                /* \"#utility.yul\":12000:12180   */\n            tag_251:\n                /* \"#utility.yul\":12048:12125   */\n              0x4e487b7100000000000000000000000000000000000000000000000000000000\n                /* \"#utility.yul\":12045:12046   */\n              0x00\n                /* \"#utility.yul\":12038:12126   */\n              mstore\n                /* \"#utility.yul\":12145:12149   */\n              0x12\n                /* \"#utility.yul\":12142:12143   */\n              0x04\n                /* \"#utility.yul\":12135:12150   */\n              mstore\n                /* \"#utility.yul\":12169:12173   */\n              0x24\n                /* \"#utility.yul\":12166:12167   */\n              0x00\n                /* \"#utility.yul\":12159:12174   */\n              revert\n                /* \"#utility.yul\":12186:12366   */\n            tag_278:\n                /* \"#utility.yul\":12234:12311   */\n              0x4e487b7100000000000000000000000000000000000000000000000000000000\n                /* \"#utility.yul\":12231:12232   */\n              0x00\n                /* \"#utility.yul\":12224:12312   */\n              mstore\n                /* \"#utility.yul\":12331:12335   */\n              0x22\n                /* \"#utility.yul\":12328:12329   */\n              0x04\n                /* \"#utility.yul\":12321:12336   */\n              mstore\n                /* \"#utility.yul\":12355:12359   */\n              0x24\n                /* \"#utility.yul\":12352:12353   */\n              0x00\n                /* \"#utility.yul\":12345:12360   */\n              revert\n                /* \"#utility.yul\":12372:12552   */\n            tag_233:\n                /* \"#utility.yul\":12420:12497   */\n              0x4e487b7100000000000000000000000000000000000000000000000000000000\n                /* \"#utility.yul\":12417:12418   */\n              0x00\n                /* \"#utility.yul\":12410:12498   */\n              mstore\n                /* \"#utility.yul\":12517:12521   */\n              0x41\n                /* \"#utility.yul\":12514:12515   */\n              0x04\n                /* \"#utility.yul\":12507:12522   */\n              mstore\n                /* \"#utility.yul\":12541:12545   */\n              0x24\n                /* \"#utility.yul\":12538:12539   */\n              0x00\n                /* \"#utility.yul\":12531:12546   */\n              revert\n                /* \"#utility.yul\":12558:12660   */\n            tag_183:\n              0x00\n                /* \"#utility.yul\":12650:12652   */\n              0x1f\n                /* \"#utility.yul\":12646:12653   */\n              not\n                /* \"#utility.yul\":12641:12643   */\n              0x1f\n                /* \"#utility.yul\":12634:12639   */\n              dup4\n                /* \"#utility.yul\":12630:12644   */\n              add\n                /* \"#utility.yul\":12626:12654   */\n              and\n                /* \"#utility.yul\":12616:12654   */\n              swap1\n              pop\n                /* \"#utility.yul\":12606:12660   */\n              swap2\n              swap1\n              pop\n              jump\t// out\n                /* \"#utility.yul\":12666:12788   */\n            tag_134:\n                /* \"#utility.yul\":12739:12763   */\n              tag_289\n                /* \"#utility.yul\":12757:12762   */\n              dup2\n                /* \"#utility.yul\":12739:12763   */\n              tag_163\n              jump\t// in\n            tag_289:\n                /* \"#utility.yul\":12732:12737   */\n              dup2\n                /* \"#utility.yul\":12729:12764   */\n              eq\n                /* \"#utility.yul\":12719:12721   */\n              tag_290\n              jumpi\n                /* \"#utility.yul\":12778:12779   */\n              0x00\n                /* \"#utility.yul\":12775:12776   */\n              dup1\n                /* \"#utility.yul\":12768:12780   */\n              revert\n                /* \"#utility.yul\":12719:12721   */\n            tag_290:\n                /* \"#utility.yul\":12709:12788   */\n              pop\n              jump\t// out\n                /* \"#utility.yul\":12794:12910   */\n            tag_138:\n                /* \"#utility.yul\":12864:12885   */\n              tag_292\n                /* \"#utility.yul\":12879:12884   */\n              dup2\n                /* \"#utility.yul\":12864:12885   */\n              tag_170\n              jump\t// in\n            tag_292:\n                /* \"#utility.yul\":12857:12862   */\n              dup2\n                /* \"#utility.yul\":12854:12886   */\n              eq\n                /* \"#utility.yul\":12844:12846   */\n              tag_293\n              jumpi\n                /* \"#utility.yul\":12900:12901   */\n              0x00\n                /* \"#utility.yul\":12897:12898   */\n              dup1\n                /* \"#utility.yul\":12890:12902   */\n              revert\n                /* \"#utility.yul\":12844:12846   */\n            tag_293:\n                /* \"#utility.yul\":12834:12910   */\n              pop\n              jump\t// out\n                /* \"#utility.yul\":12916:13038   */\n            tag_146:\n                /* \"#utility.yul\":12989:13013   */\n              tag_295\n                /* \"#utility.yul\":13007:13012   */\n              dup2\n                /* \"#utility.yul\":12989:13013   */\n              tag_204\n              jump\t// in\n            tag_295:\n                /* \"#utility.yul\":12982:12987   */\n              dup2\n                /* \"#utility.yul\":12979:13014   */\n              eq\n                /* \"#utility.yul\":12969:12971   */\n              tag_296\n              jumpi\n                /* \"#utility.yul\":13028:13029   */\n              0x00\n                /* \"#utility.yul\":13025:13026   */\n              dup1\n                /* \"#utility.yul\":13018:13030   */\n              revert\n                /* \"#utility.yul\":12969:12971   */\n            tag_296:\n                /* \"#utility.yul\":12959:13038   */\n              pop\n              jump\t// out\n\n            auxdata: 0xa26469706673582212207e0fe6557234796115c384b33291059a870541e69135a4c66f5ae7f7991517cd64736f6c63430008000033\n        }\n    }\n\n    auxdata: 0xa2646970667358221220997f5c0bdcbe6c6d01b91e8737eb7f0affe39ea1c929492d823bed9f0da63ecd64736f6c63430008000033\n}\n","bytecode":{"linkReferences":{},"object":"608060405234801561001057600080fd5b50336000806101000a81548173ffffffffffffffffffffffffffffffffffffffff021916908373ffffffffffffffffffffffffffffffffffffffff160217905550611a23806100606000396000f3fe608060405234801561001057600080fd5b506004361061004c5760003560e01c80632250226814610051578063339d50a51461006d578063481c6a751461009d5780634acb9d4f146100bb575b600080fd5b61006b600480360381019061006691906102b9565b6100d9565b005b61008760048036038101906100829190610290565b61017d565b60405161009491906103e4565b60405180910390f35b6100a56101bc565b6040516100b291906103a7565b60405180910390f35b6100c36101e0565b6040516100d091906103c2565b60405180910390f35b60008282336040516100ea9061026e565b6100f6939291906103ff565b604051809103906000f080158015610112573d6000803e3d6000fd5b5090506001819080600181540180825580915050600190039060005260206000200160009091909190916101000a81548173ffffffffffffffffffffffffffffffffffffffff021916908373ffffffffffffffffffffffffffffffffffffffff160217905550505050565b6001818154811061018d57600080fd5b906000526020600020016000915054906101000a900473ffffffffffffffffffffffffffffffffffffffff1681565b60008054906101000a900473ffffffffffffffffffffffffffffffffffffffff1681565b6060600180548060200260200160405190810160405280929190818152602001828054801561026457602002820191906000526020600020905b8160009054906101000a900473ffffffffffffffffffffffffffffffffffffffff1673ffffffffffffffffffffffffffffffffffffffff168152602001906001019080831161021a575b5050505050905090565b611507806104e783390190565b60008135905061028a816104cf565b92915050565b6000602082840312156102a257600080fd5b60006102b08482850161027b565b91505092915050565b600080604083850312156102cc57600080fd5b60006102da8582860161027b565b92505060206102eb8582860161027b565b9150509250929050565b6000610301838361037a565b60208301905092915050565b6103168161046f565b82525050565b600061032782610446565b610331818561045e565b935061033c83610436565b8060005b8381101561036d57815161035488826102f5565b975061035f83610451565b925050600181019050610340565b5085935050505092915050565b610383816104ab565b82525050565b610392816104ab565b82525050565b6103a1816104a1565b82525050565b60006020820190506103bc600083018461030d565b92915050565b600060208201905081810360008301526103dc818461031c565b905092915050565b60006020820190506103f96000830184610389565b92915050565b60006060820190506104146000830186610398565b6104216020830185610398565b61042e604083018461030d565b949350505050565b6000819050602082019050919050565b600081519050919050565b6000602082019050919050565b600082825260208201905092915050565b600061047a82610481565b9050919050565b600073ffffffffffffffffffffffffffffffffffffffff82169050919050565b6000819050919050565b60006104b6826104bd565b9050919050565b60006104c882610481565b9050919050565b6104d8816104a1565b81146104e357600080fd5b5056fe60806040523480156200001157600080fd5b5060405162001507380380620015078339818101604052810190620000379190620000cc565b806000806101000a81548173ffffffffffffffffffffffffffffffffffffffff021916908373ffffffffffffffffffffffffffffffffffffffff16021790555082600181905550816004819055506000600381905550600060058190555050505062000194565b600081519050620000af8162000160565b92915050565b600081519050620000c6816200017a565b92915050565b600080600060608486031215620000e257600080fd5b6000620000f286828701620000b5565b93505060206200010586828701620000b5565b925050604062000118868287016200009e565b9150509250925092565b60006200012f8262000136565b9050919050565b600073ffffffffffffffffffffffffffffffffffffffff82169050919050565b6000819050919050565b6200016b8162000122565b81146200017757600080fd5b50565b620001858162000156565b81146200019157600080fd5b50565b61136380620001a46000396000f3fe6080604052600436106100865760003560e01c806381d12c581161005957806381d12c581461013a5780638a9cfd551461017e578063c58343ef146101a7578063d7bb99ba146101e4578063fea21ce5146101ee57610086565b80632d8f1adc1461008b5780633fad1834146100bb578063481c6a75146100e6578063767e0b9c14610111575b600080fd5b34801561009757600080fd5b506100a0610217565b6040516100b296959493929190610f12565b60405180910390f35b3480156100c757600080fd5b506100d0610262565b6040516100dd9190610e72565b60405180910390f35b3480156100f257600080fd5b506100fb61026c565b6040516101089190610e35565b60405180910390f35b34801561011d57600080fd5b5061013860048036038101906101339190610c7d565b610290565b005b34801561014657600080fd5b50610161600480360381019061015c9190610c54565b61032b565b604051610175989796959493929190610e8d565b60405180910390f35b34801561018a57600080fd5b506101a560048036038101906101a09190610bed565b610452565b005b3480156101b357600080fd5b506101ce60048036038101906101c99190610c54565b610675565b6040516101db9190610e50565b60405180910390f35b6101ec61082f565b005b3480156101fa57600080fd5b5061021560048036038101906102109190610c54565b6108ff565b005b6000806000806000806003546004546001544760055460008054906101000a900473ffffffffffffffffffffffffffffffffffffffff16955095509550955095509550909192939495565b6000600354905090565b60008054906101000a900473ffffffffffffffffffffffffffffffffffffffff1681565b600060066001846102a191906110e2565b815481106102d8577f4e487b7100000000000000000000000000000000000000000000000000000000600052603260045260246000fd5b906000526020600020906006020190508060050160009054906101000a900460ff161561030457600080fd5b8161032657600181600401600082825461031e9190611001565b925050819055505b505050565b6006818154811061033b57600080fd5b90600052602060002090600602016000915090508060000154908060010160009054906101000a900473ffffffffffffffffffffffffffffffffffffffff169080600201805461038a906111a0565b80601f01602080910402602001604051908101604052809291908181526020018280546103b6906111a0565b80156104035780601f106103d857610100808354040283529160200191610403565b820191906000526020600020905b8154815290600101906020018083116103e657829003601f168201915b5050505050908060030154908060040154908060050160009054906101000a900460ff16908060050160019054906101000a900460ff16908060050160029054906101000a900460ff16905088565b60008054906101000a900473ffffffffffffffffffffffffffffffffffffffff1673ffffffffffffffffffffffffffffffffffffffff163373ffffffffffffffffffffffffffffffffffffffff16146104aa57600080fd5b600360008154809291906104bd906111d2565b91905055506104ca610a42565b8381604001819052508281600001818152505081816020019073ffffffffffffffffffffffffffffffffffffffff16908173ffffffffffffffffffffffffffffffffffffffff168152505060035481606001818152505060008160a0019015159081151581525050600081608001818152505060008160c001901515908115158152505060008160e001901515908115158152505060068190806001815401808255809150506001900390600052602060002090600602016000909190919091506000820151816000015560208201518160010160006101000a81548173ffffffffffffffffffffffffffffffffffffffff021916908373ffffffffffffffffffffffffffffffffffffffff16021790555060408201518160020190805190602001906105f8929190610aa3565b50606082015181600301556080820151816004015560a08201518160050160006101000a81548160ff02191690831515021790555060c08201518160050160016101000a81548160ff02191690831515021790555060e08201518160050160026101000a81548160ff021916908315150217905550505050505050565b61067d610a42565b600682815481106106b7577f4e487b7100000000000000000000000000000000000000000000000000000000600052603260045260246000fd5b906000526020600020906006020160405180610100016040529081600082015481526020016001820160009054906101000a900473ffffffffffffffffffffffffffffffffffffffff1673ffffffffffffffffffffffffffffffffffffffff1673ffffffffffffffffffffffffffffffffffffffff168152602001600282018054610741906111a0565b80601f016020809104026020016040519081016040528092919081815260200182805461076d906111a0565b80156107ba5780601f1061078f576101008083540402835291602001916107ba565b820191906000526020600020905b81548152906001019060200180831161079d57829003601f168201915b5050505050815260200160038201548152602001600482015481526020016005820160009054906101000a900460ff161515151581526020016005820160019054906101000a900460ff161515151581526020016005820160029054906101000a900460ff1615151515815250509050919050565b60015434101561083e57600080fd5b6000600260003373ffffffffffffffffffffffffffffffffffffffff1673ffffffffffffffffffffffffffffffffffffffff1681526020019081526020016000206000015414156108a45760016005600082825461089c9190611001565b925050819055505b34600260003373ffffffffffffffffffffffffffffffffffffffff1673ffffffffffffffffffffffffffffffffffffffff16815260200190815260200160002060000160008282546108f69190611001565b92505081905550565b60008054906101000a900473ffffffffffffffffffffffffffffffffffffffff1673ffffffffffffffffffffffffffffffffffffffff163373ffffffffffffffffffffffffffffffffffffffff161461095757600080fd5b6000600660018361096891906110e2565b8154811061099f577f4e487b7100000000000000000000000000000000000000000000000000000000600052603260045260246000fd5b906000526020600020906006020190508060050160009054906101000a900460ff16156109cb57600080fd5b600060055490506000826004015490506000826064836109eb9190611088565b6109f59190611057565b905060018460050160006101000a81548160ff0219169083151502179055506004548110610a3b5760018460050160016101000a81548160ff0219169083151502179055505b5050505050565b60405180610100016040528060008152602001600073ffffffffffffffffffffffffffffffffffffffff1681526020016060815260200160008152602001600081526020016000151581526020016000151581526020016000151581525090565b828054610aaf906111a0565b90600052602060002090601f016020900481019282610ad15760008555610b18565b82601f10610aea57805160ff1916838001178555610b18565b82800160010185558215610b18579182015b82811115610b17578251825591602001919060010190610afc565b5b509050610b259190610b29565b5090565b5b80821115610b42576000816000905550600101610b2a565b5090565b6000610b59610b5484610fa4565b610f73565b905082815260208101848484011115610b7157600080fd5b610b7c84828561115e565b509392505050565b600081359050610b93816112e8565b92915050565b600081359050610ba8816112ff565b92915050565b600082601f830112610bbf57600080fd5b8135610bcf848260208601610b46565b91505092915050565b600081359050610be781611316565b92915050565b600080600060608486031215610c0257600080fd5b600084013567ffffffffffffffff811115610c1c57600080fd5b610c2886828701610bae565b9350506020610c3986828701610bd8565b9250506040610c4a86828701610b84565b9150509250925092565b600060208284031215610c6657600080fd5b6000610c7484828501610bd8565b91505092915050565b60008060408385031215610c9057600080fd5b6000610c9e85828601610bd8565b9250506020610caf85828601610b99565b9150509250929050565b610cc281611116565b82525050565b610cd181611116565b82525050565b610ce081611128565b82525050565b610cef81611128565b82525050565b6000610d0082610fd4565b610d0a8185610fdf565b9350610d1a81856020860161116d565b610d23816112d7565b840191505092915050565b6000610d3982610fd4565b610d438185610ff0565b9350610d5381856020860161116d565b610d5c816112d7565b840191505092915050565b600061010083016000830151610d806000860182610e17565b506020830151610d936020860182610cb9565b5060408301518482036040860152610dab8282610cf5565b9150506060830151610dc06060860182610e17565b506080830151610dd36080860182610e17565b5060a0830151610de660a0860182610cd7565b5060c0830151610df960c0860182610cd7565b5060e0830151610e0c60e0860182610cd7565b508091505092915050565b610e2081611154565b82525050565b610e2f81611154565b82525050565b6000602082019050610e4a6000830184610cc8565b92915050565b60006020820190508181036000830152610e6a8184610d67565b905092915050565b6000602082019050610e876000830184610e26565b92915050565b600061010082019050610ea3600083018b610e26565b610eb0602083018a610cc8565b8181036040830152610ec28189610d2e565b9050610ed16060830188610e26565b610ede6080830187610e26565b610eeb60a0830186610ce6565b610ef860c0830185610ce6565b610f0560e0830184610ce6565b9998505050505050505050565b600060c082019050610f276000830189610e26565b610f346020830188610e26565b610f416040830187610e26565b610f4e6060830186610e26565b610f5b6080830185610e26565b610f6860a0830184610cc8565b979650505050505050565b6000604051905081810181811067ffffffffffffffff82111715610f9a57610f996112a8565b5b8060405250919050565b600067ffffffffffffffff821115610fbf57610fbe6112a8565b5b601f19601f8301169050602081019050919050565b600081519050919050565b600082825260208201905092915050565b600082825260208201905092915050565b600061100c82611154565b915061101783611154565b9250827fffffffffffffffffffffffffffffffffffffffffffffffffffffffffffffffff0382111561104c5761104b61121b565b5b828201905092915050565b600061106282611154565b915061106d83611154565b92508261107d5761107c61124a565b5b828204905092915050565b600061109382611154565b915061109e83611154565b9250817fffffffffffffffffffffffffffffffffffffffffffffffffffffffffffffffff04831182151516156110d7576110d661121b565b5b828202905092915050565b60006110ed82611154565b91506110f883611154565b92508282101561110b5761110a61121b565b5b828203905092915050565b600061112182611134565b9050919050565b60008115159050919050565b600073ffffffffffffffffffffffffffffffffffffffff82169050919050565b6000819050919050565b82818337600083830152505050565b60005b8381101561118b578082015181840152602081019050611170565b8381111561119a576000848401525b50505050565b600060028204905060018216806111b857607f821691505b602082108114156111cc576111cb611279565b5b50919050565b60006111dd82611154565b91507fffffffffffffffffffffffffffffffffffffffffffffffffffffffffffffffff8214156112105761120f61121b565b5b600182019050919050565b7f4e487b7100000000000000000000000000000000000000000000000000000000600052601160045260246000fd5b7f4e487b7100000000000000000000000000000000000000000000000000000000600052601260045260246000fd5b7f4e487b7100000000000000000000000000000000000000000000000000000000600052602260045260246000fd5b7f4e487b7100000000000000000000000000000000000000000000000000000000600052604160045260246000fd5b6000601f19601f8301169050919050565b6112f181611116565b81146112fc57600080fd5b50565b61130881611128565b811461131357600080fd5b50565b61131f81611154565b811461132a57600080fd5b5056fea26469706673582212207e0fe6557234796115c384b33291059a870541e69135a4c66f5ae7f7991517cd64736f6c63430008000033a2646970667358221220997f5c0bdcbe6c6d01b91e8737eb7f0affe39ea1c929492d823bed9f0da63ecd64736f6c63430008000033","opcodes":"PUSH1 0x80 PUSH1 0x40 MSTORE CALLVALUE DUP1 ISZERO PUSH2 0x10 JUMPI PUSH1 0x0 DUP1 REVERT JUMPDEST POP CALLER PUSH1 0x0 DUP1 PUSH2 0x100 EXP DUP2 SLOAD DUP2 PUSH20 0xFFFFFFFFFFFFFFFFFFFFFFFFFFFFFFFFFFFFFFFF MUL NOT AND SWAP1 DUP4 PUSH20 0xFFFFFFFFFFFFFFFFFFFFFFFFFFFFFFFFFFFFFFFF AND MUL OR SWAP1 SSTORE POP PUSH2 0x1A23 DUP1 PUSH2 0x60 PUSH1 0x0 CODECOPY PUSH1 0x0 RETURN INVALID PUSH1 0x80 PUSH1 0x40 MSTORE CALLVALUE DUP1 ISZERO PUSH2 0x10 JUMPI PUSH1 0x0 DUP1 REVERT JUMPDEST POP PUSH1 0x4 CALLDATASIZE LT PUSH2 0x4C JUMPI PUSH1 0x0 CALLDATALOAD PUSH1 0xE0 SHR DUP1 PUSH4 0x22502268 EQ PUSH2 0x51 JUMPI DUP1 PUSH4 0x339D50A5 EQ PUSH2 0x6D JUMPI DUP1 PUSH4 0x481C6A75 EQ PUSH2 0x9D JUMPI DUP1 PUSH4 0x4ACB9D4F EQ PUSH2 0xBB JUMPI JUMPDEST PUSH1 0x0 DUP1 REVERT JUMPDEST PUSH2 0x6B PUSH1 0x4 DUP1 CALLDATASIZE SUB DUP2 ADD SWAP1 PUSH2 0x66 SWAP2 SWAP1 PUSH2 0x2B9 JUMP JUMPDEST PUSH2 0xD9 JUMP JUMPDEST STOP JUMPDEST PUSH2 0x87 PUSH1 0x4 DUP1 CALLDATASIZE SUB DUP2 ADD SWAP1 PUSH2 0x82 SWAP2 SWAP1 PUSH2 0x290 JUMP JUMPDEST PUSH2 0x17D JUMP JUMPDEST PUSH1 0x40 MLOAD PUSH2 0x94 SWAP2 SWAP1 PUSH2 0x3E4 JUMP JUMPDEST PUSH1 0x40 MLOAD DUP1 SWAP2 SUB SWAP1 RETURN JUMPDEST PUSH2 0xA5 PUSH2 0x1BC JUMP JUMPDEST PUSH1 0x40 MLOAD PUSH2 0xB2 SWAP2 SWAP1 PUSH2 0x3A7 JUMP JUMPDEST PUSH1 0x40 MLOAD DUP1 SWAP2 SUB SWAP1 RETURN JUMPDEST PUSH2 0xC3 PUSH2 0x1E0 JUMP JUMPDEST PUSH1 0x40 MLOAD PUSH2 0xD0 SWAP2 SWAP1 PUSH2 0x3C2 JUMP JUMPDEST PUSH1 0x40 MLOAD DUP1 SWAP2 SUB SWAP1 RETURN JUMPDEST PUSH1 0x0 DUP3 DUP3 CALLER PUSH1 0x40 MLOAD PUSH2 0xEA SWAP1 PUSH2 0x26E JUMP JUMPDEST PUSH2 0xF6 SWAP4 SWAP3 SWAP2 SWAP1 PUSH2 0x3FF JUMP JUMPDEST PUSH1 0x40 MLOAD DUP1 SWAP2 SUB SWAP1 PUSH1 0x0 CREATE DUP1 ISZERO DUP1 ISZERO PUSH2 0x112 JUMPI RETURNDATASIZE PUSH1 0x0 DUP1 RETURNDATACOPY RETURNDATASIZE PUSH1 0x0 REVERT JUMPDEST POP SWAP1 POP PUSH1 0x1 DUP2 SWAP1 DUP1 PUSH1 0x1 DUP2 SLOAD ADD DUP1 DUP3 SSTORE DUP1 SWAP2 POP POP PUSH1 0x1 SWAP1 SUB SWAP1 PUSH1 0x0 MSTORE PUSH1 0x20 PUSH1 0x0 KECCAK256 ADD PUSH1 0x0 SWAP1 SWAP2 SWAP1 SWAP2 SWAP1 SWAP2 PUSH2 0x100 EXP DUP2 SLOAD DUP2 PUSH20 0xFFFFFFFFFFFFFFFFFFFFFFFFFFFFFFFFFFFFFFFF MUL NOT AND SWAP1 DUP4 PUSH20 0xFFFFFFFFFFFFFFFFFFFFFFFFFFFFFFFFFFFFFFFF AND MUL OR SWAP1 SSTORE POP POP POP POP JUMP JUMPDEST PUSH1 0x1 DUP2 DUP2 SLOAD DUP2 LT PUSH2 0x18D JUMPI PUSH1 0x0 DUP1 REVERT JUMPDEST SWAP1 PUSH1 0x0 MSTORE PUSH1 0x20 PUSH1 0x0 KECCAK256 ADD PUSH1 0x0 SWAP2 POP SLOAD SWAP1 PUSH2 0x100 EXP SWAP1 DIV PUSH20 0xFFFFFFFFFFFFFFFFFFFFFFFFFFFFFFFFFFFFFFFF AND DUP2 JUMP JUMPDEST PUSH1 0x0 DUP1 SLOAD SWAP1 PUSH2 0x100 EXP SWAP1 DIV PUSH20 0xFFFFFFFFFFFFFFFFFFFFFFFFFFFFFFFFFFFFFFFF AND DUP2 JUMP JUMPDEST PUSH1 0x60 PUSH1 0x1 DUP1 SLOAD DUP1 PUSH1 0x20 MUL PUSH1 0x20 ADD PUSH1 0x40 MLOAD SWAP1 DUP2 ADD PUSH1 0x40 MSTORE DUP1 SWAP3 SWAP2 SWAP1 DUP2 DUP2 MSTORE PUSH1 0x20 ADD DUP3 DUP1 SLOAD DUP1 ISZERO PUSH2 0x264 JUMPI PUSH1 0x20 MUL DUP3 ADD SWAP2 SWAP1 PUSH1 0x0 MSTORE PUSH1 0x20 PUSH1 0x0 KECCAK256 SWAP1 JUMPDEST DUP2 PUSH1 0x0 SWAP1 SLOAD SWAP1 PUSH2 0x100 EXP SWAP1 DIV PUSH20 0xFFFFFFFFFFFFFFFFFFFFFFFFFFFFFFFFFFFFFFFF AND PUSH20 0xFFFFFFFFFFFFFFFFFFFFFFFFFFFFFFFFFFFFFFFF AND DUP2 MSTORE PUSH1 0x20 ADD SWAP1 PUSH1 0x1 ADD SWAP1 DUP1 DUP4 GT PUSH2 0x21A JUMPI JUMPDEST POP POP POP POP POP SWAP1 POP SWAP1 JUMP JUMPDEST PUSH2 0x1507 DUP1 PUSH2 0x4E7 DUP4 CODECOPY ADD SWAP1 JUMP JUMPDEST PUSH1 0x0 DUP2 CALLDATALOAD SWAP1 POP PUSH2 0x28A DUP2 PUSH2 0x4CF JUMP JUMPDEST SWAP3 SWAP2 POP POP JUMP JUMPDEST PUSH1 0x0 PUSH1 0x20 DUP3 DUP5 SUB SLT ISZERO PUSH2 0x2A2 JUMPI PUSH1 0x0 DUP1 REVERT JUMPDEST PUSH1 0x0 PUSH2 0x2B0 DUP5 DUP3 DUP6 ADD PUSH2 0x27B JUMP JUMPDEST SWAP2 POP POP SWAP3 SWAP2 POP POP JUMP JUMPDEST PUSH1 0x0 DUP1 PUSH1 0x40 DUP4 DUP6 SUB SLT ISZERO PUSH2 0x2CC JUMPI PUSH1 0x0 DUP1 REVERT JUMPDEST PUSH1 0x0 PUSH2 0x2DA DUP6 DUP3 DUP7 ADD PUSH2 0x27B JUMP JUMPDEST SWAP3 POP POP PUSH1 0x20 PUSH2 0x2EB DUP6 DUP3 DUP7 ADD PUSH2 0x27B JUMP JUMPDEST SWAP2 POP POP SWAP3 POP SWAP3 SWAP1 POP JUMP JUMPDEST PUSH1 0x0 PUSH2 0x301 DUP4 DUP4 PUSH2 0x37A JUMP JUMPDEST PUSH1 0x20 DUP4 ADD SWAP1 POP SWAP3 SWAP2 POP POP JUMP JUMPDEST PUSH2 0x316 DUP2 PUSH2 0x46F JUMP JUMPDEST DUP3 MSTORE POP POP JUMP JUMPDEST PUSH1 0x0 PUSH2 0x327 DUP3 PUSH2 0x446 JUMP JUMPDEST PUSH2 0x331 DUP2 DUP6 PUSH2 0x45E JUMP JUMPDEST SWAP4 POP PUSH2 0x33C DUP4 PUSH2 0x436 JUMP JUMPDEST DUP1 PUSH1 0x0 JUMPDEST DUP4 DUP2 LT ISZERO PUSH2 0x36D JUMPI DUP2 MLOAD PUSH2 0x354 DUP9 DUP3 PUSH2 0x2F5 JUMP JUMPDEST SWAP8 POP PUSH2 0x35F DUP4 PUSH2 0x451 JUMP JUMPDEST SWAP3 POP POP PUSH1 0x1 DUP2 ADD SWAP1 POP PUSH2 0x340 JUMP JUMPDEST POP DUP6 SWAP4 POP POP POP POP SWAP3 SWAP2 POP POP JUMP JUMPDEST PUSH2 0x383 DUP2 PUSH2 0x4AB JUMP JUMPDEST DUP3 MSTORE POP POP JUMP JUMPDEST PUSH2 0x392 DUP2 PUSH2 0x4AB JUMP JUMPDEST DUP3 MSTORE POP POP JUMP JUMPDEST PUSH2 0x3A1 DUP2 PUSH2 0x4A1 JUMP JUMPDEST DUP3 MSTORE POP POP JUMP JUMPDEST PUSH1 0x0 PUSH1 0x20 DUP3 ADD SWAP1 POP PUSH2 0x3BC PUSH1 0x0 DUP4 ADD DUP5 PUSH2 0x30D JUMP JUMPDEST SWAP3 SWAP2 POP POP JUMP JUMPDEST PUSH1 0x0 PUSH1 0x20 DUP3 ADD SWAP1 POP DUP2 DUP2 SUB PUSH1 0x0 DUP4 ADD MSTORE PUSH2 0x3DC DUP2 DUP5 PUSH2 0x31C JUMP JUMPDEST SWAP1 POP SWAP3 SWAP2 POP POP JUMP JUMPDEST PUSH1 0x0 PUSH1 0x20 DUP3 ADD SWAP1 POP PUSH2 0x3F9 PUSH1 0x0 DUP4 ADD DUP5 PUSH2 0x389 JUMP JUMPDEST SWAP3 SWAP2 POP POP JUMP JUMPDEST PUSH1 0x0 PUSH1 0x60 DUP3 ADD SWAP1 POP PUSH2 0x414 PUSH1 0x0 DUP4 ADD DUP7 PUSH2 0x398 JUMP JUMPDEST PUSH2 0x421 PUSH1 0x20 DUP4 ADD DUP6 PUSH2 0x398 JUMP JUMPDEST PUSH2 0x42E PUSH1 0x40 DUP4 ADD DUP5 PUSH2 0x30D JUMP JUMPDEST SWAP5 SWAP4 POP POP POP POP JUMP JUMPDEST PUSH1 0x0 DUP2 SWAP1 POP PUSH1 0x20 DUP3 ADD SWAP1 POP SWAP2 SWAP1 POP JUMP JUMPDEST PUSH1 0x0 DUP2 MLOAD SWAP1 POP SWAP2 SWAP1 POP JUMP JUMPDEST PUSH1 0x0 PUSH1 0x20 DUP3 ADD SWAP1 POP SWAP2 SWAP1 POP JUMP JUMPDEST PUSH1 0x0 DUP3 DUP3 MSTORE PUSH1 0x20 DUP3 ADD SWAP1 POP SWAP3 SWAP2 POP POP JUMP JUMPDEST PUSH1 0x0 PUSH2 0x47A DUP3 PUSH2 0x481 JUMP JUMPDEST SWAP1 POP SWAP2 SWAP1 POP JUMP JUMPDEST PUSH1 0x0 PUSH20 0xFFFFFFFFFFFFFFFFFFFFFFFFFFFFFFFFFFFFFFFF DUP3 AND SWAP1 POP SWAP2 SWAP1 POP JUMP JUMPDEST PUSH1 0x0 DUP2 SWAP1 POP SWAP2 SWAP1 POP JUMP JUMPDEST PUSH1 0x0 PUSH2 0x4B6 DUP3 PUSH2 0x4BD JUMP JUMPDEST SWAP1 POP SWAP2 SWAP1 POP JUMP JUMPDEST PUSH1 0x0 PUSH2 0x4C8 DUP3 PUSH2 0x481 JUMP JUMPDEST SWAP1 POP SWAP2 SWAP1 POP JUMP JUMPDEST PUSH2 0x4D8 DUP2 PUSH2 0x4A1 JUMP JUMPDEST DUP2 EQ PUSH2 0x4E3 JUMPI PUSH1 0x0 DUP1 REVERT JUMPDEST POP JUMP INVALID PUSH1 0x80 PUSH1 0x40 MSTORE CALLVALUE DUP1 ISZERO PUSH3 0x11 JUMPI PUSH1 0x0 DUP1 REVERT JUMPDEST POP PUSH1 0x40 MLOAD PUSH3 0x1507 CODESIZE SUB DUP1 PUSH3 0x1507 DUP4 CODECOPY DUP2 DUP2 ADD PUSH1 0x40 MSTORE DUP2 ADD SWAP1 PUSH3 0x37 SWAP2 SWAP1 PUSH3 0xCC JUMP JUMPDEST DUP1 PUSH1 0x0 DUP1 PUSH2 0x100 EXP DUP2 SLOAD DUP2 PUSH20 0xFFFFFFFFFFFFFFFFFFFFFFFFFFFFFFFFFFFFFFFF MUL NOT AND SWAP1 DUP4 PUSH20 0xFFFFFFFFFFFFFFFFFFFFFFFFFFFFFFFFFFFFFFFF AND MUL OR SWAP1 SSTORE POP DUP3 PUSH1 0x1 DUP2 SWAP1 SSTORE POP DUP2 PUSH1 0x4 DUP2 SWAP1 SSTORE POP PUSH1 0x0 PUSH1 0x3 DUP2 SWAP1 SSTORE POP PUSH1 0x0 PUSH1 0x5 DUP2 SWAP1 SSTORE POP POP POP POP PUSH3 0x194 JUMP JUMPDEST PUSH1 0x0 DUP2 MLOAD SWAP1 POP PUSH3 0xAF DUP2 PUSH3 0x160 JUMP JUMPDEST SWAP3 SWAP2 POP POP JUMP JUMPDEST PUSH1 0x0 DUP2 MLOAD SWAP1 POP PUSH3 0xC6 DUP2 PUSH3 0x17A JUMP JUMPDEST SWAP3 SWAP2 POP POP JUMP JUMPDEST PUSH1 0x0 DUP1 PUSH1 0x0 PUSH1 0x60 DUP5 DUP7 SUB SLT ISZERO PUSH3 0xE2 JUMPI PUSH1 0x0 DUP1 REVERT JUMPDEST PUSH1 0x0 PUSH3 0xF2 DUP7 DUP3 DUP8 ADD PUSH3 0xB5 JUMP JUMPDEST SWAP4 POP POP PUSH1 0x20 PUSH3 0x105 DUP7 DUP3 DUP8 ADD PUSH3 0xB5 JUMP JUMPDEST SWAP3 POP POP PUSH1 0x40 PUSH3 0x118 DUP7 DUP3 DUP8 ADD PUSH3 0x9E JUMP JUMPDEST SWAP2 POP POP SWAP3 POP SWAP3 POP SWAP3 JUMP JUMPDEST PUSH1 0x0 PUSH3 0x12F DUP3 PUSH3 0x136 JUMP JUMPDEST SWAP1 POP SWAP2 SWAP1 POP JUMP JUMPDEST PUSH1 0x0 PUSH20 0xFFFFFFFFFFFFFFFFFFFFFFFFFFFFFFFFFFFFFFFF DUP3 AND SWAP1 POP SWAP2 SWAP1 POP JUMP JUMPDEST PUSH1 0x0 DUP2 SWAP1 POP SWAP2 SWAP1 POP JUMP JUMPDEST PUSH3 0x16B DUP2 PUSH3 0x122 JUMP JUMPDEST DUP2 EQ PUSH3 0x177 JUMPI PUSH1 0x0 DUP1 REVERT JUMPDEST POP JUMP JUMPDEST PUSH3 0x185 DUP2 PUSH3 0x156 JUMP JUMPDEST DUP2 EQ PUSH3 0x191 JUMPI PUSH1 0x0 DUP1 REVERT JUMPDEST POP JUMP JUMPDEST PUSH2 0x1363 DUP1 PUSH3 0x1A4 PUSH1 0x0 CODECOPY PUSH1 0x0 RETURN INVALID PUSH1 0x80 PUSH1 0x40 MSTORE PUSH1 0x4 CALLDATASIZE LT PUSH2 0x86 JUMPI PUSH1 0x0 CALLDATALOAD PUSH1 0xE0 SHR DUP1 PUSH4 0x81D12C58 GT PUSH2 0x59 JUMPI DUP1 PUSH4 0x81D12C58 EQ PUSH2 0x13A JUMPI DUP1 PUSH4 0x8A9CFD55 EQ PUSH2 0x17E JUMPI DUP1 PUSH4 0xC58343EF EQ PUSH2 0x1A7 JUMPI DUP1 PUSH4 0xD7BB99BA EQ PUSH2 0x1E4 JUMPI DUP1 PUSH4 0xFEA21CE5 EQ PUSH2 0x1EE JUMPI PUSH2 0x86 JUMP JUMPDEST DUP1 PUSH4 0x2D8F1ADC EQ PUSH2 0x8B JUMPI DUP1 PUSH4 0x3FAD1834 EQ PUSH2 0xBB JUMPI DUP1 PUSH4 0x481C6A75 EQ PUSH2 0xE6 JUMPI DUP1 PUSH4 0x767E0B9C EQ PUSH2 0x111 JUMPI JUMPDEST PUSH1 0x0 DUP1 REVERT JUMPDEST CALLVALUE DUP1 ISZERO PUSH2 0x97 JUMPI PUSH1 0x0 DUP1 REVERT JUMPDEST POP PUSH2 0xA0 PUSH2 0x217 JUMP JUMPDEST PUSH1 0x40 MLOAD PUSH2 0xB2 SWAP7 SWAP6 SWAP5 SWAP4 SWAP3 SWAP2 SWAP1 PUSH2 0xF12 JUMP JUMPDEST PUSH1 0x40 MLOAD DUP1 SWAP2 SUB SWAP1 RETURN JUMPDEST CALLVALUE DUP1 ISZERO PUSH2 0xC7 JUMPI PUSH1 0x0 DUP1 REVERT JUMPDEST POP PUSH2 0xD0 PUSH2 0x262 JUMP JUMPDEST PUSH1 0x40 MLOAD PUSH2 0xDD SWAP2 SWAP1 PUSH2 0xE72 JUMP JUMPDEST PUSH1 0x40 MLOAD DUP1 SWAP2 SUB SWAP1 RETURN JUMPDEST CALLVALUE DUP1 ISZERO PUSH2 0xF2 JUMPI PUSH1 0x0 DUP1 REVERT JUMPDEST POP PUSH2 0xFB PUSH2 0x26C JUMP JUMPDEST PUSH1 0x40 MLOAD PUSH2 0x108 SWAP2 SWAP1 PUSH2 0xE35 JUMP JUMPDEST PUSH1 0x40 MLOAD DUP1 SWAP2 SUB SWAP1 RETURN JUMPDEST CALLVALUE DUP1 ISZERO PUSH2 0x11D JUMPI PUSH1 0x0 DUP1 REVERT JUMPDEST POP PUSH2 0x138 PUSH1 0x4 DUP1 CALLDATASIZE SUB DUP2 ADD SWAP1 PUSH2 0x133 SWAP2 SWAP1 PUSH2 0xC7D JUMP JUMPDEST PUSH2 0x290 JUMP JUMPDEST STOP JUMPDEST CALLVALUE DUP1 ISZERO PUSH2 0x146 JUMPI PUSH1 0x0 DUP1 REVERT JUMPDEST POP PUSH2 0x161 PUSH1 0x4 DUP1 CALLDATASIZE SUB DUP2 ADD SWAP1 PUSH2 0x15C SWAP2 SWAP1 PUSH2 0xC54 JUMP JUMPDEST PUSH2 0x32B JUMP JUMPDEST PUSH1 0x40 MLOAD PUSH2 0x175 SWAP9 SWAP8 SWAP7 SWAP6 SWAP5 SWAP4 SWAP3 SWAP2 SWAP1 PUSH2 0xE8D JUMP JUMPDEST PUSH1 0x40 MLOAD DUP1 SWAP2 SUB SWAP1 RETURN JUMPDEST CALLVALUE DUP1 ISZERO PUSH2 0x18A JUMPI PUSH1 0x0 DUP1 REVERT JUMPDEST POP PUSH2 0x1A5 PUSH1 0x4 DUP1 CALLDATASIZE SUB DUP2 ADD SWAP1 PUSH2 0x1A0 SWAP2 SWAP1 PUSH2 0xBED JUMP JUMPDEST PUSH2 0x452 JUMP JUMPDEST STOP JUMPDEST CALLVALUE DUP1 ISZERO PUSH2 0x1B3 JUMPI PUSH1 0x0 DUP1 REVERT JUMPDEST POP PUSH2 0x1CE PUSH1 0x4 DUP1 CALLDATASIZE SUB DUP2 ADD SWAP1 PUSH2 0x1C9 SWAP2 SWAP1 PUSH2 0xC54 JUMP JUMPDEST PUSH2 0x675 JUMP JUMPDEST PUSH1 0x40 MLOAD PUSH2 0x1DB SWAP2 SWAP1 PUSH2 0xE50 JUMP JUMPDEST PUSH1 0x40 MLOAD DUP1 SWAP2 SUB SWAP1 RETURN JUMPDEST PUSH2 0x1EC PUSH2 0x82F JUMP JUMPDEST STOP JUMPDEST CALLVALUE DUP1 ISZERO PUSH2 0x1FA JUMPI PUSH1 0x0 DUP1 REVERT JUMPDEST POP PUSH2 0x215 PUSH1 0x4 DUP1 CALLDATASIZE SUB DUP2 ADD SWAP1 PUSH2 0x210 SWAP2 SWAP1 PUSH2 0xC54 JUMP JUMPDEST PUSH2 0x8FF JUMP JUMPDEST STOP JUMPDEST PUSH1 0x0 DUP1 PUSH1 0x0 DUP1 PUSH1 0x0 DUP1 PUSH1 0x3 SLOAD PUSH1 0x4 SLOAD PUSH1 0x1 SLOAD SELFBALANCE PUSH1 0x5 SLOAD PUSH1 0x0 DUP1 SLOAD SWAP1 PUSH2 0x100 EXP SWAP1 DIV PUSH20 0xFFFFFFFFFFFFFFFFFFFFFFFFFFFFFFFFFFFFFFFF AND SWAP6 POP SWAP6 POP SWAP6 POP SWAP6 POP SWAP6 POP SWAP6 POP SWAP1 SWAP2 SWAP3 SWAP4 SWAP5 SWAP6 JUMP JUMPDEST PUSH1 0x0 PUSH1 0x3 SLOAD SWAP1 POP SWAP1 JUMP JUMPDEST PUSH1 0x0 DUP1 SLOAD SWAP1 PUSH2 0x100 EXP SWAP1 DIV PUSH20 0xFFFFFFFFFFFFFFFFFFFFFFFFFFFFFFFFFFFFFFFF AND DUP2 JUMP JUMPDEST PUSH1 0x0 PUSH1 0x6 PUSH1 0x1 DUP5 PUSH2 0x2A1 SWAP2 SWAP1 PUSH2 0x10E2 JUMP JUMPDEST DUP2 SLOAD DUP2 LT PUSH2 0x2D8 JUMPI PUSH32 0x4E487B7100000000000000000000000000000000000000000000000000000000 PUSH1 0x0 MSTORE PUSH1 0x32 PUSH1 0x4 MSTORE PUSH1 0x24 PUSH1 0x0 REVERT JUMPDEST SWAP1 PUSH1 0x0 MSTORE PUSH1 0x20 PUSH1 0x0 KECCAK256 SWAP1 PUSH1 0x6 MUL ADD SWAP1 POP DUP1 PUSH1 0x5 ADD PUSH1 0x0 SWAP1 SLOAD SWAP1 PUSH2 0x100 EXP SWAP1 DIV PUSH1 0xFF AND ISZERO PUSH2 0x304 JUMPI PUSH1 0x0 DUP1 REVERT JUMPDEST DUP2 PUSH2 0x326 JUMPI PUSH1 0x1 DUP2 PUSH1 0x4 ADD PUSH1 0x0 DUP3 DUP3 SLOAD PUSH2 0x31E SWAP2 SWAP1 PUSH2 0x1001 JUMP JUMPDEST SWAP3 POP POP DUP2 SWAP1 SSTORE POP JUMPDEST POP POP POP JUMP JUMPDEST PUSH1 0x6 DUP2 DUP2 SLOAD DUP2 LT PUSH2 0x33B JUMPI PUSH1 0x0 DUP1 REVERT JUMPDEST SWAP1 PUSH1 0x0 MSTORE PUSH1 0x20 PUSH1 0x0 KECCAK256 SWAP1 PUSH1 0x6 MUL ADD PUSH1 0x0 SWAP2 POP SWAP1 POP DUP1 PUSH1 0x0 ADD SLOAD SWAP1 DUP1 PUSH1 0x1 ADD PUSH1 0x0 SWAP1 SLOAD SWAP1 PUSH2 0x100 EXP SWAP1 DIV PUSH20 0xFFFFFFFFFFFFFFFFFFFFFFFFFFFFFFFFFFFFFFFF AND SWAP1 DUP1 PUSH1 0x2 ADD DUP1 SLOAD PUSH2 0x38A SWAP1 PUSH2 0x11A0 JUMP JUMPDEST DUP1 PUSH1 0x1F ADD PUSH1 0x20 DUP1 SWAP2 DIV MUL PUSH1 0x20 ADD PUSH1 0x40 MLOAD SWAP1 DUP2 ADD PUSH1 0x40 MSTORE DUP1 SWAP3 SWAP2 SWAP1 DUP2 DUP2 MSTORE PUSH1 0x20 ADD DUP3 DUP1 SLOAD PUSH2 0x3B6 SWAP1 PUSH2 0x11A0 JUMP JUMPDEST DUP1 ISZERO PUSH2 0x403 JUMPI DUP1 PUSH1 0x1F LT PUSH2 0x3D8 JUMPI PUSH2 0x100 DUP1 DUP4 SLOAD DIV MUL DUP4 MSTORE SWAP2 PUSH1 0x20 ADD SWAP2 PUSH2 0x403 JUMP JUMPDEST DUP3 ADD SWAP2 SWAP1 PUSH1 0x0 MSTORE PUSH1 0x20 PUSH1 0x0 KECCAK256 SWAP1 JUMPDEST DUP2 SLOAD DUP2 MSTORE SWAP1 PUSH1 0x1 ADD SWAP1 PUSH1 0x20 ADD DUP1 DUP4 GT PUSH2 0x3E6 JUMPI DUP3 SWAP1 SUB PUSH1 0x1F AND DUP3 ADD SWAP2 JUMPDEST POP POP POP POP POP SWAP1 DUP1 PUSH1 0x3 ADD SLOAD SWAP1 DUP1 PUSH1 0x4 ADD SLOAD SWAP1 DUP1 PUSH1 0x5 ADD PUSH1 0x0 SWAP1 SLOAD SWAP1 PUSH2 0x100 EXP SWAP1 DIV PUSH1 0xFF AND SWAP1 DUP1 PUSH1 0x5 ADD PUSH1 0x1 SWAP1 SLOAD SWAP1 PUSH2 0x100 EXP SWAP1 DIV PUSH1 0xFF AND SWAP1 DUP1 PUSH1 0x5 ADD PUSH1 0x2 SWAP1 SLOAD SWAP1 PUSH2 0x100 EXP SWAP1 DIV PUSH1 0xFF AND SWAP1 POP DUP9 JUMP JUMPDEST PUSH1 0x0 DUP1 SLOAD SWAP1 PUSH2 0x100 EXP SWAP1 DIV PUSH20 0xFFFFFFFFFFFFFFFFFFFFFFFFFFFFFFFFFFFFFFFF AND PUSH20 0xFFFFFFFFFFFFFFFFFFFFFFFFFFFFFFFFFFFFFFFF AND CALLER PUSH20 0xFFFFFFFFFFFFFFFFFFFFFFFFFFFFFFFFFFFFFFFF AND EQ PUSH2 0x4AA JUMPI PUSH1 0x0 DUP1 REVERT JUMPDEST PUSH1 0x3 PUSH1 0x0 DUP2 SLOAD DUP1 SWAP3 SWAP2 SWAP1 PUSH2 0x4BD SWAP1 PUSH2 0x11D2 JUMP JUMPDEST SWAP2 SWAP1 POP SSTORE POP PUSH2 0x4CA PUSH2 0xA42 JUMP JUMPDEST DUP4 DUP2 PUSH1 0x40 ADD DUP2 SWAP1 MSTORE POP DUP3 DUP2 PUSH1 0x0 ADD DUP2 DUP2 MSTORE POP POP DUP2 DUP2 PUSH1 0x20 ADD SWAP1 PUSH20 0xFFFFFFFFFFFFFFFFFFFFFFFFFFFFFFFFFFFFFFFF AND SWAP1 DUP2 PUSH20 0xFFFFFFFFFFFFFFFFFFFFFFFFFFFFFFFFFFFFFFFF AND DUP2 MSTORE POP POP PUSH1 0x3 SLOAD DUP2 PUSH1 0x60 ADD DUP2 DUP2 MSTORE POP POP PUSH1 0x0 DUP2 PUSH1 0xA0 ADD SWAP1 ISZERO ISZERO SWAP1 DUP2 ISZERO ISZERO DUP2 MSTORE POP POP PUSH1 0x0 DUP2 PUSH1 0x80 ADD DUP2 DUP2 MSTORE POP POP PUSH1 0x0 DUP2 PUSH1 0xC0 ADD SWAP1 ISZERO ISZERO SWAP1 DUP2 ISZERO ISZERO DUP2 MSTORE POP POP PUSH1 0x0 DUP2 PUSH1 0xE0 ADD SWAP1 ISZERO ISZERO SWAP1 DUP2 ISZERO ISZERO DUP2 MSTORE POP POP PUSH1 0x6 DUP2 SWAP1 DUP1 PUSH1 0x1 DUP2 SLOAD ADD DUP1 DUP3 SSTORE DUP1 SWAP2 POP POP PUSH1 0x1 SWAP1 SUB SWAP1 PUSH1 0x0 MSTORE PUSH1 0x20 PUSH1 0x0 KECCAK256 SWAP1 PUSH1 0x6 MUL ADD PUSH1 0x0 SWAP1 SWAP2 SWAP1 SWAP2 SWAP1 SWAP2 POP PUSH1 0x0 DUP3 ADD MLOAD DUP2 PUSH1 0x0 ADD SSTORE PUSH1 0x20 DUP3 ADD MLOAD DUP2 PUSH1 0x1 ADD PUSH1 0x0 PUSH2 0x100 EXP DUP2 SLOAD DUP2 PUSH20 0xFFFFFFFFFFFFFFFFFFFFFFFFFFFFFFFFFFFFFFFF MUL NOT AND SWAP1 DUP4 PUSH20 0xFFFFFFFFFFFFFFFFFFFFFFFFFFFFFFFFFFFFFFFF AND MUL OR SWAP1 SSTORE POP PUSH1 0x40 DUP3 ADD MLOAD DUP2 PUSH1 0x2 ADD SWAP1 DUP1 MLOAD SWAP1 PUSH1 0x20 ADD SWAP1 PUSH2 0x5F8 SWAP3 SWAP2 SWAP1 PUSH2 0xAA3 JUMP JUMPDEST POP PUSH1 0x60 DUP3 ADD MLOAD DUP2 PUSH1 0x3 ADD SSTORE PUSH1 0x80 DUP3 ADD MLOAD DUP2 PUSH1 0x4 ADD SSTORE PUSH1 0xA0 DUP3 ADD MLOAD DUP2 PUSH1 0x5 ADD PUSH1 0x0 PUSH2 0x100 EXP DUP2 SLOAD DUP2 PUSH1 0xFF MUL NOT AND SWAP1 DUP4 ISZERO ISZERO MUL OR SWAP1 SSTORE POP PUSH1 0xC0 DUP3 ADD MLOAD DUP2 PUSH1 0x5 ADD PUSH1 0x1 PUSH2 0x100 EXP DUP2 SLOAD DUP2 PUSH1 0xFF MUL NOT AND SWAP1 DUP4 ISZERO ISZERO MUL OR SWAP1 SSTORE POP PUSH1 0xE0 DUP3 ADD MLOAD DUP2 PUSH1 0x5 ADD PUSH1 0x2 PUSH2 0x100 EXP DUP2 SLOAD DUP2 PUSH1 0xFF MUL NOT AND SWAP1 DUP4 ISZERO ISZERO MUL OR SWAP1 SSTORE POP POP POP POP POP POP POP JUMP JUMPDEST PUSH2 0x67D PUSH2 0xA42 JUMP JUMPDEST PUSH1 0x6 DUP3 DUP2 SLOAD DUP2 LT PUSH2 0x6B7 JUMPI PUSH32 0x4E487B7100000000000000000000000000000000000000000000000000000000 PUSH1 0x0 MSTORE PUSH1 0x32 PUSH1 0x4 MSTORE PUSH1 0x24 PUSH1 0x0 REVERT JUMPDEST SWAP1 PUSH1 0x0 MSTORE PUSH1 0x20 PUSH1 0x0 KECCAK256 SWAP1 PUSH1 0x6 MUL ADD PUSH1 0x40 MLOAD DUP1 PUSH2 0x100 ADD PUSH1 0x40 MSTORE SWAP1 DUP2 PUSH1 0x0 DUP3 ADD SLOAD DUP2 MSTORE PUSH1 0x20 ADD PUSH1 0x1 DUP3 ADD PUSH1 0x0 SWAP1 SLOAD SWAP1 PUSH2 0x100 EXP SWAP1 DIV PUSH20 0xFFFFFFFFFFFFFFFFFFFFFFFFFFFFFFFFFFFFFFFF AND PUSH20 0xFFFFFFFFFFFFFFFFFFFFFFFFFFFFFFFFFFFFFFFF AND PUSH20 0xFFFFFFFFFFFFFFFFFFFFFFFFFFFFFFFFFFFFFFFF AND DUP2 MSTORE PUSH1 0x20 ADD PUSH1 0x2 DUP3 ADD DUP1 SLOAD PUSH2 0x741 SWAP1 PUSH2 0x11A0 JUMP JUMPDEST DUP1 PUSH1 0x1F ADD PUSH1 0x20 DUP1 SWAP2 DIV MUL PUSH1 0x20 ADD PUSH1 0x40 MLOAD SWAP1 DUP2 ADD PUSH1 0x40 MSTORE DUP1 SWAP3 SWAP2 SWAP1 DUP2 DUP2 MSTORE PUSH1 0x20 ADD DUP3 DUP1 SLOAD PUSH2 0x76D SWAP1 PUSH2 0x11A0 JUMP JUMPDEST DUP1 ISZERO PUSH2 0x7BA JUMPI DUP1 PUSH1 0x1F LT PUSH2 0x78F JUMPI PUSH2 0x100 DUP1 DUP4 SLOAD DIV MUL DUP4 MSTORE SWAP2 PUSH1 0x20 ADD SWAP2 PUSH2 0x7BA JUMP JUMPDEST DUP3 ADD SWAP2 SWAP1 PUSH1 0x0 MSTORE PUSH1 0x20 PUSH1 0x0 KECCAK256 SWAP1 JUMPDEST DUP2 SLOAD DUP2 MSTORE SWAP1 PUSH1 0x1 ADD SWAP1 PUSH1 0x20 ADD DUP1 DUP4 GT PUSH2 0x79D JUMPI DUP3 SWAP1 SUB PUSH1 0x1F AND DUP3 ADD SWAP2 JUMPDEST POP POP POP POP POP DUP2 MSTORE PUSH1 0x20 ADD PUSH1 0x3 DUP3 ADD SLOAD DUP2 MSTORE PUSH1 0x20 ADD PUSH1 0x4 DUP3 ADD SLOAD DUP2 MSTORE PUSH1 0x20 ADD PUSH1 0x5 DUP3 ADD PUSH1 0x0 SWAP1 SLOAD SWAP1 PUSH2 0x100 EXP SWAP1 DIV PUSH1 0xFF AND ISZERO ISZERO ISZERO ISZERO DUP2 MSTORE PUSH1 0x20 ADD PUSH1 0x5 DUP3 ADD PUSH1 0x1 SWAP1 SLOAD SWAP1 PUSH2 0x100 EXP SWAP1 DIV PUSH1 0xFF AND ISZERO ISZERO ISZERO ISZERO DUP2 MSTORE PUSH1 0x20 ADD PUSH1 0x5 DUP3 ADD PUSH1 0x2 SWAP1 SLOAD SWAP1 PUSH2 0x100 EXP SWAP1 DIV PUSH1 0xFF AND ISZERO ISZERO ISZERO ISZERO DUP2 MSTORE POP POP SWAP1 POP SWAP2 SWAP1 POP JUMP JUMPDEST PUSH1 0x1 SLOAD CALLVALUE LT ISZERO PUSH2 0x83E JUMPI PUSH1 0x0 DUP1 REVERT JUMPDEST PUSH1 0x0 PUSH1 0x2 PUSH1 0x0 CALLER PUSH20 0xFFFFFFFFFFFFFFFFFFFFFFFFFFFFFFFFFFFFFFFF AND PUSH20 0xFFFFFFFFFFFFFFFFFFFFFFFFFFFFFFFFFFFFFFFF AND DUP2 MSTORE PUSH1 0x20 ADD SWAP1 DUP2 MSTORE PUSH1 0x20 ADD PUSH1 0x0 KECCAK256 PUSH1 0x0 ADD SLOAD EQ ISZERO PUSH2 0x8A4 JUMPI PUSH1 0x1 PUSH1 0x5 PUSH1 0x0 DUP3 DUP3 SLOAD PUSH2 0x89C SWAP2 SWAP1 PUSH2 0x1001 JUMP JUMPDEST SWAP3 POP POP DUP2 SWAP1 SSTORE POP JUMPDEST CALLVALUE PUSH1 0x2 PUSH1 0x0 CALLER PUSH20 0xFFFFFFFFFFFFFFFFFFFFFFFFFFFFFFFFFFFFFFFF AND PUSH20 0xFFFFFFFFFFFFFFFFFFFFFFFFFFFFFFFFFFFFFFFF AND DUP2 MSTORE PUSH1 0x20 ADD SWAP1 DUP2 MSTORE PUSH1 0x20 ADD PUSH1 0x0 KECCAK256 PUSH1 0x0 ADD PUSH1 0x0 DUP3 DUP3 SLOAD PUSH2 0x8F6 SWAP2 SWAP1 PUSH2 0x1001 JUMP JUMPDEST SWAP3 POP POP DUP2 SWAP1 SSTORE POP JUMP JUMPDEST PUSH1 0x0 DUP1 SLOAD SWAP1 PUSH2 0x100 EXP SWAP1 DIV PUSH20 0xFFFFFFFFFFFFFFFFFFFFFFFFFFFFFFFFFFFFFFFF AND PUSH20 0xFFFFFFFFFFFFFFFFFFFFFFFFFFFFFFFFFFFFFFFF AND CALLER PUSH20 0xFFFFFFFFFFFFFFFFFFFFFFFFFFFFFFFFFFFFFFFF AND EQ PUSH2 0x957 JUMPI PUSH1 0x0 DUP1 REVERT JUMPDEST PUSH1 0x0 PUSH1 0x6 PUSH1 0x1 DUP4 PUSH2 0x968 SWAP2 SWAP1 PUSH2 0x10E2 JUMP JUMPDEST DUP2 SLOAD DUP2 LT PUSH2 0x99F JUMPI PUSH32 0x4E487B7100000000000000000000000000000000000000000000000000000000 PUSH1 0x0 MSTORE PUSH1 0x32 PUSH1 0x4 MSTORE PUSH1 0x24 PUSH1 0x0 REVERT JUMPDEST SWAP1 PUSH1 0x0 MSTORE PUSH1 0x20 PUSH1 0x0 KECCAK256 SWAP1 PUSH1 0x6 MUL ADD SWAP1 POP DUP1 PUSH1 0x5 ADD PUSH1 0x0 SWAP1 SLOAD SWAP1 PUSH2 0x100 EXP SWAP1 DIV PUSH1 0xFF AND ISZERO PUSH2 0x9CB JUMPI PUSH1 0x0 DUP1 REVERT JUMPDEST PUSH1 0x0 PUSH1 0x5 SLOAD SWAP1 POP PUSH1 0x0 DUP3 PUSH1 0x4 ADD SLOAD SWAP1 POP PUSH1 0x0 DUP3 PUSH1 0x64 DUP4 PUSH2 0x9EB SWAP2 SWAP1 PUSH2 0x1088 JUMP JUMPDEST PUSH2 0x9F5 SWAP2 SWAP1 PUSH2 0x1057 JUMP JUMPDEST SWAP1 POP PUSH1 0x1 DUP5 PUSH1 0x5 ADD PUSH1 0x0 PUSH2 0x100 EXP DUP2 SLOAD DUP2 PUSH1 0xFF MUL NOT AND SWAP1 DUP4 ISZERO ISZERO MUL OR SWAP1 SSTORE POP PUSH1 0x4 SLOAD DUP2 LT PUSH2 0xA3B JUMPI PUSH1 0x1 DUP5 PUSH1 0x5 ADD PUSH1 0x1 PUSH2 0x100 EXP DUP2 SLOAD DUP2 PUSH1 0xFF MUL NOT AND SWAP1 DUP4 ISZERO ISZERO MUL OR SWAP1 SSTORE POP JUMPDEST POP POP POP POP POP JUMP JUMPDEST PUSH1 0x40 MLOAD DUP1 PUSH2 0x100 ADD PUSH1 0x40 MSTORE DUP1 PUSH1 0x0 DUP2 MSTORE PUSH1 0x20 ADD PUSH1 0x0 PUSH20 0xFFFFFFFFFFFFFFFFFFFFFFFFFFFFFFFFFFFFFFFF AND DUP2 MSTORE PUSH1 0x20 ADD PUSH1 0x60 DUP2 MSTORE PUSH1 0x20 ADD PUSH1 0x0 DUP2 MSTORE PUSH1 0x20 ADD PUSH1 0x0 DUP2 MSTORE PUSH1 0x20 ADD PUSH1 0x0 ISZERO ISZERO DUP2 MSTORE PUSH1 0x20 ADD PUSH1 0x0 ISZERO ISZERO DUP2 MSTORE PUSH1 0x20 ADD PUSH1 0x0 ISZERO ISZERO DUP2 MSTORE POP SWAP1 JUMP JUMPDEST DUP3 DUP1 SLOAD PUSH2 0xAAF SWAP1 PUSH2 0x11A0 JUMP JUMPDEST SWAP1 PUSH1 0x0 MSTORE PUSH1 0x20 PUSH1 0x0 KECCAK256 SWAP1 PUSH1 0x1F ADD PUSH1 0x20 SWAP1 DIV DUP2 ADD SWAP3 DUP3 PUSH2 0xAD1 JUMPI PUSH1 0x0 DUP6 SSTORE PUSH2 0xB18 JUMP JUMPDEST DUP3 PUSH1 0x1F LT PUSH2 0xAEA JUMPI DUP1 MLOAD PUSH1 0xFF NOT AND DUP4 DUP1 ADD OR DUP6 SSTORE PUSH2 0xB18 JUMP JUMPDEST DUP3 DUP1 ADD PUSH1 0x1 ADD DUP6 SSTORE DUP3 ISZERO PUSH2 0xB18 JUMPI SWAP2 DUP3 ADD JUMPDEST DUP3 DUP2 GT ISZERO PUSH2 0xB17 JUMPI DUP3 MLOAD DUP3 SSTORE SWAP2 PUSH1 0x20 ADD SWAP2 SWAP1 PUSH1 0x1 ADD SWAP1 PUSH2 0xAFC JUMP JUMPDEST JUMPDEST POP SWAP1 POP PUSH2 0xB25 SWAP2 SWAP1 PUSH2 0xB29 JUMP JUMPDEST POP SWAP1 JUMP JUMPDEST JUMPDEST DUP1 DUP3 GT ISZERO PUSH2 0xB42 JUMPI PUSH1 0x0 DUP2 PUSH1 0x0 SWAP1 SSTORE POP PUSH1 0x1 ADD PUSH2 0xB2A JUMP JUMPDEST POP SWAP1 JUMP JUMPDEST PUSH1 0x0 PUSH2 0xB59 PUSH2 0xB54 DUP5 PUSH2 0xFA4 JUMP JUMPDEST PUSH2 0xF73 JUMP JUMPDEST SWAP1 POP DUP3 DUP2 MSTORE PUSH1 0x20 DUP2 ADD DUP5 DUP5 DUP5 ADD GT ISZERO PUSH2 0xB71 JUMPI PUSH1 0x0 DUP1 REVERT JUMPDEST PUSH2 0xB7C DUP5 DUP3 DUP6 PUSH2 0x115E JUMP JUMPDEST POP SWAP4 SWAP3 POP POP POP JUMP JUMPDEST PUSH1 0x0 DUP2 CALLDATALOAD SWAP1 POP PUSH2 0xB93 DUP2 PUSH2 0x12E8 JUMP JUMPDEST SWAP3 SWAP2 POP POP JUMP JUMPDEST PUSH1 0x0 DUP2 CALLDATALOAD SWAP1 POP PUSH2 0xBA8 DUP2 PUSH2 0x12FF JUMP JUMPDEST SWAP3 SWAP2 POP POP JUMP JUMPDEST PUSH1 0x0 DUP3 PUSH1 0x1F DUP4 ADD SLT PUSH2 0xBBF JUMPI PUSH1 0x0 DUP1 REVERT JUMPDEST DUP2 CALLDATALOAD PUSH2 0xBCF DUP5 DUP3 PUSH1 0x20 DUP7 ADD PUSH2 0xB46 JUMP JUMPDEST SWAP2 POP POP SWAP3 SWAP2 POP POP JUMP JUMPDEST PUSH1 0x0 DUP2 CALLDATALOAD SWAP1 POP PUSH2 0xBE7 DUP2 PUSH2 0x1316 JUMP JUMPDEST SWAP3 SWAP2 POP POP JUMP JUMPDEST PUSH1 0x0 DUP1 PUSH1 0x0 PUSH1 0x60 DUP5 DUP7 SUB SLT ISZERO PUSH2 0xC02 JUMPI PUSH1 0x0 DUP1 REVERT JUMPDEST PUSH1 0x0 DUP5 ADD CALLDATALOAD PUSH8 0xFFFFFFFFFFFFFFFF DUP2 GT ISZERO PUSH2 0xC1C JUMPI PUSH1 0x0 DUP1 REVERT JUMPDEST PUSH2 0xC28 DUP7 DUP3 DUP8 ADD PUSH2 0xBAE JUMP JUMPDEST SWAP4 POP POP PUSH1 0x20 PUSH2 0xC39 DUP7 DUP3 DUP8 ADD PUSH2 0xBD8 JUMP JUMPDEST SWAP3 POP POP PUSH1 0x40 PUSH2 0xC4A DUP7 DUP3 DUP8 ADD PUSH2 0xB84 JUMP JUMPDEST SWAP2 POP POP SWAP3 POP SWAP3 POP SWAP3 JUMP JUMPDEST PUSH1 0x0 PUSH1 0x20 DUP3 DUP5 SUB SLT ISZERO PUSH2 0xC66 JUMPI PUSH1 0x0 DUP1 REVERT JUMPDEST PUSH1 0x0 PUSH2 0xC74 DUP5 DUP3 DUP6 ADD PUSH2 0xBD8 JUMP JUMPDEST SWAP2 POP POP SWAP3 SWAP2 POP POP JUMP JUMPDEST PUSH1 0x0 DUP1 PUSH1 0x40 DUP4 DUP6 SUB SLT ISZERO PUSH2 0xC90 JUMPI PUSH1 0x0 DUP1 REVERT JUMPDEST PUSH1 0x0 PUSH2 0xC9E DUP6 DUP3 DUP7 ADD PUSH2 0xBD8 JUMP JUMPDEST SWAP3 POP POP PUSH1 0x20 PUSH2 0xCAF DUP6 DUP3 DUP7 ADD PUSH2 0xB99 JUMP JUMPDEST SWAP2 POP POP SWAP3 POP SWAP3 SWAP1 POP JUMP JUMPDEST PUSH2 0xCC2 DUP2 PUSH2 0x1116 JUMP JUMPDEST DUP3 MSTORE POP POP JUMP JUMPDEST PUSH2 0xCD1 DUP2 PUSH2 0x1116 JUMP JUMPDEST DUP3 MSTORE POP POP JUMP JUMPDEST PUSH2 0xCE0 DUP2 PUSH2 0x1128 JUMP JUMPDEST DUP3 MSTORE POP POP JUMP JUMPDEST PUSH2 0xCEF DUP2 PUSH2 0x1128 JUMP JUMPDEST DUP3 MSTORE POP POP JUMP JUMPDEST PUSH1 0x0 PUSH2 0xD00 DUP3 PUSH2 0xFD4 JUMP JUMPDEST PUSH2 0xD0A DUP2 DUP6 PUSH2 0xFDF JUMP JUMPDEST SWAP4 POP PUSH2 0xD1A DUP2 DUP6 PUSH1 0x20 DUP7 ADD PUSH2 0x116D JUMP JUMPDEST PUSH2 0xD23 DUP2 PUSH2 0x12D7 JUMP JUMPDEST DUP5 ADD SWAP2 POP POP SWAP3 SWAP2 POP POP JUMP JUMPDEST PUSH1 0x0 PUSH2 0xD39 DUP3 PUSH2 0xFD4 JUMP JUMPDEST PUSH2 0xD43 DUP2 DUP6 PUSH2 0xFF0 JUMP JUMPDEST SWAP4 POP PUSH2 0xD53 DUP2 DUP6 PUSH1 0x20 DUP7 ADD PUSH2 0x116D JUMP JUMPDEST PUSH2 0xD5C DUP2 PUSH2 0x12D7 JUMP JUMPDEST DUP5 ADD SWAP2 POP POP SWAP3 SWAP2 POP POP JUMP JUMPDEST PUSH1 0x0 PUSH2 0x100 DUP4 ADD PUSH1 0x0 DUP4 ADD MLOAD PUSH2 0xD80 PUSH1 0x0 DUP7 ADD DUP3 PUSH2 0xE17 JUMP JUMPDEST POP PUSH1 0x20 DUP4 ADD MLOAD PUSH2 0xD93 PUSH1 0x20 DUP7 ADD DUP3 PUSH2 0xCB9 JUMP JUMPDEST POP PUSH1 0x40 DUP4 ADD MLOAD DUP5 DUP3 SUB PUSH1 0x40 DUP7 ADD MSTORE PUSH2 0xDAB DUP3 DUP3 PUSH2 0xCF5 JUMP JUMPDEST SWAP2 POP POP PUSH1 0x60 DUP4 ADD MLOAD PUSH2 0xDC0 PUSH1 0x60 DUP7 ADD DUP3 PUSH2 0xE17 JUMP JUMPDEST POP PUSH1 0x80 DUP4 ADD MLOAD PUSH2 0xDD3 PUSH1 0x80 DUP7 ADD DUP3 PUSH2 0xE17 JUMP JUMPDEST POP PUSH1 0xA0 DUP4 ADD MLOAD PUSH2 0xDE6 PUSH1 0xA0 DUP7 ADD DUP3 PUSH2 0xCD7 JUMP JUMPDEST POP PUSH1 0xC0 DUP4 ADD MLOAD PUSH2 0xDF9 PUSH1 0xC0 DUP7 ADD DUP3 PUSH2 0xCD7 JUMP JUMPDEST POP PUSH1 0xE0 DUP4 ADD MLOAD PUSH2 0xE0C PUSH1 0xE0 DUP7 ADD DUP3 PUSH2 0xCD7 JUMP JUMPDEST POP DUP1 SWAP2 POP POP SWAP3 SWAP2 POP POP JUMP JUMPDEST PUSH2 0xE20 DUP2 PUSH2 0x1154 JUMP JUMPDEST DUP3 MSTORE POP POP JUMP JUMPDEST PUSH2 0xE2F DUP2 PUSH2 0x1154 JUMP JUMPDEST DUP3 MSTORE POP POP JUMP JUMPDEST PUSH1 0x0 PUSH1 0x20 DUP3 ADD SWAP1 POP PUSH2 0xE4A PUSH1 0x0 DUP4 ADD DUP5 PUSH2 0xCC8 JUMP JUMPDEST SWAP3 SWAP2 POP POP JUMP JUMPDEST PUSH1 0x0 PUSH1 0x20 DUP3 ADD SWAP1 POP DUP2 DUP2 SUB PUSH1 0x0 DUP4 ADD MSTORE PUSH2 0xE6A DUP2 DUP5 PUSH2 0xD67 JUMP JUMPDEST SWAP1 POP SWAP3 SWAP2 POP POP JUMP JUMPDEST PUSH1 0x0 PUSH1 0x20 DUP3 ADD SWAP1 POP PUSH2 0xE87 PUSH1 0x0 DUP4 ADD DUP5 PUSH2 0xE26 JUMP JUMPDEST SWAP3 SWAP2 POP POP JUMP JUMPDEST PUSH1 0x0 PUSH2 0x100 DUP3 ADD SWAP1 POP PUSH2 0xEA3 PUSH1 0x0 DUP4 ADD DUP12 PUSH2 0xE26 JUMP JUMPDEST PUSH2 0xEB0 PUSH1 0x20 DUP4 ADD DUP11 PUSH2 0xCC8 JUMP JUMPDEST DUP2 DUP2 SUB PUSH1 0x40 DUP4 ADD MSTORE PUSH2 0xEC2 DUP2 DUP10 PUSH2 0xD2E JUMP JUMPDEST SWAP1 POP PUSH2 0xED1 PUSH1 0x60 DUP4 ADD DUP9 PUSH2 0xE26 JUMP JUMPDEST PUSH2 0xEDE PUSH1 0x80 DUP4 ADD DUP8 PUSH2 0xE26 JUMP JUMPDEST PUSH2 0xEEB PUSH1 0xA0 DUP4 ADD DUP7 PUSH2 0xCE6 JUMP JUMPDEST PUSH2 0xEF8 PUSH1 0xC0 DUP4 ADD DUP6 PUSH2 0xCE6 JUMP JUMPDEST PUSH2 0xF05 PUSH1 0xE0 DUP4 ADD DUP5 PUSH2 0xCE6 JUMP JUMPDEST SWAP10 SWAP9 POP POP POP POP POP POP POP POP POP JUMP JUMPDEST PUSH1 0x0 PUSH1 0xC0 DUP3 ADD SWAP1 POP PUSH2 0xF27 PUSH1 0x0 DUP4 ADD DUP10 PUSH2 0xE26 JUMP JUMPDEST PUSH2 0xF34 PUSH1 0x20 DUP4 ADD DUP9 PUSH2 0xE26 JUMP JUMPDEST PUSH2 0xF41 PUSH1 0x40 DUP4 ADD DUP8 PUSH2 0xE26 JUMP JUMPDEST PUSH2 0xF4E PUSH1 0x60 DUP4 ADD DUP7 PUSH2 0xE26 JUMP JUMPDEST PUSH2 0xF5B PUSH1 0x80 DUP4 ADD DUP6 PUSH2 0xE26 JUMP JUMPDEST PUSH2 0xF68 PUSH1 0xA0 DUP4 ADD DUP5 PUSH2 0xCC8 JUMP JUMPDEST SWAP8 SWAP7 POP POP POP POP POP POP POP JUMP JUMPDEST PUSH1 0x0 PUSH1 0x40 MLOAD SWAP1 POP DUP2 DUP2 ADD DUP2 DUP2 LT PUSH8 0xFFFFFFFFFFFFFFFF DUP3 GT OR ISZERO PUSH2 0xF9A JUMPI PUSH2 0xF99 PUSH2 0x12A8 JUMP JUMPDEST JUMPDEST DUP1 PUSH1 0x40 MSTORE POP SWAP2 SWAP1 POP JUMP JUMPDEST PUSH1 0x0 PUSH8 0xFFFFFFFFFFFFFFFF DUP3 GT ISZERO PUSH2 0xFBF JUMPI PUSH2 0xFBE PUSH2 0x12A8 JUMP JUMPDEST JUMPDEST PUSH1 0x1F NOT PUSH1 0x1F DUP4 ADD AND SWAP1 POP PUSH1 0x20 DUP2 ADD SWAP1 POP SWAP2 SWAP1 POP JUMP JUMPDEST PUSH1 0x0 DUP2 MLOAD SWAP1 POP SWAP2 SWAP1 POP JUMP JUMPDEST PUSH1 0x0 DUP3 DUP3 MSTORE PUSH1 0x20 DUP3 ADD SWAP1 POP SWAP3 SWAP2 POP POP JUMP JUMPDEST PUSH1 0x0 DUP3 DUP3 MSTORE PUSH1 0x20 DUP3 ADD SWAP1 POP SWAP3 SWAP2 POP POP JUMP JUMPDEST PUSH1 0x0 PUSH2 0x100C DUP3 PUSH2 0x1154 JUMP JUMPDEST SWAP2 POP PUSH2 0x1017 DUP4 PUSH2 0x1154 JUMP JUMPDEST SWAP3 POP DUP3 PUSH32 0xFFFFFFFFFFFFFFFFFFFFFFFFFFFFFFFFFFFFFFFFFFFFFFFFFFFFFFFFFFFFFFFF SUB DUP3 GT ISZERO PUSH2 0x104C JUMPI PUSH2 0x104B PUSH2 0x121B JUMP JUMPDEST JUMPDEST DUP3 DUP3 ADD SWAP1 POP SWAP3 SWAP2 POP POP JUMP JUMPDEST PUSH1 0x0 PUSH2 0x1062 DUP3 PUSH2 0x1154 JUMP JUMPDEST SWAP2 POP PUSH2 0x106D DUP4 PUSH2 0x1154 JUMP JUMPDEST SWAP3 POP DUP3 PUSH2 0x107D JUMPI PUSH2 0x107C PUSH2 0x124A JUMP JUMPDEST JUMPDEST DUP3 DUP3 DIV SWAP1 POP SWAP3 SWAP2 POP POP JUMP JUMPDEST PUSH1 0x0 PUSH2 0x1093 DUP3 PUSH2 0x1154 JUMP JUMPDEST SWAP2 POP PUSH2 0x109E DUP4 PUSH2 0x1154 JUMP JUMPDEST SWAP3 POP DUP2 PUSH32 0xFFFFFFFFFFFFFFFFFFFFFFFFFFFFFFFFFFFFFFFFFFFFFFFFFFFFFFFFFFFFFFFF DIV DUP4 GT DUP3 ISZERO ISZERO AND ISZERO PUSH2 0x10D7 JUMPI PUSH2 0x10D6 PUSH2 0x121B JUMP JUMPDEST JUMPDEST DUP3 DUP3 MUL SWAP1 POP SWAP3 SWAP2 POP POP JUMP JUMPDEST PUSH1 0x0 PUSH2 0x10ED DUP3 PUSH2 0x1154 JUMP JUMPDEST SWAP2 POP PUSH2 0x10F8 DUP4 PUSH2 0x1154 JUMP JUMPDEST SWAP3 POP DUP3 DUP3 LT ISZERO PUSH2 0x110B JUMPI PUSH2 0x110A PUSH2 0x121B JUMP JUMPDEST JUMPDEST DUP3 DUP3 SUB SWAP1 POP SWAP3 SWAP2 POP POP JUMP JUMPDEST PUSH1 0x0 PUSH2 0x1121 DUP3 PUSH2 0x1134 JUMP JUMPDEST SWAP1 POP SWAP2 SWAP1 POP JUMP JUMPDEST PUSH1 0x0 DUP2 ISZERO ISZERO SWAP1 POP SWAP2 SWAP1 POP JUMP JUMPDEST PUSH1 0x0 PUSH20 0xFFFFFFFFFFFFFFFFFFFFFFFFFFFFFFFFFFFFFFFF DUP3 AND SWAP1 POP SWAP2 SWAP1 POP JUMP JUMPDEST PUSH1 0x0 DUP2 SWAP1 POP SWAP2 SWAP1 POP JUMP JUMPDEST DUP3 DUP2 DUP4 CALLDATACOPY PUSH1 0x0 DUP4 DUP4 ADD MSTORE POP POP POP JUMP JUMPDEST PUSH1 0x0 JUMPDEST DUP4 DUP2 LT ISZERO PUSH2 0x118B JUMPI DUP1 DUP3 ADD MLOAD DUP2 DUP5 ADD MSTORE PUSH1 0x20 DUP2 ADD SWAP1 POP PUSH2 0x1170 JUMP JUMPDEST DUP4 DUP2 GT ISZERO PUSH2 0x119A JUMPI PUSH1 0x0 DUP5 DUP5 ADD MSTORE JUMPDEST POP POP POP POP JUMP JUMPDEST PUSH1 0x0 PUSH1 0x2 DUP3 DIV SWAP1 POP PUSH1 0x1 DUP3 AND DUP1 PUSH2 0x11B8 JUMPI PUSH1 0x7F DUP3 AND SWAP2 POP JUMPDEST PUSH1 0x20 DUP3 LT DUP2 EQ ISZERO PUSH2 0x11CC JUMPI PUSH2 0x11CB PUSH2 0x1279 JUMP JUMPDEST JUMPDEST POP SWAP2 SWAP1 POP JUMP JUMPDEST PUSH1 0x0 PUSH2 0x11DD DUP3 PUSH2 0x1154 JUMP JUMPDEST SWAP2 POP PUSH32 0xFFFFFFFFFFFFFFFFFFFFFFFFFFFFFFFFFFFFFFFFFFFFFFFFFFFFFFFFFFFFFFFF DUP3 EQ ISZERO PUSH2 0x1210 JUMPI PUSH2 0x120F PUSH2 0x121B JUMP JUMPDEST JUMPDEST PUSH1 0x1 DUP3 ADD SWAP1 POP SWAP2 SWAP1 POP JUMP JUMPDEST PUSH32 0x4E487B7100000000000000000000000000000000000000000000000000000000 PUSH1 0x0 MSTORE PUSH1 0x11 PUSH1 0x4 MSTORE PUSH1 0x24 PUSH1 0x0 REVERT JUMPDEST PUSH32 0x4E487B7100000000000000000000000000000000000000000000000000000000 PUSH1 0x0 MSTORE PUSH1 0x12 PUSH1 0x4 MSTORE PUSH1 0x24 PUSH1 0x0 REVERT JUMPDEST PUSH32 0x4E487B7100000000000000000000000000000000000000000000000000000000 PUSH1 0x0 MSTORE PUSH1 0x22 PUSH1 0x4 MSTORE PUSH1 0x24 PUSH1 0x0 REVERT JUMPDEST PUSH32 0x4E487B7100000000000000000000000000000000000000000000000000000000 PUSH1 0x0 MSTORE PUSH1 0x41 PUSH1 0x4 MSTORE PUSH1 0x24 PUSH1 0x0 REVERT JUMPDEST PUSH1 0x0 PUSH1 0x1F NOT PUSH1 0x1F DUP4 ADD AND SWAP1 POP SWAP2 SWAP1 POP JUMP JUMPDEST PUSH2 0x12F1 DUP2 PUSH2 0x1116 JUMP JUMPDEST DUP2 EQ PUSH2 0x12FC JUMPI PUSH1 0x0 DUP1 REVERT JUMPDEST POP JUMP JUMPDEST PUSH2 0x1308 DUP2 PUSH2 0x1128 JUMP JUMPDEST DUP2 EQ PUSH2 0x1313 JUMPI PUSH1 0x0 DUP1 REVERT JUMPDEST POP JUMP JUMPDEST PUSH2 0x131F DUP2 PUSH2 0x1154 JUMP JUMPDEST DUP2 EQ PUSH2 0x132A JUMPI PUSH1 0x0 DUP1 REVERT JUMPDEST POP JUMP INVALID LOG2 PUSH5 0x6970667358 0x22 SLT KECCAK256 PUSH31 0xFE6557234796115C384B33291059A870541E69135A4C66F5AE7F7991517CD PUSH5 0x736F6C6343 STOP ADDMOD STOP STOP CALLER LOG2 PUSH5 0x6970667358 0x22 SLT KECCAK256 SWAP10 PUSH32 0x5C0BDCBE6C6D01B91E8737EB7F0AFFE39EA1C929492D823BED9F0DA63ECD6473 PUSH16 0x6C634300080000330000000000000000 "},"gasEstimates":{"creation":{"codeDepositCost":"1338200","executionCost":"22263","totalCost":"1360463"},"external":{"createCampaign(uint256,uint256)":"infinite","deployedCampaigns(uint256)":"2399","getDeployedCampaigns()":"infinite","manager()":"1233"}},"methodIdentifiers":{"createCampaign(uint256,uint256)":"22502268","deployedCampaigns(uint256)":"339d50a5","getDeployedCampaigns()":"4acb9d4f","manager()":"481c6a75"}},"storageLayout":{"storage":[{"astId":4,"contract":"campaign.sol:factory","label":"manager","offset":0,"slot":"0","type":"t_address"},{"astId":8,"contract":"campaign.sol:factory","label":"deployedCampaigns","offset":0,"slot":"1","type":"t_array(t_contract(campaign)381)dyn_storage"}],"types":{"t_address":{"encoding":"inplace","label":"address","numberOfBytes":"20"},"t_array(t_contract(campaign)381)dyn_storage":{"base":"t_contract(campaign)381","encoding":"dynamic_array","label":"contract campaign[]","numberOfBytes":"32"},"t_contract(campaign)381":{"encoding":"inplace","label":"contract campaign","numberOfBytes":"20"}}},"userdoc":{"kind":"user","methods":{},"version":1}}